:100000000C94DD040C9415050C9415050C94150541
:100010000C9415050C9415050C9415050C941505F8
:100020000C9415050C9415050C94EF2C0C94C72D0D
:100030000C94A42C0C9415050C9415050C94150522
:100040000C9415050C9415050C9415050C941505C8
:100050000C9415050C94CB2C0C9415050C941505DB
:100060000C9415050C9415050C9415050C941505A8
:100070000C9415050C9415050C9415050C94150598
:100080000C9415050C9415050C9415050C94150588
:100090000C9415050C9415050C9415050C94150578
:1000A0000C9415050C9415050C9415050501090211
:1000B000A10185020901A1000509190129081500FE
:1000C0002501950875018102050109300931158165
:1000D000257F95027508810609381581257F9501D0
:1000E00075088106050C0A38021581257F95017572
:1000F000088106C0C005010980A101850319012AF4
:10010000B700150126B700950175108100C0050CD8
:100110000901A101850419012AA002150126A002E6
:10012000950175108100C005010906A1018506052C
:100130000719E029E71500250195087501810205D9
:1001400007190029EF1500250195F07501810205B9
:10015000081901290595057501910295017503910D
:1001600001C00660FF0961A1010962150026FF00B8
:100170009520750881020963150026FF00952075FA
:10018000089102C005010906A101050719E029E748
:1001900015002501950875018102950175088101F9
:1001A0000507190029FF150026FF0095067508812F
:1001B000000508190129051500250195057501910E
:1001C00002950175039101C00000000000000000CD
:1001D000000000000000000000000000000000001F
:1001E0000000000000000000000000007E0F00D4AE
:1001F000FFFFFFC7000000780000000000000000C3
:100200002A2B280000000000000000000000000071
:1002100000000029000000002C1E3420212224347C
:100220002627252E362D3738271E1F20212223244E
:1002300025263333362E37381F0405060708090AEA
:100240000B0C0D0E0F101112131415161718191A86
:100250001B1C1D2F3130232D350405060708090A04
:100260000B0C0D0E0F101112131415161718191A66
:100270001B1C1D2F3130354C09025B00030100A00F
:10028000FA09040000010301010009211101000124
:10029000224400070581030800010904010002034C
:1002A000000000092111010001222200070582033C
:1002B00020000107050303200001090402000103D7
:1002C00000000009211101000122B6000705840386
:1002D0002000011201000200000008F1F1250001D8
:1002E000000102000112034200550050007000613D
:1002F0000064003200350000001A035300700069EA
:1003000000640065007200490073006C0061006EBB
:100310000064000000040309040152177E257E2AB0
:100320007E217E1C7E1B7E157E427E0A7E397E28C3
:100330007E207E297E337E067E367E467E527E106D
:100340007E0C7E377E117E007E2800005205520210
:100350005203520452477E1E7E237E437E3D7E3EE4
:100360007E037E197E4C7E4E7E077E2E7E047E327C
:100370007E3A7E3C7E1A7E487E1F7E280000520117
:1003800052055203520452227E4F7E187E497E0B44
:100390007E147E1D7E2C7E317E087E127E0F7E13A3
:1003A0007E447E537E057E307E417E247E28000082
:1003B000520152025205520452097E0D7E3F7E4B7D
:1003C0007E4A7E387E2B7E0E7E517E507E2D7E3B79
:1003D0007E407E457E2F7E277E267E167E347E28BA
:1003E000000052015202520352055253005F006056
:1003F000006100560054005C005D005E005700552F
:100400000059005A005B002E004D7E357E6200636D
:100410000028000052015202520352045221782750
:100420007823782578297822782878247826782ADD
:1004300078000000000000000000002B782C782DD0
:10044000782E7820780001010101010101010102EB
:100450000202020202020202030303030303030374
:10046000040404040404040505050505060606063F
:1004700006070707070708080808090909090A0AFB
:100480000A0B0B0B0C0C0C0D0D0D0E0E0E0F0F0F9F
:10049000101011111112121313141415151616172A
:1004A00017181819191A1A1B1B1C1D1D1E1E1F2098
:1004B00020212222232424252626272829292A2BE5
:1004C0002C2D2D2E2F30313232333435363738390A
:1004D0003A3B3C3D3E3F4041424344454647484904
:1004E0004A4C4D4E4F50515354555658595A5B5DD6
:1004F0005E5F616264656668696B6C6D6F70727374
:100500007577787A7B7D7E8082838587888A8C8EDA
:100510008F91939596989A9C9EA0A2A3A5A7A9AB0C
:10052000ADAFB1B3B5B7BABCBEC0C2C4C6C9CBCDFE
:10053000CFD1D4D6D8DBDDDFE2E4E7E9EBEEF0F3B0
:10054000F5F8FAFDFF566F74655965612000566F26
:1005500074654E61792000547769746368556E69DB
:10056000747920007477697463685261696420004B
:100570005477697463684C697420005477697463B4
:1005800068436F6E485950452000546F6D62526148
:10059000696420005374696E6B794368656573659F
:1005A000200053696E67734E6F7465200053696E47
:1005B00067734D696320005361626150696E672003
:1005C0000072695065707065726F6E6973200050BB
:1005D0006F7765725570522000506F776572557055
:1005E0004C20004E6F744C696B6554686973200031
:1005F0004D6F644C6F766520004B7265796761734F
:100600006D20004B617070612000476F6C64504C2E
:100610005A2000476F6174456D6F746579200047FB
:100620006C697463684C6974200044696E6F44613E
:100630006E63652000426F70426F702000424F5021
:1006400020004269626C655468756D7020006275A7
:10065000705A454C444142555020006275705A65AD
:100660006A69626F2000627570575542200062759A
:1006700070574F4F4B200062757057697A200062A7
:10068000757057696E6B2000627570574156452032
:1006900000627570576174657220006275705557FD
:1006A0005520006275705570200062757054494E77
:1006B000464F494C200020627570544945445945C5
:1006C00020006275705468696E6720002062757042
:1006D0005448414E4B5320006275705377656174E6
:1006E00079200062757053706F6F6B7920006275AE
:1006F00070536D69726B2000627570536C61792064
:10070000006275705368200062757053616C757477
:100710006520006275705341424552200062757039
:1007200052756D70200062757052657665727365E2
:1007300020006275705261766520006275705241CA
:10074000494E424F572000627570506C756720000B
:1007500062757050415442414E4720006275704EA0
:100760006F6420006275704D4F4F534520006275D5
:10077000704C4F564520006275704C69676874650F
:100780007220006275704B45595320006275704BA2
:10079000656B7720006275704A656C6C7920006229
:1007A00075704A41574E4553534120006275704958
:1007B000442000627570484F524E200062757048A8
:1007C000656172742000627570484541444F55540C
:1007D000200062757047726F677520006275704700
:1007E0006F6F73652000627570476C757465732058
:1007F0000062757046524F47200062757046726500
:10080000616B6F75742000627570464C55544520BD
:100810000062757046697265200062757045796581
:10082000200062757045452000627570447965202E
:10083000006275704475636B686561642000627561
:10084000704455434B44414E43452000627570440B
:1008500072756D732000627570447261676F6E20EF
:1008600000627570446F6E75742000627570444F3D
:1008700049542000627570446973636F200062758B
:10088000704469646479200062757043726F776E9A
:100890002000627570436C6F756473200062757020
:1008A000436865666B6973732000627570436865A1
:1008B00065736520006275704348454552532000BA
:1008C00062757043415444414E4345200062757047
:1008D00043616C6C20006275704255505741442052
:1008E0000062757042555053200062757042555039
:1008F0002000627570427567200062757042726FE9
:10090000632000627570424F4F4D45522000627562
:1009100070424F4220006275704249545320006279
:100920007570426967427261696E2000627570423B
:100930004541524444414E43452000627570424156
:1009400053535346414345200062757042617274AF
:10095000200062757042616C6C6F6F6E2000627572
:10096000704261636B446F6F7220006275704179F1
:100970006F2000627570417363656E64200062755C
:10098000704163696420000102E0616376767676E7
:100990007676767676760103E0000102E061637692
:1009A000767676767676760103E0000102E0616382
:1009B00076767676760103E0000011241FBECFEF35
:1009C000DAE0DEBFCDBF04B603FE18C08091E503B8
:1009D0009091E603A091E703B091E8038730904B34
:1009E000A740B04B59F41092E5031092E603109221
:1009F000E7031092E803E0E0F8E3099512E0A0E0D5
:100A0000B1E0E0E6F0E602C005900D92AC32B1072D
:100A1000D9F723E0ACE2B2E001C01D92A53EB207D7
:100A2000E1F70E9460270C942E2F0C940000982F61
:100A300092959F7024E0911102C020E0982F892F99
:100A400086958695811511F02E5F982F892F8695B2
:100A5000820F089580939E03089580939F030895C5
:100A600021E030E001C0220F8A95EAF780919F03D0
:100A7000822B0E942D05089521E030E0A90102C0DB
:100A8000440F551F8A95E2F7CA01809590919F0304
:100A900089230E942D050895292F953090F58530E2
:100AA00080F590E035E0239F800D911D1124282FC3
:100AB000277041E001C0440F2A95EAF723E096959C
:100AC00087952A95E1F7FC01EE0FFF1FE80FF91F4C
:100AD000E458FC4F20E030E070E05191DF01CB01A1
:100AE000022E02C0969587950A94E2F7817081954F
:100AF0008527842385278E932F5F3F4F2330310531
:100B000061F70895292F953078F5853068F590E0E4
:100B100035E0239F800D911D1124682F677023E01D
:100B2000969587952A95E1F7FC01EE0FFF1FE80FD8
:100B3000F91FE458FC4F40E050E080E0219130E0A4
:100B4000062E02C0369527950A94E2F721703327C6
:100B5000042E01C0220F0A94EAF7822B4F5F5F4FE9
:100B60004330510559F7089580E0089590919F030F
:100B700021E030E0F90101C0EE0F8A95EAF7D901D2
:100B800002C0AA0FBB1F6A95E2F7EA2B01C0220F31
:100B90004A95EAF7892F8E23E81305C0892F822B07
:100BA0000E942D0508952095822F8923F9CF8091E9
:100BB000A5039091A403981301C008958F5F8770D7
:100BC000FACF9091A003809589238093A003282FCA
:100BD000277021110DC0891759F09091A20392FF3F
:100BE00007C08695869586950E943C051092A003C5
:100BF000089580919B039091A303892B50919C03AE
:100C0000511591F090910F01911521F09091A10350
:100C100097FD0BC096E020E332E040E0915048F4AD
:100C2000411110929C03852B08959EE128E332E048
:100C3000F4CFF90161919F01611581F34F5FEECF10
:100C4000982F909580919B03892380939B0308950F
:100C50009C01803E910509F448C0D8F48133910588
:100C600009F47DC048F48932910509F46DC08A9772
:100C700009F47CC0C90108958933910551F1823886
:100C8000910539F1C597B1F78091A10385FFF2CFA6
:100C900029C0843E910509F447C048F4823E91057D
:100CA00099F1833E9105A9F121EE30E0E3CF863E34
:100CB000910509F444C0873E9105E1F68091A103B6
:100CC00083FD61C09091A20391FF2BC024EE30E020
:100CD000D1CF8091A1038370811152C08091A20372
:100CE00083FFC8CF29E230E0C5CF8091A10380FD0A
:100CF00033C09091A20390FFBDCF23EE30E084FF7C
:100D0000B9CF20E030E0B6CF8091A10382FDF5CFCE
:100D1000B1CF8091A10382FD30C09091A20390FDDC
:100D20002FC084FFA7CFEDCF8091A20381FFA2CF78
:100D30008091A10327EE30E084FDE3CF9BCF80912B
:100D4000A10383FDF7CF96CF8091A10385FD1EC03F
:100D50008091A20383FF8ECF29E330E08BCF809177
:100D6000A10386FF87CF2AE230E084CF8091A103E0
:100D700086FF80CF21E330E07DCF22EE30E07ACFD6
:100D800020EE30E077CF26EE30E074CF25E330E080
:100D900071CF9091A10392FF10C041E0282F2471E0
:100DA000243009F040E031E0282F2871283009F084
:100DB00030E0431711F02CE0822793FF10C041E090
:100DC000282F2471243109F040E031E0282F2871C8
:100DD000283109F030E0431711F02CE082273091E0
:100DE000A20330FF10C051E0282F2171213009F0FB
:100DF00050E041E0282F2871283009F040E05417D6
:100E000011F029E0822731FF10C041E0282F217125
:100E1000213109F040E031E0282F2871283109F014
:100E200030E0431711F029E0822794FD877E089572
:100E30001F93CF93DF930E942806EC01811522E5D2
:100E4000920708F055C0811540E5940708F0D1C01D
:100E5000803E910520F58D3C910508F0A4C0883AAC
:100E6000910570F4853A910508F09AC0813091059A
:100E7000D1F10497813A9105B0F1C0E0D0E033C0E0
:100E8000885A91094B97C8F7C85AD0E0CC0FDD1F9C
:100E9000C054DE4F0990D881C02DD46424C0811580
:100EA00050E49507C0F4C11580E2D80708F0B7C038
:100EB000C83ED105C0F0CE019A9581159F41E8F654
:100EC0008D2F0E94C906182FCE0199270E9428064F
:100ED000EC01D12B08C099270E942806CC27DF708F
:100EE000C82BD92BD06ACE01DF91CF911F910895E5
:100EF000803842E59407C8F5803652E5950708F03A
:100F00005BC0C03482E5D807D0F4C03292E5D9077F
:100F100008F04BC08C2F8695869520E2829FC001F9
:100F20001124C37021E030E0A90102C0440F551F15
:100F3000CA95E2F7EA01C82BD92BDD68D4CF8C2FF4
:100F400086958695877050E2859FC0011124C370F5
:100F500021E030E0A90102C0440F551FCA95E2F715
:100F6000EA01C82BD92BDC68BECF803C52E595073F
:100F700058F48F71C03AD245A0F590E0982F882799
:100F8000EC01C46FD06AAFCF805C9245809708F0C7
:100F900074CFDC2FCC27CC27DF71C06FD06AA3CFF2
:100FA000A497D064A0CFD0659ECFCF71D0E0DC2FC6
:100FB000CC27C16FD06A97CF86958695877020E23F
:100FC000829FC0011124C37021E030E0A90102C05A
:100FD000440F551FCA95E2F7EA01C82BD92BDA68EE
:100FE00082CF0E94C906C82FD0E0DC2FCC27D06268
:100FF0007ACF8F710E94C90693E0CC0FDD1F9A95BE
:10100000E1F7CC27DF70282F30E084FF04C050E1E7
:10101000859F90011124C22BD32BD06964CF8D2FD3
:101020008F710E94C906182FCE0199270E942806A9
:10103000EC01D12BDCCF80E00895F894E82FE29505
:10104000EF70F0E041A18F7021E030E0B90102C003
:10105000660F771F8A95E2F7CB01962F9095942320
:1010600091A392A1892B82A378940895A0E0B0E087
:10107000ECE3F8E00C94712E372FE82FF0E0EB5BF7
:10108000FB4F71110AC0E4918E2F2E2F6E2F722FFD
:10109000CDB7DEB7E7E00C948D2E062F10E0E72EDB
:1010A000F12CD4902D2D86E0689FE0011124EFEF04
:1010B000F0E0CE01BF010E94122E000F111F45E586
:1010C000469FC001479F900D1124081B190B402F0C
:1010D000440F400F8F010E191F09D09ED001D19EE1
:1010E000B00D11248B2F349F80011124012F112763
:1010F0007F01E01AF10A8701D09E7001D19EF00CA9
:1011000011248F01041B1109A801349F8001359F10
:10111000100D1124012F1127E01BF10BDE9EA00101
:10112000DF9E500D1124E52F63307105C1F0CC3FD7
:10113000D34058F461307105B1F06230710509F0A7
:10114000A5CFED2D2B2F852FA1CF6430710571F028
:101150006630710509F49ACFEB2F8F2D97CF2B2F87
:101160008D2DEF2D93CFED2D2F2D90CFEB2F8D2D9E
:10117000252F8CCF9C0180E090E0269F812D369F0B
:10118000800D911D11240895AC018230910508F461
:1011900008959FEF413E8EE1580740F4CA0125E0D3
:1011A000969587952A95E1F798E0980F61E0E62FEC
:1011B000E90FFF27FF1F9F0135952795822F229F5B
:1011C000F001239FF00DF00D11244E175F0738F446
:1011D0009FEF920F961758F78FEF860F08952F3FC6
:1011E000E9F361E0620FF6CF982FE82F96FDE095C6
:1011F0008E2F8F7096FD8F5FE695E695E695E670EB
:10120000F0E0EE5CFE4F2181289F202D812D1124DE
:1012100022952F708295807F282B8081820F97FDE9
:10122000819580580895FC019B01009719F4832F44
:1012300080780895AC0197FF04C044275527481BC8
:10124000590BB901640F751F37FD0FC0C901841B0D
:10125000950BA5E0880F991FAA95E1F70E94262E0D
:1012600080E2861BF7FD81950895CB0165E0880F2C
:10127000991F6A95E1F7BA01621B730B0E94262E33
:1012800080E6EFCF1F93172F922FE42FF0E0EE0FA1
:10129000FF1FEC5BFE4F418D24EE429F412D112438
:1012A000272F30E050E0445E5F4FA92FB0E0FA01F5
:1012B000E91BF109F7FF03C0FD01E41BF50B93E007
:1012C000EE0FFF1F9A95E1F72E1B3F0B37FF02C071
:1012D00020E030E0722F719F712D11241F9108952D
:1012E0001F93182FE42FF0E0EE0FFF1FEC5BFE4F73
:1012F000418D34EE439F412D112490E050E0445E37
:101300005F4FE22FF0E0DA01A21BB1099D01B7FFA8
:1013100003C09F01241B350B43E0220F331F4A9566
:10132000E1F7821B930B97FF02C080E090E0282F2B
:10133000219F212D1124822F1F9108950F931F9318
:10134000CF93DF93D62F172FC82FBA01C901212FB2
:10135000201B022F0E941309982F990F990F782FA5
:10136000791B700F719F712D11246D2F8C2FDF91C0
:10137000CF911F910F910895FF920F931F93CF93D9
:10138000DF93D62FC72F182FBA01C901F12EF01AFB
:101390000E941309982F990F990F082F091B0F0D01
:1013A000019F012D11246D2F7C2F802FCDB7DEB72B
:1013B000E5E00C948F2EEF920F931F93CF93DF9362
:1013C000D62F172FC82FBA01C9010E19010F0E947D
:1013D0001309702F781B719F712D11246D2F8C2F85
:1013E000DF91CF911F910F91EF900895EF920F939E
:1013F0001F93CF93DF93D62FC72F182FBA01C901A0
:101400000E19010F0E941309081B019F012D1124C1
:101410006D2F7C2F802FDF91CF911F910F91EF9037
:101420000895622F0895E42FF0E0EE0FFF1FEC5BAC
:10143000FE4F618D621B0895E42FF0E0EE0FFF1F59
:10144000E25AFE4F6081621B0895EF920F931F9343
:1014500010E09801220F331F200F311F359527957B
:101460006E2D620F1F910F91EF9008950F93CF9300
:10147000DF93D72FC82FBA01C9010E941309682F23
:10148000600F7D2F8C2FDF91CF910F910895EF92F8
:101490000F93CF93DF93D72FC82FBA01C9010E192D
:1014A0000E941309602F681B7D2F8C2FDF91CF9135
:1014B0000F91EF9008950F931F93522F10E0F801B2
:1014C000EE0FFF1FE25AFE4FA081A052BB0B9D0101
:1014D0005203F001539FF00D1124000F111FD8018A
:1014E000AC5BBE4F59962C912052330B4203D00176
:1014F000439FB00D11249F012A0F3B1F37FF02C0ED
:10150000215C3F4F96E0359527959A95E1F7620F5C
:101510001F910F9108954095282F429F412D11242E
:10152000842F0895409520E4429F412D1124640F9B
:101530000895EF92FF920F93970195E0099F200D78
:10154000311D1124211591E0390710F02FEF30E003
:101550002095382F320F08F43FEF832F0F91FF9023
:10156000EF900895EF92FF920F93E00EF11CF901B6
:1015700037FF03C0F195E195F10924E0EE0FFF1F5D
:101580002A95E1F7E11531E0F30714F0EFEFF0E011
:10159000DA0157FF03C0B195A195B10994E0AA0FF4
:1015A000BB1F9A95E1F7AE17BF070CF4FD01EE0DD6
:1015B000FF1DE11591E0F90710F0EFEFF0E02E2F9D
:1015C0002095382F320F08F43FEF832F0F91FF90B3
:1015D000EF900895EF92FF920F93CF93DF93972FA1
:1015E000EA01F901D701093430F4A01BB109A115B2
:1015F00021E0B20710F0AFEFB0E02896619740F01D
:10160000AF01485F5F4F4131510510F0AFEFB0E0DF
:101610002A2F2095382F320F08F43FEF832FF7FD44
:1016200033969F01359527953595279560919403BD
:10163000620F792FDF91CF910F91FF90EF90089576
:10164000EF92FF920F939701201B3109211541E082
:10165000340710F02FEF30E0322F3095482F430F32
:1016600008F44FEF842F620F0F91FF90EF900895D1
:10167000EF92FF920F939701201B3109211591E002
:10168000390710F02FEF30E02095382F320F08F493
:101690003FEF832F0F91FF90EF9008959091E90213
:1016A000982B9093E90208950E94220C08950E94BD
:1016B000460C0895880F880F880F98E0980F923293
:1016C00008F091E20895809193038370811102C024
:1016D00010921001809193038C7F8160809393031B
:1016E0000895982F862F209193032370211589F058
:1016F000911581F09A3180F49F73990F990F209181
:1017000093032370922B90939303109210010E94E5
:101710004E0B089591E0F1CF99E1EFCF80919303C3
:10172000869586958F5F8A3108F081E061E00E949E
:10173000710B089580919303869586958A9509F497
:1017400089E161E00E94710B0895982F822F20910A
:1017500093032370211559F090939403609395039C
:10176000493C08F048EC409396030E944E0B0895C4
:10177000E3E9F3E0818190E021E043816281089612
:101780000E94A50B0895E3E9F3E0818121E0438104
:1017900062818850990B0E94A50B0895E3E9F3E05C
:1017A000628120E1620F08F46FEF818121E04381C3
:1017B00090E00E94A50B0895E3E9F3E0628120E147
:1017C000621B08F460E0818121E0438190E00E9487
:1017D000A50B0895E3E9F3E0438120E1420F08F40B
:1017E0004FEF818121E0628190E00E94A50B089576
:1017F000E3E9F3E0438120E1421B08F440E081810A
:1018000021E0628190E00E94A50B0895E3E9F3E0F6
:10181000248130E1230F08F42FEF248381E00E941C
:101820004E0B0895E3E9F3E0248130E1231B08F433
:1018300020E0248381E00E944E0B0895559A109277
:10184000D7020895CF93DF93EC01FC01EE0FFF1F49
:10185000DF01AC0FBD1FAC58BD4F11968C91119795
:10186000861307C08C91841304C012968C91821742
:1018700051F081E08093D702EC0FFD1FEC58FD4F33
:10188000618340832283DF91CF910895FF920F936C
:101890001F93CF93DF93182F062FF42EC0E0D0E0D4
:1018A0002F2D402F612FCE010E94220C2196C13294
:1018B000D105B1F7CDB7DEB7E5E00C948F2EFA0174
:1018C000811511F009950895FB01FCCF282F35EB08
:1018D0002303C001112497FF04C080589109892F68
:1018E000089580589F4FFBCF80918A0380FD14C0DC
:1018F00081FD14C082FD16C080918903811581F09D
:101900008E3180F420E5829FC00111246EE170E0E9
:101910000E94262E862F089584E1089588E2089576
:1019200088E0089580E5089580918A0380FD17C0BE
:1019300081FD17C082FD19C080918803811599F03F
:10194000883298F428E0829FC001112468E270E098
:101950000E94262E6115710551F0862F089562E0D0
:10196000FCCF64E0FACF61E0F8CF68E0F6CF81E029
:101970000895E0917203F0917303309729F001907C
:10198000F081E02D0995089580E00895A3E0B0E08E
:10199000ECECFCE00C94762E9C018091720290910C
:1019A000730282179307A1F030937302209372029F
:1019B000E0917203F0917303309751F083E08983D3
:1019C0003B832A830084F185E02DCE0101960995A1
:1019D0002396E2E00C94922EA3E0B0E0E2EFFCE06C
:1019E0000C94762E9C018091700290917102821766
:1019F0009307A1F03093710220937002E09172037B
:101A0000F0917303309751F084E089833B832A83FC
:101A10000084F185E02DCE01019609952396E2E040
:101A20000C94922E90910F01911112C0A0E3B2E09C
:101A3000EFEF90E02D91821751F0EF3F19F4211153
:101A400001C0E92F9F5F9630A9F7EF3FC9F40895D1
:101A50009091A10397FFEACFE82FE695E695E695EA
:101A6000803FA8F7F0E0EA5CFD4F877021E030E0AE
:101A700001C0220F8A95EAF78281822B8283089522
:101A80000E2E000CFF0BE25DFD4FF8CF90910F0181
:101A9000911521F09091A10397FD0CC0E0E3F2E0D5
:101AA0009191891302C0DF011E9252E0E633F507DF
:101AB000B9F70895E82FE695E695E695803FC8F7D3
:101AC000F0E0EA5CFD4F877021E030E0A90102C040
:101AD000440F551F8A95E2F7CA01809592818923A8
:101AE000828308952FB7F8948091DC029091DD02F3
:101AF000A091DE02B091DF022FBF08950E94720D07
:101B000020918D0330918E03232B211521F080939A
:101B100047039093480320918F0330919003232B28
:101B2000211521F08093450390934603E0917203C1
:101B3000F0917303309749F082E080938B03068025
:101B4000F781E02D8BE893E009950895611509F47C
:101B50004BC0E3E3E80FE33150F4F0E0E05DF04D1B
:101B60000C94592E0E94740C819580938E030E94D0
:101B70007E0D08950E94740CF8CF0E94740C81951C
:101B800080938D03F4CF0E94740CFACF0E94940CC2
:101B900080938F03ECCF0E94940C8195F9CF0E9423
:101BA000940C819580939003E2CF0E94940CFACF1D
:101BB000815D990B21E030E001C0220F8A95EAF7A0
:101BC00080918C03822B80938C03D1CF80918A03E8
:101BD000816080938A03CBCF80918A038260F9CFA2
:101BE00080918A038460F5CF40918D038D3C59F438
:101BF00080918E0387FF0DC010928E03411559F41A
:101C00001092890308C08E3C81F480918E031816CF
:101C10009CF3411581F080918F0390919003892B63
:101C20008111A5CF10928803A2CF8F3C41F447FFCA
:101C3000F0CF10928D0380918E038115E0CF803D0F
:101C400019F41416B4F3E5CF90918F03893D29F46C
:101C50001916FCF610928F03DCCF8A3D19F497FF1A
:101C6000D8CFF8CF909190038B3D29F497FFD1CF37
:101C700010929003CECF8C3D19F41916CCF3C9CF36
:101C80009FE2980F983090F4815D990B21E030E04D
:101C9000B90102C0660F771F8A95E2F7CB018095E4
:101CA00090918C03892380938C03B3CF8D3D31F4C5
:101CB00080918A038E7F80938A03ABCF8E3D21F47F
:101CC00080918A038D7FF7CF8F3D09F0A2CF80915D
:101CD0008A038B7FF0CF2FB7F8946091DC0270916C
:101CE000DD028091DE029091DF022FBF08959C01FA
:101CF0004FB7F8948091DC029091DD02A091DE0252
:101D0000B091DF024FBF821B930B089580916F0249
:101D10000895FC019B0180916502909166028617EF
:101D2000970740F0672B29F48091E8008E77809325
:101D3000E800C90140E0009741F4411106C08091DC
:101D4000E80082FF2FC080E0089520914F03211505
:101D5000A9F12530A9F12091E80023FD2DC02091A3
:101D6000E80022FDECCF2091E80020FFE4CF309185
:101D7000F3002091F200009719F02830310558F057
:101D800041E02830310509F040E02091E8002E774D
:101D90002093E800D0CF41914093F10001972F5F4D
:101DA0003F4FE9CF80914F03811541F0853041F0DD
:101DB0008091E80083FFC3CF81E0089582E0089519
:101DC00083E0089580915F0287FF13C08091E8004F
:101DD00082FF06C08091E8008B778093E800089529
:101DE00080914F038111F2CF089580914F038115A7
:101DF000D9F38091E80080FFF8CF8091E8008E77DA
:101E0000ECCF2091E4003091E50095E6A901209106
:101E1000EC00822F817020FF06C08091E80080FFD7
:101E200006C080E008952091E80022FD1AC080914C
:101E30004F03811589F0853089F08091EB0085FD95
:101E40000FC02091E4003091E50042175307F9F2EA
:101E50009A95E1F684E0089582E0089583E008957C
:101E600081E00895E8EDF0E080818E7F808310921C
:101E7000E2001092DA001092E100A0EEB0E08C9146
:101E800081608C9380818F77808319BCA7EDB0E04F
:101E90008C918E7F8C9380818F7E808310925E02E6
:101EA0000895EF92FF920F931F93CF93DF937C01DE
:101EB000809100010E945A0BC82F192F609197033F
:101EC0006695669521E0620F08F46FEF8091E0025D
:101ED0009091E1020E94BA08082FD0E0C11748F0A3
:101EE00081E0113208F080E0CDB7DEB7E6E00C9477
:101EF0008E2EFE01E156FE4F8081909101018923D3
:101F0000811591F0609194037091950380919603EF
:101F1000202F4C2FF70109950E943608462F672F76
:101F2000282FCE010E94540B2196D8CFAF92BF929A
:101F3000DF92EF92FF920F931F93CF93DF935C0199
:101F4000809100010E945A0BC82F192F60919703AE
:101F500066958091E0029091E1020E94BA08D82E25
:101F6000D0E0CE01880F991F9C012C5B3E4F790178
:101F70001C1709F070F481E0113208F080E0DF9165
:101F8000CF911F910F91FF90EF90DF90BF90AF9096
:101F90000895FE01E156FE4F808190910101892351
:101FA0008115C1F0F701228D2052330B418D405233
:101FB000550B6091940370919503809196030D2DBC
:101FC000F50109950E943608462F672F282FCE016C
:101FD0000E94540BF2E0EF0EF11C2196C9CFA0E055
:101FE000B0E0E5EFFFE00C946A2E3C018091000127
:101FF0000E945A0BC82F192F609197036695809104
:10200000E0029091E1020E94BA08F82ED0E0CE01E1
:10201000880F991F9C012C5B3E4F69011C1709F02A
:1020200048F481E0113208F080E0CDB7DEB7EEE091
:102030000C94862EFE01E156FE4F808190910101A5
:102040008923811579F1F601818D282F2052330BD8
:102050005901828DE82FE052FF0B4F01AA9C90019D
:10206000AB9C300D300D1124EE9FC001EF9F900D01
:10207000900D1124820F931F0E94C408082F6091B5
:1020800094037091950380919603EF2C9401A50120
:10209000F30109950E943608462F672F282FCE019D
:1020A0000E94540BF2E0CF0ED11C2196B7CFA0E0D6
:1020B000B0E0EDE5F0E10C946D2E7C018091000123
:1020C0000E945A0BC82FB92E2091970331E0230F9D
:1020D00008F42FEF30E040E050E06FEF7FEF80E05A
:1020E00090E00E943A2E6901D0E0A22E9D2C2C2F68
:1020F000CB1550F081E0F1E2BF1608F080E0CDB7DB
:10210000DEB7EBE00C94892EFE01E156FE4F808194
:10211000909101018923811521F18091EA0281507A
:10212000082E000C990B87FF1EC00A2D192D6091F7
:10213000970321E0620F08F46FEFC8010E94BA080C
:10214000AC01609194037091950380919603F7011F
:1021500009950E943608462F672F282FCE010E942E
:10216000540B2196C4CFFC01E651FD4F3189321347
:102170000AC0FC01EE0FFF1FE651FD4F018D128DCD
:102180000C151D05A0F20197CECFA8E0B0E0EBEC56
:10219000F0E10C94662E282E6A837B8380910001E7
:1021A0000E945A0B99832091EA022C83E82FF0E0D9
:1021B000F887EF83CF01880F991F9C012C5B3E4F5E
:1021C0006901822D90E0FC013196FE83ED838F81C1
:1021D0009981891740F081E0913208F080E02896DB
:1021E000E2E10C94822EEF81F885E156FE4F80816A
:1021F0009091010189238115F1F040909403509052
:1022000095032D813E8126513D4F3901322C10E03E
:10221000FC813F16D0F020919603129F112D1124BE
:10222000B201812F0E943608462F672F282F8F81F9
:1022300098850E94540B2F8138852F5F3F4F388738
:102240002F8332E0C30ED11CC2CFF30181913F0135
:10225000F601A18CA81ABB08828CF3018781881A29
:102260009908AA9C9001AB9C300D300D1124889CDC
:10227000C001899C900D900D1124820F931F0E9424
:10228000C408082F6091970321E0620F08F46FEFF4
:10229000F301EE0FFF1FEA5EF240858996890E94E6
:1022A000BA087C019401A501B201812FEA81FB816A
:1022B00009952B01182F3394ABCFA4E0B0E0E3E6EF
:1022C000F1E10C946E2E8B8380910E012B81821391
:1022D00023C090919303937020910D0130E081E031
:1022E0009217130609F480E080930201809198030D
:1022F00090910101981739F08093010140E060E06E
:1023000080E00E94570B3B813A3188F4E32FF0E0E4
:10231000ED5BF04D0C94592E81E0E6CF80910201E7
:10232000811529F040E060E080E00E94570B80E0DA
:102330002FC1809100010E945A0B082F9983609150
:10234000940370919503809196030E943608F62EAF
:10235000D72EC82E10E08981801709F020F481E083
:102360009981913239C0F801E156FE4F80819091F8
:1023700001018923811531F02C2D4F2D6D2DC801C0
:102380000E94540B0F5F1F4FE6CF809100010E9407
:102390005A0B082FC92E209194032983F09095039E
:1023A00010919603622F7F2D812F0E943608E62E12
:1023B000B72EA82E809197036981680F7F2D812FFA
:1023C0000E9436086983F72ED82E10E0C01609F057
:1023D00030F481E031E2C31608F4DAC0A8CFF80186
:1023E000E156FE4F8081309101013823311559F0BB
:1023F0002D2D49816F2D80FD03C02A2D4E2D6B2D73
:10240000C8010E94540B0F5F1F4FE0CF8091000165
:102410000E945A0B9983D0909503C0909603209107
:10242000970350E4F52E3F2D329F312D1124F32ECA
:10243000082F10E08981801709F008F490CFF80187
:10244000E156FE4F80819091010189238115B9F0F9
:10245000F801EE0FFF1FEC5BFE4F828D82958F70AF
:10246000609194038F9D600D11247D2D8C2D0E9411
:102470003608462F672F282FC8010E94540B0F5F84
:102480001F4FD8CF809100010E945A0B9983D090A2
:102490009503C09096032091970330E4F32E3F2DCF
:1024A000329F312D1124F32E082F10E089818017DF
:1024B00009F008F454CFF801E156FE4F8081909165
:1024C000010189238115D9F0F801EE0FFF1FEC5BA4
:1024D000FE4F818D8F9DC001112425E09595879534
:1024E0002A95E1F760919403680F7D2D8C2D0E9451
:1024F0003608462F672F282FC8010E94540B0F5F04
:102500001F4FD4CF809100010E945A0B082F99834E
:10251000F090940310919503E090960360919703D7
:102520006695669566958091E0029091E1020E9421
:10253000BA080E94F408805887FD8195880F282FDB
:102540003E2D239F212D1124822F6F2D712F0E944C
:102550003608D62EC72EF82E10E08981801709F094
:1025600008F4FDCEF801E156FE4F80819091010103
:102570008923811531F02F2D4D2D6C2DC8010E941E
:10258000540B0F5F1F4FE9CF82E499E00E94510F77
:10259000909100019F5F9093000181110DC082E036
:1025A0008093100180910201811106C08B818111FD
:1025B00003C083E0809310012496EAE00C948A2EF5
:1025C00080E799E0E3CF8EE999E00E94960FE0CF93
:1025D0008CEB99E0FACF8BED99E00E94EF0FD8CF0A
:1025E00086EF99E0FACF81E19AE0D0CF83E19AE0DB
:1025F000CDCF8CE19AE0CACF85E29AE0EECF86E3B8
:102600009AE0E3CF87E49AE0E8CF809100010E944E
:102610005A0BC82E9C8360919703669566958091AE
:10262000E0029091E1020E94BA08182F80E4810F25
:102630000E94F40880588983812F0E94F4088058F2
:102640008A83D12C3C81C31618F081E03132C4CE8C
:10265000F601E156FE4F8081909101018923811599
:10266000A1F0609194037091950380919603E12EFF
:102670000C2D2A8149810E945B0A0E943608462F50
:10268000672F282FC6010E94540B2FEFC21AD20ABF
:10269000D9CF8BE89AE00E9457107ACF82E99AE06E
:1026A000FACF8091EA0221E0382F321B08F430E0A3
:1026B000832F69E97AE00E94C5106ACF8091EA020F
:1026C00021E0382F321B08F430E0832F62EB7AE0F0
:1026D000F2CF8091EA0221E0382F321B08F430E07B
:1026E000832F6AEE7AE0E7CF8091EA0221E0382F6B
:1026F000321B08F430E0832F60E27BE0DCCF809176
:10270000EA0221E0382F321B08F430E0832F68E31F
:102710007BE0D1CF982F9093E900891771F07091E9
:10272000EC002091ED005091F00021FD09C09F5F69
:10273000973089F78093E9000895762F242F50E091
:102740003091EB003E7F3093EB003091ED003D7F08
:102750003093ED003091EB0031603093EB007093DB
:10276000EC002093ED005093F0002091EE0027FD47
:10277000DECF0895A0E0B0E0E0ECF3E10C94702E21
:10278000C8EDD0E088818F7E8883E7EDF0E080811E
:102790008160808384E082BF81E080935E028881D3
:1027A0008E7F888302EE10E0F80110821092DA002A
:1027B00081EEC82ED12CF601108288818F77888314
:1027C00088818068888388818F7D888319BC109276
:1027D0004F0310925D021092150310925C0290EE6E
:1027E000E92EF12CF70180818B7F808388818160C5
:1027F000888342E060E080E00E948A13F6018081D5
:102800008E7F8083F80180818160808380818860F1
:102810008083F70180818E7F8083888180618883B7
:10282000CDB7DEB7E8E00C948C2EE091A503909133
:10283000A40327E0E91302C080E00895AE2FB0E0C2
:102840002E9FF0011124EA55FC4F3181361306C04A
:102850003081381303C03581341304C0FD01319633
:10286000E770E8CF81E008958091D702811539F1B2
:102870003BB13F7D2BB120624FB7F89484E792E0E3
:10288000FC010196508168E02BB9000000C057FFA1
:102890003BB9550F000000C000C000C03BB900C0EC
:1028A0006A9591F752E0873D950751F74FBF8FE545
:1028B00094E00197F1F700C000001092D70208954C
:1028C00081E08093E00080E28093D8001092C900FC
:1028D0008FE19EE40197F1F700C0000087E090EBE4
:1028E000DC018093E5039093E603A093E703B093A4
:1028F000E80388E19CE00FB6F894A8958093600007
:102900000FBE90936000FFCF0F931F93CF93DF9381
:102910008B01EA0190914F03943059F58093E900BF
:102920008FEF9091E80095FD06C095ED9A95F1F72F
:1029300000008A95B1F78091E80085FF1AC00E94D7
:10294000010F811111C08091E80085FD06C08091C2
:10295000E8008E778093E800F2CFF80181918F0133
:102960008093F100219779F78091E8008E7780932A
:10297000E800DF91CF911F910F910895CF93DF93DE
:10298000D82FC92F48E050E0682F792F81E00E94AE
:10299000841488E0ED2FFC2FA7E6B2E001900D92A1
:1029A0008A95E1F7DF91CF910895BC0140E250E0B4
:1029B00084E00E9484140895BC0146E050E084E065
:1029C0000E9484140895BC0143E050E084E00E941A
:1029D000841408959091A20392FB222720F92817CE
:1029E00079F080FB92F99093A2036091A10370911A
:1029F000A20384E090E00E940B2F82E00E94E10598
:102A000008951F93CF93DF93962F122F632F863055
:102A1000D8F49530C8F44530B8F4C42FD0E0CC0FCA
:102A2000DD1F2AE0929FC00DD11D112492E3899FE2
:102A3000C00DD11D1124CE0188960E94ED2E612F6C
:102A4000CE0189960E94ED2EDF91CF911F910895BE
:102A5000AF92BF92CF92DF92FF920F931F93CF93CB
:102A6000DF93A12CB12C00E0650110E013C0FE0142
:102A7000259134914F2D612F802F0E9401152296B0
:102A8000F39485E0F812F3CF85E0C80ED11C1F5FE8
:102A9000153039F0E601CC0FDD1FC75EDC4FF12C9D
:102AA000E6CF0F5F89E1A80EB11C0630E9F6DF9191
:102AB000CF911F910F91FF90DF90CF90BF90AF907B
:102AC0000895CF93DF93C4E5D1E060E0CE010E948A
:102AD000ED2E2196C11584E0D807B9F7DF91CF918B
:102AE0000895CF93C82F64E2811101C06FEF84E293
:102AF00090E00E94ED2E60E1C11101C06FEF85E210
:102B000090E00E94ED2E61E0C11101C06FEF86E2FE
:102B100090E00E94ED2ECF91089580E00E94711503
:102B200060E087E290E00E94ED2E0E9428150E944E
:102B3000611581E00E94711508950F931F93CF9343
:102B4000DF93863030F5653020F5453010F5C42F21
:102B5000D0E0CC0FDD1F2AE0629FC00DD11D1124F3
:102B600032E3839FC00DD11D1124CE0188960E94AF
:102B7000CF2E082F10E0102F0027CE0189960E943B
:102B8000CF2E9801282BC901DF91CF911F910F9172
:102B9000089580E090E0F8CF462F672F753038F425
:102BA000453028F4863018F40E949D15089580E081
:102BB00090E00895A0E0B0E0E0EEF5E10C94712E15
:102BC0007C0100919F0380919E03082BC5E0D0E01B
:102BD00010E0C8010C2E02C0959587950A94E2F783
:102BE00080FD09C02197A8F7D12C8D2DCDB7DEB778
:102BF000E7E00C948D2EDC2EB7018C2F0E94CC15B3
:102C00000E941807019771F3F0CF0F931F93CF9392
:102C1000FC01858100811181811591F0611581F0A0
:102C2000C8010E94DA15C82F682FC8010E944C0500
:102C3000B8018C2F0E94CC15CF911F910F91089550
:102C4000C8010E948205C82FF3CFCF93DF93D82FFE
:102C5000C92F0E94DA156D2F7C2F0E94CC150E947F
:102C60001807DF91CF910895FC0184818115A1F0AF
:102C7000808191810E942516282F92959F70963011
:102C800099F060F4925F9F70923030F4203FB1F081
:102C900038F481E0283E38F080E008959A5FF3CF61
:102CA00081E0243FC9F7089591E0213F09F090E0C9
:102CB00081E0283E08F080E0892B089581E00895A6
:102CC00084E290E00E94CF2E843289F485E290E085
:102CD0000E94CF2E803159F486E290E00E94CF2EE0
:102CE00091E0813009F090E0892F8170089580E0B3
:102CF000FCCF80910F01811559F18091A10387FFCD
:102D000027C00E94F9058093370240E250E062E557
:102D100073E086E392E00E94112F892BC1F080E2DC
:102D2000E6E3F2E0A2E5B3E001900D928A95E1F7C7
:102D3000E0917203F0917303309749F086E080933D
:102D400036020480F581E02D86E392E0099508952E
:102D50000E94F90580932E0248E050E064E773E09A
:102D60008EE292E00E94112F892B89F388E0EEE237
:102D7000F2E0A4E7B3E001900D928A95E1F7E091CB
:102D80007203F0917303309711F30280F381E02D09
:102D90008EE292E0DBCFCF93C82F8115D9F08CEF74
:102DA0008C0F813AA8F580910F01811521F0809157
:102DB000A10387FD11C0E0E3F2E086E392E02191F8
:102DC000C21701F18E179F07D1F78C2F0E94120DA9
:102DD0000E947916CF910895EC2FE695E695E69539
:102DE000F0E0EA5CFD4F828190E04C2F477021E0DB
:102DF00030E002C0220F331F4A95E2F7822393236B
:102E0000892B19F38C2F0E94460D0E947916DDCF75
:102E100080E28C0F883068F4C77081E090E001C0D8
:102E2000880FCA95EAF7C0919B03C82BC0939B03F8
:102E3000CFCF8BE58C0F833038F42C2F2452330BFB
:102E4000C9010E94C60CC6CFE8E5EC0FEB3150F487
:102E5000F0E0EE0FFF1FEA50FE4F808191810E944B
:102E6000EC0CB8CF83E38C0F833108F0B3CF61E073
:102E70008C2F0E94A60DAECF811581F19CEF980F8B
:102E8000913A28F40E94460D0E947916089590E226
:102E9000980F983050F4877091E001C0990F8A958F
:102EA000EAF7892F0E942006EFCF9BE5980F933019
:102EB00028F480E090E00E94C60C089598E5980FF1
:102EC0009B3128F480E090E00E94EC0C089593E39D
:102ED000980F933118F460E00E94A60D08950F93A7
:102EE0001F93CF93C82F8B010E94CB16011511059C
:102EF00039F48C2F0E943C17CF911F910F910895A8
:102F00008FE99FE00197F1F700C00000015011091F
:102F1000EDCF60E570E0893311F060E070E00E9471
:102F20006F170895A0E0B0E0E8E9F7E10C94712E86
:102F3000E82FF0E0E850FE4FD490282F26952695F4
:102F4000269530E0F901E851FE4F0491877010E0BA
:102F5000082E02C0159507950A94E2F70170112713
:102F6000F901E852FE4FE490F12C082E02C0F594CE
:102F7000E7940A94E2F7E0FAEE24FF24E0F8F9017E
:102F8000E853FE4FC491D0E002C0D595C7958A950D
:102F9000E2F7C170DD270115110519F081EE0E94DD
:102FA000CB16E114F10419F086EE0E94CB1660E016
:102FB00070E08D2D0E946F17E114F10419F086EE78
:102FC0000E943C170115110519F081EE0E943C1773
:102FD000CD2B19F08CE20E948917CDB7DEB7E7E060
:102FE0000C948D2E0F931F93CF93DF938C01F801D8
:102FF0008491811509F44FC0813009F048C0E8017F
:103000002196FE018491813049F42196FE0184913C
:103010000E9489178E010F5F1F4FE9CF823039F46C
:10302000E8012296FE0184910E94CB16F3CF8330F3
:1030300039F4E8012296FE0184910E943C17EACF00
:10304000843041F7E8012296FE01849120E030E0CF
:103050004AE0FE0131968053990B8A30910560F069
:1030600021153105B9F28FE99FE00197F1F700C012
:10307000000021503109F4CF429FB001439F700DF1
:1030800011249C01260F371F8491EF01E2CF0E948B
:103090009217E801BFCFDF91CF911F910F91089553
:1030A000811539F090919B03892B80939B030E949B
:1030B00079160895811521F00E9420060E94791644
:1030C0000895FF920F931F93CF93DF93C62FD42FB2
:1030D000122F8115A9F0609391030E94720D9093B5
:1030E0005A0280935902C77081E001C0880FCA95C7
:1030F000EAF70E945018CDB7DEB7E5E00C948F2EAA
:1031000080919103681330C08091590290915A02C6
:103110000E94770E883C910538F500E20D0FCD171F
:10312000A9F0C770FF24F3948F2D01C0880FCA95B2
:10313000EAF70E945A18083048F48D2F877001C0B2
:10314000FF0C8A95EAF78F2D0E945018812F0E945C
:103150008917083080F6D77081E001C0880FDA95B2
:10316000EAF70E945A18C7CFC77081E001C0880FE4
:10317000CA95EAF7F6CF10929B0380910F01811553
:1031800039F18091A10387FF23C0E8E3F2E08EE1EB
:10319000DF011D928A95E9F780E090E00E94C60C5D
:1031A00080E090E00E94EC0C1092A3030E9479163C
:1031B00086E0EBE8F3E0DF011D928A95E9F71092D3
:1031C00089031092880310928A030E947E0D08954D
:1031D000E0E3F2E086E0DCCF0E94BB182FEF84E34F
:1031E0009CE0215080409040E1F700C0000088E161
:1031F0009CE00FB6F894A895809360000FBE909362
:103200006000FFCFA8E0B0E0E8E0F9E10C94692E9F
:103210006C01FC018481811509F4A7C061E0C6013D
:103220000E9405168C01F60195819801911509F40B
:103230005BC737572038310508F082C7003108F0E6
:1032400084C08FEF93E00E94CF2E81117EC054E5A1
:10325000E52EFF24F39401114AC0CE0101963C01F2
:1032600088E0F30111928A95E9F74AE0542E47016C
:10327000FFEF8F1A9F0AC7010E94CF2E89831A82FF
:10328000811509F462C0813009F073C087010E5FB7
:103290001F4FC4010E94CF2E8A83811509F455C0A7
:1032A0009FEF980F933090F523E0E20EF11CC801D8
:1032B0000E94CF2E8B83811509F447C01C828301A5
:1032C000F8018081811599F2813009F094C08181E3
:1032D000813009F050C04801F2E08F0E911CF801D6
:1032E00082810E94891784010F5F1F4FE9CFE1148B
:1032F000F4E0FF0651F1C7010E94CF2E97012F5F26
:103300003F4F79018111F3CF0150A5CF8430A1F453
:1033100032E0E32EF12CC8010F5F1F4F0E94CF2E29
:10332000F301EE0DFF1D8083811579F08C3731F4A8
:10333000FE01EE0DFF1D12827801C1CF3FEFE31AAF
:10334000F30A87E0E816F10431F78091A003877053
:10335000811559F0F6018581811539F08091A2031C
:1033600082FF03C082E00E94E1052896EFE00C9402
:10337000852E7401A4CF823049F44801F2E08F0E0B
:10338000911CF80182810E94CB16ADCF833049F4A5
:103390004801F2E08F0E911CF80182810E943C17D7
:1033A000A2CF843019F00F5F1F4F9ECF82810E5F36
:1033B0001F4FA12CB12C98012F5F3F4F8053990BC9
:1033C0008A30910560F0C501009709F48DCFEFE9CF
:1033D000FFE03197F1F700C000000197F5CF5A9C4C
:1033E000A0015B9C500D11245C01A40EB51EF801D8
:1033F00081818901E0CF0E94921776CF8BEA99E014
:103400000E94F217A2CF8AE999E00E94F2179DCF9D
:1034100087E899E00E94F21798CF8EE799E00E9422
:10342000F21793CF83E799E00E94F2178ECF8BE6D5
:1034300099E00E94F21789CF8EE599E00E94F21779
:1034400084CF82E599E00E94F2177FCF89E499E06A
:103450000E94F2177ACF8BE399E00E94F21775CFA2
:103460008CE299E00E94F21770CF8FE199E00E9400
:10347000F2176BCF86E199E00E94F21766CF8EE0DB
:1034800099E00E94F21761CF83E099E00E94F21761
:103490005CCF8AEF98E00E94F21757CF82EF98E056
:1034A0000E94F21752CF8AEE98E00E94F2174DCF99
:1034B00081EE98E00E94F21748CF86ED98E00E94D6
:1034C000F21743CF8DEC98E00E94F2173ECF80ECCC
:1034D00098E00E94F21739CF85EB98E00E94F2172E
:1034E00034CF8AEA98E00E94F2172FCF8DE998E056
:1034F0000E94F2172ACF82E998E00E94F21725CFA6
:1035000088E898E00E94F21720CF8EE798E00E94AA
:10351000F2171BCF84E798E00E94F21716CF8BE6D4
:1035200098E00E94F21711CF81E698E00E94F2170E
:103530000CCF86E598E00E94F21707CF8CE498E064
:103540000E94F21702CF8EE398E00E94F217FDCEA0
:1035500081E398E00E94F217F8CE89E298E00E9499
:10356000F217F3CE82E298E00E94F217EECE8AE1E3
:1035700098E00E94F217E9CE81E198E00E94F217EC
:10358000E4CE87E098E00E94F217DFCE8AEF97E062
:103590000E94F217DACE81EF97E00E94F217D5CEA3
:1035A00086EE97E00E94F217D0CE8CED97E00E9455
:1035B000F217CBCE82ED97E00E94F217C6CE86ECD2
:1035C00097E00E94F217C1CE8CEB97E00E94F217B1
:1035D000BCCE83EB97E00E94F217B7CE8CEA97E05F
:1035E0000E94F217B2CE8FE997E00E94F217ADCE9B
:1035F00085E997E00E94F217A8CE8CE897E00E9438
:10360000F217A3CE83E897E00E94F2179ECE87E7D9
:1036100097E00E94F21799CE8EE697E00E94F2178B
:1036200094CE84E697E00E94F2178FCE8CE597E067
:103630000E94F2178ACE80E597E00E94F21785CEAD
:1036400087E497E00E94F21780CE8BE397E00E9418
:10365000F2177BCE82E397E00E94F21776CE86E2E5
:1036600097E00E94F21771CE8DE197E00E94F21769
:103670006CCE83E197E00E94F21767CE88E097E076
:103680000E94F21762CE81E097E00E94F2175DCEB1
:1036900088EF96E00E94F21758CE8EEE96E00E94D8
:1036A000F21753CE83EE96E00E94F2174ECE88EDCD
:1036B00096E00E94F21749CE8CEC96E00E94F21739
:1036C00044CE82EC96E00E94F2173FCE86EB96E065
:1036D0000E94F2173ACE8AEA96E00E94F21735CE9F
:1036E00083EA96E00E94F21730CE8BE996E00E94C2
:1036F000F2172BCE81E996E00E94F21726CE88E8D9
:1037000096E00E94F21721CE8FE796E00E94F21712
:103710001CCE87E796E00E94F21717CE8EE696E061
:103720000E94F21712CE86E696E00E94F2170DCEA6
:103730008BE596E00E94F21708CE8EE496E00E9498
:10374000F21703CE82E496E00E94F217FECD8DE3DD
:1037500096E00E94F217F9CD85E396E00E94F217F9
:10376000F4CD8AE296E00E94F217EFCD8FE196E069
:103770000E94F217EACD83E196E00E94F217E5CDB0
:103780008AE096E00E94F217E0CD83E096E00E9486
:10379000F217DBCD89EF95E00E94F217D6CD80EFCE
:1037A00095E00E94F217D1CD83EE95E00E94F217CA
:1037B000CCCD89ED95E00E94F217C7CD8FEC95E056
:1037C0000E94F217C2CD81EC95E00E94F217BDCDA8
:1037D00087EB95E00E94F217B8CD8DEA95E00E9444
:1037E000F217B3CD82EA95E00E94F217AECD84E9DC
:1037F00095E00E94F217A9CD8AE895E00E94F217A1
:10380000A4CD8BE795E00E94F2179FCD80E795E06D
:103810000E94F2179ACD84E695E00E94F21795CDAA
:1038200087E595E00E94F21790CD8EE495E00E9426
:10383000F2178BCD85E495E00E94F21786CD8FEFCD
:103840008093980381E00E944E0B69C4F801E8510F
:10385000FC47E730F105A8F5E35AF04D0C94592EDA
:1038600026E241EE61EE892F0E9461186ECD27E2BB
:1038700045EE65EE892F0E94611867CD26E241EE84
:1038800060EE892F0E94611860CD27E245EE64EE5C
:10389000892F0E94611859CD26E241EE62EE892FF0
:1038A0000E94611852CD27E245EE66EE892F0E94F4
:1038B00061184BCD28E241E065EE892F0E94611826
:1038C00044CD911509F405C4109291039801305725
:1038D0002332310508F0CCC084E090E00E94D72E5E
:1038E0009093A2038093A103F801E150F047E232E4
:1038F000F10520F4EC59F04D0C94592E8091A10360
:1039000081608093A1036091A1037091A20384E080
:1039100090E00E940B2F0E94BB1817CD8091A2034C
:1039200088608093A203EFCF8091A1038260E9CFEA
:103930008091A1038460E5CF8091A1038860E1CFED
:103940008091A2038160EDCF8091A2038260E9CFD4
:103950008091A1038061D5CF8091A1038062D1CFF6
:103960008091A1038064CDCF0E94BB188091A103F8
:103970008068C7CF8091A1038C60C3CF8091A203E0
:103980008360CFCF8091A1038E7FBBCF8091A203B4
:10399000877FC7CF8091A1038D7FB3CF8091A10393
:1039A0008B7FAFCF8091A103877FABCF8091A203A4
:1039B0008E7FB7CF8091A2038D7FB3CF8091A1037B
:1039C0008F7E9FCF8091A1038F7D9BCF8091A1039C
:1039D0008F7B97CF0E94BB188091A1038F7791CFE7
:1039E0008091A103837F8DCF8091A2038C7F99CF9B
:1039F0008091A103992782FF939590FB82F990FB18
:103A000083F97FCF8091A203982F909590FB80F946
:103A100090FB81F986CF9091A103892F8F7B96FF30
:103A200080646FCF0E94BB189091A103892F97FBF0
:103A300087F9805866CF61E08EE090E00E94ED2E1D
:103A400062CF60E0F9CF9091A103892F8F7E94FF20
:103A5000806157CF9091A103892F8E7F90FF816065
:103A600050CF9091A203892F877F93FF886059CF11
:103A70000631FCE71F0709F01EC380919B038A7A79
:103A800091E0811101C090E090939203811531F093
:103A900085E30E94120D0E94791657CC89E2F9CF76
:103AA00085E30E94460DF7CF80919B038272F80157
:103AB000E152F847E431F10508F05EC0EA57F04DF5
:103AC0000C94592E4AE95BE06EE87BE00E945F0CA3
:103AD0003CCC4EE85BE06AE97BE00E945F0C35CCB1
:103AE00043EC5BE068EB7BE00E945F0C2ECC48EB84
:103AF0005BE063EC7BE00E945F0C27CC4CED5BE06D
:103B00006EEC7BE00E945F0C20CC4EEC5BE06CED39
:103B10007BE00E945F0C19CC48EF5BE06AEE7BE033
:103B20000E945F0C12CC4AEE5BE068EF7BE00E94E3
:103B30005F0C0BCC42E15CE066E07CE00E945F0C35
:103B400004CC46E05CE062E17CE00E945F0CFDCBCF
:103B500061E081E00E94710BF8CB61E085E00E949A
:103B6000710BF3CB61E08DE00E94710BEECB61E055
:103B700080E10E94710BE9CB07372CE7120709F4AB
:103B800069C008373CE7130709F46DC09115A9F027
:103B90000A358CE7180709F49FC008F077C0013098
:103BA000ECE71E0709F496C00330FCE71F0709F491
:103BB0008BC001151C4709F47AC0F6018581E080AD
:103BC000F180811509F48CC0C7010E94DA15182F05
:103BD000682FC7010E944C05B701812F0E94CC15A8
:103BE0000E9418078C01F601B580A680A2942FE0F0
:103BF000A2228091A0038770811501F1EB2CB114F2
:103C0000F1F0812F807F803461F080E2800F883076
:103C1000A8F0812F807E803221F4023078F0A11448
:103C200069F08091A20382FF09C082E00E94E10551
:103C30008091A0038770EE24E3948111E12CE12FA1
:103C4000E295EF70103C08F0B6C0F0E0E656F04D9B
:103C50000C94592E81E00E943C0543E062E081E033
:103C60000E94B60572CB82E0911541F00E943005AA
:103C700043E062E081E00E94B60567CB0E943C050C
:103C800043E062E081E00E94B6055FCB0B353CE784
:103C9000130721F10C351C4709F08FCF8091A20347
:103CA000002482FF0394802D0E94EA1486CF0E9494
:103CB000BB189FEFE4E3FCE09150E040F040E1F7F7
:103CC00000C000000E9460146FEF7FEF80E090E082
:103CD0000E940B2F0E94EC1881E0E6CF80E0E4CF39
:103CE000C7010E948205182F77CFF12FFF70FF2E9A
:103CF000103118F0F29490EFF922B114B9F0F114E8
:103D000069F080E2800F883010F0011109C08091C5
:103D10009B038F2980939B030E947916802F43C0B9
:103D20008091A3038F298093A303F6CF802F0E9455
:103D30003C17F11409F43FC080E2800F883010F086
:103D4000011104C08F2D0E94200606C0F0948091BE
:103D5000A3038F218093A3030E9479162CC0212FE7
:103D60002F70F22E107F103219F0F29480EFF822AB
:103D7000011549F0013009F46BC0B11409F477C0A2
:103D8000A114C9F1CBCF8091A20382FD30C0B11440
:103D900069F0F11439F080919B038F2980939B0384
:103DA0000E94791680E00E94CB1605C080E00E9438
:103DB0003C17F110C7CFE114A9F08091A00380FD5A
:103DC00011C0F60115828695869586950E9430056C
:103DD000C6010E9402198091A0038695869586955A
:103DE0000E943C0560E0C6010E940516BECAB114DF
:103DF00099F0A11004C08F2D0E945018DCCF31E043
:103E0000A312D9CF80919C039F2D9823F91699F284
:103E10008F2980939C03CFCFA110CDCF8F2D0E94EF
:103E20005A1890919C038F2D8923811529F08F2D8D
:103E30008095892380939C0380919D039F2D9823D7
:103E4000911509F4B8CFF094F822F0929D03B3CF06
:103E5000B11429F086E0A81608F0ADCFCCCF95E0DC
:103E6000A91608F0A8CF8F2D0E945A18A4CFA1142C
:103E7000D1F3093349F4EFEFF7EE23E0E150F040DE
:103E80002040E1F700C00000802F0E943C1793CF34
:103E9000812F869586958370811561F0813009F0B8
:103EA0008ACFC8019370B11002C080E090E00E94F8
:103EB000EC0C81CFC8019370B11002C080E090E09B
:103EC0000E94C60C78CF6B2D802F0E94A60D73CF59
:103ED000812F8370811134C0B11027C0402F4295CB
:103EE00046954770440F440F802F8F70042E01C0F9
:103EF000880F0A94EAF7202F207104FF07C02FE0F3
:103F000030E001C0220F4A95EAF7209516951695E4
:103F10001370123081F0133061F030919E03113034
:103F200039F0822B83230E942A050E94B90C43CFCB
:103F3000832B822BF8CF822B90919E038927F3CF7E
:103F4000B11451F110FFF1CF402F429546954770C3
:103F5000440F440F802F8F70042E01C0880F0A94E5
:103F6000EAF7202F207104FF07C02FE030E001C0E6
:103F7000220F4A95EAF72095169516951370123080
:103F800089F0133069F030919F03113041F0822B9A
:103F900083230E942D05C9CF8230B0F6C6CF832B74
:103FA000822BF7CF822B90919F038927F2CF1F702E
:103FB000B11439F0812F0E943005802F0E945018D3
:103FC000B4CF802F0E945A18812F0E943C05ADCF9C
:103FD000023F71F170F4003FC9F0013F91F0B1145C
:103FE00009F455C0A11409F44FC0802F0E94CB16CC
:103FF0009CCF033F21F1043F91F79091A20392FDE2
:104000002AC0812F8F71B11401F316C0B11469F069
:1040100035E0A31608F089CF1F7181E090E0012EF2
:1040200001C0880F0A94EAF7BECF86E0A816F2CF47
:10403000812F8F71B110C9CF0E94300576CF80E0FB
:10404000B11409F4A6CF1F7181E0012E01C0880FC1
:104050000A94EAF79ECFB11461F0812F8F7192FF1D
:10406000EBCF982F990F990F990F93609093A0031E
:10407000E3CF81E00E94E10592E0A91608F455CF54
:1040800082E00E94E10551CF812F8F71D5CFA1141D
:1040900079F0093349F4EFEFF7EE23E0E150F04017
:1040A0002040E1F700C00000802F0E943C173DCF68
:1040B000812F8F718ACF07372CE7120709F061CD66
:1040C00081E00E94300543E062E081E00E94B60595
:1040D0003CC906313CE7130709F0E6CC8091920316
:1040E0008111DECC89E2DDCC3E572D36310508F456
:1040F0002CC90032F8E71F0709F0A8CB911579F019
:10410000809198038F3F09F09ACB1092980381E039
:104110000E944E0B40E060E080E00E94570B8091CF
:1041200093038370811111C98FEF8093980381E00D
:104130000E944E0B0E94630B81E00E944E0B05C94A
:10414000F801FE57ED36F105A0F6EA55F04D0C9456
:10415000592E8091E403803178F48091E303811536
:1041600059F0E091A5032091A4033091DF03409121
:10417000DE0357E02E1301C008956E2F70E05E9F9E
:10418000F0011124DF01AA55BC4F14968C911497AD
:10419000811561F111968C911197831327C08C9131
:1041A000841324C015968C91159781111FC0129607
:1041B0008D919C91A091E003B091E1038A1B9B0B30
:1041C000883C910598F48091E4038F70806180931E
:1041D000E403E455FC4F80818F70806180838EED15
:1041E00093E00E9402190E94D7050895FB013196C1
:1041F000E770C0CFADE0B0E0E0E0F1E20C946A2EF1
:104200008C0186E0F801DE01189601900D928A95E6
:10421000E1F7F801F58084819EED892E93E0992ED7
:104220006090E203611018C0811599F0F11409F44F
:1042300015C1C8010E943416811509F40FC187E029
:10424000F801AEEDB3E001900D928A95E1F70E947E
:10425000A920FF24F39456C07080A280B380D09030
:10426000E3032091E0033091E103A501421B530BCE
:10427000D11409F4C3C0483C510508F079C0811538
:1042800041F38091DF03C180E090E40350E1E51643
:1042900008F059C0C81215C08091DE03871111C003
:1042A000F1104BC08E2D8F7080618093E4038EEDF2
:1042B00093E00E9402198091E403F8018683F12CB7
:1042C00021C0F1103AC040E06C2D872D0E941514DA
:1042D00040E06C2D872D0E941514F82E8111EFCF30
:1042E000888599850E942516292F22952F70903454
:1042F00070F49F702230A0F09115B1F0F801968112
:10430000903190F48F2D2D96EEE00C94862E2A5F3E
:104310002F70223068F0C8010E940219FD2CF2CFE4
:10432000911511F0811571F3805E883058F3F3CF49
:10433000803F40F3815F8330F9CF8091E403816057
:104340008093E403BCCFC8123BC08091DE03871189
:1043500037C0F11035C0E682C8010E94021987E01B
:10436000F801AEEDB3E001900D928A95E1F771CFBF
:10437000E090E403F0E1EF1650F48EED93E00E943C
:10438000021987E0F40111928A95E9F798CF811517
:1043900009F45FCF9091DF03F8018181981310C079
:1043A0008091DE0387110CC0F1100AC0E682C801BB
:1043B0000E94021987E0F40111928A95E9F749CF2A
:1043C000C8010E943416811509F448C0F11409F49B
:1043D00045C08091E403803208F431CF8091DE0340
:1043E0009091DF039A838983BC82AB826D821E82A7
:1043F000EF82CE0101960E94021921CF483C51055F
:1044000008F0BFCF811509F424CFF11439F1909150
:10441000DF038181981318C08091DE03871114C0D7
:104420008091E40380FD9BCF803108F498CF868390
:10443000807F803F09F490CF8681982F907F905F96
:104440008F70892B868388CFC8010E943416811112
:10445000F6CE8091E40381608093E403C8010E945A
:104460000219F7CEABE1B0E0E8E3F2E20C94742E6F
:104470004E8B5F8B688F798F8A8F192F9B8F91114D
:104480001092A3031D8A86E0FE017696DE011F9638
:1044900001900D928A95E1F70A8D011539F00B8B89
:1044A0001C8B61E0CE010F960E9405160B8B1C8BB6
:1044B00087E0FE013F96DE01189601900D928A95E5
:1044C000E1F7CE0108960E94FA20811128C02091C0
:1044D000A4033091A50387E0FE013896DE01119612
:1044E00001900D928A95E1F78C858115C1F0822F9C
:1044F00090E001968770992738171906D9F097E050
:10450000929FD0011124AA55BC4FFE013196019013
:104510000D929A95E1F78093A4030E94D70517E0C6
:104520008091A5039091A403891312C06B96E4E0D7
:104530000C94902E0E94BB181092A4031092A50315
:1045400087E0EEEDF3E0DF011D928A95E9F7E7CF12
:10455000189FC00111248A559C4F0E94FA20811592
:1045600029F38091A50390E00196877099278093A5
:10457000A503D6CFA6E0B0E0E0ECF2E20C94742EF6
:104580000E94720D8C01809150039091510380170D
:10459000910779F019821A820E94720DBC0149813B
:1045A0005A8180E090E00E943222109351030093E0
:1045B00050032696E4E00C94902EAAE2B0E0E3EEDD
:1045C000F2E20C94752E8FE592E0FC0101962091A9
:1045D000F100208322E087369207B9F780916002CC
:1045E000893009F456C0C8F4823009F4B3C083306E
:1045F00009F482C0813071F18091E80083FFE7C047
:1046000080915F02909160029A3008F0E0C0E92F3B
:10461000F0E0ED5EFF4C0C94592E8A3009F489C00D
:104620008B3051F780915F02813231F780916302C4
:1046300090916402892B01F78091E800877F809335
:10464000E8000E94E20E8091610280930F010E94B7
:10465000BB18D2CF80915F02813A71F68091E80059
:10466000877F8093E8008091630290916402892B98
:1046700061F060E080E090E070E00E94890E80913F
:10468000E8008B778093E800B7CF68E087E692E098
:10469000F3CF80915F02813209F0AECF8091630247
:1046A000909164028D7F892B09F0A6CF8091E8005C
:1046B000877F8093E8008091E80082FF18C0909186
:1046C000F3008091F200029731F48091F100813083
:1046D00011F0863021F48091F10080936F02809177
:1046E000E8008B778093E8000E94E20E85CF8091EE
:1046F0004F038111E0CF80CF80915F02813A09F0B2
:104700007BCF8091630290916402892B09F074CF72
:104710008091E800877F8093E8008091E80080FF27
:10472000FCCF80910F018093F1008091E8008E779B
:10473000D9CF80915F02813209F05ECF8091E8008D
:10474000877F8093E8000E94E20E8091620280934E
:104750005B0252CF80915F02813A09F04DCF809188
:10476000E800877F8093E8008091E80080FFFCCF1D
:1047700080915B02D8CF803889F0823841F58091F2
:1047800063028F70873018F58093E9008091EB0009
:1047900085FB882780F91092E90006C080911503F7
:1047A000880F90915C02892B9091E800977F9093FD
:1047B000E8008093F1001092F1008091E8008E777C
:1047C00023C0811116C080916102813011F1809166
:1047D000E80083FF0AC08091E800877F8093E800AB
:1047E0008091EB0080628093EB00AA96E3E00C944A
:1047F000912E823061F780916102811589F01092CB
:10480000E9008091E800877F8093E8000E94E20E33
:10481000DECF81E0933009F080E080931503EFCF85
:10482000809163028F702FEF280F263080F68093DF
:10483000E9002091EB0020FFE2CF933031F480912A
:10484000EB0080628093EB00DACF9091EB009061F7
:104850009093EB0021E030E0A90102C0440F551F06
:104860008A95E2F74093EA001092EA008091EB000B
:104870008860E8CF8111ABCF109161021F778091E2
:10488000E3008078812B8093E3008091E800877FAC
:104890008093E8000E94E20E8091E80080FFFCCF48
:1048A0008091E30080688093E30083E0111101C0F0
:1048B00082E080934F038BCF8058823008F087CFFF
:1048C00080916102909162028C3D53E0950799F5C9
:1048D00083E08A838AE289834FB7F894DE011396D6
:1048E00020E03EE051E2E32FF0E050935700849146
:1048F00020FF03C082958F703F5F8F708A30C8F0B1
:10490000895C90E08D939D932F5F243161F74FBFB9
:104910008091E800877F8093E8006AE270E0CE0132
:1049200001960E94890E8091E8008B778093E800C1
:104930004ECF805DE6CF292F33272330310509F490
:104940004EC078F52130310509F47DC08BE590E04B
:10495000E8E7F2E02230310509F039CF2091E80094
:10496000277F2093E800209165023091660282172C
:10497000930708F49C0140E02115310509F068C057
:10498000411166C08091E80082FDCDCF80914F0338
:10499000811549F2853039F28091E80083FFF2CF2A
:1049A000C2CF80916302909164022132310509F4F3
:1049B0003BC02232310509F00ACF8330910508F05F
:1049C00006CFFC01EE0FFF1FEA5DFE4F0190F08164
:1049D000E02D8D5D9E4FDC018C9190E011C09C011B
:1049E0003327813089F022303105B1F0232B09F0D3
:1049F000EECEE5E1F3E0E4918E2F90E0E5E1F3E027
:104A0000009709F4E4CEAACFE9EFF2E0E4918E2F0B
:104A100090E0E9EFF2E0F4CFE5EEF2E0E4918E2FE2
:104A200090E0E5EEF2E0ECCF8330910508F0CFCED8
:104A3000FC01EE0FFF1FE45DFE4F0190F081E02DC1
:104A400089E090E08BCF82E190E0E3EDF2E086CF69
:104A500080914F03811509F466CF853009F463CF47
:104A60008091E80083FD5FCF8091E80082FD8ACFCE
:104A70008091E80080FF80CF9091F3008091F20058
:104A80002115310519F08830910550F041E0089763
:104A900009F040E08091E8008E778093E8006CCFC9
:104AA00044914093F1003196215031090196E8CFAD
:104AB000803809F08CCE8091E800877F8093E800F1
:104AC00080915D028093F10078CE811180CE1091AB
:104AD0006102123008F07BCE8091E800877F8093DE
:104AE000E80010935D020E94E20E1115D1F084E0FF
:104AF00080934F0342E061EC81E00E948A1342E21E
:104B000061EC84E00E948A1342E261EC82E00E9440
:104B10008A1342E260EC83E00E948A1380914F0383
:104B200056CE8091E30087FDE2CF81E0E1CFA5E0A2
:104B3000B0E0EDE9F5E20C946B2EFE01319685E0D4
:104B4000DF011D928A95E9F78AE3A82E81E0B82E4D
:104B50008F014F01EE24E394F12C24E4C22E21E0D6
:104B6000D22EF50181915F018F3F09F43EC0F89488
:104B7000E82FE295EF70F0E021A18F70A70102C04D
:104B8000440F551F8A95E2F7CA01922F982B91A3E3
:104B900092A18095892382A3789400C0EFE3F1E08D
:104BA00031E0712C21912F3F79F0A22FA295AF70A7
:104BB000A05EB0E08C9190E02F7002C09595879533
:104BC0002A95E2F780FF37C080E0782A330FCE16AF
:104BD000DF0641F7F50182918F3F11F00E941D0819
:104BE00050EA5A95F1F7D8017C920F5F1F4FBFE34F
:104BF000AB16B1E0BB0609F0B4CF45E050E0B4011C
:104C000084EE92E00E94112F892BB9F085E0F40127
:104C1000A4EEB2E001900D928A95E1F781E08093D5
:104C200058020E94720D9093570280935602259667
:104C3000EDE00C94872E832FC8CF80915802811508
:104C4000B1F380915602909157020E94770E05971A
:104C500070F345E050E064EE72E08AE493E00E9475
:104C6000112F892B49F085E0E4EEF2E0AAE4B3E0ED
:104C700001900D928A95E1F710925802D8CF48E042
:104C800050E067E170E083E993E00E94DD2E10922E
:104C9000E90208954F925F926F927F928F929F9256
:104CA000AF92BF92CF92DF92EF92FF92CF93DF93BA
:104CB000C090D802D090D902E090DA02F090DB02E6
:104CC0008FB7F8944090DC025090DD026090DE02D5
:104CD0007090DF028FBF530142018C189D08AE080F
:104CE000BF080E946B0E6093D8027093D902809324
:104CF000DA029093DB02A0911603E6E1F3E04A2F7B
:104D000050E02FEFC20ED21EE11CF11CC418D508D2
:104D1000E608F708A5132FC040931603209114034B
:104D2000C0E0211109C020919303C22FC370C115A7
:104D300019F0C22FC695C69520911001223009F4B2
:104D400090C048F5211139C0109200016093E00233
:104D50007093E1028093E2029093E30289E2E6E13C
:104D6000F3E0AAEEB2E001900D928A95E1F781E0BE
:104D70008093100113C0218D328DC216D306E10439
:104D8000F10420F441505F5F3296C4CF280D391DE5
:104D9000328F218FF8CF233009F46EC0DF91CF918D
:104DA000FF90EF90DF90CF90BF90AF909F908F904B
:104DB0007F906F905F904F9008958C2F0E945D11AF
:104DC000C11561F38091000181500E945A0BC82FD8
:104DD000F92ED091110180919F030E941705833015
:104DE000D9F170F5D091140170911501813051F015
:104DF000D091170170911801823021F4D0911A01DD
:104E000070911B0180919603843608F484E66D2F1F
:104E10000E943608E62ED72EC82ED0E0FC1609F0E8
:104E200008F4BCCFFE01E156FE4F808183FF06C02F
:104E30002C2D4E2D6D2DCE010E94540B2196EECFC0
:104E400070E08430F9F2709112018530D9F2D0917E
:104E50001D0170911E01D6CFD091200170912101CA
:104E6000D1CFC0930E0180919303837080930D0185
:104E70000E94341483E07CCF8091E90281110E946A
:104E80003F264091E0025091E1026091E202709170
:104E9000E3022FB7F8948091DC029091DD02A0919B
:104EA000DE02B091DF022FBF841B950BA60BB70B60
:104EB0004097A105B10508F471CF109210016ECF93
:104EC000CDB7DEB7A7970FB6F894DEBF0FBECDBF44
:104ED00085B7806885BF85B7806885BF84B7877FC1
:104EE00084BF0FB6F894A895809160008861809384
:104EF0006000109260000FBE80E890E00FB6F8945A
:104F000080936100909361000FBE8BE198E09093D5
:104F10002D0280932C020E94320F0E94BA138091BE
:104F2000E20084608093E200789480914F038115C1
:104F300099F08091E9001091EC008F70179511277E
:104F40001795182B1092E9008091E80083FD0E94CC
:104F5000DD221F701093E90082E084BD93E095BDCF
:104F60009AEF97BD80936E000E946016811102C077
:104F70000E948D150AE311E0D8018D918D018F3FBC
:104F800011F00E941D08B1E00F331B07A9F70FE3D2
:104F900011E0F80181918F018F3F11F00E941D08EF
:104FA000F1E004341F07A9F785E0EAE4F3E0DF014C
:104FB000282F1D922A95E9F7E4EEF2E0DF011D9219
:104FC0008A95E9F780E090E00E94D72E853E9E4FBB
:104FD00021F40E946016811163C065EE7EEF80E0CF
:104FE00090E00E940B2F60E082E090E00E94ED2EA6
:104FF00081E080939E0361E083E090E00E94ED2ECB
:1050000060E074E184E090E00E940B2F60E086E0B5
:1050100090E00E94ED2E60E087E090E00E94ED2E8F
:1050200040E050E0BA0188E090E00E94FF2E60E08E
:1050300083E290E00E94ED2E60E08CE090E00E9420
:10504000ED2E60E08DE090E00E94ED2E19821A8234
:105050001B821C821D821E821F82188648E050E03F
:1050600067E170E0CE0101960E94DD2E40E050E045
:10507000BA018FE190E00E94FF2E80E00E9471153E
:105080000E948D1540E050E0BA018FE090E00E9450
:10509000FF2E40E050E0BA0183E190E00E94FF2E35
:1050A00082E090E00E94CF2E80933F0384E090E066
:1050B0000E94D72E9093A2038093A1030E9497256C
:1050C000EFEFF6E721E0E150F0402040E1F700C0CB
:1050D00000000E94972580914A0380FF08C06FEF6F
:1050E0007FEF80E090E00E940B2F0E94601483E02D
:1050F00090E00E94CF2E0E942A050E941E0C109262
:10510000EA0240E150E06FEF70E083E093E00E943C
:10511000272F1092160340E150E06FEF70E08FE20E
:1051200093E00E94272F81E08093E90248E050E05D
:1051300067E170E083E993E00E94BF2E1092E902DC
:10514000809193038430B8F485E480939303809135
:10515000110190911201A0911301809394039093F7
:105160009503A09396038FE7809397038FEF809327
:1051700098030E943F2683E091E09093730380930D
:10518000720380914F0310E403E0853009F40BC1F2
:105190000E949725E0E4F3E0FAA3E9A32AE433E0D0
:1051A0003FA32EA3D90191918D9125E433E02E17D1
:1051B0003F0709F404C19817B1F3B4E48B2EB1E0B2
:1051C0009B2E00E0AEA1BFA1DD90BFA3AEA3E9A1DD
:1051D000FAA16190FAA3E9A36D1409F491C06D24BA
:1051E0002401C12C77247394872D8621811509F41D
:1051F0007CC0172D1D21C9820A830E94720D9C83D9
:105200008B83F1E0FD8391E0111101C090E09E835A
:1052100049815A816B817C818D810E9432221115D6
:1052200039F0D2018C9110E08F3F11F08DA311E085
:10523000E12EF12C80911603810F9927991F099770
:105240006CF1E8E0AE2EB12CAE18BF08B701695E74
:105250007C4FA50187E193E00E941E2FB701615E9C
:105260007C4FA5018FE193E00E941E2FA501440F02
:10527000551FB701660F771F615D7C4F8FE293E08A
:105280000E941E2FB701695D7C4FA50187E293E064
:105290000E941E2F88E0811B80931603111529F1AF
:1052A00040911603BDA18B2F90E0242F30E0F9012F
:1052B000EA5EFC4FDC01AA0FBB1FAC5BBE4F5996E8
:1052C0005C915183880F991FDC01A25ABE4F8C91CB
:1052D00081878DA1818BF901EE0FFF1FEA5EFC4FE4
:1052E000128E118E4F5F40931603C394770C9FEF7D
:1052F000491A590AA5E0CA1277CFE9A1FAA1D292B8
:105300000F5FB5E08B0E911C053009F05BCF0E945A
:105310006B0E59C080914F03843009F439C00E944C
:105320004A268091140381110DC00E945D111092D4
:105330000E0180919303837080930D010E943414B9
:105340000093100131E0309314031092130388E1AD
:1053500090E00FB6F894A895809360000FBE10936C
:10536000600083B7817F846083BF83B7816083BF20
:105370007894889583B78E7F83BF0FB6F894A895ED
:1053800080916000886180936000109260000FBE81
:105390000E949725EAE4F3E081918111B8C293E07D
:1053A000EF34F907C9F780914F03853009F4B2CF84
:1053B0000E94BB180E94B90C10921403E9CE9813F6
:1053C000FCCE0E94BA220E944A2686E0EBE8F3E077
:1053D000DE01119601900D928A95E1F7C0908C0341
:1053E00010918D0300918E03E0908F03F090900355
:1053F00010928D0310928E0310928F0310929003DF
:10540000812F802B811509F440C080914703909132
:1054100048030E94770E1C0180918903811509F4CD
:1054200070C2E5E12E16310480F18F3F19F08F5FD5
:1054300080938903111559F00E94740C91E01116A4
:105440000CF09FEF899F802D112480938D0301150F
:1054500059F00E94740C91E010160CF09FEF899F98
:10546000802D112480938E0380918D03811569F026
:10547000D0908E03D11449F00E94660C80938D0366
:105480008D2D0E94660C80938E038E2D8F298115A1
:1054900009F442C080914503909146030E94770E23
:1054A0008BA39CA380918803811509F424C22BA1AE
:1054B0003CA12135310580F18F3F19F08F5F80933A
:1054C0008803E11459F00E94940C91E01E140CF032
:1054D0009FEF899F802D112480938F03F11459F041
:1054E0000E94940C91E01F140CF09FEF899F802D77
:1054F00011248093900380918F03811569F0E090CF
:105500009003E11449F00E94660C80938F038E2D66
:105510000E94660C8093900380918C03C81219C07E
:1055200080918D03811511F0181313C020918E0303
:10553000211511F002130DC090919003911511F0F7
:105540009F1107C030918F03311103C0822B892B2B
:1055500081110E947E0D86E0FE013196ABE8B3E03A
:1055600001900D928A95E1F70E94B90C9091490340
:10557000891721F0809349030E946B0E80914F039D
:10558000843009F0FECD83E08093E9008091E8004B
:1055900082FFF7CD8091E80090E085FF05C00E9472
:1055A000010F811599F091E08091E8008B7780934D
:1055B000E800911509F4E5CD8981EFEFE80FE331BB
:1055C00068F5F0E0E35EFF4C0C94592E00E210E029
:1055D000CE0101967C018091E80085FD0AC0809192
:1055E000E8008B778093E8000E94010F811599F302
:1055F000DACF8091F100D7018D937D0101501040E9
:1056000051F7D1CF1A828CE08B831AC08A81833004
:1056100049F138F4813061F08230D9F08FEF89831D
:105620000FC08430D9F71B821C821D821E8208C0E5
:105630000E946B0E0E945F2E6B837C838D839E8302
:1056400040E250E0BE016F5F7F4F82E00E94841411
:1056500098CD87E290E00E94CF2E1B821C821D8293
:105660008E83EECF8B8190E0FE01349685309105DC
:105670003CF7DC01A65BBC4F2C9121930196F6CF41
:105680008A81823071F0853049F68091930391E0F0
:105690008927809393031092100180E00E944E0BA3
:1056A000CFCF6B817C818D819E810E945F2E87E2AE
:1056B00090E00E94ED2EC4CF4C816B818A810E94C4
:1056C0009D159827892798279E838D83B9CF2D8193
:1056D0003E813227232732274C816B818A810E94A9
:1056E0000115AECF0E942815ABCF9A81933009F0F7
:1056F00095CF883009F43DC0893009F467C08B81AB
:10570000833099F1A0F48130D9F0823009F098CF3C
:105710008C81811123C08091930383708111109239
:105720001001809193038C7F8093930389CF843001
:1057300009F086CF8C8120E0409196036D810AC0EC
:105740004C8128EC429F412D11248091940320E04C
:105750006091950390E00E94A50B72CF0E94630BAD
:1057600060E08C810E94710B6BCF8C8180939703DA
:1057700094CF8B81833039F180F48130C1F0823055
:1057800009F05ECF80919303982F9370869586954C
:10579000911101C080E08C8353CF843009F050CF49
:1057A000809194038C83809195038D8349CF809160
:1057B0009603BFEF8B9FC001112468EC70E00E943C
:1057C000122E6C833DCF80919703E5CF0E943F2638
:1057D00037CF80E18A8334CF82E08A838CEA14CF8A
:1057E000CA80DB80DC24CD24DC248C817601E80EA9
:1057F000F11C8E010B5F1F4FEC14FD0409F420CF48
:1058000080E0ECEACE16E2E0DE0628F4C6018C5A0F
:105810009E4F0E94CF2ED8018D938D01BFEFCB1AE2
:10582000DB0AEACF0A811B81102701271027FE011E
:1058300031966F018C817F01E80EF11CCE14DF04DC
:1058400009F4FECE0C3AF2E01F0740F4D60114969C
:105850006C91C8018C5A9E4F0E94ED2E0F5F1F4F16
:10586000BFEFCB1ADB0AEACF0E946115E9CE86E0D2
:10587000B1CFCA80DB80DC24CD24DC248C8176018E
:10588000E80EF11C8E010B5F1F4FCE14DF0409F4EC
:10589000D7CE80E0ECE2CE16E1E0DE0620F4C601D1
:1058A00088960E94CF2ED8018D938D01BFEFCB1A21
:1058B000DB0AEBCF0A811B81102701271027FE018D
:1058C00031966F018C817F01E80EF11CEC14FD0410
:1058D00009F4B6CE0C32F1E01F0738F4D601149665
:1058E0006C91C80188960E94ED2E0F5F1F4FBFEF8D
:1058F000CB1ADB0AEBCFEBA1FCA13B9708F0DECD86
:105900000BCEFBE02F16310408F091CDBECD809177
:105910001503811509F447CDA0E1A9BDB2E1B9BDD8
:1059200009B400FEFDCF8091D8008F7D8093D80010
:105930008091E00082608093E0008091E00081FD32
:10594000FCCF0E94BB182FCD1F921FB61F921124AF
:105950008F939F93AF93BF9380911303811113C0D3
:105960008091DC029091DD02A091DE02B091DF0215
:105970004196A11DB11D8093DC029093DD02A0939E
:10598000DE02B093DF02BF91AF919F918F911F9084
:105990001FBE1F90189578941F921FB61F92112456
:1059A0008F939F93AF93BF938091DC029091DD0220
:1059B000A091DE02B091DF020196A11DB11D80937E
:1059C000DC029093DD02A093DE02B093DF02BF9170
:1059D000AF919F918F911F901FBE1F9018951F929E
:1059E0000F920FB60F9211242F933F934F935F9313
:1059F0006F937F938F939F93AF93BF93EF93FF9397
:105A00008091E10082FF09C08091E20082FF05C021
:105A10008091E1008B7F8093E1008091DA0080FF2C
:105A200024C08091D80080FF20C08091DA008E7F52
:105A30008093DA008091D90080FF9BC080E189BD0E
:105A400082E189BD09B400FEFDCF81E080934F0360
:105A500080915E02811109C00E94320F0E94BA1328
:105A60008091E20084608093E2008091E10080FFF9
:105A700017C08091E20080FF13C08091E2008E7F0A
:105A80008093E2008091E20080618093E200809147
:105A9000D80080628093D80019BC85E080934F03C2
:105AA0008091E10084FF29C08091E20084FF25C03D
:105AB00080E189BD82E189BD09B400FEFDCF8091FE
:105AC000D8008F7D8093D8008091E1008F7E8093F5
:105AD000E1008091E2008F7E8093E2008091E200FD
