:100000000C94B6050C94EE050C94EE050C94EE05DC
:100010000C94EE050C94EE050C94EE050C94EE0594
:100020000C94EE050C94EE050C9488240C944C244E
:100030000C9496250C94EE050C94EE050C94EE05AC
:100040000C94EE050C94EE050C94EE050C94EE0564
:100050000C94EE050C9470250C94EE050C94EE05B2
:100060000C94EE050C94EE050C94EE050C94EE0544
:100070000C94EE050C94EE050C94EE050C94EE0534
:100080000C94EE050C94EE050C94EE050C94EE0524
:100090000C94EE050C94EE050C94EE050C94EE0514
:1000A0000C94EE050C94EE050C94EE056B74756CD7
:1000B0007565534D5547006B74756C756552646E6C
:1000C00063006B74756C75654C6F7665006B747549
:1000D0006C75654C6569006B74756C756548554742
:1000E000006B74756C75654849006B74756C75654B
:1000F000474C55544553006B74756C756547477391
:10010000006B74756C75654761746F006B74756C0A
:100110007565436C61700062657866726F556768DB
:100120000062657866726F50756700626578667206
:100130006F4D6F6E6B65790062657866726F4D69A1
:100140006E676F0062657866726F44616E6365000A
:10015000566F746559656100566F74654E6179001C
:10016000547769746368556E69747900747769743B
:10017000636852616964005477697463684C697498
:1001800000547769746368436F6E48595045005452
:100190006F6D6252616964005374696E6B79436874
:1001A000656573650053696E67734E6F74650053C0
:1001B000696E67734D696300506F77657255705251
:1001C00000506F77657255704C004E6F744C696BC0
:1001D0006554686973004D6F644C6F7665004B72AF
:1001E00065796761736D004B6170706100476F6C7A
:1001F00064504C5A00476F6174456D6F74657900A7
:10020000476C697463684C69740044696E6F44613B
:100210006E636500426F70426F7000424F50006223
:100220007570574156450062757055700062757063
:1002300054554E4500627570544945445945006215
:1002400075704E6F640062757053757300627570DF
:10025000536D7567006275705241494E424F5700A9
:100260006275704B54554C55454855470062757042
:100270004845414450484F4E455300627570476FA2
:100280006C640062757046414E43594455434B00BF
:100290006275704558435553454D45006275704130
:1002A00053484455434B454D006275704173636537
:1002B0006E640062757041624455434B74696F6EA1
:1002C0000062757057696E6B006275705557550006
:1002D000627570536D69726B0062757052756D70E6
:1002E000006275704D61706C65006275704A656C76
:1002F0006C7900627570447261676F6E0062757030
:100300004368696C6C67757900627570424F420092
:1003100062757042415353534641434500627570C4
:1003200057697A0062757057617465720062757002
:1003300054494E464F494C0062757053616C7400CD
:1003400062757052617665006275704A41574E451C
:100350005353410062757048656172740062757034
:10036000476F6F736500627570436C6F75647300DF
:1003700062757042726F63006275705A454C4441F9
:10038000425550006275705A656A69626F00627505
:100390007057554200627570574F4F4B0062757031
:1003A0005448414E4B5300627570537765617479C0
:1003B00000627570536C61790062757053680062F9
:1003C000757053616C75746500627570506C7567FB
:1003D0000062757050415442414E47006275704D45
:1003E0004F4F5345006275704C554947494255502F
:1003F000006275704C4F5645006275704C696768B5
:10040000746572006275704B455953006275704B8C
:10041000656B7700627570494400627570484F5291
:100420004E00627570484541444F555400627570E6
:1004300047726F6F76790062757047726F677500EB
:1004400062757046524F4700627570467265616B07
:100450006F757400627570464C5554450062757036
:100460004669726500627570454500627570447931
:1004700065006275704475636B68656164006275E0
:10048000704455434B44414E43450062757044727D
:10049000756D7300627570446F6E7574006275706F
:1004A000444F495400627570446973636F0062750C
:1004B0007044696464790062757043726F776E008E
:1004C000627570436865666B69737300627570432B
:1004D0006865657365006275704348454552530011
:1004E00062757043415444414E4345006275704308
:1004F000616C6C00627570425550574144006275E2
:1005000070425550530062757042555000627570CC
:1005100042756700627570424F4F4D4552006275DB
:100520007042495453006275704269674272616952
:100530006E00627570424541524444414E4345004D
:10054000627570426172740062757042616C6C6FAA
:100550006F6E006275704261636B446F6F72006210
:10056000757041796F00627570416D6E6573696178
:100570000005010902A10185020901A1000509196F
:100580000129081500250195087501810205010959
:100590003009311581257F950275088106093815C6
:1005A00081257F950175088106050C0A38021581A1
:1005B000257F950175088106C0C005010980A1014C
:1005C000850319012AB700150126B700950175109A
:1005D0008100C0050C0901A101850419012AA002AE
:1005E000150126A002950175108100C005010906BC
:1005F000A1018506050719E029E7150025019508E1
:10060000750181020507190029EF1500250195F0F4
:1006100075018102050819012905950575019102E9
:10062000950175039101C00660FF0961A10109628E
:10063000150026FF00952075088102096315002624
:10064000FF00952075089102C005010906A101056A
:100650000719E029E7150025019508750181029524
:1006600001750881010507190029FF150026FF0003
:100670009506750881000508190129051500250151
:10068000950575019102950175039101C066055F9D
:1006900005530548054005320526051E0514050DC0
:1006A000050605FE04F404EC04E004D604CC04C002
:1006B00004B704AE04A5049D0494048B047E047264
:1006C000046B0465045D0454044804400437042D9D
:1006D0000422041A0414040C040404F903F103E5CD
:1006E00003DC03D103C903BF03B903B103A7039D0F
:1006F0000395038E0384037803700366035D03543C
:10070000034803400338032D0324031D031003098A
:1007100003FD02F302EA02E102D902D002C902C1DA
:1007200002B302A9029C02900283027B026D026066
:100730000255024D0246023F0235022D0227021FDA
:10074000021B0214020A020002F501ED01E701DEBC
:1007500001D601CA01C101B801AF01A50198018FFD
:1007600001810177016C0160015801500144013899
:10077000012B01210117010C010101F700EA00E141
:1007800000D700CD00C200B700AC000102E06163F9
:10079000767676767676767676760103E0000102D6
:1007A000E0616376767676767676760103E0000110
:1007B00002E0616376767676760103E0000001015F
:1007C0000101010101010102020202020202020210
:1007D00003030303030303030404040404040405E0
:1007E00005050505060606060607070707070808A4
:1007F0000808090909090A0A0A0B0B0B0C0C0C0D55
:100800000D0D0E0E0E0F0F0F1010111111121213ED
:10081000131414151516161717181819191A1A1B68
:100820001B1C1D1D1E1E1F202021222223242425C7
:100830002626272829292A2B2C2D2D2E2F30313200
:1008400032333435363738393A3B3C3D3E3F404110
:1008500042434445464748494A4C4D4E4F505153F8
:1008600054555658595A5B5D5E5F616264656668AF
:10087000696B6C6D6F7072737577787A7B7D7E8033
:1008800082838587888A8C8E8F91939596989A9C7F
:100890009EA0A2A3A5A7A9ABADAFB1B3B5B7BABC93
:1008A000BEC0C2C4C6C9CBCDCFD1D4D6D8DBDDDF64
:1008B000E2E4E7E9EBEEF0F3F5F8FAFDFF0152169A
:1008C0007E067E277E1E7E1A7E197E147E357E0B66
:1008D0007E317E247E1D7E257E2B7E087E2E7E37F9
:1008E0007E3A7E0F7E0D7E307E107E037E280000D5
:1008F000520552025203520452447E1C7E207E4D09
:100900007E537E4C7E437E3D7E427E4F7E097E3FFF
:100910007E517E4A7E327E417E187E5C7E497E5AC2
:100920007E005201520552035204521F7E457E172B
:100930007E4B7E0C7E137E1B7E267E407E0A7E11C1
:100940007E3C7E127E2F7E3B7E077E5D7E347E2146
:100950007E2A7E00520152025205520452467E47C0
:100960007E2D7E4E7E5E7E5B7E3E7E0E7E397E38A6
:100970007E287E587E337E367E297E237E227E151B
:100980007E2C7E487E00520152025203520552765E
:100990007E777E787E797E7A7E7E7E7F7E807E8187
:1009A0007E827E7B7E7C7E7D7E837E847E617E6297
:1009B0007E737E667E6F7E005201520252035204A5
:1009C0005221782778237825782978227828782466
:1009D0007826782A7800000000000000000000C699
:1009E00052017E007E027E20780052530054005552
:1009F000002A0000005F0060006100560000005CFB
:100A0000005D005E005700000059005A005B0000C6
:100A1000000100620062006300580009025B0003ED
:100A20000100A0FA090400000103010100092111DD
:100A300001000122440007058103080001090401A7
:100A40000002030000000921110100012222000719
:100A500005820320000107050303200001090402A9
:100A600000010300000009211101000122B6000766
:100A70000584032000011201000200000008F1F1CA
:100A80002500010001020001120342005500500040
:100A90007000610064003200350000001A0353004A
:100AA00070006900640065007200490073006C000A
:100AB00061006E00640000000403090400000000EF
:100AC0000000000000000000000000000000000026
:100AD0000000000000000000000000000000000016
:100AE0007E0F00D4FFFFFFC7000000780000000069
:100AF000000000002A2B2800000000000000000079
:100B00000000000000000029000000002C1E34201E
:100B1000212224342627252E362D3738271E1F2044
:100B20002122232425263333362E37381F04050689
:100B30000708090A0B0C0D0E0F10111213141516CD
:100B40001718191A1B1C1D2F3130232D35040506CB
:100B50000708090A0B0C0D0E0F10111213141516AD
:100B60001718191A1B1C1D2F3130354C11241FBEAC
:100B7000CFEFDAE0DEBFCDBF04B603FE18C0809130
:100B8000B1039091B203A091B303B091B403873045
:100B9000904BA740B04B59F41092B1031092B2039E
:100BA0001092B3031092B403E0E0F8E3099512E069
:100BB000A0E0B1E0E6E2FAE502C005900D92A230B5
:100BC000B107D9F723E0A2E0B2E001C01D92A13B3A
:100BD000B207E1F70E94BF250C94112D0C94000080
:100BE000482F20917B039091420357E0291302C0C4
:100BF00080E0089530E0529FF001539FF00D1124E2
:100C0000ED5BFC4F8181681306C08081481303C0EF
:100C100085818111EECF2F5F3F4F2770E7CFE8ED41
:100C2000F0E080818E7F80831092E2001092DA00E3
:100C30001092E100A0EEB0E08C9181608C938081F5
:100C40008F77808319BCA7EDB0E08C918E7F8C9359
:100C500080818F7E808310922C0308952091E40080
:100C60003091E50085E69091EC0090FF06C09091F0
:100C7000E80090FF06C080E008959091E80092FDA2
:100C8000FACF90913803992391F0953091F090919B
:100C9000EB0095FD10C04091E4005091E500241751
:100CA000350709F381509A01F1F684E0089582E056
:100CB000089583E0089581E0089580913A0387FFC5
:100CC00013C08091E80082FF06C08091E8008B7716
:100CD0008093E80004C0809138038111F2CF089519
:100CE000809138038823D9F38091E80080FFF8CF02
:100CF0008091E8008E77ECCF982F9093E900242F15
:100D0000762F50E0891731F07091EC002091ED00C2
:100D10005091F00021FD07C09F5F973071F78093DD
:100D2000E90081E008953091EB003E7F3093EB00C5
:100D30003091ED003D7F3093ED003091EB0031605C
:100D40003093EB007093EC002093ED005093F00093
:100D50002091EE0027FDE0CF80E00895B0E0A0E014
:100D6000E4EBF6E00C94832CC8EDD0E088818F7E14
:100D70008883E7EDF0E080818160808384E082BF3A
:100D800081E080932C0388818E7F888302EE10E0BF
:100D9000F80110821092DA0081EEC82ED12CF601F3
:100DA000108288818F778883888180688883888192
:100DB0008F7D888319BC10923803109239031092EA
:100DC00037031092360390EEE92EF12CF701808163
:100DD0008B7F808388818160888342E060E080E04F
:100DE0000E947C06F60180818E7F8083F8018081DD
:100DF00081608083808188608083F70180818E7F1D
:100E00008083888180618883CDB7DEB7E8E00C9469
:100E10009F2CFC0180914003909141038617970716
:100E2000A0F06115710529F49091E8009E779093E8
:100E3000E80090E06115710551F4911108C08091AE
:100E4000E80082FF35C080E00895BC01F2CF8091B8
:100E500038038823C9F18530C9F18091E80083FD0A
:100E600031C08091E80082FDEACF8091E80080FFE8
:100E7000E1CF2091F3008091F200322F282F6115ED
:100E8000710519F02830310558F091E0283031050E
:100E900009F090E02091E8002E772093E800CACF77
:100EA00081918093F100615071092F5F3F4FE7CF2F
:100EB00080913803882341F0853041F08091E8002B
:100EC00083FFBDCF81E0089582E0089583E0089517
:100ED0002FB7F8948091280390912903A0912A03B9
:100EE000B0912B032FBF089580910E01089590912A
:100EF0000F019130D1F49091250397FF16C0E82F90
:100F0000E695E695E695EE31D8F4F0E0E45FFD4F26
:100F1000282F277081E090E001C0880F2A95EAF71A
:100F200080959281892382830895E4E0F2E09281A2
:100F3000891301C01282319692E0EA30F907B9F7BD
:100F40000895A3E0B0E0E7EAF7E00C94892C209143
:100F500023033091240328173907A1F09093240329
:100F600080932303E0912103F0912203309751F005
:100F700024E029839B838A830084F185E02DCE01C0
:100F8000019609952396E2E00C94A52CA3E0B0E02D
:100F9000ECECF7E00C94892C20911F033091200396
:100FA00028173907A1F09093200380931F03E09145
:100FB0002103F0912203309751F023E029839B8392
:100FC0008A830084F185E02DCE0101960995239650
:100FD000E2E00C94A52CE0912103F09122033097DC
:100FE00029F00190F081E02D0995089580E00895A1
:100FF0000E94680720911B03211104C020911C034B
:10100000222321F0909318038093170320911D034E
:10101000211104C020911E03222321F09093160376
:1010200080931503E0912103F0912203309749F05A
:1010300082E0809319030680F781E02D89E193E037
:10104000099508958091140380FD16C081FD16C096
:1010500082FD16C0809113038823A1F0883280F4AA
:1010600028E0829FC001112468E270E00E94392CC0
:10107000862F672B39F0089582E0089584E0089563
:1010800088E0089581E008958091140380FD14C0E4
:1010900081FD14C082FD16C080911203882381F067
:1010A0008E3180F420E5829FC00111246EE170E052
:1010B0000E94392C862F089584E1089588E20895CE
:1010C00088E0089580E50895282F35EB2303C001BB
:1010D000112497FF04C080589109892F08958058E2
:1010E0009F4FFBCFFC01EE0FFF1FE80FF91FE155EB
:1010F000FD4F6183408322830895EFEAF2E081830C
:1011000060834283339693E0E231F907C1F7089593
:10111000559A0895BC019FEF613E8EE1780740F437
:101120009B0195E0369527959A95E1F798E0920F07
:1011300041E0E42FE90FFF27FF1F9F013595279519
:10114000822F229FF001239FF00DF00D11246E17C6
:101150007F0738F49FEF920F941758F78FEF840FA3
:1011600008952F3FE9F341E0420FF6CF80918003CD
:10117000837011F010920C01809180038C7F80931A
:101180008003089580918003837011F410920C0104
:10119000809180038C7F8160809380030895880F05
:1011A000880F880F98E0980F923208F091E2089526
:1011B000EF92FF920F939701201B31092F3F3105CA
:1011C00019F010F02FEF30E02095382F320F08F48F
:1011D0003FEF832F0F91FF90EF900895EF92FF92D2
:1011E0000F939701201B31092F3F310519F010F0A3
:1011F0002FEF30E0322F3095482F430F08F44FEF98
:10120000842F620F0F91FF90EF900895EF92FF925D
:101210000F93972F093438F4B701601B71096F3FA2
:10122000710519F010F06FEF70E0485F5F4F4131CA
:10123000510540F0A901485F5F4F4131510510F061
:101240006FEF70E06095482F460F08F44FEF842F42
:1012500037FF02C02D5F3F4F359527953595279570
:1012600060918103620F792F0F91FF90EF900895A5
:10127000EF92FF920F931F93E00EF11C890137FF4D
:1012800003C011950195110924E0000F111F2A9543
:10129000E1F70F3F110519F014F00FEF10E09A017C
:1012A00057FF03C031952195310994E0220F331F78
:1012B0009A95E1F7201731070CF489010E0D1F1DD7
:1012C0000F3F110519F010F00FEF10E00095282FD7
:1012D000200F08F42FEF822F1F910F91FF90EF90B6
:1012E0000895EF92FF920F93970195E0099F200DCB
:1012F000311D11242F3F310519F010F02FEF30E090
:101300002095382F320F08F43FEF832F0F91FF9075
:10131000EF900895409520E4429F412D1124640FE1
:1013200008954095282F429F412D1124842F089520
:10133000EF920F93972F23E0029FB0011124759530
:1013400067956E0D792F0F91EF900895E42FF0E0DF
:10135000EE0FFF1FE156FE4F6081621B0895E42FE0
:10136000F0E0EE0FFF1FEB57FE4F618D621B0895FB
:10137000622F0895E42FF0E0EE0FFF1FEB57FE4FB2
:10138000418D34EE439F412D1124E82FF0E050E0D1
:10139000445E5F4FDA01A21BB1099D01B7FF03C094
:1013A00031952195310993E0220F331F9A95E1F78A
:1013B000AF01421B530B9A0157FD20E0582F259F88
:1013C000212D1124822F0895E42FF0E0EE0FFF1F4E
:1013D000EB57FE4F418D34EE439F412D1124E72FF3
:1013E000F0E050E0445E5F4FDA01A21BB1099D01BD
:1013F000B7FF03C031952195310993E0220F331FC8
:101400009A95E1F7AF01421B530B9A0157FD20E07B
:10141000279F212D1124722F08950E947D08089581
:101420000E94720808959091AE02892B8093AE02BB
:101430000895E0E8F3E0248130E1231B08F420E084
:10144000248381E00E94130A0895E0E8F3E02481F8
:1014500030E1230F08F42FEF248381E00E94130A68
:10146000089590918003937061F08093810360935D
:101470008203493C08F048EC822F409383030E948A
:10148000130A0895E0E8F3E0438120E1421B08F4E9
:1014900040E0818121E0628190E00E94310A08955C
:1014A000E0E8F3E0438120E1420F08F44FEF81814F
:1014B00021E0628190E00E94310A0895E0E8F3E0C3
:1014C000628120E1621B08F460E0818121E04381B8
:1014D00090E00E94310A0895E0E8F3E0628120E1A3
:1014E000620F08F46FEF818121E0438190E00E9458
:1014F000310A0895E0E8F3E0818121E043816281CF
:101500008850990B0E94310A0895E0E8F3E0818148
:1015100090E021E04381628108960E94310A08959B
:1015200090918003937051F0811109C09460909361
:101530008003862F10920C010E94130A08958A31AD
:1015400010F09466F4CF880F880F982BF0CF80911D
:10155000800386958695815009F489E161E00E94B7
:10156000900A089580918003869586958F5F8A31D1
:1015700008F081E061E00E94900A0895E0E8F3E05D
:10158000908121E09227908310920C010E94130A0F
:1015900008950F931F93522F10E0F801EE0FFF1FD5
:1015A000E156FE4FA081A052BB0BAA0FBB1F9D01AD
:1015B0005203F001539FF00D1124000F111FD801A9
:1015C000AB57BE4F59960C910052110B000F111FD3
:1015D00040039001419F300D11242E0F3F1F37FF14
:1015E00002C021583F4F220F232F221F330B620FBF
:1015F0001F910F910895FC019B01009721F477FD45
:101600002BC080E00895AC0197FF04C04427552704
:10161000481B590BB901640F751F37FD10C0241BFF
:10162000350BC901A5E0880F991FAA95E1F70E9423
:10163000392C80E2861BF7FF10C081950895CB01FD
:1016400065E0880F991F6A95E1F7BA01621B730B79
:101650000E94392C80E6EECF80E80895EF920F9338
:10166000CF93DF93D72FC82FC9010E19BA010E945B
:10167000FB0A602F681B7D2F8C2FDF91CF910F917C
:10168000EF9008950F93CF93DF93D72FC82FC90101
:10169000BA010E94FB0A682F600F7D2F8C2FDF910B
:1016A000CF910F910895EF920F931F93CF93DF93F4
:1016B000D62FC72F182FC9010E19010FBA010E948A
:1016C000FB0A081B202F219F212D1124822F6D2F13
:1016D0007C2FDF91CF911F910F91EF900895EF92A2
:1016E0000F931F93CF93DF93D62F172FC82FC901C6
:1016F0000E19070FBA010E94FB0A702F781B719F09
:10170000712D11246D2F8C2FDF91CF911F910F918F
:10171000EF9008950F931F93CF93DF93D62FC72F8A
:10172000182FC901212F201B022FBA010E94FB0A8A
:10173000982F990F990F891B800F282F219F212DFA
:101740001124822F6D2F7C2FDF91CF911F910F914C
:1017500008950F931F93CF93DF93D62F172FC82F82
:10176000C901272F201B022FBA010E94FB0A982FC4
:10177000990F990F782F791B700F719F712D11247C
:101780006D2F8C2FDF91CF911F910F910895E82F2E
:1017900086FDE0952E2F2F7086FD2F5FE695E6954E
:1017A000E695E670F0E0E259FE4F9181929F902D10
:1017B000212D112492959F702295207F922B2081BC
:1017C000920F87FD919580E8890F08951F93CF931D
:1017D000DF93D62FC72F182F822F86950E94C70B15
:1017E000805887FD8195880F282F219F212D112456
:1017F000822F6D2F7C2FDF91CF911F91089530E0C4
:1018000020E0869F212D969F200D311D1124C901B6
:101810000895B0E0A0E0EFE0FCE00C94812C362FBE
:10182000472FE82FF0E0E354F84F71110AC0E4911C
:101830008E2F2E2F6E2F722FCDB7DEB7EAE00C94CD
:101840009D2CC72FD0E02491F22FE22EF12C56E0F0
:10185000659FC00111240FEF10E0B8010E94252CF4
:10186000832F90E0880F991F35E5369FD001379F71
:10187000B00D11248A1B9B0B982F990F980F6801AC
:10188000CC1ADD0ACE9CD001CF9CB00DDE9CB00DF1
:1018900011248B2F499FA0011124452F5527680142
:1018A000C41AD50ACE9CA001CF9C500DDE9C500DD1
:1018B0001124E52F5801A91AB108AC9E6001AD9E14
:1018C000D00CBC9ED00C1124CD2CDD240C191D098C
:1018D0000E9DE0010F9DD00D1E9DD00D1124623094
:1018E0007105B1F058F46115710579F06130710539
:1018F00009F4A0CFE22F2B2F852F9CCF64307105E8
:1019000071F048F066307105A9F7E22F2D2F92CFC4
:10191000EB2F8D2F8FCFEB2F822F252F8BCF2B2FC0
:101920008F2FED2F87CFACE0B0E0E9E9FCE00C941D
:10193000792C8A8378876F83809111010E94CF0868
:101940009B83209188032C83482F50E05C874B8732
:10195000CA01880F991FFC01EB57FE4F6F01FA81F6
:101960008F2F90E09C01220F331FA9014F555C4F30
:101970005E834D83FC013196FA87E9878B819B85D5
:10198000981748F081E0EB81E13208F080E02C9676
:10199000E2E10C94952CEB85FC85E052FE4F8081B2
:1019A00090911201892309F12090810330908203E4
:1019B00029853A8528573C4F39014D805E803A8110
:1019C000398310E02C8139813217C8F020918303CC
:1019D000129F112D1124B101812F0E94090C472F54
:1019E000282F8B859C850E94100A4B855C854F5F54
:1019F0005F4F5C874B8752E0C50ED11CBFCFF30110
:101A000081913F01F601A18CA81ABB08828CF301D9
:101A10008781881A9908AA9CC001AB9C900D900DF3
:101A20001124889C9001899C300D300D1124820F67
:101A3000931F82309105DCF4082F6091840321E02C
:101A4000620F08F46FEFF201819191912F010E94D2
:101A5000FF0B7C019401A501B101812FEF81F88575
:101A600009951B01F981FF5FF983182FABCF0E9405
:101A70008A08E2CFB0E0A0E0E0E4FDE00C94842C22
:101A80008C01809111010E94CF08C82FD92E20917E
:101A9000840331E0230F08F42FEF30E050E040E002
:101AA0006FEF7FEF80E090E00E944D2C7901D0E055
:101AB0004C2FCD1550F081E0F0E2FD1508F480E0E8
:101AC000CDB7DEB7E7E00C94A02CFE01E052FE4F4C
:101AD000808190911201892329F19091880391507E
:101AE000E92F092E000CFF0BE857FC4F97FF1CC095
:101AF00097016091840341E0640F08F46FEFC9011E
:101B00000E94FF0BAC016091810370918203809170
:101B10008303F80109950E94090C472F282FCE0155
:101B20000E94100A2196C4CF818948130BC0DF019F
:101B3000AA0FBB1FA858B34059962D913C912E1562
:101B40003F05B8F291503197D1CF2F923F924F92EB
:101B50006F927F928F929F92AF92BF92CF92DF92BD
:101B6000EF92FF920F931F93CF93DF933C018091ED
:101B700011010E94CF08C82F192F60918403669528
:101B800080917C0390917D030E94FF0BF82ED0E0A2
:101B9000CE01880F991F9C012B573E4F6901C11739
:101BA000B0F081E0113208F080E0DF91CF911F9119
:101BB0000F91FF90EF90DF90CF90BF90AF909F90EC
:101BC0008F907F906F904F903F902F900895FE01DF
:101BD000E052FE4F808190911201892399F1F60124
:101BE000818D282F2052330B5901828DE82FE0522E
:101BF000FF0B4F01229FC001239F900D900D1124D8
:101C0000EE9F9001EF9F300D300D1124820F931F36
:101C10008230910510F00E948A0820908103309054
:101C2000820340908303EF2C082F9401A501842D9B
:101C3000B101F30109950E94090C472F282FCE010D
:101C40000E94100A2196F2E0CF0ED11CA8CFB0E07E
:101C5000A0E0EDE2FEE00C94822C6C018091110179
:101C60000E94CF08C82F192F609184036695809138
:101C70007C0390917D030E94FF0BB82ED0E0CE0133
:101C8000880F991F9C012B573E4F7901C11748F0CF
:101C900081E0113208F080E0CDB7DEB7E9E00C94C6
:101CA0009E2CFE01E052FE4F80819091120189230B
:101CB000B9F0F701228D2052330B418D4052550B64
:101CC0006091810370918203809183030B2DF60153
:101CD00009950E94090C472F282FCE010E94100A57
:101CE000F2E0EF0EF11C2196D1CFEF92FF920F930D
:101CF0001F93CF93DF937C01809111010E94CF0845
:101D0000C82F192F609184036695669521E0620FB4
:101D100008F46FEF80917C0390917D030E94FF0B8C
:101D2000082FD0E0C11748F081E0113208F080E0C0
:101D3000CDB7DEB7E6E00C94A12CFE01E052FE4FD9
:101D4000808190911201892389F0609181037091C3
:101D5000820380918303202F4C2FF70109950E9465
:101D6000090C472F282FCE010E94100A2196DACFA6
:101D7000B0E0A0E0EEEBFEE00C94812C182F8091F7
:101D80000B0181133EC090918003937020910A0152
:101D900030E081E09217130609F480E081708093AF
:101DA00013018091850390911201981739F0809367
:101DB000120140E060E080E00E940D0A1A3108F054
:101DC000CBC1E12FF0E0E951F14F0C946C2C030FE3
:101DD0000E0F4D0F840FBD0FFA0FFF0F02100510ED
:101DE0000A100D101210151018101B101E102110C3
:101DF000241027106B107010731080108B10961029
:101E0000A11081E0CBCF809113018823F1F040E055
:101E100060E080E00E940D0A80E017C0809111010F
:101E20000E94CF08C82F092F60918103709182030F
:101E3000809183030E94090CF62EE72ED82ED0E065
:101E4000C017D8F081E0013238F7909111019F5FFF
:101E50009093110181110CC082E080930C0180915C
:101E60001301811105C0111103C083E080930C019F
:101E7000CDB7DEB7EAE00C949D2CFE01E052FE4F98
:101E8000808190911201892331F02D2D4E2D6F2DDF
:101E9000CE010E94100A2196D3CF809111010E9499
:101EA000CF08C82F092FE0908203F0908303D091D0
:101EB00081036D2F7E2D8F2D0E94090CD62EC72EEB
:101EC000B82E609184036D0F7E2D8F2D0E94090C1A
:101ED000F62EE72EA82ED0E0C01708F0B3CFFE01F3
:101EE000E052FE4F908180911201892359F02A2DF2
:101EF0004E2D6F2D90FD03C02B2D4C2D6D2DCE0141
:101F00000E94100A2196E8CF809111010E94CF080B
:101F1000F92EE0908203D09083032091840300E4A3
:101F2000029F012D1124C82FD0E0CF1530F081E0A1
:101F300030E23F1508F089CF6FCFFE01E052FE4F2F
:101F40008081909112018923B1F0FE01EE0FFF1FF5
:101F5000EB57FE4F828D82958F7060918103809F39
:101F6000600D11247E2D8D2D0E94090C472F282FE6
:101F7000CE010E94100A2196D8CF809111010E94B3
:101F8000CF08F92EE0908203D09083032091840340
:101F900000E4029F012D1124C82FD0E0CF1530F0AE
:101FA00081E090E29F1508F050CF36CFFE01E0525D
:101FB000FE4F8081909112018923D1F0FE01EE0F36
:101FC000FF1FEB57FE4F618D069FB001112445E0C6
:101FD000759567954A95E1F780918103680F7E2D8D
:101FE0008D2D0E94090C472F282FCE010E94100A28
:101FF0002196D4CF86EE9BE00E94750E26CF84EE0C
:1020000099E0FACF8AEB99E0F7CF89EA9BE00E944A
:10201000270E1BCF8AE89BE0FACF8FE69BE00E9459
:10202000A50D13CF83E59BE0FACF88EB99E0E4CFD1
:102030008FEA99E0E1CF86EA99E0DECF88E999E07E
:10204000EECF82E49BE0E3CF8EE29BE0E8CF80918D
:1020500011010E94CF08C82FD92E60918403669584
:10206000669580917C0390917D030E94FF0BF82E72
:1020700080E48F0D0E94C70B90E8C92EC80E8F2DEB
:102080000E94C70B20E8B22EB80ED0E0CD1530F07C
:1020900081E090E29D1508F0D8CEBECEFE01E05260
:1020A000FE4F808190911201892399F06091810304
:1020B0007091820380918303EF2C0C2F2B2D4C2DDC
:1020C0000E94C90A0E94090C472F282FCE010E94A6
:1020D000100A2196DBCF81E999E00E943A0DB5CE36
:1020E0008AE899E0FACF8091880321E0382F321BEB
:1020F00008F430E0832F61E779E00E94930CA5CECD
:102100008091880321E0382F321B08F430E0832FC0
:1021100068E379E0F2CF8091880321E0382F321B09
:1021200008F430E0832F66E079E0E7CF8091880300
:1021300021E0382F321B08F430E0832F6EEE78E078
:10214000DCCF8091880321E0382F321B08F430E087
:10215000832F68ED78E0D1CF809111018F5F80935C
:1021600011017ACE80E00895F894E82FE295EF709F
:10217000F0E031A1282F2F7081E090E001C0880F9E
:102180002A95EAF7982F9095932391A392A1892BF2
:1021900082A378940895811520E59207C8F58115EA
:1021A00040E4940708F098C0803E910518F58D3CF6
:1021B000910508F089C0883A910570F4853A910537
:1021C00008F079C08130910511F118F08430910543
:1021D000F0F490E080E01BC0833C9105D0F7885A72
:1021E000E82FF0E0EE0FFF1FE25DFE4F808191814E
:1021F00094640895811550E2950708F0A9C08115EF
:1022000021E0920708F062C0883E910510F708951A
:10221000803642E5940718F5803452E5950708F0BA
:1022200065C0803222E5920708F059C0811542E569
:10223000940708F474C0282F2695269550E2259F10
:1022400090011124482F437081E090E002C0880F74
:10225000991F4A95E2F7822B932B9D680895803C45
:1022600052E59507E0F4803A22E5920708F052C063
:10227000803842E5940708F0ACCF982F937021E0A6
:1022800030E002C0220F331F9A95E2F73A68869534
:102290008695877050E2859FC001112438C0803E2A
:1022A00052E5950708F095CF982F882788279F71CA
:1022B000806F906A0895855AE82FF0E0E55DFE4F43
:1022C000808190E0906408959065089520E0392F12
:1022D000A901482BCA0108959F70906A08958F71D3
:1022E00090E0982F8827816F906A0895982F9370B7
:1022F00021E030E002C0220F331F9A95E2F73C68DC
:1023000086958695877040E2849FC0011124822BB8
:10231000932B08958F7190E0982F882708959C0142
:1023200095E0369527959A95E1F72F7030E0322F9A
:102330002227482F4F7150E084FF05C084E0440FEE
:10234000551F8A95E1F7C9019069842B952B089553
:10235000292F2F7199279062922B089580917B03EA
:1023600090914203981301C008958F5F8770FACF50
:10237000292F953078F5853068F590E035E0239F7A
:10238000800D911D1124682F677023E09695879525
:102390002A95E1F7FC01EE0FFF1FE80FF91FE45D3E
:1023A000FD4F50E040E080E0219130E0062E02C079
:1023B000369527950A94E2F721703327042E01C041
:1023C000220F0A94EAF7822B4F5F5F4F433051058B
:1023D00059F7089580E00895292F953098F58530B4
:1023E00088F590E035E0239F800D911D1124282F62
:1023F000277041E001C0440F2A95EAF723E0969543
:1024000087952A95E1F7FC01EE0FFF1FE80FF91FF2
:10241000E45DFD4F30E020E070E05191DF01119765
:10242000CB01022E02C0969587950A94E2F781703F
:1024300081958527842385278C932F5F3F4F2330F9
:10244000310559F708958093AC0208959091AC023C
:1024500021E030E0F90101C0EE0F8A95EAF7D901D9
:1024600002C0AA0FBB1F6A95E2F7EA2B01C0220F38
:102470004A95EAF7892F8E23E81305C0292B822F6E
:102480000E942312089520952923F9CF21E030E0FE
:1024900001C0220F8A95EAF720958091AC02822331
:1024A0000E942312089521E030E001C0220F8A9596
:1024B000EAF78091AC02822B0E9423120895809348
:1024C00072020895662309F45DC08D3C41F40E94B8
:1024D0004408819580931C030E94F80708958E3C60
:1024E00019F40E944408F6CF8F3C31F40E9444084E
:1024F000819580931B03F0CF803D19F40E9444081E
:10250000F8CF893D29F40E94220880931D03E4CF6F
:102510008A3D21F40E9422088195F7CF8B3D31F44A
:102520000E942208819580931E03D6CF8C3D19F41A
:102530000E942208F8CF9FE2980F983070F4815DD6
:10254000990B21E030E001C0220F8A95EAF78091D3
:102550001A03822B80931A03BFCF8D3D31F48091F3
:102560001403816080931403B7CF8E3D21F48091D2
:1025700014038260F7CF8F3D09F0AECF8091140332
:102580008460F0CF8D3CD9F490911C0397FF1DC05F
:1025900010921C0380911B03811106C080911C03C3
:1025A000811102C01092120380911D03811194CFFA
:1025B00080911E03811190CF109213038DCF8E3C1A
:1025C000D9F490911C0319161CF39FE2980F9830D0
:1025D00008F03FC0815D990B21E030E0A90102C005
:1025E000440F551F8A95E2F7CA01809590911A030E
:1025F000892380931A03CECF90911B038F3C29F43B
:1026000097FFE3CF10921B03C5CF803D19F4191635
:10261000CCF3DBCF90911D03893D29F41916ACF65C
:1026200010921D03B7CF8A3D19F497FFCECFF8CF94
:102630008B3D39F490911E0397FFC7CF10921E0374
:10264000A9CF8C3D09F0C1CF90911E031916B4F3A8
:10265000BCCF8D3D31F4809114038E7F80931403A1
:1026600099CF8E3D21F4809114038D7FF7CF8F3D5C
:1026700009F090CF809114038B7FF0CF982F929523
:102680009F7020E011F0892F24E0982F9695969561
:1026900011F02E5F892F982F969509F02F5F822FCA
:1026A00008950F931F93CF93DF938B01EA019091CD
:1026B0003803943061F58093E9008FEF9091E80042
:1026C000815095FD06C095ED9A95F1F700008111B6
:1026D000F5CF8091E80085FF1AC00E942E06811177
:1026E00011C08091E80085FD06C08091E8008E77DA
:1026F0008093E800F2CFF80181918F018093F1007F
:10270000219779F78091E8008E778093E800DF9138
:10271000CF911F910F91089543E050E0BC0184E0F8
:102720000E945113089546E050E0BC0184E00E94ED
:102730005113089540E250E0BC0184E00E9451131F
:102740000895CF93DF93EC0148E050E0BC0181E0B5
:102750000E94511388E0FE01AEE2B3E001900D92B9
:102760008A95E1F7DF91CF91089581E08093E000B1
:1027700080E28093D8001092C9008FE19EE4019717
:10278000F1F700C0000087E090EBDC018093B1031B
:102790009093B203A093B303B093B40388E19CE099
:1027A0000FB6F894A895809360000FBE90936000D8
:1027B000FFCF8BB18F7D9BB190622FB7F894EFEA7A
:1027C000F2E033E0E231F30741F42FBF8FE594E00C
:1027D0000197F1F700C000000895319148E09BB9DE
:1027E000000000C037FF8BB9330F000000C000C0ED
:1027F00000C08BB900C04A9591F7E3CFCF93C82FA3
:102800006FEF811165E284E290E00E94012C6FEF8E
:10281000C11162E085E290E00E94012C6FEFC111CE
:1028200068E086E290E00E94012CCF910895CF935A
:10283000DF93C8EBD1E060E0CE010E94012C21962D
:10284000C11584E0D807B9F7DF91CF9108951F93A0
:10285000CF93DF93962F8830E8F46530D8F4453075
:10286000C8F4632F122FC42FD0E0CC0FDD1F2AE055
:10287000929FC00DD11D112492E3899FC00DD11DDF
:102880001124CE0188960E94012C612FCE018996D9
:102890000E94012CDF91CF911F910895B0E0A0E03C
:1028A000E4E5F4E10C94832CF12CE12CD12C87018C
:1028B000C12C1EC04C2F87E021E030E0D81651F02B
:1028C000FE01E00FF11FEE0FFF1FE354F74F85915C
:1028D00094919C016C2D8D2D0E9427142196C5305A
:1028E000D10541F7C3940B5F1F4F85E0C81619F05F
:1028F000D0E0C0E0DFCFD39489E1E80EF11C88E09E
:10290000D812D5CFCDB7DEB7E8E00C949F2C80E08D
:102910000E94FE1360E087E290E00E94012C0E947A
:102920004E140E94171481E00E94FE13089584E261
:1029300090E00E94E32B853289F485E290E00E94CA
:10294000E32B823059F486E290E00E94E32B91E081
:10295000883009F090E0892F8170089580E0FCCFE5
:102960000F931F93CF93DF93883030F5653020F5B8
:10297000453010F5C42FD0E0CC0FDD1F2AE0629F58
:10298000C00DD11D112432E3839FC00DD11D112430
:10299000CE0188960E94E32B082F10E0102F00270D
:1029A000CE0189960E94E32B9801282BC901DF9163
:1029B000CF911F910F91089590E080E0F8CF75308E
:1029C00048F4653038F4883028F4462F672F0E9489
:1029D000B014089590E080E00895CF92DF92FF92C6
:1029E0000F931F93CF93DF936C010091AC02809102
:1029F0007202082BC7E0D0E010E0FC2EC8010C2EBC
:102A000002C0959587950A94E2F780FD0CC0219746
:102A1000A0F7F12C8F2DDF91CF911F910F91FF9097
:102A2000DF90CF900895B6018C2F0E94DF140E9492
:102A3000CB10019761F3EECFCF93DF93EC010E94AF
:102A4000ED14BE010E94DF140E94CB10DF91CF91E4
:102A50000895FC0124812223B9F0808191810E9494
:102A60001C1592959F70963089F050F492509230D8
:102A700058F4803F19F030F4883E30F481E0089536
:102A80009A50F5CF843FD1F380E00895883EB0F3AB
:102A9000813FD1F7F3CFA6E0B0E0E1E5F5E10C949A
:102AA000882C49835A8349815A819923A1F0222392
:102AB00091F0CA010E94ED14182F682F89819A8124
:102AC0000E94EC1169817A81812F0E94DF14269681
:102AD000E3E00C94A42CCA010E94B811182FF2CF85
:102AE00048E050E067E170E080E893E00E94F12B5D
:102AF0001092AE020895A6E1B0E0E1E8F5E10C9491
:102B0000792C4091A8025091A9026091AA0270917B
:102B1000AB022FB7F8948091280390912903A091DC
:102B20002A03B0912B032FBF841B950BA60BB70B69
:102B30002FB7F894C0902803D0902903E0902A037F
:102B4000F0902B032FBFC092A802D092A902E0926E
:102B5000AA02F092AB0210917F02EFE7F2E0212F80
:102B600030E04FEF5FEF60E070E0481B590B6A0BFD
:102B70007B0B13131DC020937F028091AD02811146
:102B80002EC0B09080038B2D837049F1B694B6941B
:102B9000B98280910C018130D9F118F1823009F4A9
:102BA000A8C1833009F4B1C16696E2E10C94952C7A
:102BB000618C728C7C8A6B8A4301B12CA12C4815E4
:102BC00059056A057B0520F421503F5F3296D1CF2D
:102BD000AB88BC88A80EB91EB28EA18EF6CF198222
:102BE000D8CF10921101C0927C03D0927D03E09265
:102BF0007E03F0927F0389E2EFE7F2E0A8E8B3E01A
:102C000001900D928A95E1F781E080930C01CCCF81
:102C100089810E94B80E6980662031F2809111018D
:102C200081500E94CF089B83B82E6091140170914F
:102C30001501809116010E94090CD62EC72E982EE0
:102C40006091170170911801809119010E94090C7F
:102C50006C837D838E8360911A0170911B0180913A
:102C60001C010E94090C262EA72E8A836AEA7FEF98
:102C7000809183030E94090C6F8378878987609114
:102C80001D0170911E0180911F010E94090C6A872D
:102C90007B878C8765E57FEF809183030E94090C19
:102CA000862E772E682E60912001709121018091EF
:102CB00022010E94090C6D877E878F876091230116
:102CC00070912401809125010E94090C6D8B7E8BEF
:102CD000182F60E07FEF809183030E94090C562E2D
:102CE000472E382E60E070E088EC0E94090C062F19
:102CF000F72EE82E60E070E0809183030E94090CBB
:102D0000688B798B8A8B8091AC020E943E138983F9
:102D100080918503811104C040E060E00E940D0AAB
:102D20009981892F90E09C8B8B8B9B81B91608F041
:102D30003BCF8981883008F0D6C0EB89FC89ED55FE
:102D4000F94E0C946C2CAB16B416BA16C016C616F7
:102D5000CC16F3165317292D4C2D6D2D84E190E0E0
:102D60000E94100AB394E1CF2E814D816C8185E1E0
:102D700090E0F6CF2A814A2D622D86E190E0F0CFD7
:102D80002C854B856A8587E190E0EACF2F854E85BB
:102D90006D8588E190E0E4CF232D442D652D80E101
:102DA00090E00E94100A212F4E896D8984E190E005
:102DB0000E94100A212F4E896D8985E190E00E94C2
:102DC000100A212F4E896D8986E190E00E94100A39
:102DD000212F4E896D8987E190E00E94100A212FF2
:102DE0004E896D89D6CF0E94EB0780FD35C049859D
:102DF00068858F810E940D0A2E2D4F2D602F85E151
:102E000090E00E94100A262D472D682D81E090E069
:102E10000E94100A262D472D682D83E090E00E9425
:102E2000100A262D472D682D85E090E00E94100A9B
:102E3000262D472D682D87E090E00E94100A292D4D
:102E40004C2D6D2D84E190E00E94100A232D442D1D
:102E5000652D80E190E084CF4A89698988890E9444
:102E60000D0A2A814A2D622D85E190E00E94100A08
:102E7000292D4C2D6D2D84E190E00E94100A20E058
:102E800040E060E083E190E00E94100A20E040E032
:102E900060E082E190E00E94100A20E040E060E003
:102EA00081E190E0D1CF292D4C2D6D2D84E190E072
:102EB0000E94100A2E2D4F2D602F85E190E00E9478
:102EC000100A2E2D4F2D602F86E190E00E94100AEF
:102ED0002E2D4F2D602F87E190E00E94100A2E2D9D
:102EE0004F2D602F56CF40E060E080E00E940D0A39
:102EF00039CF698060920B01809180038370809349
:102F00000A010E94D91383E080CE8091AE02811124
:102F10000E94701540917C0350917D0360917E0367
:102F200070917F032FB7F894809128039091290323
:102F3000A0912A03B0912B032FBF841B950BA60BE6
:102F4000B70B4097A105B10508F42ECE10920C01E5
:102F50002BCEA5E0B0E0EFEAF7E10C947E2C8E01D9
:102F60000F5F1F4F85E0F80111928A95E9F784E61B
:102F7000E82E81E0F82E6801AA24A394B12C2EE655
:102F8000822E21E0922EF70181917F018F3F09F47B
:102F900040C0F894E82FE295EF70F0E021A18F7027
:102FA000A50102C0440F551F8A95E2F7CA01922F6E
:102FB000982B91A392A18095892382A3789400C035
:102FC000E9E6F1E0712C31E021912F3F09F44AC08C
:102FD000A22FA295AF70B0E090968C9190E02F70E8
:102FE00002C0959587952A95E2F780FD3BC0832F17
:102FF000782A330F8E169F0639F7F70131978081B3
:103000008F3F11F00E94B41050EA5A95F1F7F60183
:103010007082FFEFCF1ADF0A49E6E41641E0F406BA
:1030200009F0B1CF45E050E0B8018DE692E00E9492
:10303000ED2C892BD9F085E0F801ADE6B2E00190E6
:103040000D928A95E1F781E080936C020E946807F7
:1030500090936B0280936A0210E0812F2596EDE039
:103060000C949A2C80E0C4CF10E02AC010916C021E
:10307000112391F320916A0230916B024FB7F894BB
:103080008091280390912903A0912A03B0912B03EA
:103090004FBF821B930B0597F8F245E050E06DE6B9
:1030A00072E08AE792E00E94ED2C892BE9F285E03C
:1030B000EDE6F2E0AAE7B2E001900D928A95E1F721
:1030C00010926C02CACF80915F0290912D03892BE0
:1030D00090910F01913049F59091250397FF25C0FC
:1030E00080930D0240E250E06FE372E08CE092E0EA
:1030F0000E94ED2C892BC1F080E2ECE0F2E0AFE31E
:10310000B2E001900D928A95E1F7E0912103F091F0
:103110002203309749F086E080930C020480F58109
:10312000E02D8CE092E0099508958093040248E038
:1031300050E060E672E084E092E00E94ED2C892B82
:1031400099F388E0E4E0F2E0A0E6B2E001900D92AD
:103150008A95E1F7E0912103F0912203309721F362
:103160000280F381E02D84E092E0DDCF80910F01B9
:10317000813039F58091250387FF23C0EEE0F2E02E
:103180008EE1DF011D928A95E9F790E080E00E94D0
:10319000C60790E080E00E94A10710925F020E94A3
:1031A000631886E0E9E1F3E0DF011D928A95E9F713
:1031B0001092120310921303109214030E94F80746
:1031C0000895E6E0F2E086E0DCCFAAE2B0E0EBEEC4
:1031D000F8E10C94882CEAE3F3E08091F10081930C
:1031E00083E0E234F807C9F780913B03833009F4A8
:1031F0007FC008F5813009F456C0823009F4C6C09A
:103200008091E80083FF00C180913A0390913B03D5
:103210009A3008F0F9C0E92FF0E0EF5EF64E0C941A
:103220006C2CD719FD19041AFD19041A551A771AAE
:10323000041A761B831B8A3009F497C08B3009F47B
:1032400074C08930E9F680913A038132C9F68091E1
:103250003E0390913F03009711F0029789F6809109
:10326000E800877F8093E8008091E80082FF3BC000
:103270008091F3009091F20089279827892702977F
:1032800031F48091F100813011F0863021F4809189
:10329000F10080930E018091E8008B778093E80025
:1032A0000E945D06ADCF80913A03813A09F0A8CF24
:1032B0008091E800877F8093E80080913E039091A1
:1032C0003F03892B61F060E090E080E070E00E94B5
:1032D00009078091E8008B778093E80091CF68E040
:1032E0008EE293E0F3CF809138038111BDCF88CF78
:1032F00080913A03813A09F083CF80913E03909107
:103300003F03892B09F07CCF8091E800877F809371
:10331000E8008091E80080FFFCCF80910F0180934E
:10332000F1008091E8008E77B9CF80913A03813225
:1033300009F066CF80913E0390913F03892B09F0FD
:103340005FCF8091E800877F8093E8000E945D0650
:1033500081E090913C03911101C080E080930F01C6
:1033600010922D030E94B6184BCF80913A03813200
:1033700009F046CF8091E800877F8093E8000E94A3
:103380005D0680913D0380930D013ACF80913A0311
:10339000813A09F035CF8091E800877F8093E8007B
:1033A0008091E80080FFFCCF80910D01B8CF80387C
:1033B00089F0823849F580913E038F70873020F57F
:1033C0008093E9008091EB0085FB882780F91092BB
:1033D000E90006C080913603909137039111826015
:1033E0009091E800977F9093E8008093F10010920D
:1033F000F1008091E8008E7727C0282F2D7F21F4DF
:103400008823A1F0823029F18091E80083FF0AC06F
:103410008091E800877F8093E8008091EB008062D4
:103420008093EB00AA96E3E00C94A42C80913C03DB
:10343000813051F7933009F080E080933703109288
:10344000E9008091E800877F8093E8000E945D0694
:10345000DBCF80913C038111F2CF80913E038F70CE
:103460002FEF280F263080F68093E9002091EB00A3
:1034700020FFE5CF933031F48091EB0080628093A0
:10348000EB00DDCF9091EB0090619093EB0021E099
:1034900030E001C0220F8A95EAF72093EA001092EB
:1034A000EA008091EB008860EACF8111ADCF1091E6
:1034B0003C031F778091E3008078812B8093E300A9
:1034C0008091E800877F8093E8000E945D068091EC
:1034D000E80080FFFCCF8091E30080688093E300E8
:1034E00083E0111101C082E0809338038DCF8058B2
:1034F000823008F089CF20913C0330913D032C3D70
:10350000A3E03A07A1F583E08A838AE289834FB773
:10351000F894DE01139620E03EE051E2E32FF0E064
:1035200050935700E49120FF03C0E295EF703F5F96
:10353000EF708E2F90E0EA30C0F0C7968D939D9388
:103540002F5F243159F74FBF8091E800877F809328
:10355000E8006AE270E0CE0101960E9409078091BE
:10356000E8008B778093E8004FCFC096E7CF80913B
:103570003E0390913F03432F55274330510509F4F3
:103580004FC078F54130510509F445C08BE590E016
:10359000EBE1FAE04230510509F036CF2091E80026
:1035A000277F2093E8002091400330914103821748
:1035B000930708F49C0140E02115310509F063C030
:1035C000411161C08091E80082FDC9CF809138032C
:1035D000882329F2853019F28091E80083FFF2CF29
:1035E000BECF4132510509F43FC04232510509F0C6
:1035F0000BCF8330910508F007CFFC01EE0FFF1FC2
:10360000E758FE4F0190F081E02D8A589E4FDC0173
:103610008C9190E01DC082E190E0E6E7FAE0BECF39
:10362000332721303105C1F060F02230310509F037
:10363000EBCEE8E8FAE0E4918E2F90E0E8E8FAE0DB
:1036400007C0E8EBFAE0E4918E2F90E0E8EBFAE0B7
:10365000009709F4D9CEA2CFECE9FAE0E4918E2FDD
:1036600090E0ECE9FAE0F4CF8330910508F0CCCE9D
:10367000880F991FFC01E158FE4F0190F081E02D69
:1036800089E090E08BCF80913803882309F467CFDD
:10369000853009F464CF8091E80083FD60CF80918C
:1036A000E80082FD8FCF8091E80080FF85CF809178
:1036B000F3009091F2008927982789272115310579
:1036C00019F08830910550F041E0089709F040E08A
:1036D0008091E8008E778093E8006ECF449140930C
:1036E000F1003196215031090196E8CF803809F078
:1036F0008BCE8091E800877F8093E800809139032A
:103700008093F10076CE81117FCE10913C03123070
:1037100008F07ACE8091E800877F8093E8001093CC
:1037200039030E945D061123F9F084E08093380389
:1037300042E061EC81E00E947C0642E261EC84E0C0
:103740000E947C0642E261EC82E00E947C0642E23A
:1037500060EC83E00E947C0680913803843051F451
:1037600082E08093100150CE8091E30087FDDDCF91
:1037700081E0DCCF81E0F5CF10922D030E94B618D6
:103780002FEF84E39CE0215080409040E1F700C09F
:10379000000088E19CE00FB6F894A8958093600043
:1037A0000FBE90936000FFCF882341F080959091E9
:1037B0002D03892380932D030E9463180895882385
:1037C00039F090912D03892B80932D030E9463186B
:1037D00008958823B9F19CEF980F913A28F40E943C
:1037E00077070E946318089590E2980F983088F444
:1037F000877021E030E0A90102C0440F551F8A956F
:10380000E2F7CA01809590912D03892380932D03BF
:10381000E8CF9BE5980F933028F490E080E00E9479
:10382000C607089598E5980F9B3128F490E080E052
:103830000E94A107089593E3980F933118F460E074
:103840000E9462120895CF93882309F44FC0C82FB5
:103850008CEF8C0F813A08F063C080910F018130AA
:1038600001F58091250387FF1CC0EC2FE695E695B6
:10387000E695F0E0E45FFD4F828190E04C2F4770C9
:1038800021E030E002C0220F331F4A95E2F7822385
:103890009323892B81F08C2F0E9477070E94631855
:1038A0000AC0E6E0F2E08CE092E02191C21799F3C1
:1038B0008E179F07D1F780910F018130C9F4809155
:1038C000250387FF15C0EC2FE695E695E695F0E019
:1038D000E45FFD4FC77021E030E001C0220FCA95C0
:1038E000EAF78281822B82830E946318CF91089528
:1038F000A6E0B2E0EFEF80E09D91C917A9F3EF3F9A
:1039000019F4911101C0E82F8F5F8630A9F7EF3FBE
:1039100059F30E2E000CFF0BEC5FFD4FC283E4CF7A
:1039200080E28C0F883068F4C77021E030E001C07D
:10393000220FCA95EAF780912D03822B80932D03E5
:10394000D3CFEBE5EC0FE33040F4F0E0E55DFE4F64
:10395000808190E00E94C607C9CFE8E5EC0FEB310B
:1039600050F4F0E0EE0FFF1FE25DFE4F8081918189
:103970000E94A107BBCF83E38C0F833108F0B6CF41
:1039800061E08C2F0E946212B1CF1F93CF93DF931F
:10399000182FEB010E94231C209739F4812F0E94DD
:1039A000E91BDF91CF911F9108958FE99FE0019767
:1039B000F1F700C000002197EFCFB0E0A0E0E3EE08
:1039C000FCE10C94842CE82FF0E0E451F54FD49006
:1039D000282F26952695269530E0F901E452F54FDB
:1039E0000491877010E0082E02C0159507950A947F
:1039F000E2F701701127F901E453F54FE490F12C3F
:103A0000082E02C0F594E7940A94E2F791E0E922C7
:103A1000FF24F901E454F54FC491D0E002C0D595DC
:103A2000C7958A95E2F7C170DD270115110519F0D8
:103A300081EE0E94231CE114F10419F086EE0E942D
:103A4000231C70E060E08D2D0E94C51CE114F10480
:103A500019F086EE0E94E91B0115110519F081EE9F
:103A60000E94E91BCD2B29F070E060E08CE20E94FF
:103A7000C51CCDB7DEB7E7E00C94A02CEF92FF9207
:103A80001F93CF93DF93EC011AE08881882309F418
:103A900052C0813009F04CC08981813081F47E01AF
:103AA00082E0E80EF11C8A8160E570E0893311F054
:103AB00070E060E00E94C51CE7012196E6CF8230ED
:103AC00041F47E01E2E0EE0EF11C8A810E94231C8B
:103AD000F3CF833041F47E01F2E0EF0EF11C8A81D6
:103AE0000E94E91BE9CF843011F02196E6CF2A81AC
:103AF000229690E080E0AE014F5F5F4F2053330B82
:103B00002A30310550F00097C1F2EFE9FFE031971C
:103B1000F1F700C000000197F6CF189FB001199F80
:103B2000700D1124C901860F971F2981EA01E3CF87
:103B30000E94DD1CC2CFDF91CF911F91FF90EF90CB
:103B40000895FF920F931F93CF93DF938C018AE028
:103B5000F82EF8018491882309F452C0813009F0CD
:103B60004BC0E8012196FE018491813079F42196C1
:103B7000FE01849160E570E0893311F070E060E04F
:103B80000E94C51C8E010F5F1F4FE3CF823039F4B6
:103B9000E8012296FE0184910E94231CF3CF83301A
:103BA00039F4E8012296FE0184910E94E91BEACFD4
:103BB000843041F7E8012296FE01249190E080E0F4
:103BC000FE0131962053330B2A30310550F0009717
:103BD000C9F2EFE9FFE03197F1F700C0000001976B
:103BE000F6CFF89EA001F99E500D1124C901840F53
:103BF000951F2491EF01E4CF0E94DD1CE801C2CFA4
:103C0000CDB7DEB7E5E00C94A22CA4E2B0E0EBE087
:103C1000FEE10C947F2CFC018481882309F48BC085
:103C20007F0121E0408151816281738195810E94F1
:103C30004B158C01F7019581992309F48FC39801E5
:103C400037572038310508F07AC0F02EFFE0F01722
:103C500008F471C08FEF93E00E94E32B81116BC0D9
:103C600008EB11E0F11035C0CE0101966C0188E03F
:103C7000F60111928A95E9F77801FFEFEF1AFF0A32
:103C8000C8010E94E32B89831A82882309F453C058
:103C90008130D1F4580122E0A20EB11CC7010E946C
:103CA000E32B8A83882309F446C09FEF980F933053
:103CB000E8F4780133E0E30EF11CC5010E94E32B28
:103CC0008B838823C1F11C82C6010E943E1D87019F
:103CD000D3CF011524E0120771F1C8010E94E32B34
:103CE000811101C0FA940F5F1F4FBCCF7501843062
:103CF00059F74E0183E0880E911C02E010E0750137
:103D00009FEFE91AF90AC5010E94E32BF4018193A0
:103D10004F01882381F08C3741F4E2E0F0E0EC0FB2
:103D2000FD1FE00FF11F1082CFCF0F5F1F4F570114
:103D30000730110521F7A496ECE00C949B2C980118
:103D400026503E472F37310508F041C00E94EB074F
:103D500081FB112710F919820650E02FF0E0EE0FD9
:103D6000FF1FE357F94F6591749142E250E0CE0195
:103D700001960E94C42B69E271E0CE0101960E9477
:103D8000032D112349F09E012F5F3F4F7901F70169
:103D900001917F01011105C0CE0101960E943E1DD7
:103DA000CACF10E0C8010E94D62C892B39F0C80177
:103DB0000E94E52CF70131978083E9CFC8010E946A
:103DC000D22C892B21F3C8010E94DD2CF3CF0230C5
:103DD000FEE71F0709F46EC038F501153EE713072B
:103DE00009F456C008F05EC00032E8E71E0751F142
:103DF000992309F4C5C280912D038272F801E05223
:103E0000F847EB30F10508F09DC2E75FF04E0C94E7
:103E10006C2C6A1F6E1F8A1F731F8F1F781F941FC1
:103E20007D1F991F821F9E1F0430FEE71F0709F4A4
:103E30004EC008F447C005303EE71307C9F68BE8CB
:103E400097E042C0809185038F3FD9F4109285039B
:103E500081E00E94130A40E060E080E00E940D0AC9
:103E600080918003837009F066CF8FEF8093850384
:103E700081E00E94130A0E94C20881E00E94130A96
:103E80005ACF8FEF8093850381E00E94130AE8CF19
:103E900080918003837009F44ECF61E081E00E943D
:103EA000900A49CF80918003837009F444CF61E088
:103EB00082E0F5CF80918003837009F43CCF61E00C
:103EC00081E1EDCF8FEA97E00E94A11D34CF8EE90A
:103ED00097E0FACF81E00E94BE0A2DCF8823E1F05F
:103EE0000E94A70A28CF8823E1F00E947A0A23CFF4
:103EF0008823E1F00E945E0A1ECF8823E1F00E9431
:103F0000420A19CF8823E1F00E94190A14CF0E94B7
:103F1000B608B3CF882321F30E94B20A0CCF8823BE
:103F200021F30E94850A07CF882321F30E946C0A9F
:103F300002CF882321F30E94500AFDCE882321F36B
:103F40000E94250AF8CE07378CE7180741F1083799
:103F5000ECE71E0741F19801205E32452032310521
:103F600020F591114AC00F7181E090E09C0102C0E0
:103F7000220F331F0A95E2F78901622F83E090E058
:103F80000E94012C802F0E945F12D5CE81E00E94FA
:103F9000531243E062E081E00E942612CCCE81E021
:103FA0000E944612F6CF82E0FBCF992331F1013017
:103FB000FCE71F0701F103302CE71207B1F00115F0
:103FC0001C4721F0F701008111811CC010922D03C4
:103FD0000E94B6183FEF84E39CE03150804090404F
:103FE000E1F700C000000E94B5136FEF7FEF90E093
:103FF00080E00E941F2C0E94BC1BF70100811181F0
:10400000992369F1C8010E94ED14D82E682FC801C8
:104010000E94EC11B8018D2D0E94DF140E94CB107C
:10402000182FD82EF7016581268122952F70092F30
:1040300002950F700C3008F08EC0E02FF0E0ED5DBF
:10404000FF4D0C946C2C3420342078207820A42050
:10405000C220AB20AB20C520352146214621C80116
:104060000E94B811D82ED6CF092F0F70907F11F073
:104070000295007F812F6623C9F0002369F090E24A
:10408000910F983010F011110BC080912D03082B67
:1040900000932D030E946318812F0E94231C17C0D8
:1040A00080915F02082B00935F02F4CF0E94E91B0E
:1040B000002369F00095105E183010F0D11012C086
:1040C00080912D03082300932D030E94631820E0A4
:1040D000F7014081518162817381848195810E94C1
:1040E0004B1529CE80915F02082300935F02EDCF2C
:1040F000892F8F70907F903211F08295807FF1E050
:10410000DF120CC0662329F0233008F70E94DF1B62
:10411000DECF2230E0F60E94D41BD9CF662319F0FF
:104120002223A1F3B9CF2223B1F3193349F42FEF9E
:1041300037EE83E0215030408040E1F700C00000BE
:10414000812F0E94E91BC3CF892F869586958370A6
:1041500039F0813071F00850043008F0B8CF42C017
:10416000812F9370611102C080E090E00E94C60729
:10417000AECF812F9370611102C080E090E00E9469
:10418000A107A5CF0E946212A2CF892F8370A9F543
:10419000611128C0812F829586958770880F880FBE
:1041A000412F4F70082E01C0440F0A94EAF720E017
:1041B00014FF07C02FE030E001C0220F8A95EAF714
:1041C0002095969596959370923091F0822F842B3E
:1041D000933030F480917202913039F0242B822395
:1041E0000E945F120E94EB0772CF842B822BF8CFC4
:1041F000242B809172028227F3CF8695662311F0DB
:10420000892F8170882371F3812F8295869587701D
:10421000880F880F412F4F70082E01C0440F0A9459
:10422000EAF720E014FF07C02FE030E001C0220FC2
:104230008A95EAF72095969596959370923081F03D
:10424000822F842B933030F48091AC02913029F08E
:10425000242B82230E942312C5CF842B822BFACFDA
:10426000242B8091AC028227F5CF092F0F70662393
:1042700039F0802F0E945312812F0E94DF1BB2CF92
:104280000E94D41B802F0E944612ACCFE1EF8E1704
:10429000A1F1E81758F0F0EF8F17C1F06623F1F1A4
:1042A0002223C9F1812F0E94231C55CF32EF83179F
:1042B00059F1E3EF8E13F2CF80E06623B9F09F71DE
:1042C00081E001C0880F9A95EAF710C0662389F053
:1042D000223008F040CF292F2F7181E090E001C0FB
:1042E000880F2A95EAF79091AC0289270E94231241
:1042F00032CF233008F02FCFEECF892F8F71662376
:1043000039F00E94531227CF892F8F716623C9F38A
:104310000E94461220CF892F8F71F3CF222379F08C
:10432000893349F4FFEF27EE33E0F150204030406D
:10433000E1F700C00000812F0E94E91B0CCF892FFC
:104340008F71E6CF0737FCE71F0709F41FCE083748
:104350002CE7120709F0FFCD82E019CE02303EE7CC
:10436000130709F4E8CC60F40115EEE71E0709F421
:10437000E2CC08F0E0CC003228E7120709F470CD57
:1043800080912D038272F801E054F847ED30F10579
:1043900008F0D9CDE253FE4D0C946C2C3B1F871FC7
:1043A0006A1F6E1F8A1F731F8F1F781F941F7D1F28
:1043B000991F821F9E1FCF93DF9380913E02807FC3
:1043C00009F04DC080913D02882309F448C0E09176
:1043D0007B0350914203C0913902D0913802609121
:1043E0003A0270913B0247E05E17C9F18E2F90E0D0
:1043F000E49FF0011124ED5BFC4F2481222391F115
:10440000489FF001499FF00D1124DF01AD5BBC4FC7
:1044100011962C9111972C1325C02C912D1322C08D
:1044200015962C91159721111DC012962D913C9136
:10443000261B370B283C3105A8F480913E028F7073
:10444000806180933E02E75BFC4F80818F708061CA
:10445000808388E392E00E94051E0E94AE11DF91E6
:10446000CF910895FC013196E770BECFA4E1B0E092
:10447000ECE3F2E20C947F2C8C0186E0F801DE0183
:104480001F9601900D928A95E1F7F8018481E580ED
:1044900098E3A92E92E0B92E90913C02911128C088
:1044A000882319F1EE20F1F0C8010E942915F82E99
:1044B0008823C1F087E0F801D50101900D928A951B
:1044C000E1F780913C02813031F480913802909183
:1044D00039020E941C150E94DB218F2D6496ECE0AE
:1044E0000C949B2CC8010E94051EFF24F394F5CF69
:1044F000D080C18082809380F0903D0220913A026A
:1045000030913B02A401421B530BFF2009F4D8C099
:10451000483C510508F091C08823F9F29091390286
:1045200080913E02282F207F09F055C0C91214C087
:1045300090913802D91210C0E11047C08F7080618D
:1045400080933E0288E392E00E94051E80913E0225
:10455000F8018683F12CC1CFE11037C06C2D8D2D71
:104560000E94F0056C2D8D2D0E94F005E82E811122
:10457000F1CFDF86C88A8F8598890E941C15292F64
:1045800022952F70243058F49F70223080F09923A8
:1045900091F0F8019681907F71F4FE2C9ECF2A5005
:1045A000223068F0C8010E94051EEF2CF6CF992337
:1045B00011F0882391F3805E8830A0F7EECF803F22
:1045C00060F3815F833070F7E8CF80913E028160B5
:1045D00080933E02BFCFC91207C090913802D91212
:1045E00003C0EE2009F48DC0C8010E94291588235C
:1045F00009F478CFEE2009F475CF80913E02803225
:1046000088F02091380230913902398728879B86BB
:104610008A8690913C029C871D868E87CE010896E3
:104620000E94051E87E0F801A8E3B2E001900D9218
:104630008A95E1F70E94DB2158CF90913E02292F05
:10464000207F51F488E392E00E94051E87E0F50187
:1046500011928A95E9F77ECF882309F43ECF8091A5
:1046600039028C1110C080913802D8120CC0E110B0
:104670000AC09683C8010E94051E87E0F5011192C9
:104680008A95E9F72ACFC8010E942915882309F4E1
:1046900029CFEE2009F426CF80913E02803210F21D
:1046A00020913802309139023A8329839C828B828F
:1046B00090913C029D831E828F83CE010196B0CFE4
:1046C000483C5105D0F6882309F40FCFFE2CEE208C
:1046D00009F408CF809139028C1120C080913802F2
:1046E000D8121CC080913E0280FD0FC0982F907F91
:1046F00061F08683903F31F0982F907F905F8F70AC
:10470000892B8683C8010E94051E87E0F801A8E373
:10471000B2E001900D928A95E1F7DFCEC8010E94C8
:10472000291581117FCF80913E02816080933E02E6
:10473000C8010E94051ED1CEABE1B0E0E2EAF3E28F
:104740000C94872C4E8B5F8B688F798F8A8F9B8F11
:10475000192F911110925F021D8A86E0FE01769654
:10476000DE011F9601900D928A95E1F70A8D0023D4
:1047700041F021E04F85588969897A89C8010E94F2
:104780004B150B8B1C8B87E0FE013F96DE011896C4
:1047900001900D928A95E1F7CE0108960E9436228B
:1047A00081112AC087E0FE013896DE011196019042
:1047B0000D928A95E1F78C858823F1F020914203D0
:1047C00030E0C90101968770992740917B03481713
:1047D000190659F197E0929FD001939FB00D1124D3
:1047E000AD5BBC4FFE01319601900D929A95E1F7B9
:1047F000809342030E94AE1117E080917B03909159
:104800004203891709F1819FC00111248D5B9C4FE0
:104810000E9436228823C1F080917B0390E00196AC
:104820008770992780937B03E8CF10922D030E9415
:10483000B6181092420310927B0387E0E8E3F2E09F
:10484000DF011D928A95E9F76B96E4E00C94A32CA6
:10485000A6E0B0E0EEE2F4E20C94872C0E94680738
:104860008C0180916802909169028017910781F014
:1048700019821A820E946807682F49815A81792F0C
:1048800080E090E00E949C231093690200936802EC
:104890002696E4E00C94A32C1F920F920FB60F9271
:1048A00011242F933F934F935F936F937F938F9335
:1048B0009F93AF93BF93CF93EF93FF93C091E90082
:1048C000CF708091EC001092E9008091F000877F1A
:1048D0008093F00078940E94E5181092E90080918E
:1048E000F00088608093F000C093E900FF91EF91A1
:1048F000CF91BF91AF919F918F917F916F915F9178
:104900004F913F912F910F900FBE0F901F901895D0
:104910001F920F920FB60F9211242F933F934F9334
:104920005F936F937F938F939F93AF93BF93EF9317
:10493000FF938091E10082FF09C08091E20082FF35
:1049400005C08091E1008B7F8093E1008091DA00C7
:1049500080FF24C08091D80080FF20C08091DA00C1
:104960008E7F8093DA008091D90080FFA9C080E11A
:1049700089BD82E189BD09B400FEFDCF81E080934D
:10498000380380912C03811109C00E940F060E94F8
:10499000AE068091E20084608093E2008091E100A5
:1049A00080FF1AC08091E20080FF16C08091E20073
:1049B0008E7F8093E2008091E20080618093E2002C
:1049C0008091D80080628093D80019BC85E08093E4
:1049D000380383E0809310018091E10084FF2FC0B1
:1049E0008091E20084FF2BC080E189BD82E189BD16
:1049F00009B400FEFDCF8091D8008F7D8093D80050
:104A00008091E1008F7E8093E1008091E2008F7EB3
:104A10008093E2008091E20081608093E2008091C7
:104A20003903882309F452C084E0809338038091CD
:104A30003803843009F452C081E0809310018091E2
:104A4000E10083FF2CC08091E20083FF28C08091A9
:104A5000E100877F8093E10082E080933803109229
:104A600039038091E1008E7F8093E1008091E20024
:104A70008E7F8093E2008091E20080618093E2006B
:104A800042E060E080E00E947C068091F000886057
:104A90008093F00081E08093100180930F01FF91DB
:104AA000EF91BF91AF919F918F917F916F915F91A6
:104AB0004F913F912F910F900FBE0F901F9018951F
:104AC00019BC1092380310922C0368CF8091E30038
:104AD00087FD02C081E0A9CF83E0A7CF82E0ADCF00
:104AE00078941F920F920FB60F9211248F939F9379
:104AF000AF93BF938091280390912903A0912A033B
:104B0000B0912B030196A11DB11D809328039093B2
:104B10002903A0932A03B0932B03BF91AF919F91D8
:104B20008F910F900FBE0F901F9018951F920F92AC
:104B30000FB60F9211248F939F93AF93BF938091E1
:104B40002703811113C08091280390912903A0911C
:104B50002A03B0912B034196A11DB11D8093280318
:104B600090932903A0932A03B0932B03BF91AF9195
:104B70009F918F910F900FBE0F901F901895AAE2F2
:104B8000B0E0E5ECF5E20C94792C85B7806885BF40
:104B900085B7806885BF84B7877F84BF0FB6F894D8
:104BA000A8958091600088618093600010926000F9
:104BB0000FBE80E890E00FB6F89480936100909368
:104BC00061000FBE81E08093100182EB90E1909331
:104BD0000302809302020E940F060E94AE0680919B
:104BE000E20084608093E200789480913803882307
:104BF00099F01091E9001F708091EC0080FFDDC0FA
:104C000080E8182B1092E9008091E80083FD0E9453
:104C1000E5181F701093E90082E084BD93E095BD14
:104C20009AEF97BD80936E000E949714811102C085
:104C30000E94871404E611E039E6E32E31E0F32EFA
:104C4000D8018D918D018F3F11F00E94B410E016B4
:104C5000F106B1F709E611E02EE6E22E21E0F22E90
:104C6000F80181918F018F3F11F00E94B410E0167E
:104C7000F106B1F785E0EAE7F2E0DF01282F1D92A7
:104C80002A95E9F7EDE6F2E0DF011D928A95E9F752
:104C900090E080E00E94EB2B853E9E4F21F40E9425
:104CA0009714811163C065EE7EEF90E080E00E9472
:104CB0001F2C60E082E090E00E94012C81E0809354
:104CC000720261E083E090E00E94012C60E074E1F8
:104CD00084E090E00E941F2C60E086E090E00E945B
:104CE000012C60E087E090E00E94012C40E050E061
:104CF000BA0188E090E00E94132C60E083E290E02B
:104D00000E94012C60E08CE090E00E94012C60E0A9
:104D10008DE090E00E94012C19821A821B821C8275
:104D20001D821E821F82188648E050E067E170E015
:104D3000CE0101960E94F12B40E050E0BA018FE1D4
:104D400090E00E94132C80E00E94FE130E948714C2
:104D500040E050E0BA018FE090E00E94132C40E068
:104D600050E0BA0183E190E00E94132C82E090E0D1
:104D70000E94E32B8093730284E090E00E94EB2B6F
:104D800090932603809325030E94A917EFEFF6E77F
:104D900021E0E150F0402040E1F700C000000E9417
:104DA000A91780917A0280FF0AC06FEF7FEF90E031
:104DB00080E00E941F2C0E94B51380E022CF83E088
:104DC00090E00E94E32B0E945F120E9488081092DC
:104DD00088038FEF9FEF9093A2038093A10390939A
:104DE000A4038093A3039093A6038093A5039093B9
:104DF000A8038093A7039093AA038093A903909399
:104E0000AC038093AB039093AE038093AD03909378
:104E1000B0038093AF0310927F0290939902809326
:104E2000980290939B0280939A0290939D028093A4
:104E30009C0290939F0280939E029093A102809384
:104E4000A0029093A3028093A2029093A502809364
:104E5000A4029093A7028093A60281E08093AE0201
:104E600048E050E067E170E080E893E00E94D32BD7
:104E70001092AE02809180038C7FB9F485E4809318
:104E800080038091260190912701A09128018093B1
:104E9000810390938203A09383038FE7809384031D
:104EA0008FEF809385030E94701580E091E09093CE
:104EB000220380932103DD24D3947724739480917B
:104EC0003803853099F410E403E080E1F82E92E194
:104ED000E92E80913803853009F4A2C010922D0389
:104EE0000E94B6180E94EB071092AD020E94A9170B
:104EF000A4E7B2E0B8A7AFA3EAE7F2E0FAA7E9A710
:104F000029E732E0DF01E4E7F2E091918D912E177D
:104F10003F0709F4CFC09817C1F315E8812E11E0BF
:104F2000912E512CA9A5BAA54D90BAA7A9A7EFA17A
:104F3000F8A52190F8A7EFA3241409F4D0C1F12C0F
:104F4000E12C332433942424822D832109F4BAC123
:104F5000142D1321E9A25AA20E9468079CA38BA3D7
:104F60007DA291E0111101C090E09EA349A15AA138
:104F70006BA17CA18DA10E949C23112309F486C101
:104F8000F401EE0DFF1D80818F3F09F47FC1C82E13
:104F900066246394062D10E080917F02800F912F8C
:104FA000911D09976CF1F8E0AF2EB12CA01AB10A4F
:104FB000B80160587D4FA50180E892E00E94FA2C6C
:104FC000B80168577D4FA50188E892E00E94FA2C4D
:104FD000A501440F551FB801660F771F68567D4F16
:104FE00088E992E00E94FA2CB80160577D4FA50134
:104FF00080E992E00E94FA2C88E0861980937F0273
:1050000080917F0290E0AC2DB0E09D01220F331F14
:1050100022563E4FAA0FBB1FBD0161567E4F4CC1A9
:1050200080913803843009F438C00E947B15809148
:10503000AD0281110DC00E94B80E10920B0180913B
:105040008003837080930A010E94D91300930C019E
:10505000D092AD021092270348E150E00FB6F894C9
:10506000A895409360000FBE1093600083B7817FC6
:10507000846083BF83B7816083BF7894889583B74A
:105080008E7F83BF0FB6F894A895809160008861E9
:1050900080936000109260000FBE0E94A917EAE79B
:1050A000F2E08191811142C38FE792E08E179F0752
:1050B000C1F70FCF981331CF0E9428240E947B158F
:1050C00086E0E9E1F3E08E010F5F1F4FD801019008
:1050D0000D928A95E1F790901A03A0901B03B0906F
:1050E0001C03E0901D03F0901E0310921B0310920E
:1050F0001C0310921D0310921E03A11003C0BB20BD
:1051000009F450C020911703309118034FB7F89459
:105110008091280390912903A0912A03B0912B0339
:105120004FBFAC01421B530B80911203882309F43B
:1051300022C345315105B0F18F3F19F08F5F809345
:105140001203AA2059F00E9444089FEF1A140CF48D
:1051500091E0899F802D112480931B03BB2059F07F
:105160000E9444089FEF1B140CF491E0899F802D4E
:10517000112480931C0380911B03882399F0809055
:105180001C03882079F00E946408882309F4BAC0BF
:1051900080931B03882D0E946408882309F4B5C0FE
:1051A00080931C03E11003C0FF2009F450C020913C
:1051B0001503309116034FB7F8948091280390910E
:1051C0002903A0912A03B0912B034FBFFC01E21BDE
:1051D000F30B80911303882309F4D2C2E135F10562
:1051E000B0F18F3F19F08F5F80931303EE2059F0D9
:1051F0000E9422089FEF1E140CF491E0899F802DDD
:10520000112480931D03FF2059F00E9422089FEF74
:105210001F140CF491E0899F802D112480931E03AC
:1052200080911D03882399F080901E03882079F0D7
:105230000E946408882309F46BC080931D03882DA5
:105240000E946408882309F466C080931E0380913D
:105250001A03981263C080911B03882311F08A11EE
:105260005DC080911C03882311F08B1157C0809181
:105270001E03882311F0F81251C090911D03992349
:1052800019F081E09E114BC080E049C0612C82CEB4
:1052900090E0FC01E158FD4FD9015C915183DB01A5
:1052A0005C915187C18A880F991FFC01E158FD4F1D
:1052B000128E118E91E0842F41E0480F961540F335
:1052C00080937F02330CBFEFEB1AFB0AE5E0EE168A
:1052D000F10409F039CEEFA1F8A53197408253943B
:1052E000F5E08F0E911C25E052121CCE8FB7F8947A
:1052F000409128035091290360912A0370912B0358
:105300008FBFDCCED0921B0345CFD0921C034ACF77
:10531000D0921D0394CFD0921E0399CF81E080FDDF
:1053200013C080911B0381116DC080911C038111FA
:1053300069C080911D03811165C081E090911E03B9
:10534000911101C080E080FD0E94F8079A82AB8233
:10535000BC82ED82FE8286E0F801A9E1B3E0019013
:105360000D928A95E1F70E94EB07909179028917D7
:1053700069F0809379028FB7F89440912803509197
:10538000290360912A0370912B038FBF809138030A
:10539000843009F094CD83E08093E9008091E800A7
:1053A00082FF8DCD8091E80090E085FF05C00E94CE
:1053B0002E06882349F191E08091E8008B77809355
:1053C000E800992309F47BCD8981EFEFE80FE33101
:1053D00008F041C0F0E0E151F64D0C946C2C202A0D
:1053E000242A662A7B2A812A8C2A8F2A8F2A8F2AAE
:1053F0002B2A2B2AFB2AFE2A022B282B4A2B4D2B49
:10540000502B752B81E09FCF80E2A82EB12C780124
:105410008091E80085FD0AC08091E8008B77809339
:10542000E8000E942E06882399F3C5CF8091F100F1
:10543000D7018D937D01B1E0AB1AB10849F7BBCF1D
:105440001A828CE08B833BC08A81823009F48BC145
:1054500028F4813061F08FEF898331C08330B9F057
:105460008430C9F71B821C821D821E8228C02FB780
:10547000F8948091280390912903A0912A03B09178
:105480002B032FBFBB83AC839D838E8318C06B819E
:10549000DE01149690E080E0262F30E0A901480F4D
:1054A000591F4530510558F4E62FE80FF0E0E65853
:1054B000FD4F40814D9301968C31910579F740E283
:1054C00050E0B80182E00E945113F9CC8A81823009
:1054D00039F0853009F0BFCF80E00E94BE0AEFCFDF
:1054E0006B817C818D819E810E94722C87E290E08D
:1054F0000E94012CE4CF4C816B818A810E94B01400
:10550000C3CF2D813E813227232732274C816B81E7
:105510008A810E942714D3CF0E944E14D0CF9A8143
:10552000933009F098CF8830B1F1893009F460C028
:105530008B818230E1F080F4813009F64C8128ECD7
:10554000429F412D11248091810320E060918203CC
:1055500090E00E94310AB3CF8330B1F0843009F07B
:10556000AECF8C8120E0409183036D81F1CF8C819F
:10557000811103C00E94B608A2CF0E94C20860E059
:105580008C810E94900A9BCF8C818093840380E061
:105590000E94130A94CF8B818230E1F078F481303D
:1055A00009F08DCF80918303EFEF8E9FC00111240E
:1055B00068EC70E00E94252C6C8381CF8330A9F0C9
:1055C000843009F07CCF809181038C8380918203A9
:1055D0008D8375CF80918003982F937086958695E3
:1055E000911101C080E08C836ACF80918403FBCF4E
:1055F0000E94701564CF80E18A8361CF82E08A8344
:1056000088E420CFEA80FB80FE24EF24FE248C80F7
:10561000912C5801C70188549E4F9501201B310BD6
:105620002815390508F04BCFF8E4EF16F2E0FF0635
:1056300060F40E94E32BD50114968C93FFEFEF1AD0
:10564000FF0A2FEFA21AB20AE5CFF5011482F6CFB6
:10565000AA80BB80BA24AB24BA248C80912C75011B
:10566000C70188549E4F97012A193B09281539050F
:1056700008F025CF48E4E41642E0F40638F4200FA1
:10568000311FD90114966C910E94012CBFEFEB1AC7
:10569000FB0AE6CF0E94171412CFE8E0EA830FCF8F
:1056A000EA80FB80FE24EF24FE248C80912C58019C
:1056B000C70188969501201B310B2815390508F084
:1056C000FECEF0E9EF16F1E0FF0660F40E94E32B56
:1056D000D50114968C93FFEFEF1AFF0A2FEFA21A51
:1056E000B20AE6CFF5011482F6CFAA80BB80BA24B5
:1056F000AB24BA248C80912C7501C7018896970140
:105700002A193B092815390508F0D9CE40E9E416D5
:1057100041E0F40638F4200F311FD90114966C9142
:105720000E94012CBFEFEB1AFB0AE7CF80913703F1
:10573000882309F4CECBF9BCE9BC09B400FEFDCF47
:105740008091D8008F7D8093D8008091E0008260A6
:105750008093E0008091E00081FDFCCF10922D034A
:105760000E94B618B6CB87E290E00E94E32B1B8222
:105770001C821D828ACE4B30510508F0DFCC12CD41
:105780003B9708F030CD63CDFB01DC014150504028
:1057900048F005900D920020C9F701C01D924150BC
:1057A0005040E0F70895DC01CB01FC01F999FECFF0
:1057B00006C0F2BDE1BDF89A319600B40D92415099
:1057C0005040B8F70895F999FECF92BD81BDF89A7F
:1057D000992780B50895A8E1B0E042E050E00C942C
:1057E000D52BDC01A40FB51F4150504048F0CB0130
:1057F000840F951F2E910E94022C41505040D0F7EB
:105800000895262FF999FECF92BD81BDF89A019790
:1058100000B4021639F01FBA20BD0FB6F894FA9AF8
:10582000F99A0FBE08950396272F0E94022C0E941A
:10583000012C252F0E94022C242F0C94022C01965F
:10584000272F0E94022C0C94012CAA1BBB1B51E198
:1058500007C0AA1FBB1FA617B70710F0A61BB70BE0
:10586000881F991F5A95A9F780959095BC01CD0185
:10587000089597FB072E16F4009407D077FD09D002
:105880000E94252C07FC05D03EF4909581959F4FF2
:105890000895709561957F4F0895052E97FB1EF42E
:1058A00000940E94642C57FD07D00E94B02C07FC86
:1058B00003D04EF40C94642C50954095309521956E
:1058C0003F4F4F4F5F4F089590958095709561952C
:1058D0007F4F8F4F9F4F0895EE0FFF1F0590F4915C
:1058E000E02D099469279627692778278727782745
:1058F00008952F923F924F925F926F927F928F9274
:105900009F92AF92BF92CF92DF92EF92FF920F934E
:105910001F93CF93DF93CDB7DEB7CA1BDB0B0FB658
:10592000F894DEBF0FBECDBF09942A883988488815
:105930005F846E847D848C849B84AA84B984C884AB
:10594000DF80EE80FD800C811B81AA81B981CE0FA2
:10595000D11D0FB6F894DEBF0FBECDBFED01089587
:10596000A1E21A2EAA1BBB1BFD010DC0AA1FBB1F63
:10597000EE1FFF1FA217B307E407F50720F0A21BD5
:10598000B30BE40BF50B661F771F881F991F1A9442
:1059900069F760957095809590959B01AC01BD016C
:1059A000CF01089585FD0C940E2D806291110C9409
:1059B0000E2D81568A51D8F708959111089581547A
:1059C0008A5108F4805E855A089591110895815690
:1059D0008A5108F4805285580895FB01DC0104C007
:1059E0008D910190801921F441505040C8F7881BD7
:1059F000990B0895FB01DC0102C001900D9241500A
:105A00005040D8F70895FB01DC010D900020E9F724
:105A1000119701900D920020E1F7089599278827AA
:065A20000895F894FFCF89
:105A26007407A1139A1393138C13FFFF030000014D
:105A36000000FF00C8FFC880FFC8AAFFC855FFC8FE
:105A46002BFFC800FFC8A0FF322000818283E2003E
:105A5600E900EA00B500B600B700CD008301CC002E
:105A66008A019201940121022302240225022602C0
:105A760027022A02B300B4006F0070009F01CB0119
:105A86009F02A002C6F0969236F56737323400318F
:105A960031295A1B750A4422B64906270671052D77
:105AA6000A460A660A141516171813060708091275
:105AB6000500010A110403020B100F0E0D0C202025
:105AC60030203030203010301020101020103010D0
:105AD60040104020403040403040204010400040C0
