:100000000C94D5020C940D030C940D030C940D0369
:100010000C940D030C940D030C940D030C940D0320
:100020000C940D030C940D030C9406220C94CA211D
:100030000C9414230C940D030C940D030C940D03D9
:100040000C940D030C940D030C940D030C940D03F0
:100050000C940D030C94EE220C940D030C940D03E0
:100060000C940D030C940D030C940D030C940D03D0
:100070000C940D030C940D030C940D030C940D03C0
:100080000C940D030C940D030C940D030C940D03B0
:100090000C940D030C940D030C940D030C940D03A0
:1000A0000C940D030C940D030C940D03050109022F
:1000B000A10185020901A1000509190129081500FE
:1000C0002501950875018102050109300931158165
:1000D000257F95027508810609381581257F9501D0
:1000E00075088106050C0A38021581257F95017572
:1000F000088106C0C005010980A101850319012AF4
:10010000B700150126B700950175108100C0050CD8
:100110000901A101850419012AA002150126A002E6
:10012000950175108100C005010906A1018506052C
:100130000719E029E71500250195087501810205D9
:1001400007190029EF1500250195F07501810205B9
:10015000081901290595057501910295017503910D
:1001600001C00660FF0961A1010962150026FF00B8
:100170009520750881020963150026FF00952075FA
:10018000089102C005010906A101050719E029E748
:1001900015002501950875018102950175088101F9
:1001A0000507190029FF150026FF0095067508812F
:1001B000000508190129051500250195057501910E
:1001C00002950175039101C00102E06163767676C4
:1001D000767676767676760103E0000102E061635A
:1001E00076767676767676760103E0000102E06137
:1001F0006376767676760103E00000010101010165
:1002000001010101020202020202020202030303CF
:10021000030303030304040404040404050505059F
:10022000050606060606070707070708080808095F
:100230000909090A0A0A0B0B0B0C0C0C0D0D0D0E0B
:100240000E0E0F0F0F1010111111121213131414A0
:10025000151516161717181819191A1A1B1B1C1D15
:100260001D1E1E1F2020212222232424252626276E
:100270002829292A2B2C2D2D2E2F303132323334A0
:1002800035363738393A3B3C3D3E3F4041424344A6
:1002900045464748494A4C4D4E4F50515354555688
:1002A00058595A5B5D5E5F616264656668696B6C34
:1002B0006D6F7072737577787A7B7D7E80828385AF
:1002C00087888A8C8E8F91939596989A9C9EA0A2EF
:1002D000A3A5A7A9ABADAFB1B3B5B7BABCBEC0C2F9
:1002E000C4C6C9CBCDCFD1D4D6D8DBDDDFE2E4E7BD
:1002F000E9EBEEF0F3F5F8FAFDFF0152167E067E0B
:10030000277E1E7E1A7E197E147E357E0B7E317E00
:10031000247E1D7E257E2B7E087E2E7E377E3A7EB5
:100320000F7E0D7E307E107E037E28000052055227
:10033000025203520452447E1C7E207E4D7E537E28
:100340004C7E437E3D7E427E4F7E097E3F7E517EC7
:100350004A7E327E417E187E5C7E497E5A7E005205
:1003600001520552035204521F7E457E177E4B7E7A
:100370000C7E137E1B7E267E407E0A7E117E3C7E96
:10038000127E2F7E3B7E077E5D7E347E217E2A7E1E
:1003900000520152025205520452467E477E2D7E83
:1003A0004E7E5E7E5B7E3E7E0E7E397E387E287E71
:1003B000587E337E367E297E237E227E157E2C7EDD
:1003C000487E00520152025203520552767E777ED9
:1003D000787E797E7A7E7E7E7F7E807E817E827E42
:1003E0007B7E7C7E7D7E837E847E617E627E737E6C
:1003F000667E6F7E005201520252035204522178EF
:100400002778237825782978227828782478267800
:100410002A7800000000000000000000C652017EA3
:10042000007E027E207800525300540055002A00BE
:1004300000005F0060006100560000005C005D008D
:100440005E005700000059005A005B0000000100E8
:10045000620062006300580009025B00030100A013
:10046000FA09040000010301010009211101000142
:10047000224400070581030800010904010002036A
:10048000000000092111010001222200070582035A
:1004900020000107050303200001090402000103F5
:1004A00000000009211101000122B60007058403A4
:1004B0002000011201000200000008F1F1250001F6
:1004C000000102000112034200550050007000615B
:1004D0000064003200350000001A03530070006908
:1004E00000640065007200490073006C0061006EDA
:1004F0000064000000040309040000000000000084
:1005000000000000000000000000000000000000EB
:10051000000000000000000000000000007E0F004E
:10052000D4FFFFFFC70000007800000000000000BB
:10053000002A2B280000000000000000000000003E
:100540000000000029000000002C1E34202122247D
:10055000342627252E362D3738271E1F202122230B
:100560002425263333362E37381F0405060708099D
:100570000A0B0C0D0E0F1011121314151617181963
:100580001A1B1C1D2F3130232D35040506070809C1
:100590000A0B0C0D0E0F1011121314151617181943
:1005A0001A1B1C1D2F3130354C0011241FBECFEFFC
:1005B000DAE0DEBFCDBF04B603FE18C080910308A9
:1005C00090910408A0910508B09106088730904BDF
:1005D000A740B04B59F410920308109204081092EF
:1005E000050810920608E0E0F8E3099516E0A0E09F
:1005F000B1E0ECE2F5E502C005900D92A435B1073B
:10060000D9F728E0A4E5B6E001C01D92A330B207F7
:10061000E1F70E943D230C94942A0C940000482F8B
:100620002091CD079091940757E0291302C080E0F4
:10063000089530E0529FF001539FF00D1124EB56C6
:10064000F84F8181681306C08081481303C08581FB
:100650008111EECF2F5F3F4F2770E7CFE8EDF0E03D
:1006600080818E7F80831092E2001092DA001092D7
:10067000E100A0EEB0E08C9181608C9380818F7757
:10068000808319BCA7EDB0E08C918E7F8C93808124
:100690008F7E808310927E0708952091E400309130
:1006A000E50085E69091EC0090FF06C09091E8008F
:1006B00090FF06C080E008959091E80092FDFACF87
:1006C00090918A07992391F0953091F09091EB00E9
:1006D00095FD10C04091E4005091E50024173507C6
:1006E00009F381509A01F1F684E0089582E00895BB
:1006F00083E0089581E0089580918C0787FF13C0FF
:100700008091E80082FF06C08091E8008B7780939B
:10071000E80004C080918A078111F2CF089580918A
:100720008A078823D9F38091E80080FFF8CF809171
:10073000E8008E77ECCF982F9093E900242F762F46
:1007400050E0891731F07091EC002091ED0050914C
:10075000F00021FD07C09F5F973071F78093E9009B
:1007600081E008953091EB003E7F3093EB003091B3
:10077000ED003D7F3093ED003091EB003160309320
:10078000EB007093EC002093ED005093F00020916B
:10079000EE0027FDE0CF80E00895B0E0A0E0E3EDBB
:1007A000F3E00C94F229C8EDD0E088818F7E888335
:1007B000E7EDF0E080818160808384E082BF81E0AA
:1007C00080937E0788818E7F888302EE10E0F80197
:1007D00010821092DA0081EEC82ED12CF601108220
:1007E00088818F77888388818068888388818F7DDE
:1007F000888319BC10928A0710928B071092890780
:100800001092880790EEE92EF12CF70180818B7F02
:10081000808388818160888342E060E080E00E947C
:100820009B03F60180818E7F8083F8018081816047
:100830008083808188608083F70180818E7F8083C0
:10084000888180618883CDB7DEB7E8E00C940E2AFA
:10085000FC01809192079091930786179707A0F06B
:100860006115710529F49091E8009E779093E80056
:1008700090E06115710551F4911108C08091E80074
:1008800082FF35C080E00895BC01F2CF80918A07D5
:100890008823C9F18530C9F18091E80083FD31C01A
:1008A0008091E80082FDEACF8091E80080FFE1CFEF
:1008B0002091F3008091F200322F282F61157105ED
:1008C00019F02830310558F091E02830310509F051
:1008D00090E02091E8002E772093E800CACF819124
:1008E0008093F100615071092F5F3F4FE7CF8091F6
:1008F0008A07882341F0853041F08091E80083FF2A
:10090000BDCF81E0089582E0089583E008952FB778
:10091000F89480917A0790917B07A0917C07B09121
:100920007D072FBF089580910E01089590910F01CA
:100930009130D1F49091770797FF16C0E82FE69594
:10094000E695E695EE31D8F4F0E0E25AF94F282F1B
:10095000277081E090E001C0880F2A95EAF7809522
:100960009281892382830895E6E5F6E092818913D6
:1009700001C01282319696E0EC35F907B9F7089577
:10098000A3E0B0E0E6ECF4E00C94F82920917507C0
:100990003091760728173907A1F090937607809356
:1009A0007507E0917307F0917407309751F024E0D8
:1009B00029839B838A830084F185E02DCE010196F3
:1009C00009952396E2E00C94142AA3E0B0E0EBEE44
:1009D000F4E00C94F82920917107309172072817E0
:1009E0003907A1F09093720780937107E091730724
:1009F000F0917407309751F023E029839B838A8319
:100A00000084F185E02DCE01019609952396E2E060
:100A10000C94142AE0917307F0917407309729F031
:100A20000190F081E02D0995089580E008950E94DD
:100A3000870420916D07211104C020916E072223A5
:100A400021F090936A078093690720916F07211125
:100A500004C020917007222321F0909368078093AF
:100A60006707E0917307F0917407309749F082E0CF
:100A700080936B070680F781E02D8BE697E0099560
:100A800008958091660780FD16C081FD16C082FD25
:100A900016C0809165078823A1F0883280F428E091
:100AA000829FC001112468E270E00E94A829862F6D
:100AB000672B39F0089582E0089584E0089588E076
:100AC000089581E008958091660780FD14C081FD3E
:100AD00014C082FD16C080916407882381F08E3196
:100AE00080F420E5829FC00111246EE170E00E9435
:100AF000A829862F089584E1089588E2089588E062
:100B0000089580E50895282F35EB2303C0011124B3
:100B100097FF04C080589109892F089580589F4FEE
:100B2000FBCFFC01EE0FFF1FE80FF91FEF5FF84F3F
:100B30006183408322830895E1E0F7E0818360834D
:100B40004283339697E0E436F907C1F70895559A42
:100B50000895BC019FEF613E8EE1780740F49B0150
:100B600095E0369527959A95E1F798E0920F41E048
:100B7000E42FE90FFF27FF1F9F0135952795822F4F
:100B8000229FF001239FF00DF00D11246E177F07B7
:100B900038F49FEF920F941758F78FEF840F089552
:100BA0002F3FE9F341E0420FF6CF8091D2078370E7
:100BB00011F010920C018091D2078C7F8093D207A4
:100BC00008958091D207837011F410920C018091E6
:100BD000D2078C7F81608093D2070895880F880F99
:100BE000880F98E0980F923208F091E20895EF9202
:100BF000FF920F939701201B31092F3F310519F008
:100C000010F02FEF30E02095382F320F08F43FEF2F
:100C1000832F0F91FF90EF900895EF92FF920F9323
:100C20009701201B31092F3F310519F010F02FEFEC
:100C300030E0322F3095482F430F08F44FEF842FC8
:100C4000620F0F91FF90EF900895EF92FF920F9334
:100C5000972F093438F4B701601B71096F3F710594
:100C600019F010F06FEF70E0485F5F4F41315105B0
:100C700040F0A901485F5F4F4131510510F06FEF1F
:100C800070E06095482F460F08F44FEF842F37FF30
:100C900002C02D5F3F4F359527953595279560917B
:100CA000D307620F792F0F91FF90EF900895EF9285
:100CB000FF920F931F93E00EF11C890137FF03C0D1
:100CC00011950195110924E0000F111F2A95E1F7F4
:100CD0000F3F110519F014F00FEF10E09A0157FFC4
:100CE00003C031952195310994E0220F331F9A9565
:100CF000E1F7201731070CF489010E0D1F1D0F3F7E
:100D0000110519F010F00FEF10E00095282F200FBB
:100D100008F42FEF822F1F910F91FF90EF9008950D
:100D2000EF92FF920F93970195E0099F200D311DDF
:100D300011242F3F310519F010F02FEF30E02095EE
:100D4000382F320F08F43FEF832F0F91FF90EF9071
:100D50000895409520E4429F412D1124640F089589
:100D60004095282F429F412D1124842F0895EF9202
:100D70000F93972F23E0029FB0011124759567957B
:100D80006E0D792F0F91EF900895E42FF0E0EE0FA4
:100D9000FF1FEE50FA4F6081621B0895E42FF0E0D0
:100DA000EE0FFF1FE852FA4F618D621B0895622F0C
:100DB0000895E42FF0E0EE0FFF1FE852FA4F418D47
:100DC00034EE439F412D1124E82FF0E050E0445EC3
:100DD0005F4FDA01A21BB1099D01B7FF03C0319536
:100DE0002195310993E0220F331F9A95E1F7AF0166
:100DF000421B530B9A0157FD20E0582F259F212DB0
:100E00001124822F0895E42FF0E0EE0FFF1FE85227
:100E1000FA4F418D34EE439F412D1124E72FF0E02E
:100E200050E0445E5F4FDA01A21BB1099D01B7FF9C
:100E300003C031952195310993E0220F331F9A9514
:100E4000E1F7AF01421B530B9A0157FD20E0279FAA
:100E5000212D1124722F08950E949C0508950E944F
:100E60009105089590910007892B809300070895BC
:100E7000E2EDF7E0248130E1231B08F420E0248335
:100E800081E00E9432070895E2EDF7E0248130E12D
:100E9000230F08F42FEF248381E00E943207089586
:100EA0009091D207937061F08093D3076093D40739
:100EB000493C08F048EC822F4093D5070E94320746
:100EC0000895E2EDF7E0438120E1421B08F440E0A1
:100ED000818121E0628190E00E9450070895E2ED57
:100EE000F7E0438120E1420F08F44FEF818121E0D8
:100EF000628190E00E9450070895E2EDF7E0628180
:100F000020E1621B08F460E0818121E0438190E0F0
:100F10000E9450070895E2EDF7E0628120E1620F40
:100F200008F46FEF818121E0438190E00E94500737
:100F30000895E2EDF7E0818121E0438162818850EC
:100F4000990B0E9450070895E2EDF7E0818190E04F
:100F500021E04381628108960E9450070895909194
:100F6000D207937051F0811109C094609093D20719
:100F7000862F10920C010E94320708958A3110F0DA
:100F80009466F4CF880F880F982BF0CF8091D2070A
:100F900086958695815009F489E161E00E94AF074A
:100FA00008958091D207869586958F5F8A3108F0E3
:100FB00081E061E00E94AF070895E2EDF7E09081E3
:100FC00021E09227908310920C010E94320708952D
:100FD0000F931F93522F10E0F801EE0FFF1FEE50FA
:100FE000FA4FA081A052BB0BAA0FBB1F9D01520359
:100FF000F001539FF00D1124000F111FD801A852CA
:10100000BA4F59960C910052110B000F111F40035B
:101010009001419F300D11242E0F3F1F37FF02C05A
:1010200021583F4F220F232F221F330B620F1F9196
:101030000F910895FC019B01009721F477FD2BC0CF
:1010400080E00895AC0197FF04C044275527481B52
:10105000590BB901640F751F37FD10C0241B350BE8
:10106000C901A5E0880F991FAA95E1F70E94A82958
:1010700080E2861BF7FF10C081950895CB0165E0E3
:10108000880F991F6A95E1F7BA01621B730B0E94E2
:10109000A82980E6EECF80E80895EF920F93CF93D2
:1010A000DF93D72FC82FC9010E19BA010E941A0861
:1010B000602F681B7D2F8C2FDF91CF910F91EF90C8
:1010C00008950F93CF93DF93D72FC82FC901BA018B
:1010D0000E941A08682F600F7D2F8C2FDF91CF910F
:1010E0000F910895EF920F931F93CF93DF93D62F15
:1010F000C72F182FC9010E19010FBA010E941A0833
:10110000081B202F219F212D1124822F6D2F7C2F32
:10111000DF91CF911F910F91EF900895EF920F9370
:101120001F93CF93DF93D62F172FC82FC9010E1906
:10113000070FBA010E941A08702F781B719F712D3A
:1011400011246D2F8C2FDF91CF911F910F91EF9074
:1011500008950F931F93CF93DF93D62FC72F182F88
:10116000C901212F201B022FBA010E941A08982FB3
:10117000990F990F891B800F282F219F212D112452
:10118000822F6D2F7C2FDF91CF911F910F910895AA
:101190000F931F93CF93DF93D62F172FC82FC9011B
:1011A000272F201B022FBA010E941A08982F990F8F
:1011B000990F782F791B700F719F712D11246D2F4E
:1011C0008C2FDF91CF911F910F910895E82F86FD0D
:1011D000E0952E2F2F7086FD2F5FE695E695E6951C
:1011E000E670F0E0EF53FA4F9181929F902D212D00
:1011F000112492959F702295207F922B2081920F2F
:1012000087FD919580E8890F08951F93CF93DF9311
:10121000D62FC72F182F822F86950E94E608805858
:1012200087FD8195880F282F219F212D1124822F42
:101230006D2F7C2FDF91CF911F91089530E020E03A
:10124000869F212D969F200D311D1124C9010895DF
:10125000B0E0A0E0EEE2F9E00C94F029362F472F41
:10126000E82FF0E0E650FE4F71110AC0E4918E2F96
:101270002E2F6E2F722FCDB7DEB7EAE00C940C2A1A
:10128000C72FD0E02491F22FE22EF12C56E0659F7B
:10129000C00111240FEF10E0B8010E949429832FA0
:1012A00090E0880F991F35E5369FD001379FB00D2C
:1012B00011248A1B9B0B982F990F980F6801CC1A49
:1012C000DD0ACE9CD001CF9CB00DDE9CB00D112468
:1012D0008B2F499FA0011124452F55276801C41A5F
:1012E000D50ACE9CA001CF9C500DDE9C500D112440
:1012F000E52F5801A91AB108AC9E6001AD9ED00C33
:10130000BC9ED00C1124CD2CDD240C191D090E9D82
:10131000E0010F9DD00D1E9DD00D1124623071058E
:10132000B1F058F46115710579F06130710509F477
:10133000A0CFE22F2B2F852F9CCF6430710571F049
:1013400048F066307105A9F7E22F2D2F92CFEB2FD1
:101350008D2F8FCFEB2F822F252F8BCF2B2F8F2FE2
:10136000ED2F87CFACE0B0E0E8EBF9E00C94E82992
:101370008A8378876F83809111010E94EE059B8399
:101380002091DA072C83482F50E05C874B87CA01F5
:10139000880F991FFC01E852FA4F6F01FA818F2FD5
:1013A00090E09C01220F331FA9014D50584F5E83DE
:1013B0004D83FC013196FA87E9878B819B859817CD
:1013C00048F081E0EB81E13208F080E02C96E2E128
:1013D0000C94042AEB85FC85ED5CF94F808190919B
:1013E0001201892309F12090D3073090D407298571
:1013F0003A852652384F39014D805E803A813983D3
:1014000010E02C8139813217C8F02091D507129F46
:10141000112D1124B101812F0E942809472F282F57
:101420008B859C850E942F074B855C854F5F5F4FA6
:101430005C874B8752E0C50ED11CBFCFF301819171
:101440003F01F601A18CA81ABB08828CF3018781A9
:10145000881A9908AA9CC001AB9C900D900D11248C
:10146000889C9001899C300D300D1124820F931FB0
:1014700082309105DCF4082F6091D60721E0620FDD
:1014800008F46FEFF201819191912F010E941E09E2
:101490007C019401A501B101812FEF81F8850995A7
:1014A0001B01F981FF5FF983182FABCF0E94A905BB
:1014B000E2CFB0E0A0E0EFE5FAE00C94F3298C0174
:1014C000809111010E94EE05C82FD92E2091D607D8
:1014D00031E0230F08F42FEF30E050E040E06FEFF1
:1014E0007FEF80E090E00E94BC297901D0E04C2F92
:1014F000CD1550F081E0F0E2FD1508F480E0CDB7A5
:10150000DEB7E7E00C940F2AFE01ED5CF94F808115
:1015100090911201892329F19091DA079150E92FD6
:10152000092E000CFF0BE652F84F97FF1CC09701E5
:101530006091D60741E0640F08F46FEFC9010E9483
:101540001E09AC016091D3077091D4078091D50733
:10155000F80109950E942809472F282FCE010E94E3
:101560002F072196C4CF818948130BC0DF01AA0F32
:10157000BB1FAA5DB74059962D913C912E153F0592
:10158000B8F291503197D1CF2F923F924F926F92F4
:101590007F928F929F92AF92BF92CF92DF92EF9203
:1015A000FF920F931F93CF93DF933C018091110122
:1015B0000E94EE05C82F192F6091D607669580917D
:1015C000CE079091CF070E941E09F82ED0E0CE01E1
:1015D000880F991F9C0128523A4F6901C117B0F03A
:1015E00081E0113208F080E0DF91CF911F910F91DF
:1015F000FF90EF90DF90CF90BF90AF909F908F9033
:101600007F906F904F903F902F900895FE01ED5C7A
:10161000F94F808190911201892399F1F601818D12
:10162000282F2052330B5901828DE82FE052FF0BF7
:101630004F01229FC001239F900D900D1124EE9F1A
:101640009001EF9F300D300D1124820F931F8230D7
:10165000910510F00E94A9052090D3073090D4077F
:101660004090D507EF2C082F9401A501842DB101DE
:10167000F30109950E942809472F282FCE010E94C7
:101680002F072196F2E0CF0ED11CA8CFB0E0A0E04A
:10169000ECE4FBE00C94F1296C01809111010E94B3
:1016A000EE05C82F192F6091D60766958091CE0759
:1016B0009091CF070E941E09B82ED0E0CE01880F6E
:1016C000991F9C0128523A4F7901C11748F081E0D7
:1016D000113208F080E0CDB7DEB7E9E00C940D2AB6
:1016E000FE01ED5CF94F8081909112018923B9F0E0
:1016F000F701228D2052330B418D4052550B6091E2
:10170000D3077091D4078091D5070B2DF601099569
:101710000E942809472F282FCE010E942F07F2E0B0
:10172000EF0EF11C2196D1CFEF92FF920F931F93F2
:10173000CF93DF937C01809111010E94EE05C82FA9
:10174000192F6091D6076695669521E0620F08F41F
:101750006FEF8091CE079091CF070E941E09082F4E
:10176000D0E0C11748F081E0113208F080E0CDB739
:10177000DEB7E6E00C94102AFE01ED5CF94F8081A3
:1017800090911201892389F06091D3077091D40759
:101790008091D507202F4C2FF70109950E94280929
:1017A000472F282FCE010E942F072196DACFB0E0D5
:1017B000A0E0EDEDFBE00C94F029182F80910B01D7
:1017C00081133EC09091D207937020910A0130E0BE
:1017D00081E09217130609F480E081708093130171
:1017E0008091D70790911201981739F080931201D8
:1017F00040E060E080E00E942C071A3108F0CBC185
:10180000E12FF0E0EA5FF34F0C94DB29220C2D0C62
:101810006C0CA30CDC0C190D1E0D210D240D290DD3
:101820002C0D310D340D370D3A0D3D0D400D430D8E
:10183000460D8A0D8F0D920D9F0DAA0DB50DC00D91
:1018400081E0CBCF809113018823F1F040E060E08C
:1018500080E00E942C0780E017C0809111010E9457
:10186000EE05C82F092F6091D3077091D40780919E
:10187000D5070E942809F62EE72ED82ED0E0C017F3
:10188000D8F081E0013238F7909111019F5F909379
:10189000110181110CC082E080930C018091130131
:1018A000811105C0111103C083E080930C01CDB7F5
:1018B000DEB7EAE00C940C2AFE01ED5CF94F808162
:1018C00090911201892331F02D2D4E2D6F2DCE01D7
:1018D0000E942F072196D3CF809111010E94EE051F
:1018E000C82F092FE090D407F090D507D091D307E7
:1018F0006D2F7E2D8F2D0E942809D62EC72EB82E33
:101900006091D6076D0F7E2D8F2D0E942809F62E2F
:10191000E72EA82ED0E0C01708F0B3CFFE01ED5C93
:10192000F94F908180911201892359F02A2D4E2D73
:101930006F2D90FD03C02B2D4C2D6D2DCE010E94DF
:101940002F072196E8CF809111010E94EE05F92E14
:10195000E090D407D090D5072091D60700E4029FED
:10196000012D1124C82FD0E0CF1530F081E030E2F6
:101970003F1508F089CF6FCFFE01ED5CF94F8081F4
:10198000909112018923B1F0FE01EE0FFF1FE85282
:10199000FA4F828D82958F706091D307809F600D82
:1019A00011247E2D8D2D0E942809472F282FCE012E
:1019B0000E942F072196D8CF809111010E94EE0539
:1019C000F92EE090D407D090D5072091D60700E4F7
:1019D000029F012D1124C82FD0E0CF1530F081E0F7
:1019E00090E29F1508F050CF36CFFE01ED5CF94F25
:1019F0008081909112018923D1F0FE01EE0FFF1F2B
:101A0000E852FA4F618D069FB001112445E07595AB
:101A100067954A95E1F78091D307680F7E2D8D2D4C
:101A20000E942809472F282FCE010E942F072196B8
:101A3000D4CF85E099E00E94940B26CF83E097E015
:101A4000FACF89ED96E0F7CF88EC98E00E94460B3C
:101A50001BCF89EA98E0FACF8EE898E00E94C40A8A
:101A600013CF82E798E0FACF87ED96E0E4CF8EECD3
:101A700096E0E1CF85EC96E0DECF87EB96E0EECF07
:101A800081E698E0E3CF8DE498E0E8CF8091110102
:101A90000E94EE05C82FD92E6091D60766956695EF
:101AA0008091CE079091CF070E941E09F82E80E406
:101AB0008F0D0E94E60890E8C92EC80E8F2D0E9457
:101AC000E60820E8B22EB80ED0E0CD1530F081E067
:101AD00090E29D1508F0D8CEBECEFE01ED5CF94F28
:101AE000808190911201892399F06091D3077091C0
:101AF000D4078091D507EF2C0C2F2B2D4C2D0E9455
:101B0000E8070E942809472F282FCE010E942F079F
:101B10002196DBCF80EB96E00E94590AB5CE89EA88
:101B200096E0FACF8091DA0721E0382F321B08F4D3
:101B300030E0832F60E976E00E94B209A5CE809163
:101B4000DA0721E0382F321B08F430E0832F67E5F5
:101B500076E0F2CF8091DA0721E0382F321B08F4CB
:101B600030E0832F65E276E0E7CF8091DA0721E06D
:101B7000382F321B08F430E0832F6DE076E0DCCFA5
:101B80008091DA0721E0382F321B08F430E0832FF0
:101B900067EF75E0D1CF809111018F5F80931101C4
:101BA0007ACE80E00895F894E82FE295EF70F0E0A7
:101BB00031A1282F2F7081E090E001C0880F2A9575
:101BC000EAF7982F9095932391A392A1892B82A352
:101BD00078940895811520E59207C8F5811540E4B1
:101BE000940708F098C0803E910518F58D3C91054A
:101BF00008F089C0883A910570F4853A910508F09B
:101C000079C08130910511F118F084309105F0F41C
:101C100090E080E01BC0833C9105D0F7885AE82F04
:101C2000F0E0EE0FFF1FEF57FA4F8081918194642F
:101C30000895811550E2950708F0A9C0811521E0AB
:101C4000920708F062C0883E910510F7089580362B
:101C500042E5940718F5803452E5950708F065C011
:101C6000803222E5920708F059C0811542E59407B9
:101C700008F474C0282F2695269550E2259F9001E0
:101C80001124482F437081E090E002C0880F991F13
:101C90004A95E2F7822B932B9D680895803C52E58C
:101CA0009507E0F4803A22E5920708F052C08038A8
:101CB00042E5940708F0ACCF982F937021E030E014
:101CC00002C0220F331F9A95E2F73A6886958695EF
:101CD000877050E2859FC001112438C0803E52E5D4
:101CE000950708F095CF982F882788279F71806FD8
:101CF000906A0895855AE82FF0E0E258FA4F808103
:101D000090E0906408959065089520E0392FA9012E
:101D1000482BCA0108959F70906A08958F7190E0D2
:101D2000982F8827816F906A0895982F937021E0EB
:101D300030E002C0220F331F9A95E2F73C68869587
:101D40008695877040E2849FC0011124822B932BDB
:101D500008958F7190E0982F882708959C0195E051
:101D6000369527959A95E1F72F7030E0322F22278C
:101D7000482F4F7150E084FF05C084E0440F551F89
:101D80008A95E1F7C9019069842B952B0895292F35
:101D90002F7199279062922B08958091CD07909191
:101DA0009407981301C008958F5F8770FACF292F89
:101DB000953078F5853068F590E035E0239F800D0B
:101DC000911D1124682F677023E0969587952A95B9
:101DD000E1F7FC01EE0FFF1FE80FF91FE258F94F82
:101DE00050E040E080E0219130E0062E02C03695C0
:101DF00027950A94E2F721703327042E01C0220FA1
:101E00000A94EAF7822B4F5F5F4F4330510559F731
:101E1000089580E00895292F953098F5853088F54C
:101E200090E035E0239F800D911D1124282F27700D
:101E300041E001C0440F2A95EAF723E09695879583
:101E40002A95E1F7FC01EE0FFF1FE80FF91FE2589A
:101E5000F94F30E020E070E05191DF011197CB01A4
:101E6000022E02C0969587950A94E2F781708195BB
:101E70008527842385278C932F5F3F4F233031059F
:101E800059F708958093FE0608959091FE0621E08B
:101E900030E0F90101C0EE0F8A95EAF7D90102C0DE
:101EA000AA0FBB1F6A95E2F7EA2B01C0220F4A95E1
:101EB000EAF7892F8E23E81305C0292B822F0E9471
:101EC000420F089520952923F9CF21E030E001C089
:101ED000220F8A95EAF720958091FE0682230E94C0
:101EE000420F089521E030E001C0220F8A95EAF701
:101EF0008091FE06822B0E94420F08958093C406B3
:101F00000895662309F45DC08D3C41F40E94630589
:101F1000819580936E070E94170508958E3C19F4F1
:101F20000E946305F6CF8F3C31F40E9463058195D2
:101F300080936D07F0CF803D19F40E946305F8CFC0
:101F4000893D29F40E94410580936F07E4CF8A3DC3
:101F500021F40E9441058195F7CF8B3D31F40E9419
:101F60004105819580937007D6CF8C3D19F40E946E
:101F70004105F8CF9FE2980F983070F4815D990B7E
:101F800021E030E001C0220F8A95EAF780916C07CA
:101F9000822B80936C07BFCF8D3D31F48091660713
:101FA000816080936607B7CF8E3D21F480916607EC
:101FB0008260F7CF8F3D09F0AECF809166078460D5
:101FC000F0CF8D3CD9F490916E0797FF1DC0109211
:101FD0006E0780916D07811106C080916E07811197
:101FE00002C01092640780916F07811194CF809195
:101FF0007007811190CF109265078DCF8E3CD9F478
:1020000090916E0719161CF39FE2980F983008F014
:102010003FC0815D990B21E030E0A90102C0440F6F
:10202000551F8A95E2F7CA01809590916C07892324
:1020300080936C07CECF90916D078F3C29F497FF6A
:10204000E3CF10926D07C5CF803D19F41916CCF37C
:10205000DBCF90916F07893D29F41916ACF61092E9
:102060006F07B7CF8A3D19F497FFCECFF8CF8B3DDE
:1020700039F49091700797FFC7CF10927007A9CFDE
:102080008C3D09F0C1CF909170071916B4F3BCCF05
:102090008D3D31F4809166078E7F8093660799CFDE
:1020A0008E3D21F4809166078D7FF7CF8F3D09F03B
:1020B00090CF809166078B7FF0CF982F92959F707D
:1020C00020E011F0892F24E0982F9695969511F035
:1020D0002E5F892F982F969509F02F5F822F0895F4
:1020E0000F931F93CF93DF938B01EA0190918A079F
:1020F000943061F58093E9008FEF9091E800815072
:1021000095FD06C095ED9A95F1F700008111F5CF88
:102110008091E80085FF1AC00E944D03811111C013
:102120008091E80085FD06C08091E8008E7780935D
:10213000E800F2CFF80181918F018093F10021979F
:1021400079F78091E8008E778093E800DF91CF9156
:102150001F910F91089543E050E0BC0184E00E947C
:102160007010089546E050E0BC0184E00E947010B9
:10217000089540E250E0BC0184E00E947010089590
:10218000CF93DF93EC0148E050E0BC0181E00E9476
:10219000701088E0FE01A0E8B7E001900D928A95EA
:1021A000E1F7DF91CF91089581E08093E00080E234
:1021B0008093D8001092C9008FE19EE40197F1F757
:1021C00000C0000087E090EBDC018093030890934F
:1021D0000408A0930508B093060888E19CE00FB6B8
:1021E000F894A895809360000FBE90936000FFCF95
:1021F0008BB18F7D9BB190622FB7F894E1E0F7E04F
:1022000037E0E436F30741F42FBF8FE594E0019700
:10221000F1F700C000000895319148E09BB900003B
:1022200000C037FF8BB9330F000000C000C000C0F2
:102230008BB900C04A9591F7E3CFCF92DF92FF921E
:102240000F931F93CF93DF93EC016B018A010E94E0
:102250000A0581FBFF24F0F844E250E0B601CE010C
:102260000E94822AFE0101900020E9F7AE014E1B78
:102270005F0B4C5D5F4FB801CE010E94722ADE01F8
:102280000D900020E9F7F80101900020E9F731975F
:10229000E01BF10BAE014A1B5B0B4E1B5F0B4C5D51
:1022A0005F4F69E271E0CE010E94722AFF2019F0AF
:1022B0000991011108C0DF91CF911F910F91FF90FB
:1022C000DF90CF90089510E0C8010E94452A892B25
:1022D00039F0C8010E94542AFE0131978083E8CF6B
:1022E000C8010E94412A892B19F3C8010E944C2A77
:1022F000F3CFCF93C82F6FEF811165E284E290E0B6
:102300000E9470296FEFC11162E085E290E00E94A7
:1023100070296FEFC11168E086E290E00E94702999
:10232000CF910895CF93DF93C8EBD1E060E0CE0169
:102330000E9470292196C11584E0D807B9F7DF9172
:10234000CF9108951F93CF93DF93962F8830E8F4B1
:102350006530D8F44530C8F4632F122FC42FD0E075
:10236000CC0FDD1F2AE0929FC00DD11D112492E3F6
:10237000899FC00DD11D1124CE0188960E9470291D
:10238000612FCE0189960E947029DF91CF911F9114
:102390000895B0E0A0E0EFECF1E10C94F229F12C0B
:1023A000E12CD12C8701C12C1EC04C2F87E021E0ED
:1023B00030E0D81651F0FE01E00FF11FEE0FFF1FC5
:1023C000E650FD4F859194919C016C2D8D2D0E94BE
:1023D000A2112196C530D10541F7C3940B5F1F4F61
:1023E00085E0C81619F0D0E0C0E0DFCFD39489E1D2
:1023F000E80EF11C88E0D812D5CFCDB7DEB7E8E003
:102400000C940E2A80E00E94791160E087E290E04F
:102410000E9470290E94C9110E94921181E00E94BD
:102420007911089584E290E00E945229853289F45E
:1024300085E290E00E945229823059F486E290E0D1
:102440000E94522991E0883009F090E0892F817034
:10245000089580E0FCCF0F931F93CF93DF938830D4
:1024600030F5653020F5453010F5C42FD0E0CC0FA5
:10247000DD1F2AE0629FC00DD11D112432E3839F2E
:10248000C00DD11D1124CE0188960E945229082F1B
:1024900010E0102F0027CE0189960E945229980142
:1024A000282BC901DF91CF911F910F91089590E0E2
:1024B00080E0F8CF753048F4653038F4883028F47F
:1024C000462F672F0E942B12089590E080E0089518
:1024D000CF92DF92FF920F931F93CF93DF936C0104
:1024E0000091FE068091C406082BC7E0D0E010E002
:1024F000FC2EC8010C2E02C0959587950A94E2F730
:1025000080FD0CC02197A0F7F12C8F2DDF91CF918A
:102510001F910F91FF90DF90CF900895B6018C2FFF
:102520000E945A120E94EA0D019761F3EECFCF93F9
:10253000DF93EC010E946812BE010E945A120E94B1
:10254000EA0DDF91CF910895FC0124812223B9F097
:10255000808191810E94971292959F70963089F0A8
:1025600050F49250923058F4803F19F030F4883E85
:1025700030F481E008959A50F5CF843FD1F380E0A4
:102580000895883EB0F3813FD1F7F3CFA6E0B0E0E5
:10259000ECECF2E10C94F72949835A8349815A8182
:1025A0009923A1F0222391F0CA010E946812182FEA
:1025B000682F89819A810E940B0F69817A81812F0E
:1025C0000E945A122696E3E00C94132ACA010E9434
:1025D000D70E182FF2CF48E050E067E170E082EDAF
:1025E00097E00E946029109200070895A6E1B0E0EC
:1025F000ECEFF2E10C94E8294091FA065091FB06C9
:102600006091FC067091FD062FB7F89480917A07CF
:1026100090917B07A0917C07B0917D072FBF841B11
:10262000950BA60BB70B2FB7F894C0907A07D090F4
:102630007B07E0907C07F0907D072FBFC092FA06E1
:10264000D092FB06E092FC06F092FD061091D106B6
:10265000E1EDF6E0212F30E04FEF5FEF60E070E05A
:10266000481B590B6A0B7B0B13131DC02093D1061B
:102670008091FF0681112EC0B090D2078B2D837000
:1026800049F1B694B694B98280910C018130D9F1A8
:1026900018F1823009F4A8C1833009F4B1C16696FB
:1026A000E2E10C94042A618C728C7C8A6B8A43016F
:1026B000B12CA12C481559056A057B0520F4215041
:1026C0003F5F3296D1CFAB88BC88A80EB91EB28EC0
:1026D000A18EF6CF1982D8CF10921101C092CE07E9
:1026E000D092CF07E092D007F092D10789E2E1EDD6
:1026F000F6E0AAEDB7E001900D928A95E1F781E04E
:1027000080930C01CCCF89810E94D70B6980662011
:1027100031F28091110181500E94EE059B83B82E09
:102720006091140170911501809116010E94280991
:10273000D62EC72E982E60911701709118018091A6
:1027400019010E9428096C837D838E8360911A0190
:1027500070911B0180911C010E942809262EA72E32
:102760008A836AEA7FEF8091D5070E9428096F83E8
:102770007887898760911D0170911E0180911F01EA
:102780000E9428096A877B878C8765E57FEF8091A7
:10279000D5070E942809862E772E682E6091200189
:1027A00070912101809122010E9428096D877E8706
:1027B0008F876091230170912401809125010E94EF
:1027C00028096D8B7E8B182F60E07FEF8091D507F5
:1027D0000E942809562E472E382E60E070E088ECC3
:1027E0000E942809062FF72EE82E60E070E0809105
:1027F000D5070E942809688B798B8A8B8091FE0609
:102800000E945D1089838091D707811104C040E048
:1028100060E00E942C079981892F90E09C8B8B8B24
:102820009B81B91608F03BCF8981883008F0D6C06B
:10283000EB89FC89E25EFB4E0C94DB2926142F14F5
:1028400035143B14411447146E14CE14292D4C2D0D
:102850006D2D84E190E00E942F07B394E1CF2E818B
:102860004D816C8185E190E0F6CF2A814A2D622D61
:1028700086E190E0F0CF2C854B856A8587E190E07A
:10288000EACF2F854E856D8588E190E0E4CF232D3A
:10289000442D652D80E190E00E942F07212F4E8965
:1028A0006D8984E190E00E942F07212F4E896D8968
:1028B00085E190E00E942F07212F4E896D8986E1E6
:1028C00090E00E942F07212F4E896D8987E190E0CB
:1028D0000E942F07212F4E896D89D6CF0E940A05AD
:1028E00080FD35C0498568858F810E942C072E2D7B
:1028F0004F2D602F85E190E00E942F07262D472D58
:10290000682D81E090E00E942F07262D472D682D2D
:1029100083E090E00E942F07262D472D682D85E04B
:1029200090E00E942F07262D472D682D87E090E02C
:102930000E942F07292D4C2D6D2D84E190E00E94DF
:102940002F07232D442D652D80E190E084CF4A8907
:10295000698988890E942C072A814A2D622D85E188
:1029600090E00E942F07292D4C2D6D2D84E190E0E1
:102970000E942F0720E040E060E083E190E00E94A9
:102980002F0720E040E060E082E190E00E942F0706
:1029900020E040E060E081E190E0D1CF292D4C2D96
:1029A0006D2D84E190E00E942F072E2D4F2D602F7A
:1029B00085E190E00E942F072E2D4F2D602F86E19C
:1029C00090E00E942F072E2D4F2D602F87E190E081
:1029D0000E942F072E2D4F2D602F56CF40E060E034
:1029E00080E00E942C0739CF698060920B018091B2
:1029F000D207837080930A010E94F81083E080CE92
:102A00008091000781110E94EB124091CE075091F6
:102A1000CF076091D0077091D1072FB7F8948091BC
:102A20007A0790917B07A0917C07B0917D072FBF1B
:102A3000841B950BA60BB70B4097A105B10508F4B5
:102A40002ECE10920C012BCEA5E0B0E0EAE2F5E12B
:102A50000C94ED298E010F5F1F4F85E0F801119254
:102A60008A95E9F787EBE82E85E0F82E6801AA241D
:102A7000A394B12C21EC822E25E0922EF7018191B6
:102A80007F018F3F09F440C0F894E82FE295EF7082
:102A9000F0E021A18F70A50102C0440F551F8A9557
:102AA000E2F7CA01922F982B91A392A180958923D6
:102AB00082A3789400C0ECEBF5E0712C31E0219119
:102AC0002F3F09F44AC0A22FA295AF70B0E09096B4
:102AD0008C9190E02F7002C0959587952A95E2F72A
:102AE00080FD3BC0832F782A330F8E169F0639F75F
:102AF000F701319780818F3F11F00E94D30D50EA8A
:102B00005A95F1F7F6017082FFEFCF1ADF0A4CEB0E
:102B1000E41645E0F40609F0B1CF45E050E0B80115
:102B20008FEB96E00E945C2A892BD9F085E0F801B2
:102B3000AFEBB6E001900D928A95E1F781E08093CA
:102B4000BE060E9487049093BD068093BC0610E0E9
:102B5000812F2596EDE00C94092A80E0C4CF10E087
:102B60002AC01091BE06112391F32091BC0630912A
:102B7000BD064FB7F89480917A0790917B07A0919A
:102B80007C07B0917D074FBF821B930B0597F8F22E
:102B900045E050E06FEB76E08CEC96E00E945C2A1A
:102BA000892BE9F285E0EFEBF6E0ACECB6E00190C2
:102BB0000D928A95E1F71092BE06CACF8091B106B8
:102BC00090917F07892B90910F01913049F5909159
:102BD000770797FF25C080935F0640E250E061E9E8
:102BE00076E08EE596E00E945C2A892BC1F080E2B7
:102BF000EEE5F6E0A1E9B6E001900D928A95E1F7E5
:102C0000E0917307F0917407309749F086E0809364
:102C10005E060480F581E02D8EE596E00995089525
:102C20008093560648E050E062EB76E086E596E059
:102C30000E945C2A892B99F388E0E6E5F6E0A2EB96
:102C4000B6E001900D928A95E1F7E0917307F0915B
:102C50007407309721F30280F381E02D86E596E03A
:102C6000DDCF80910F01813039F58091770787FFA3
:102C700023C0E0E6F6E08EE1DF011D928A95E9F7D8
:102C800090E080E00E94E50490E080E00E94C004B3
:102C90001092B1060E94DE1586E0EBE6F7E0DF0158
:102CA0001D928A95E9F710926407109265071092B9
:102CB00066070E9417050895E8E5F6E086E0DCCF98
:102CC000AAE2B0E0E6E6F6E10C94F729ECE8F7E0DA
:102CD0008091F100819387E0E439F807C9F780918A
:102CE0008D07833009F47FC008F5813009F456C0A0
:102CF000823009F4C6C08091E80083FF00C1809152
:102D00008C0790918D079A3008F0F9C0E92FF0E018
:102D1000E457F94E0C94DB29521778177F17781770
:102D20007F17D017F2177F17F118FE188A3009F4B1
:102D300097C08B3009F474C08930E9F680918C0714
:102D40008132C9F68091900790919107009711F018
:102D5000029789F68091E800877F8093E800809150
:102D6000E80082FF3BC08091F3009091F200892738
:102D700098278927029731F48091F100813011F072
:102D8000863021F48091F10080930E018091E8005B
:102D90008B778093E8000E947C03ADCF80918C07F5
:102DA000813A09F0A8CF8091E800877F8093E800FE
:102DB0008091900790919107892B61F060E090E0FD
:102DC00080E070E00E9428048091E8008B77809377
:102DD000E80091CF68E080E897E0F3CF80918A0720
:102DE0008111BDCF88CF80918C07813A09F083CFC4
:102DF0008091900790919107892B09F07CCF809169
:102E0000E800877F8093E8008091E80080FFFCCF96
:102E100080910F018093F1008091E8008E77B9CF07
:102E200080918C07813209F066CF80919007909154
:102E30009107892B09F05FCF8091E800877F80930D
:102E4000E8000E947C0381E090918E07911101C0FF
:102E500080E080930F0110927F070E9431164BCFC4
:102E600080918C07813209F046CF8091E800877FFE
:102E70008093E8000E947C0380918F0780930D016E
:102E80003ACF80918C07813A09F035CF8091E800E4
:102E9000877F8093E8008091E80080FFFCCF8091DD
:102EA0000D01B8CF803889F0823849F580919007BC
:102EB0008F70873020F58093E9008091EB0085FBCF
:102EC000882780F91092E90006C0809188079091C8
:102ED0008907911182609091E800977F9093E800B4
:102EE0008093F1001092F1008091E8008E7727C066
:102EF000282F2D7F21F48823A1F0823029F18091A1
:102F0000E80083FF0AC08091E800877F8093E80093
:102F10008091EB0080628093EB00AA96E3E00C9432
:102F2000132A80918E07813051F7933009F080E0A9
:102F3000809389071092E9008091E800877F809351
:102F4000E8000E947C03DBCF80918E078111F2CFD5
:102F5000809190078F702FEF280F263080F6809396
:102F6000E9002091EB0020FFE5CF933031F4809110
:102F7000EB0080628093EB00DDCF9091EB009061DD
:102F80009093EB0021E030E001C0220F8A95EAF730
:102F90002093EA001092EA008091EB008860EACF6B
:102FA0008111ADCF10918E071F778091E30080785B
:102FB000812B8093E3008091E800877F8093E80075
:102FC0000E947C038091E80080FFFCCF8091E300A9
:102FD00080688093E30083E0111101C082E0809358
:102FE0008A078DCF8058823008F089CF20918E07D4
:102FF00030918F072C3DA3E03A07A1F583E08A8347
:103000008AE289834FB7F894DE01139620E03EE010
:1030100051E2E32FF0E050935700E49120FF03C00A
:10302000E295EF703F5FEF708E2F90E0EA30C0F0D6
:10303000C7968D939D932F5F243159F74FBF809191
:10304000E800877F8093E8006AE270E0CE01019695
:103050000E9428048091E8008B778093E8004FCF8E
:10306000C096E7CF8091900790919107432F552705
:103070004330510509F44FC078F54130510509F44A
:1030800045C08BE590E0E8E5F4E04230510509F0F9
:1030900036CF2091E800277F2093E8002091920707
:1030A000309193078217930708F49C0140E02115A3
:1030B000310509F063C0411161C08091E80082FDD3
:1030C000C9CF80918A07882329F2853019F280912F
:1030D000E80083FFF2CFBECF4132510509F43FC073
:1030E0004232510509F00BCF8330910508F007CF2C
:1030F000FC01EE0FFF1FE453FA4F0190F081E02D29
:1031000087539A4FDC018C9190E01DC082E190E0E2
:10311000E3EBF4E0BECF332721303105C1F060F09E
:103120002230310509F0EBCEE5ECF4E0E4918E2F8E
:1031300090E0E5ECF4E007C0E5EFF4E0E4918E2FD9
:1031400090E0E5EFF4E0009709F4D9CEA2CFE9EDE5
:10315000F4E0E4918E2F90E0E9EDF4E0F4CF8330D9
:10316000910508F0CCCE880F991FFC01EE52FA4F62
:103170000190F081E02D89E090E08BCF80918A076B
:10318000882309F467CF853009F464CF8091E80083
:1031900083FD60CF8091E80082FD8FCF8091E800B1
:1031A00080FF85CF8091F3009091F20089279827C6
:1031B00089272115310519F08830910550F041E03B
:1031C000089709F040E08091E8008E778093E8004E
:1031D0006ECF44914093F100319621503109019610
:1031E000E8CF803809F08BCE8091E800877F80930C
:1031F000E80080918B078093F10076CE81117FCE1D
:1032000010918E07123008F07ACE8091E800877F07
:103210008093E80010938B070E947C031123F9F040
:1032200084E080938A0742E061EC81E00E949B0386
:1032300042E261EC84E00E949B0342E261EC82E0A6
:103240000E949B0342E260EC83E00E949B0380911A
:103250008A07843051F482E08093100150CE80912F
:10326000E30087FDDDCF81E0DCCF81E0F5CF109278
:103270007F070E9431162FEF84E39CE021508040AD
:103280009040E1F700C0000088E19CE00FB6F894A0
:10329000A895809360000FBE90936000FFCF8823B5
:1032A00041F0809590917F07892380937F070E944A
:1032B000DE150895882339F090917F07892B80933C
:1032C0007F070E94DE1508958823B9F19CEF980FBF
:1032D000913A28F40E9496040E94DE15089590E227
:1032E000980F983088F4877021E030E0A90102C07F
:1032F000440F551F8A95E2F7CA01809590917F0788
:10330000892380937F07E8CF9BE5980F933028F4BB
:1033100090E080E00E94E504089598E5980F9B31C5
:1033200028F490E080E00E94C004089593E3980F91
:10333000933118F460E00E94810F0895CF938823A1
:1033400009F44FC0C82F8CEF8C0F813A08F063C08E
:1033500080910F01813001F58091770787FF1CC0B4
:10336000EC2FE695E695E695F0E0E25AF94F82817A
:1033700090E04C2F477021E030E002C0220F331F55
:103380004A95E2F782239323892B81F08C2F0E94A8
:1033900096040E94DE150AC0E8E5F6E08EE596E0A8
:1033A0002191C21799F38E179F07D1F780910F01D2
:1033B0008130C9F48091770787FF15C0EC2FE6951F
:1033C000E695E695F0E0E25AF94FC77021E030E06B
:1033D00001C0220FCA95EAF78281822B82830E9464
:1033E000DE15CF910895A8E5B6E0EFEF80E09D915E
:1033F000C917A9F3EF3F19F4911101C0E82F8F5FAE
:103400008630A9F7EF3F59F30E2E000CFF0BEA5A56
:10341000F94FC283E4CF80E28C0F883068F4C77024
:1034200021E030E001C0220FCA95EAF780917F07C2
:10343000822B80937F07D3CFEBE5EC0FE33040F492
:10344000F0E0E258FA4F808190E00E94E504C9CF95
:10345000E8E5EC0FEB3150F4F0E0EE0FFF1FEF5713
:10346000FA4F808191810E94C004BBCF83E38C0F0F
:10347000833108F0B6CF61E08C2F0E94810FB1CF6D
:103480001F93CF93DF93182FEB010E949E19209773
:1034900039F4812F0E946419DF91CF911F91089513
:1034A0008FE99FE00197F1F700C000002197EFCF6F
:1034B000B0E0A0E0EEE5FAE10C94F329E82FF0E0AB
:1034C000E75DFA4FD490282F26952695269530E073
:1034D000F901E75EFA4F0491877010E0082E02C0F0
:1034E000159507950A94E2F701701127F901E75F36
:1034F000FA4FE490F12C082E02C0F594E7940A9458
:10350000E2F791E0E922FF24F901E750FB4FC49173
:10351000D0E002C0D595C7958A95E2F7C170DD2746
:103520000115110519F081EE0E949E19E114F104B4
:1035300019F086EE0E949E1970E060E08D2D0E94C9
:10354000401AE114F10419F086EE0E946419011585
:10355000110519F081EE0E946419CD2B29F070E05D
:1035600060E08CE20E94401ACDB7DEB7E7E00C9431
:103570000F2AEF92FF921F93CF93DF93EC011AE093
:103580008881882309F452C0813009F04CC08981B8
:10359000813081F47E0182E0E80EF11C8A8160E5D1
:1035A00070E0893311F070E060E00E94401AE7019A
:1035B0002196E6CF823041F47E01E2E0EE0EF11C6E
:1035C0008A810E949E19F3CF833041F47E01F2E09C
:1035D000EF0EF11C8A810E946419E9CF843011F04A
:1035E0002196E6CF2A81229690E080E0AE014F5FDF
:1035F0005F4F2053330B2A30310550F00097C1F252
:10360000EFE9FFE03197F1F700C000000197F6CF36
:10361000189FB001199F700D1124C901860F971FC3
:103620002981EA01E3CF0E94581AC2CFDF91CF91DE
:103630001F91FF90EF900895FF920F931F93CF93E8
:10364000DF938C018AE0F82EF8018491882309F435
:1036500052C0813009F04BC0E8012196FE018491EF
:10366000813079F42196FE01849160E570E0893320
:1036700011F070E060E00E94401A8E010F5F1F4F52
:10368000E3CF823039F4E8012296FE0184910E9452
:103690009E19F3CF833039F4E8012296FE0184911C
:1036A0000E946419EACF843041F7E8012296FE01B6
:1036B000249190E080E0FE0131962053330B2A30B4
:1036C000310550F00097C9F2EFE9FFE03197F1F7CB
:1036D00000C000000197F6CFF89EA001F99E500DA2
:1036E0001124C901840F951F2491EF01E4CF0E949A
:1036F000581AE801C2CFCDB7DEB7E5E00C94112A25
:10370000ACE3B0E0E6E8FBE10C94EE29FC01848137
:10371000882309F48BC07F0121E0408151816281BF
:10372000738195810E94C6128C01F70195819923BE
:1037300009F492C3980137572038310508F07AC050
:10374000F02EFFE0F01708F471C08FEF93E00E94B5
:10375000522981116BC008EB11E0F11035C0CE0188
:1037600001966C0188E0F60111928A95E9F77801DB
:10377000FFEFEF1AFF0AC8010E94522989831A82BB
:10378000882309F453C08130D1F4580122E0A20EFD
:10379000B11CC7010E9452298A83882309F446C0BC
:1037A0009FEF980F9330E8F4780133E0E30EF11CBB
:1037B000C5010E9452298B838823C1F11C82C60156
:1037C0000E94B91A8701D3CF011524E0120771F1C5
:1037D000C8010E945229811101C0FA940F5F1F4F46
:1037E000BCCF7501843059F74E0183E0880E911CDF
:1037F00002E010E075019FEFE91AF90AC5010E9485
:103800005229F40181934F01882381F08C3741F4D0
:10381000E2E0F0E0EC0FFD1FE00FF11F1082CFCFD0
:103820000F5F1F4F57010730110521F7EC96ECE0B1
:103830000C940A2A6801F6E0CF1AFEE7DF0A2FE7A8
:10384000C216D10408F041C01DA21982EAEFE00FB0
:10385000F0E0EE0FFF1FE058FB4F6081718147E100
:1038600050E0CE0185960E94822AAE014B5D5F4FEB
:1038700069E371E03AE5C316D10450F0C8018657F8
:103880009E47059770F4AE014B5D5F4F62E371E0B8
:10389000CE0101960E941D11CE0101960E94B91A17
:1038A000C5CF0B571E47AE014B5D5F4F6BE271E01A
:1038B0000A30110568F344E250E0BE016B5D7F4FB2
:1038C000CE0101960E94822AE7CF02308EE71807C8
:1038D00009F46EC038F50115FEE71F0709F456C05C
:1038E00008F05EC0003238E7130751F1992309F45C
:1038F000C5C280917F078272F801E052F847EB3031
:10390000F10508F09DC2E957F34E0C94DB29E81C41
:10391000EC1C081DF11C0D1DF61C121DFB1C171DB7
:10392000001D1C1D04308EE7180709F44EC008F472
:1039300047C00530FEE71F07C9F688EC91E042C09A
:103940008091D7078F3FD9F41092D70781E00E946A
:10395000320740E060E080E00E942C078091D207AF
:10396000837009F063CF8FEF8093D70781E00E94C7
:1039700032070E94E10581E00E94320757CF8FEFA6
:103980008093D70781E00E943207E8CF8091D20769
:10399000837009F44BCF61E081E00E94AF0746CF0E
:1039A0008091D207837009F441CF61E082E0F5CFC6
:1039B0008091D207837009F439CF61E081E1EDCFC6
:1039C0008CEE91E00E941C1B31CF8BED91E0FACF81
:1039D00081E00E94DD072ACF8823E1F00E94C6071C
:1039E00025CF8823E1F00E94990720CF8823E1F0BA
:1039F0000E947D071BCF8823E1F00E94610716CF4C
:103A00008823E1F00E94380711CF0E94D505B3CF7B
:103A1000882321F30E94D10709CF882321F30E9434
:103A2000A40704CF882321F30E948B07FFCE8823AD
:103A300021F30E946F07FACE882321F30E944407E6
:103A4000F5CE07372CE7120741F108373CE713079B
:103A500041F19801205E32452032310520F5911167
:103A60004AC00F7181E090E0FC0102C0EE0FFF1F21
:103A70000A95E2F78F016E2F83E090E00E94702993
:103A8000802F0E947E0FD2CE81E00E94720F43E011
:103A900062E081E00E94450FC9CE81E00E94650F7F
:103AA000F6CF82E0FBCF992331F10130FCE71F070D
:103AB00001F103302CE71207B1F001151C4721F08A
:103AC000F701008111811CC010927F070E943116FE
:103AD000FFEF24E33CE0F15020403040E1F700C02C
:103AE00000000E94D4106FEF7FEF90E080E00E9412
:103AF0008E290E943719F70100811181992369F1FC
:103B0000C8010E946812D82E682FC8010E940B0FAE
:103B1000B8018D2D0E945A120E94EA0D182FD82E3E
:103B2000F7016581268122952F70092F02950F706C
:103B30000C3008F04AC0E02FF0E0EF55F24E0C9444
:103B4000DB29B21DB21DF61DF61D221E401EE51D0D
:103B5000E51D431EB31EC41EC41EC8010E94D70E1D
:103B6000D82ED6CF092F0F70907F11F00295007FCD
:103B7000812F6623C9F0002369F090E2910F9830FD
:103B800010F011110BC080917F07082B00937F0765
:103B90000E94DE15812F0E949E1917C08091B106E8
:103BA000082B0093B106F4CF0E946419002369F03A
:103BB0000095105E183010F0D11012C080917F0770
:103BC000082300937F070E94DE1520E0F701408163
:103BD000518162817381848195810E94C61226CEB3
:103BE0008091B10608230093B106EDCF892F8F7025
:103BF000907F903211F08295807FF1E0DF120CC04F
:103C0000662329F0233008F70E945A19DECF2230AC
:103C1000E0F60E944F19D9CF662319F02223A1F3B1
:103C2000B9CF2223B1F3193349F42FEF37EE83E0F4
:103C3000215030408040E1F700C00000812F0E94F9
:103C40006419C3CF892F86958695837039F08130AA
:103C500071F00850043008F443C0B7CF812F93703F
:103C6000611102C080E090E00E94E504AECF812F98
:103C70009370611102C080E090E00E94C004A5CF63
:103C80000E94810FA2CF892F8370A9F5611128C0EE
:103C9000812F829586958770880F880F412F4F70EE
:103CA000082E01C0440F0A94EAF720E014FF07C071
:103CB0002FE030E001C0220F8A95EAF72095969513
:103CC00096959370923091F0822F842B933030F43C
:103CD0008091C406913039F0242B82230E947E0FFC
:103CE0000E940A0572CF842B822BF8CF242B80915F
:103CF000C4068227F3CF8695662311F0892F817041
:103D0000882371F3812F829586958770880F880F9D
:103D1000412F4F70082E01C0440F0A94EAF720E0AB
:103D200014FF07C02FE030E001C0220F8A95EAF7A8
:103D30002095969596959370923081F0822F842BE2
:103D4000933030F48091FE06913029F0242B8223A9
:103D50000E94420FC5CF842B822BFACF242B809157
:103D6000FE068227F5CF092F0F70662339F0802FCA
:103D70000E94720F812F0E945A19B2CF0E944F19D0
:103D8000802F0E94650FACCFE1EF8E17A1F1E817ED
:103D900058F0F0EF8F17C1F06623F1F12223C9F13B
:103DA000812F0E949E1955CF32EF831759F1E3EF0F
:103DB0008E13F2CF80E06623B9F09F7181E001C0DD
:103DC000880F9A95EAF710C0662389F0223008F030
:103DD00040CF292F2F7181E090E001C0880F2A95F4
:103DE000EAF79091FE0689270E94420F32CF2330D6
:103DF00008F02FCFEECF892F8F71662339F00E9404
:103E0000720F27CF892F8F716623C9F30E94650F28
:103E100020CF892F8F71F3CF222379F0893349F492
:103E2000FFEF27EE33E0F15020403040E1F700C0D3
:103E30000000812F0E9464190CCF892F8F71E6CF6B
:103E40000737FCE71F0709F41FCE08372CE71207D6
:103E500009F0FFCD82E019CE02303EE7130709F4E6
:103E6000E5CC60F40115EEE71E0709F4DFCC08F09D
:103E7000DDCC003228E7120709F470CD80917F076E
:103E80008272F801E054F847ED30F10508F0D9CD21
:103E9000E45BF04E0C94DB29B91C051DE81CEC1CFE
:103EA000081DF11C0D1DF61C121DFB1C171D001D0D
:103EB0001C1DCF93DF9380919006807F09F04DC049
:103EC00080918F06882309F448C0E091CD07509176
:103ED0009407C0918B06D0918A0660918C067091F0
:103EE0008D0647E05E17C9F18E2F90E0E49FF00148
:103EF0001124EB56F84F2481222391F1489FF001C1
:103F0000499FF00D1124DF01AB56B84F11962C914B
:103F100011972C1325C02C912D1322C015962C918E
:103F2000159721111DC012962D913C91261B370B20
:103F3000283C3105A8F4809190068F7080618093B1
:103F40009006E556F84F80818F70806180838AE803
:103F500096E00E94801B0E94CD0EDF91CF910895C4
:103F6000FC013196E770BECFA4E1B0E0EAEBFFE1DF
:103F70000C94EE298C0186E0F801DE011F96019079
:103F80000D928A95E1F7F8018481E5809AE8A92EDF
:103F900096E0B92E90918E06911128C0882319F1D0
:103FA000EE20F1F0C8010E94A412F82E8823C1F07F
:103FB00087E0F801D50101900D928A95E1F7809193
:103FC0008E06813031F480918A0690918B060E9492
:103FD00097120E94591F8F2D6496ECE00C940A2AC8
:103FE000C8010E94801BFF24F394F5CFD080C180CC
:103FF00082809380F0908F0620918C0630918D0600
:10400000A401421B530BFF2009F4D8C0483C5105C2
:1040100008F091C08823F9F290918B068091900668
:10402000282F207F09F055C0C91214C090918A062C
:10403000D91210C0E11047C08F7080618093900644
:104040008AE896E00E94801B80919006F8018683A2
:10405000F12CC1CFE11037C06C2D8D2D0E940F03C4
:104060006C2D8D2D0E940F03E82E8111F1CFDF867C
:10407000C88A8F8598890E949712292F22952F70C0
:10408000243058F49F70223080F0992391F0F80189
:104090009681907F71F4FE2C9ECF2A50223068F0DA
:1040A000C8010E94801BEF2CF6CF992311F08823C2
:1040B00091F3805E8830A0F7EECF803F60F3815FA0
:1040C000833070F7E8CF80919006816080939006EE
:1040D000BFCFC91207C090918A06D91203C0EE2043
:1040E00009F48DC0C8010E94A412882309F478CF76
:1040F000EE2009F475CF80919006803288F02091EF
:104100008A0630918B06398728879B868A8690910C
:104110008E069C871D868E87CE0108960E94801B86
:1041200087E0F801AAE8B6E001900D928A95E1F7E0
:104130000E94591F58CF90919006292F207F51F44B
:104140008AE896E00E94801B87E0F50111928A952B
:10415000E9F77ECF882309F43ECF80918B068C113E
:1041600010C080918A06D8120CC0E1100AC0968354
:10417000C8010E94801B87E0F50111928A95E9F73A
:104180002ACFC8010E94A412882309F429CFEE2067
:1041900009F426CF80919006803210F220918A0691
:1041A00030918B063A8329839C828B8290918E0674
:1041B0009D831E828F83CE010196B0CF483C51056E
:1041C000D0F6882309F40FCFFE2CEE2009F408CF97
:1041D00080918B068C1120C080918A06D8121CC059
:1041E0008091900680FD0FC0982F907F61F08683AC
:1041F000903F31F0982F907F905F8F70892B86834E
:10420000C8010E94801B87E0F801AAE8B6E001908F
:104210000D928A95E1F7DFCEC8010E94A4128111A8
:104220007FCF80919006816080939006C8010E94A4
:10423000801BD1CEABE1B0E0E0E2F1E20C94F629D4
:104240004E8B5F8B688F798F8A8F9B8F192F91117F
:104250001092B1061D8A86E0FE017696DE011F9659
:1042600001900D928A95E1F70A8D002341F021E03B
:104270004F85588969897A89C8010E94C6120B8BBB
:104280001C8B87E0FE013F96DE01189601900D928F
:104290008A95E1F7CE0108960E94B41F81112AC0C9
:1042A00087E0FE013896DE01119601900D928A9505
:1042B000E1F78C858823F1F02091940730E0C90163
:1042C0000196877099274091CD074817190659F133
:1042D00097E0929FD001939FB00D1124AB56B84F39
:1042E000FE01319601900D929A95E1F78093940723
:1042F0000E94CD0E17E08091CD0790919407891709
:1043000009F1819FC00111248B56984F0E94B41F60
:104310008823C1F08091CD0790E00196877099279E
:104320008093CD07E8CF10927F070E94311610923C
:1043300094071092CD0787E0EAE8F6E0DF011D92CE
:104340008A95E9F76B96E4E00C94122AA6E0B0E0B7
:10435000ECEAF1E20C94F6290E9487048C0180912A
:10436000BA069091BB068017910781F019821A82D4
:104370000E948704682F49815A81792F80E090E05C
:104380000E941A211093BB060093BA062696E4E019
:104390000C94122A1F920F920FB60F9211242F9392
:1043A0003F934F935F936F937F938F939F93AF93BD
:1043B000BF93CF93EF93FF93C091E900CF708091AB
:1043C000EC001092E9008091F000877F8093F0006C
:1043D00078940E9460161092E9008091F000886045
:1043E0008093F000C093E900FF91EF91CF91BF91CE
:1043F000AF919F918F917F916F915F914F913F917D
:104400002F910F900FBE0F901F9018951F920F9233
:104410000FB60F9211242F933F934F935F936F9397
:104420007F938F939F93AF93BF93EF93FF9380916D
:10443000E10082FF09C08091E20082FF05C0809107
:10444000E1008B7F8093E1008091DA0080FF24C03F
:104450008091D80080FF20C08091DA008E7F809309
:10446000DA008091D90080FFA9C080E189BD82E196
:1044700089BD09B400FEFDCF81E080938A07809159
:104480007E07811109C00E942E030E94CD038091F6
:10449000E20084608093E2008091E10080FF1AC016
:1044A0008091E20080FF16C08091E2008E7F8093B1
:1044B000E2008091E20080618093E2008091D80068
:1044C00080628093D80019BC85E080938A0783E0DE
:1044D000809310018091E10084FF2FC08091E20061
:1044E00084FF2BC080E189BD82E189BD09B400FE53
:1044F000FDCF8091D8008F7D8093D8008091E1001E
:104500008F7E8093E1008091E2008F7E8093E200B5
:104510008091E20081608093E20080918B07882384
:1045200009F452C084E080938A0780918A0784301E
:1045300009F452C081E0809310018091E10083FF73
:104540002CC08091E20083FF28C08091E100877F2A
:104550008093E10082E080938A0710928B0780911C
:10456000E1008E7F8093E1008091E2008E7F809356
:10457000E2008091E20080618093E20042E060E02E
:1045800080E00E949B038091F00088608093F0009F
:1045900081E08093100180930F01FF91EF91BF9113
:1045A000AF919F918F917F916F915F914F913F91CB
:1045B0002F910F900FBE0F901F90189519BC10925D
:1045C0008A0710927E0768CF8091E30087FD02C0C2
:1045D00081E0A9CF83E0A7CF82E0ADCF78941F928E
:1045E0000F920FB60F9211248F939F93AF93BF93A7
:1045F00080917A0790917B07A0917C07B0917D070D
:104600000196A11DB11D80937A0790937B07A0931B
:104610007C07B0937D07BF91AF919F918F910F90D1
:104620000FBE0F901F9018951F920F920FB60F920A
:1046300011248F939F93AF93BF938091790781113A
:1046400013C080917A0790917B07A0917C07B0916D
:104650007D074196A11DB11D80937A0790937B073A
:10466000A0937C07B0937D07BF91AF919F918F91ED
:104670000F900FBE0F901F901895AAE2B0E0E3E4F0
:10468000F3E20C94E82985B7806885BF85B7806818
:1046900085BF84B7877F84BF0FB6F894A8958091B3
:1046A0006000886180936000109260000FBE80E817
:1046B00090E00FB6F89480936100909361000FBE74
:1046C00081E08093100181ED9DE0909355068093E9
:1046D00054060E942E030E94CD038091E200846064
:1046E0008093E200789480918A07882399F0109152
:1046F000E9001F708091EC0080FFDDC080E8182B7E
:104700001092E9008091E80083FD0E9460161F70FE
:104710001093E90082E084BD93E095BD9AEF97BDC8
:1047200080936E000E941212811102C00E94021238
:1047300007EB15E03CEBE32E35E0F32ED8018D912D
:104740008D018F3F11F00E94D30DE016F106B1F7F5
:104750000CEB15E021ECE22E25E0F22EF801819120
:104760008F018F3F11F00E94D30DE016F106B1F7D3
:1047700085E0ECECF6E0DF01282F1D922A95E9F7A1
:10478000EFEBF6E0DF011D928A95E9F790E080E01B
:104790000E945A29853E9E4F21F40E9412128111D7
:1047A00063C065EE7EEF90E080E00E948E2960E0BD
:1047B00082E090E00E94702981E08093C40661E06D
:1047C00083E090E00E94702960E074E184E090E072
:1047D0000E948E2960E086E090E00E94702960E0EF
:1047E00087E090E00E94702940E050E0BA0188E044
:1047F00090E00E94822960E083E290E00E947029AC
:1048000060E08CE090E00E94702960E08DE090E034
:104810000E94702919821A821B821C821D821E82AC
:104820001F82188648E050E067E170E0CE010196F3
:104830000E94602940E050E0BA018FE190E00E94C0
:10484000822980E00E9479110E94021240E050E02B
:10485000BA018FE090E00E94822940E050E0BA0166
:1048600083E190E00E94822982E090E00E94522938
:104870008093C50684E090E00E945A2990937807BF
:10488000809377070E942415EFEFF6E721E0E150CF
:10489000F0402040E1F700C000000E942415809104
:1048A000CC0680FF0AC06FEF7FEF90E080E00E94AF
:1048B0008E290E94D41080E022CF83E090E00E94F5
:1048C00052290E947E0F0E94A7051092DA078FEFEF
:1048D0009FEF9093F4078093F3079093F6078093EC
:1048E000F5079093F8078093F7079093FA07809362
:1048F000F9079093FC078093FB079093FE07809342
:10490000FD07909300088093FF079093020880931F
:1049100001081092D1069093EB068093EA069093DB
:10492000ED068093EC069093EF068093EE0690934D
:10493000F1068093F0069093F3068093F20690932D
:10494000F5068093F4069093F7068093F60690930D
:10495000F9068093F80681E08093000748E050E074
:1049600067E170E082ED97E00E9442291092000713
:104970008091D2078C7FB9F485E48093D20780912F
:10498000260190912701A09128018093D30790934D
:10499000D407A093D5078FE78093D6078FEF809336
:1049A000D7070E94EB1280E091E090937407809308
:1049B0007307DD24D3947724739480918A0785301C
:1049C00099F410E403E080E1F82E92E1E92E809161
:1049D0008A07853009F4A2C010927F070E94311621
:1049E0000E940A051092FF060E942415A6ECB6E06C
:1049F000B8A7AFA3ECECF6E0FAA7E9A72BEC36E0FA
:104A0000DF01E6ECF6E091918D912E173F0709F456
:104A1000CFC09817C1F318ED812E15E0912E512CBF
:104A2000A9A5BAA54D90BAA7A9A7EFA1F8A521906D
:104A3000F8A7EFA3241409F4D0C1F12CE12C3324FE
:104A400033942424822D832109F4BAC1142D132117
:104A5000E9A25AA20E9487049CA38BA37DA291E0A5
:104A6000111101C090E09EA349A15AA16BA17CA1A4
:104A70008DA10E941A21112309F486C1F401EE0DC3
:104A8000FF1D80818F3F09F47FC1C82E6624639487
:104A9000062D10E08091D106800F912F911D09976E
:104AA0006CF1F8E0AF2EB12CA01AB10AB8016E5229
:104AB000794FA50182ED96E00E94692AB8016652FD
:104AC000794FA5018AED96E00E94692AA501440F5D
:104AD000551FB801660F771F6651794F8AEE96E031
:104AE0000E94692AB8016E51794FA50182EE96E0C5
:104AF0000E94692A88E086198093D1068091D106A8
:104B000090E0AC2DB0E09D01220F331F2F503A4FA3
:104B1000AA0FBB1FBD016E507A4F4CC180918A070E
:104B2000843009F438C00E94F6128091FF0681118A
:104B30000DC00E94D70B10920B018091D207837099
:104B400080930A010E94F81000930C01D092FF0696
:104B50001092790748E150E00FB6F894A895409379
:104B600060000FBE1093600083B7817F846083BFB5
:104B700083B7816083BF7894889583B78E7F83BF26
:104B80000FB6F894A89580916000886180936000CA
:104B9000109260000FBE0E942415ECECF6E08191AB
:104BA000811142C381ED96E08E179F07C1F70FCFA9
:104BB000981331CF0E94A6210E94F61286E0EBE600
:104BC000F7E08E010F5F1F4FD80101900D928A957B
:104BD000E1F790906C07A0906D07B0906E07E090A1
:104BE0006F07F090700710926D0710926E07109289
:104BF0006F0710927007A11003C0BB2009F450C0CA
:104C00002091690730916A074FB7F89480917A072D
:104C100090917B07A0917C07B0917D074FBFAC01BD
:104C2000421B530B80916407882309F422C345314A
:104C30005105B0F18F3F19F08F5F80936407AA2070
:104C400059F00E9463059FEF1A140CF491E0899FBC
:104C5000802D112480936D07BB2059F00E946305BD
:104C60009FEF1B140CF491E0899F802D11248093F9
:104C70006E0780916D07882399F080906E078820D9
:104C800079F00E948305882309F4BAC080936D07E8
:104C9000882D0E948305882309F4B5C080936E0790
:104CA000E11003C0FF2009F450C020916707309144
:104CB00068074FB7F89480917A0790917B07A0918D
:104CC0007C07B0917D074FBFFC01E21BF30B809185
:104CD0006507882309F4D2C2E135F105B0F18F3FB1
:104CE00019F08F5F80936507EE2059F00E9441050F
:104CF0009FEF1E140CF491E0899F802D1124809366
:104D00006F07FF2059F00E9441059FEF1F140CF41C
:104D100091E0899F802D11248093700780916F0707
:104D2000882399F080907007882079F00E9483058D
:104D3000882309F46BC080936F07882D0E94830538
:104D4000882309F466C08093700780916C079812DD
:104D500063C080916D07882311F08A115DC0809136
:104D60006E07882311F08B1157C08091700788233C
:104D700011F0F81251C090916F07992319F081E05A
:104D80009E114BC080E049C0612C82CE90E0FC01B6
:104D9000EF52F94FD9015C915183DB015C9151874E
:104DA000C18A880F991FFC01EF52F94F128E118EA4
:104DB00091E0842F41E0480F961540F38093D1068F
:104DC000330CBFEFEB1AFB0AE5E0EE16F10409F035
:104DD00039CEEFA1F8A5319740825394F5E08F0EBC
:104DE000911C25E052121CCE8FB7F89440917A079F
:104DF00050917B0760917C0770917D078FBFDCCE5F
:104E0000D0926D0745CFD0926E074ACFD0926F07F0
:104E100094CFD092700799CF81E080FD13C080912C
:104E20006D0781116DC080916E07811169C08091FD
:104E30006F07811165C081E090917007911101C0E9
:104E400080E080FD0E9417059A82AB82BC82ED82D1
:104E5000FE8286E0F801ABE6B7E001900D928A95FC
:104E6000E1F70E940A059091CB06891769F08093BB
:104E7000CB068FB7F89440917A0750917B076091E9
:104E80007C0770917D078FBF80918A07843009F07D
:104E900094CD83E08093E9008091E80082FF8DCD7E
:104EA0008091E80090E085FF05C00E944D038823B3
:104EB00049F191E08091E8008B778093E800992395
:104EC00009F47BCD8981EFEFE80FE33108F041C0B1
:104ED000F0E0E359F84D0C94DB299E27A227E42744
:104EE000F927FF270A280D280D280D28A927A9270B
:104EF00079287C288028A628C828CB28CE28F32803
:104F000081E09FCF80E2A82EB12C78018091E8004B
:104F100085FD0AC08091E8008B778093E8000E94AD
:104F20004D03882399F3C5CF8091F100D7018D936C
:104F30007D01B1E0AB1AB10849F7BBCF1A828CE012
:104F40008B833BC08A81823009F48BC128F4813085
:104F500061F08FEF898331C08330B9F08430C9F7B5
:104F60001B821C821D821E8228C02FB7F89480915C
:104F70007A0790917B07A0917C07B0917D072FBFA6
:104F8000BB83AC839D838E8318C06B81DE01149636
:104F900090E080E0262F30E0A901480F591F4530EE
:104FA000510558F4E62FE80FF0E0E453F94F408143
:104FB0004D9301968C31910579F740E250E0B801AC
:104FC00082E00E947010F9CC8A81823039F08530FD
:104FD00009F0BFCF80E00E94DD07EFCF6B817C81BD
:104FE0008D819E810E94E12987E290E00E947029D4
:104FF000E4CF4C816B818A810E942B12C3CF2D811B
:105000003E813227232732274C816B818A810E947F
:10501000A211D3CF0E94C911D0CF9A81933009F049
:1050200098CF8830B1F1893009F460C08B8182302B
:10503000E1F080F4813009F64C8128EC429F412D4B
:1050400011248091D30720E06091D40790E00E9462
:105050005007B3CF8330B1F0843009F0AECF8C81EC
:1050600020E04091D5076D81F1CF8C81811103C083
:105070000E94D505A2CF0E94E10560E08C810E94CC
:10508000AF079BCF8C818093D60780E00E943207C8
:1050900094CF8B818230E1F078F4813009F08DCFAC
:1050A0008091D507EFEF8E9FC001112468EC70E06E
:1050B0000E9494296C8381CF8330A9F0843009F059
:1050C0007CCF8091D3078C838091D4078D8375CF5B
:1050D0008091D207982F937086958695911101C083
:1050E00080E08C836ACF8091D607FBCF0E94EB12C1
:1050F00064CF80E18A8361CF82E08A8388E420CF15
:10510000EA80FB80FE24EF24FE248C80912C580141
:10511000C70188549E4F9501201B310B2815390576
:1051200008F04BCFF8E4EF16F2E0FF0660F40E94BF
:105130005229D50114968C93FFEFEF1AFF0A2FEF37
:10514000A21AB20AE5CFF5011482F6CFAA80BB807D
:10515000BA24AB24BA248C80912C7501C7018854E1
:105160009E4F97012A193B092815390508F025CFCC
:1051700048E4E41642E0F40638F4200F311FD90168
:1051800014966C910E947029BFEFEB1AFB0AE6CFD0
:105190000E94921112CFE8E0EA830FCFEA80FB80F1
:1051A000FE24EF24FE248C80912C5801C7018896A0
:1051B0009501201B310B2815390508F0FECEF0E9CA
:1051C000EF16F1E0FF0660F40E945229D501149613
:1051D0008C93FFEFEF1AFF0A2FEFA21AB20AE6CF65
:1051E000F5011482F6CFAA80BB80BA24AB24BA247E
:1051F0008C80912C7501C701889697012A193B096B
:105200002815390508F0D9CE40E9E41641E0F40646
:1052100038F4200F311FD90114966C910E94702927
:10522000BFEFEB1AFB0AE7CF80918907882309F4C7
:10523000CECBF9BCE9BC09B400FEFDCF8091D8000B
:105240008F7D8093D8008091E00082608093E000A1
:105250008091E00081FDFCCF10927F070E94311603
:10526000B6CB87E290E00E9452291B821C821D82ED
:105270008ACE4B30510508F0DFCC12CD3B9708F0B9
:1052800030CD63CDDC01CB01FC01F999FECF06C026
:10529000F2BDE1BDF89A319600B40D9241505040F4
:1052A000B8F70895F999FECF92BD81BDF89A992774
:1052B00080B50895A8E1B0E042E050E00C944429A4
:1052C000DC01A40FB51F4150504048F0CB01840FC2
:1052D000951F2E910E94712941505040D0F708959A
:1052E000262FF999FECF92BD81BDF89A019700B49F
:1052F000021639F01FBA20BD0FB6F894FA9AF99A3F
:105300000FBE08950396272F0E9471290E947029CD
:10531000252F0E947129242F0C9471290196272F83
:105320000E9471290C947029AA1BBB1B51E107C074
:10533000AA1FBB1FA617B70710F0A61BB70B881F25
:10534000991F5A95A9F780959095BC01CD010895B4
:1053500097FB072E16F4009407D077FD09D00E9422
:10536000942907FC05D03EF4909581959F4F0895B0
:10537000709561957F4F0895052E97FB1EF400945C
:105380000E94D32957FD07D00E941F2A07FC03D093
:105390004EF40C94D32950954095309521953F4F6C
:1053A0004F4F5F4F089590958095709561957F4F11
:1053B0008F4F9F4F0895EE0FFF1F0590F491E02D42
:1053C00009946927962769277827872778270895DA
:1053D0002F923F924F925F926F927F928F929F9205
:1053E000AF92BF92CF92DF92EF92FF920F931F93F3
:1053F000CF93DF93CDB7DEB7CA1BDB0B0FB6F894A4
:10540000DEBF0FBECDBF09942A88398848885F84E3
:105410006E847D848C849B84AA84B984C884DF8054
:10542000EE80FD800C811B81AA81B981CE0FD11D38
:105430000FB6F894DEBF0FBECDBFED010895A1E217
:105440001A2EAA1BBB1BFD010DC0AA1FBB1FEE1FFE
:10545000FF1FA217B307E407F50720F0A21BB30B49
:10546000E40BF50B661F771F881F991F1A9469F7C5
:1054700060957095809590959B01AC01BD01CF0121
:10548000089585FD0C94912A806291110C94912AC3
:1054900081568A51D8F708959111089581548A51FF
:1054A00008F4805E855A08959111089581568A51B5
:1054B00008F4805285580895FB01DC0104C08D91E9
:1054C0000190801921F441505040C8F7881B990B76
:1054D0000895FB01DC0102C001900D924150504043
:1054E000D8F70895FB01DC010D900020E9F7119732
:1054F0004150504028F0019000200D92C9F70895C6
:105500001C920895FB01DC014150504048F001908D
:105510000D920020C9F701C01D9241505040E0F7A4
:0C5520000895992788270895F894FFCF7C
:10552C009304C010B910B210AB10FFFF03000001C0
:10553C000000FF00C8FFC880FFC8AAFFC855FFC8FD
:10554C002BFFC800FFC8A0FF3220006B74756C7570
:10555C00650062657866726F0062757000416D6EF1
:10556C00657369610041796F004261636B446F6FD1
:10557C00720042616C6C6F6F6E004261727400421B
:10558C004541524444414E43450042696742726171
:10559C00696E004249545300424F4F4D45520042F0
:1055AC0075670042555053004255505741440043D3
:1055BC00616C6C0043415444414E434500434845A3
:1055CC0045525300436865666B6973730043726F91
:1055DC00776E00446964647900446973636F0044B6
:1055EC004F495400446F6E7574004472756D7300AE
:1055FC004455434B44414E4345004475636B6865C9
:10560C006164004479650045450046697265004651
:10561C004C55544500467265616B6F75740046526B
:10562C004F470047726F67750047726F6F7679004E
:10563C00484541444F555400484F524E0049440090
:10564C004B656B77004B455953004C696768746523
:10565C0072004C4F5645004C554947494255500035
:10566C004D4F4F53450050415442414E4700506CF2
:10567C0075670053616C75746500536800536C61F9
:10568C007900537765617479005448414E4B53004F
:10569C00574F4F4B00575542005A656A69626F006D
:1056AC005A454C44414255500042726F6300436C62
:1056BC006F75647300476F6F736500486561727432
:1056CC00004A41574E455353410052617665005391
:1056DC00616C740054494E464F494C0057617465D7
:1056EC00720057697A004241535353464143450077
:1056FC00424F42004368696C6C6775790044726173
:10570C00676F6E004A656C6C79004D61706C65005A
:10571C0052756D7000536D69726B0055575500577B
:10572C00696E6B0041624455434B74696F6E004166
:10573C007363656E64004153484455434B454D00BB
:10574C004558435553454D450046414E43594455E4
:10575C00434B00476F6C64004845414450484F4EE2
:10576C004553004B54554C554548554700524149FB
:10577C004E424F5700536D756700537573004E6F53
:10578C0064005449454459450054554E45005570E4
:10579C00005741564500424F5000426F70426F70A7
:1057AC000044696E6F44616E636500476C69746395
:1057BC00684C697400476F6174456D6F746579004E
:1057CC00476F6C64504C5A004B61707061004B72A7
:1057DC0065796761736D004D6F644C6F7665004E33
:1057EC006F744C696B655468697300506F776572A0
:1057FC0055704C00506F7765725570520053696E3E
:10580C0067734D69630053696E67734E6F746500FF
:10581C005374696E6B7943686565736500546F6D7D
:10582C00625261696400547769746368436F6E48AF
:10583C00595045005477697463684C6974007477E7
:10584C00697463685261696400547769746368555C
:10585C006E69747900566F74654E617900566F7479
:10586C0065596561004D696E676F004D6F6E6B65B4
:10587C0079005075670055676800436C617000478C
:10588C0061746F0047477300474C555445530048AB
:10589C0049004C65690052646E6300534D554700D6
:1058AC003D014501490152015A015F016A01730131
:1058BC0078017F018502830188018F0194019D018C
:1058CC00F603A401AD01B301B901BF01C401CA01C2
:1058DC00D001DA01E301E701EA01EF01F501FE0174
:1058EC0003020902100218021D02200225022A02DC
:1058FC0032023702400246024E0253025A025D0245
:10590C0062026902700275027902800289028E02BB
:10591C0095029B02A102AA02AF02B402BC02C2020F
:10592C00C602D002D402DD02E402EA02F002F50261
:10593C00FB02FF0204030F031603200329033303A6
:10594C00380343034D0355035A035E036203690393
:10595C006E03710376037A0381038B039503A00313
:10596C00A803AE03B703BF03CB03D403DD03E603E5
:10597C00F003FD03060414041E04290435043D043D
:10598C00850345044B04520456045A045F04640412
:10599C0068046F0449037204BA0376047B048182A1
:1059AC0083E200E900EA00B500B600B700CD008341
:1059BC0001CC008A019201940121022302240225C8
:1059CC0002260227022A02B300B4006F0070009F67
:1059DC0001CB019F02A002C6F0969236F5673732D2
:1059EC0034003131295A1B750A4422B684016201F4
:1059FC00AC006A048304A3041415161718130607C5
:105A0C000809120500010A110403020B100F0E0DF8
:105A1C000C2020302030302030103010201010207E
:105A2C00103010401040204030404030402040109A
:105A3C00400040003000200010000010002000301A
:105A4C000040002C004014402C2C401440002C0032
:105A5C0014140001010101010101010104040404F9
:105A6C0004040404040404040404040402020202F2
:045A7C00020202021E
:00000001FF
