:100000000C9457040C948F040C948F040C948F045C
:100010000C948F040C948F040C948F040C948F0414
:100020000C948F040C948F040C94EC2B0C94C42C23
:100030000C94A12B0C948F040C948F040C948F04BB
:100040000C948F040C948F040C948F040C948F04E4
:100050000C948F040C94C82B0C948F040C948F0474
:100060000C948F040C948F040C948F040C948F04C4
:100070000C948F040C948F040C948F040C948F04B4
:100080000C948F040C948F040C948F040C948F04A4
:100090000C948F040C948F040C948F040C948F0494
:1000A0000C948F040C948F040C948F0405010902A6
:1000B000A10185020901A1000509190129081500FE
:1000C0002501950875018102050109300931158165
:1000D000257F95027508810609381581257F9501D0
:1000E00075088106050C0A38021581257F95017572
:1000F000088106C0C005010980A101850319012AF4
:10010000B700150126B700950175108100C0050CD8
:100110000901A101850419012AA002150126A002E6
:10012000950175108100C005010906A1018506052C
:100130000719E029E71500250195087501810205D9
:1001400007190029EF1500250195F07501810205B9
:10015000081901290595057501910295017503910D
:1001600001C00660FF0961A1010962150026FF00B8
:100170009520750881020963150026FF00952075FA
:10018000089102C005010906A101050719E029E748
:1001900015002501950875018102950175088101F9
:1001A0000507190029FF150026FF0095067508812F
:1001B000000508190129051500250195057501910E
:1001C00002950175039101C00000000000000000CD
:1001D000000000000000000000000000000000001F
:1001E0000000000000000000000000007E0F00D4AE
:1001F000FFFFFFC7000000780000000000000000C3
:100200002A2B280000000000000000000000000071
:1002100000000029000000002C1E3420212224347C
:100220002627252E362D3738271E1F20212223244E
:1002300025263333362E37381F0405060708090AEA
:100240000B0C0D0E0F101112131415161718191A86
:100250001B1C1D2F3130232D350405060708090A04
:100260000B0C0D0E0F101112131415161718191A66
:100270001B1C1D2F3130354C09025B00030100A00F
:10028000FA09040000010301010009211101000124
:10029000224400070581030800010904010002034C
:1002A000000000092111010001222200070582033C
:1002B00020000107050303200001090402000103D7
:1002C00000000009211101000122B6000705840386
:1002D0002000011201000200000008F1F1250001D8
:1002E000000102000112034200550050007000613D
:1002F0000064003200350000001A035300700069EA
:1003000000640065007200490073006C0061006EBB
:100310000064000000040309040152187E267E11C7
:100320007E227E1D7E1C7E167E427E0B7E397E29BD
:100330007E217E2A7E337E077E367E467E527E1367
:100340007E0D7E377E127E007E280000520552020E
:100350005203520452477E1F7E247E437E3D7E3EE2
:100360007E037E1A7E4C7E4E7E087E2E7E047E327A
:100370007E3A7E3C7E1B7E487E207E280000520115
:1003800052055203520452237E4F7E197E497E0C41
:100390007E157E1E7E2C7E317E097E107E147E05AB
:1003A0007E447E537E067E307E417E257E28000080
:1003B0005201520252055204520A7E0E7E3F7E4B7B
:1003C0007E4A7E387E2B7E0F7E517E507E2D7E3B78
:1003D0007E407E457E2F7E287E277E177E347E28B7
:1003E000000052015202520352055253005F006056
:1003F000006100560054005C005D005E005700552F
:100400000059005A005B002E0050004F006200634C
:100410000028000052015202520352045221782750
:100420007823782578297822782878247826782ADD
:1004300078000000000000000000002B782C782DD0
:10044000782E7820780001010101010101010102EB
:100450000202020202020202030303030303030374
:10046000040404040404040505050505060606063F
:1004700006070707070708080808090909090A0AFB
:100480000A0B0B0B0C0C0C0D0D0D0E0E0E0F0F0F9F
:10049000101011111112121313141415151616172A
:1004A00017181819191A1A1B1B1C1D1D1E1E1F2098
:1004B00020212222232424252626272829292A2BE5
:1004C0002C2D2D2E2F30313232333435363738390A
:1004D0003A3B3C3D3E3F4041424344454647484904
:1004E0004A4C4D4E4F50515354555658595A5B5DD6
:1004F0005E5F616264656668696B6C6D6F70727374
:100500007577787A7B7D7E8082838587888A8C8EDA
:100510008F91939596989A9C9EA0A2A3A5A7A9AB0C
:10052000ADAFB1B3B5B7BABCBEC0C2C4C6C9CBCDFE
:10053000CFD1D4D6D8DBDDDFE2E4E7E9EBEEF0F3B0
:10054000F5F8FAFDFF6275705A454C44414255502A
:1005500020006275705A656A69626F20006275706A
:100560005755422000627570574F4F4B20006275FF
:100570007057697A200062757057696E6B2000624F
:1005800075705741564520006275705761746572E9
:1005900020006275705557552000627570557020A7
:1005A0000062757054494E464F494C2000206275D8
:1005B0007054494544594520006275705468696E0D
:1005C000672000206275705448414E4B53200062F2
:1005D0007570537765617479200062757053706F20
:1005E0006F6B792000627570536D69726B200062C9
:1005F0007570536C617920006275705368200062D9
:10060000757053616C75746520006275705341425A
:100610004552200062757052756D702000627570D1
:10062000526576657273652020006275705261763E
:100630006520006275705241494E424F572000625A
:100640007570506C7567200062757050415442415E
:100650004E4720006275704E6F6420006275704DC9
:100660004F4F534520006275704C4F564520006235
:1006700075704C69676874657220006275704B45CF
:10068000595320006275704B656B7720006275705E
:100690004A656C6C7920006275704A41574E45532B
:1006A0005341200062757049442000627570484FC4
:1006B000524E200062757048656172742000627548
:1006C00070484541444F5554200062757047726F21
:1006D00067752000627570476F6F736520006275E3
:1006E0007046524F472000627570467265616B6FAD
:1006F00075742000627570464C5554452000627533
:1007000070466972652000627570457965200062E7
:1007100075704545200062757044796520006275EA
:10072000704475636B686561642000627570445540
:10073000434B44414E434520006275704472756DD1
:10074000732000627570447261676F6E200062757D
:1007500070446F6E75742000627570444F49542068
:1007600000627570446973636F200062757044693C
:10077000646479200062757043726F776E20006246
:100780007570436C6F7564732000627570436865A3
:10079000666B697373200062757043686565736585
:1007A00020006275704348454552532000627570C1
:1007B00043415444414E4345200062757043616C8F
:1007C0006C2000627570425550574144200062759C
:1007D000704255505320006275704255502000629F
:1007E0007570427567200062757042726F632000F9
:1007F000627570424F4F4D45522000627570424FF6
:100800004220006275704249545320006275704264
:100810006967427261696E2000627570424541529B
:100820004444414E43452000627570424153535346
:100830004641434520006275704261727420006237
:10084000757042616C6C6F6F6E20006275704261F2
:10085000636B446F6F72200062757041796F200086
:100860006275704173682000627570417363656ED4
:100870006420006275704163696420000102E061D8
:1008800063767676767676767676760103E0000184
:1008900002E0616376767676767676760103E0001E
:1008A0000102E0616376767676760103E00011243A
:1008B0001FBECFEFDAE0DEBFCDBF04B603FE18C027
:1008C0008091E5039091E603A091E703B091E803DE
:1008D0008730904BA740B04B59F41092E50310922B
:1008E000E6031092E7031092E803E0E0F8E30995CD
:1008F00012E0A0E0B1E0E8E2FEE502C005900D9252
:10090000AC32B107D9F723E0ACE2B2E001C01D92EE
:10091000A53EB207E1F70E945D260C942B2E0C94A5
:100920000000982F92959F7024E0911102C020E062
:10093000982F892F86958695811511F02E5F982F17
:10094000892F8695820F089580939E030895809342
:100950009F03089521E030E001C0220F8A95EAF755
:1009600080919F03822B0E94A704089521E030E02C
:10097000A90102C0440F551F8A95E2F7CA0180956C
:1009800090919F0389230E94A7040895292F9530F1
:1009900090F5853080F590E035E0239F800D911D26
:1009A0001124282F277041E001C0440F2A95EAF74F
:1009B00023E0969587952A95E1F7FC01EE0FFF1F3E
:1009C000E80FF91FE458FC4F20E030E070E051914F
:1009D000DF01CB01022E02C0969587950A94E2F7BB
:1009E000817081958527842385278E932F5F3F4FC4
:1009F0002330310561F70895292F953078F585303A
:100A000068F590E035E0239F800D911D1124682F3B
:100A1000677023E0969587952A95E1F7FC01EE0F24
:100A2000FF1FE80FF91FE458FC4F40E050E080E062
:100A3000219130E0062E02C0369527950A94E2F700
:100A400021703327042E01C0220F0A94EAF7822B6B
:100A50004F5F5F4F4330510559F7089580E0089587
:100A600090919F0321E030E0F90101C0EE0F8A95DB
:100A7000EAF7D90102C0AA0FBB1F6A95E2F7EA2B79
:100A800001C0220F4A95EAF7892F8E23E81305C08B
:100A9000892F822B0E94A70408952095822F8923F5
:100AA000F9CF8091A5039091A403981301C00895F4
:100AB0008F5F8770FACF9091A003809589238093F0
:100AC000A003282F277021110DC0891759F090918C
:100AD000A20392FF07C08695869586950E94B6046C
:100AE0001092A003089580919B039091A303892BFA
:100AF00050919C03511591F090910F01911521F0A7
:100B00009091A10397FD0BC096E020E332E040E016
:100B1000915048F4411110929C03852B08959EE159
:100B200028E332E0F4CFF90161919F01611581F36F
:100B30004F5FEECF982F909580919B0389238093F0
:100B40009B0308959C01803E910509F448C0D8F4A8
:100B50008133910509F47DC048F48932910509F487
:100B60006DC08A9709F47CC0C90108958933910545
:100B700051F18238910539F1C597B1F78091A10300
:100B800085FFF2CF29C0843E910509F447C048F49F
:100B9000823E910599F1833E9105A9F121EE30E065
:100BA000E3CF863E910509F444C0873E9105E1F606
:100BB0008091A10383FD61C09091A20391FF2BC09E
:100BC00024EE30E0D1CF8091A1038370811152C017
:100BD0008091A20383FFC8CF29E230E0C5CF809186
:100BE000A10380FD33C09091A20390FFBDCF23EEFF
:100BF00030E084FFB9CF20E030E0B6CF8091A10390
:100C000082FDF5CFB1CF8091A10382FD30C09091DC
:100C1000A20390FD2FC084FFA7CFEDCF8091A20348
:100C200081FFA2CF8091A10327EE30E084FDE3CFC6
:100C30009BCF8091A10383FDF7CF96CF8091A10335
:100C400085FD1EC08091A20383FF8ECF29E330E093
:100C50008BCF8091A10386FF87CF2AE230E084CF3B
:100C60008091A10386FF80CF21E330E07DCF22EE8B
:100C700030E07ACF20EE30E077CF26EE30E074CF50
:100C800025E330E071CF9091A10392FF10C041E0C5
:100C9000282F2471243009F040E031E0282F2871FA
:100CA000283009F030E0431711F02CE0822793FF41
:100CB00010C041E0282F2471243109F040E031E0D8
:100CC000282F2871283109F030E0431711F02CE06B
:100CD00082273091A20330FF10C051E0282F2171EC
:100CE000213009F050E041E0282F2871283009F028
:100CF00040E0541711F029E0822731FF10C041E095
:100D0000282F2171213109F040E031E0282F28718E
:100D1000283109F030E0431711F029E0822794FDD3
:100D2000877E08951F93CF93DF930E94A205EC0165
:100D3000811522E5920708F055C0811540E594071A
:100D400008F0D1C0803E910520F58D3C910508F05A
:100D5000A4C0883A910570F4853A910508F09AC0CC
:100D600081309105D1F10497813A9105B0F1C0E04D
:100D7000D0E033C0885A91094B97C8F7C85AD0E0E1
:100D8000CC0FDD1FC054DE4F0990D881C02DD46434
:100D900024C0811550E49507C0F4C11580E2D8073E
:100DA00008F0B7C0C83ED105C0F0CE019A958115B4
:100DB0009F41E8F68D2F0E944306182FCE019927F8
:100DC0000E94A205EC01D12B08C099270E94A20520
:100DD000CC27DF70C82BD92BD06ACE01DF91CF9101
:100DE0001F910895803842E59407C8F5803652E592
:100DF000950708F05BC0C03482E5D807D0F4C03254
:100E000092E5D90708F04BC08C2F8695869520E295
:100E1000829FC0011124C37021E030E0A90102C00B
:100E2000440F551FCA95E2F7EA01C82BD92BDD689C
:100E3000D4CF8C2F86958695877050E2859FC00110
:100E40001124C37021E030E0A90102C0440F551FF6
:100E5000CA95E2F7EA01C82BD92BDC68BECF803CEB
:100E600052E5950758F48F71C03AD245A0F590E04D
:100E7000982F8827EC01C46FD06AAFCF805C924571
:100E8000809708F074CFDC2FCC27CC27DF71C06FA0
:100E9000D06AA3CFA497D064A0CFD0659ECFCF71E6
:100EA000D0E0DC2FCC27C16FD06A97CF869586958E
:100EB000877020E2829FC0011124C37021E030E0DE
:100EC000A90102C0440F551FCA95E2F7EA01C82BD9
:100ED000D92BDA6882CF0E944306C82FD0E0DC2FDE
:100EE000CC27D0627ACF8F710E94430693E0CC0F5B
:100EF000DD1F9A95E1F7CC27DF70282F30E084FFC3
:100F000004C050E1859F90011124C22BD32BD069DE
:100F100064CF8D2F8F710E944306182FCE01992721
:100F20000E94A205EC01D12BDCCF80E00895F8945B
:100F3000E82FE295EF70F0E041A18F7021E030E002
:100F4000B90102C0660F771F8A95E2F7CB01962F91
:100F50009095942391A392A1892B82A378940895CC
:100F6000A0E0B0E0E6EBF7E00C946E2D372FE82F11
:100F7000F0E0EB5BFB4F71110AC0E4918E2F2E2F36
:100F80006E2F722FCDB7DEB7E7E00C948A2D062FB7
:100F900010E0E72EF12CD4902D2D86E0689FE00123
:100FA0001124EFEFF0E0CE01BF010E940F2D000FE2
:100FB000111F45E5469FC001479F900D1124081B56
:100FC000190B402F440F400F8F010E191F09D09E9F
:100FD000D001D19EB00D11248B2F349F800111249C
:100FE000012F11277F01E01AF10A8701D09E7001BD
:100FF000D19EF00C11248F01041B1109A801349F0C
:101000008001359F100D1124012F1127E01BF10BDA
:10101000DE9EA001DF9E500D1124E52F6330710587
:10102000C1F0CC3FD34058F461307105B1F062306B
:10103000710509F0A5CFED2D2B2F852FA1CF6430A1
:10104000710571F06630710509F49ACFEB2F8F2D81
:1010500097CF2B2F8D2DEF2D93CFED2D2F2D90CFC3
:10106000EB2F8D2D252F8CCF9C0180E090E0269FCB
:10107000812D369F800D911D11240895AC01823081
:10108000910508F408959FEF413E8EE1580740F422
:10109000CA0125E0969587952A95E1F798E0980F83
:1010A00061E0E62FE90FFF27FF1F9F013595279588
:1010B000822F229FF001239FF00DF00D11244E1777
:1010C0005F0738F49FEF920F961758F78FEF860F50
:1010D00008952F3FE9F361E0620FF6CF982FE82FD4
:1010E00096FDE0958E2F8F7096FD8F5FE695E695C5
:1010F000E695E670F0E0EE5CFE4F2181289F202D02
:10110000812D112422952F708295807F282B80813C
:10111000820F97FD819580580895FC019B010097EF
:1011200019F4832F80780895AC0197FF04C04427F9
:101130005527481B590BB901640F751F37FD0FC0A8
:10114000C901841B950BA5E0880F991FAA95E1F7AB
:101150000E94232D80E2861BF7FD81950895CB0127
:1011600065E0880F991F6A95E1F7BA01621B730B5E
:101170000E94232D80E6EFCF1F93172F922FE42F8D
:10118000F0E0EE0FFF1FEC5BFE4F418D24EE429F1F
:10119000412D1124272F30E050E0445E5F4FA92FEE
:1011A000B0E0FA01E91BF109F7FF03C0FD01E41B00
:1011B000F50B93E0EE0FFF1F9A95E1F72E1B3F0B07
:1011C00037FF02C020E030E0722F719F712D112493
:1011D0001F9108951F93182FE42FF0E0EE0FFF1FCB
:1011E000EC5BFE4F418D34EE439F412D112490E086
:1011F00050E0445E5F4FE22FF0E0DA01A21BB1093C
:101200009D01B7FF03C09F01241B350B43E0220F54
:10121000331F4A95E1F7821B930B97FF02C080E0D2
:1012200090E0282F219F212D1124822F1F910895B6
:101230000F931F93CF93DF93D62F172FC82FBA0189
:10124000C901212F201B022F0E948D08982F990F72
:10125000990F782F791B700F719F712D11246D2FAD
:101260008C2FDF91CF911F910F910895FF920F93D3
:101270001F93CF93DF93D62FC72F182FBA01C90121
:10128000F12EF01A0E948D08982F990F990F082FB0
:10129000091B0F0D019F012D11246D2F7C2F802F15
:1012A000CDB7DEB7E5E00C948C2DEF920F931F9332
:1012B000CF93DF93D62F172FC82FBA01C9010E196C
:1012C000010F0E948D08702F781B719F712D1124C2
:1012D0006D2F8C2FDF91CF911F910F91EF9008957B
:1012E000EF920F931F93CF93DF93D62FC72F182F13
:1012F000BA01C9010E19010F0E948D08081B019F38
:10130000012D11246D2F7C2F802FDF91CF911F9104
:101310000F91EF900895622F0895E42FF0E0EE0F03
:10132000FF1FEC5BFE4F618D621B0895E42FF0E020
:10133000EE0FFF1FE25AFE4F6081621B0895EF928D
:101340000F931F9310E09801220F331F200F311FBE
:10135000359527956E2D620F1F910F91EF9008958F
:101360000F93CF93DF93D72FC82FBA01C9010E94E3
:101370008D08682F600F7D2F8C2FDF91CF910F91FB
:101380000895EF920F93CF93DF93D72FC82FBA0111
:10139000C9010E190E948D08602F681B7D2F8C2FAC
:1013A000DF91CF910F91EF9008950F931F93522FDC
:1013B00010E0F801EE0FFF1FE25AFE4FA081A0528D
:1013C000BB0B9D015203F001539FF00D1124000F40
:1013D000111FD801AC5BBE4F59962C912052330B94
:1013E0004203D001439FB00D11249F012A0F3B1FE0
:1013F00037FF02C0215C3F4F96E0359527959A95BF
:10140000E1F7620F1F910F9108954095282F429F99
:10141000412D1124842F0895409520E4429F412DB1
:101420001124640F0895EF92FF920F93970195E0B6
:10143000099F200D311D1124211591E0390710F06D
:101440002FEF30E02095382F320F08F43FEF832F35
:101450000F91FF90EF900895EF92FF920F93E00E9F
:10146000F11CF90137FF03C0F195E195F10924E082
:10147000EE0FFF1F2A95E1F7E11531E0F30714F0B5
:10148000EFEFF0E0DA0157FF03C0B195A195B10984
:1014900094E0AA0FBB1F9A95E1F7AE17BF070CF4B3
:1014A000FD01EE0DFF1DE11591E0F90710F0EFEFE2
:1014B000F0E02E2F2095382F320F08F43FEF832FC6
:1014C0000F91FF90EF900895EF92FF920F93CF93BB
:1014D000DF93972FEA01F901D701093430F4A01BFB
:1014E000B109A11521E0B20710F0AFEFB0E02896E6
:1014F000619740F0AF01485F5F4F4131510510F0F7
:10150000AFEFB0E02A2F2095382F320F08F43FEFCD
:10151000832FF7FD33969F013595279535952795B0
:1015200060919403620F792FDF91CF910F91FF901B
:10153000EF900895EF92FF920F939701201B3109CE
:10154000211541E0340710F02FEF30E0322F3095B5
:10155000482F430F08F44FEF842F620F0F91FF9035
:10156000EF900895EF92FF920F939701201B31099E
:10157000211591E0390710F02FEF30E02095382F3A
:10158000320F08F43FEF832F0F91FF90EF900895F3
:101590009091E902982B9093E90208950E949C0B88
:1015A00008950E94C00B0895880F880F880F98E057
:1015B000980F923208F091E208958091930383701E
:1015C000811102C010921001809193038C7F816081
:1015D000809393030895982F862F2091930323706F
:1015E000211589F0911581F09A3180F49F73990F3C
:1015F000990F209193032370922B90939303109251
:1016000010010E94C80A089591E0F1CF99E1EFCF4F
:1016100080919303869586958F5F8A3108F081E0EB
:1016200061E00E94EB0A0895809193038695869568
:101630008A9509F489E161E00E94EB0A0895982FE8
:10164000822F209193032370211559F090939403D6
:1016500060939503493C08F048EC409396030E9440
:10166000C80A0895E3E9F3E0818190E021E0438135
:10167000628108960E941F0B0895E3E9F3E08181DF
:1016800021E0438162818850990B0E941F0B0895CD
:10169000E3E9F3E0628120E1620F08F46FEF8181FA
:1016A00021E0438190E00E941F0B0895E3E9F3E0FD
:1016B000628120E1621B08F460E0818121E04381C6
:1016C00090E00E941F0B0895E3E9F3E0438120E1DD
:1016D000420F08F44FEF818121E0628190E00E9487
:1016E0001F0B0895E3E9F3E0438120E1421B08F476
:1016F00040E0818121E0628190E00E941F0B08950B
:10170000E3E9F3E0248130E1230F08F42FEF248391
:1017100081E00E94C80A0895E3E9F3E0248130E102
:10172000231B08F420E0248381E00E94C80A089566
:10173000559A1092D7020895CF93DF93EC01FC01E4
:10174000EE0FFF1FDF01AC0FBD1FAC58BD4F119650
:101750008C911197861307C08C91841304C0129644
:101760008C91821751F081E08093D702EC0FFD1F1E
:10177000EC58FD4F618340832283DF91CF91089520
:10178000FF920F931F93CF93DF93182F062FF42E02
:10179000C0E0D0E02F2D402F612FCE010E949C0B86
:1017A0002196C132D105B1F7CDB7DEB7E5E00C9493
:1017B0008C2DFA01811511F009950895FB01FCCFDC
:1017C000282F35EB2303C001112497FF04C0805854
:1017D0009109892F089580589F4FFBCF80918A03EC
:1017E00080FD14C081FD14C082FD16C08091890364
:1017F000811581F08E3180F420E5829FC001112493
:101800006EE170E00E94232D862F089584E10895F3
:1018100088E2089588E0089580E5089580918A031C
:1018200080FD17C081FD17C082FD19C0809188031B
:10183000811599F0883298F428E0829FC001112424
:1018400068E270E00E94232D6115710551F0862F2A
:10185000089562E0FCCF64E0FACF61E0F8CF68E081
:10186000F6CF81E00895E0917203F0917303309711
:1018700029F00190F081E02D0995089580E0089508
:10188000A3E0B0E0E6E4FCE00C94732D9C018091B1
:1018900072029091730282179307A1F03093730242
:1018A00020937202E0917203F0917303309751F02C
:1018B00083E089833B832A830084F185E02DCE0178
:1018C000019609952396E2E00C948F2DA3E0B0E0F9
:1018D000ECE6FCE00C94732D9C01809170029091D9
:1018E000710282179307A1F0309371022093700266
:1018F000E0917203F0917303309751F084E0898393
:101900003B832A830084F185E02DCE010196099561
:101910002396E2E00C948F2D90910F01911112C04B
:10192000A0E3B2E0EFEF90E02D91821751F0EF3F8E
:1019300019F4211101C0E92F9F5F9630A9F7EF3FFD
:10194000C9F408959091A10397FFEACFE82FE69597
:10195000E695E695803FA8F7F0E0EA5CFD4F8770DA
:1019600021E030E001C0220F8A95EAF78281822BC4
:10197000828308950E2E000CFF0BE25DFD4FF8CF21
:1019800090910F01911521F09091A10397FD0CC04A
:10199000E0E3F2E09191891302C0DF011E9252E070
:1019A000E633F507B9F70895E82FE695E695E6954D
:1019B000803FC8F7F0E0EA5CFD4F877021E030E03F
:1019C000A90102C0440F551F8A95E2F7CA0180950C
:1019D00092818923828308952FB7F8948091DC0245
:1019E0009091DD02A091DE02B091DF022FBF089539
:1019F0000E94EC0C20918D0330918E03232B211536
:101A000021F0809347039093480320918F033091F6
:101A10009003232B211521F08093450390934603D7
:101A2000E0917203F0917303309749F082E0809364
:101A30008B030680F781E02D8BE893E009950895EC
:101A4000611509F44BC0E3E3E80FE33150F4F0E033
:101A5000E35DF14D0C94562D0E94EE0B8195809321
:101A60008E030E94F80C08950E94EE0BF8CF0E949E
:101A7000EE0B819580938D03F4CF0E94EE0BFACF8D
:101A80000E940E0C80938F03ECCF0E940E0C819568
:101A9000F9CF0E940E0C819580939003E2CF0E94B3
:101AA0000E0CFACF815D990B21E030E001C0220FCE
:101AB0008A95EAF780918C03822B80938C03D1CF97
:101AC00080918A03816080938A03CBCF80918A03BF
:101AD0008260F9CF80918A038460F5CF40918D03B5
:101AE0008D3C59F480918E0387FF0DC010928E03B8
:101AF000411559F41092890308C08E3C81F48091FD
:101B00008E0318169CF3411581F080918F039091FC
:101B10009003892B8111A5CF10928803A2CF8F3C0F
:101B200041F447FFF0CF10928D0380918E03811511
:101B3000E0CF803D19F41416B4F3E5CF90918F03F4
:101B4000893D29F41916FCF610928F03DCCF8A3DEB
:101B500019F497FFD8CFF8CF909190038B3D29F4DB
:101B600097FFD1CF10929003CECF8C3D19F4191668
:101B7000CCF3C9CF9FE2980F983090F4815D990B18
:101B800021E030E0B90102C0660F771F8A95E2F7C5
:101B9000CB01809590918C03892380938C03B3CFE4
:101BA0008D3D31F480918A038E7F80938A03ABCF81
:101BB0008E3D21F480918A038D7FF7CF8F3D09F010
:101BC000A2CF80918A038B7FF0CF2FB7F8946091DA
:101BD000DC027091DD028091DE029091DF022FBF66
:101BE00008959C014FB7F8948091DC029091DD023A
:101BF000A091DE02B091DF024FBF821B930B0895CC
:101C000080916F020895FC019B0180916502909183
:101C100066028617970740F0672B29F48091E80049
:101C20008E778093E800C90140E0009741F44111AC
:101C300006C08091E80082FF2FC080E008952091C7
:101C40004F032115A9F12530A9F12091E80023FDCA
:101C50002DC02091E80022FDECCF2091E80020FF6C
:101C6000E4CF3091F3002091F200009719F0283072
:101C7000310558F041E02830310509F040E020916D
:101C8000E8002E772093E800D0CF41914093F100F7
:101C900001972F5F3F4FE9CF80914F03811541F0AE
:101CA000853041F08091E80083FFC3CF81E0089543
:101CB00082E0089583E0089580915F0287FF13C05A
:101CC0008091E80082FF06C08091E8008B778093C6
:101CD000E800089580914F038111F2CF089580911B
:101CE0004F038115D9F38091E80080FFF8CF8091F0
:101CF000E8008E77ECCF2091E4003091E50095E686
:101D0000A9012091EC00822F817020FF06C08091F4
:101D1000E80080FF06C080E008952091E80022FDE1
:101D20001AC080914F03811589F0853089F0809128
:101D3000EB0085FD0FC02091E4003091E5004217D3
:101D40005307F9F29A95E1F684E0089582E0089548
:101D500083E0089581E00895E8EDF0E080818E7FD2
:101D600080831092E2001092DA001092E100A0EE5F
:101D7000B0E08C9181608C9380818F77808319BCD7
:101D8000A7EDB0E08C918E7F8C9380818F7E8083D5
:101D900010925E020895EF92FF920F931F93CF93DC
:101DA000DF937C01809100010E94D40AC82F192F73
:101DB000609197036695669521E0620F08F46FEFD6
:101DC0008091E0029091E1020E943408082FD0E057
:101DD000C11748F081E0113208F080E0CDB7DEB7DE
:101DE000E6E00C948B2DFE01E156FE4F8081909130
:101DF00001018923811591F06091940370919503FD
:101E000080919603202F4C2FF70109950E94B0076F
:101E1000462F672F282FCE010E94CE0A2196D8CFB9
:101E2000AF92BF92DF92EF92FF920F931F93CF93E7
:101E3000DF935C01809100010E94D40AC82F192F02
:101E40006091970366958091E0029091E1020E9473
:101E50003408D82ED0E0CE01880F991F9C012C5B4E
:101E60003E4F79011C1709F070F481E0113208F03F
:101E700080E0DF91CF911F910F91FF90EF90DF9065
:101E8000BF90AF900895FE01E156FE4F8081909182
:101E9000010189238115C1F0F701228D2052330BF6
:101EA000418D4052550B6091940370919503809140
:101EB00096030D2DF50109950E94B007462F672F57
:101EC000282FCE010E94CE0AF2E0EF0EF11C2196DF
:101ED000C9CFA0E0B0E0EFE6FFE00C94672D3C0135
:101EE000809100010E94D40AC82F192F6091970396
:101EF00066958091E0029091E1020E943408F82EEC
:101F0000D0E0CE01880F991F9C012C5B3E4F6901E8
:101F10001C1709F048F481E0113208F080E0CDB7D9
:101F2000DEB7EEE00C94832DFE01E156FE4F80817A
:101F3000909101018923811579F1F601818D282F76
:101F40002052330B5901828DE82FE052FF0B4F01D5
:101F5000AA9C9001AB9C300D300D1124EE9FC00166
:101F6000EF9F900D900D1124820F931F0E943E0849
:101F7000082F609194037091950380919603EF2C44
:101F80009401A501F30109950E94B007462F672F20
:101F9000282FCE010E94CE0AF2E0CF0ED11C21964E
:101FA000B7CFA0E0B0E0E7EDFFE00C946A2D7C0134
:101FB000809100010E94D40AC82FB92E2091970366
:101FC00031E0230F08F42FEF30E040E050E06FEFF6
:101FD0007FEF80E090E00E94372D6901D0E0A22ED3
:101FE0009D2C2C2FCB1550F081E0F1E2BF1608F0AC
:101FF00080E0CDB7DEB7EBE00C94862DFE01E15614
:10200000FE4F8081909101018923811521F18091FA
:10201000EA028150082E000C990B87FF1EC00A2D82
:10202000192D6091970321E0620F08F46FEFC8014A
:102030000E943408AC0160919403709195038091E3
:102040009603F70109950E94B007462F672F282FA6
:10205000CE010E94CE0A2196C4CFFC01E651FD4F6D
:10206000318932130AC0FC01EE0FFF1FE651FD4F0C
:10207000018D128D0C151D05A0F20197CECFA8E0A1
:10208000B0E0E5E4F0E10C94632D282E6A837B83B5
:10209000809100010E94D40A99832091EA022C8346
:1020A000E82FF0E0F887EF83CF01880F991F9C019C
:1020B0002C5B3E4F6901822D90E0FC013196FE833E
:1020C000ED838F819981891740F081E0913208F08A
:1020D00080E02896E2E10C947F2DEF81F885E156AF
:1020E000FE4F80819091010189238115F1F040908C
:1020F0009403509095032D813E8126513D4F390127
:10210000322C10E0FC813F16D0F020919603129FF4
:10211000112D1124B201812F0E94B007462F672F85
:10212000282F8F8198850E94CE0A2F8138852F5FB6
:102130003F4F38872F8332E0C30ED11CC2CFF3014B
:1021400081913F01F601A18CA81ABB08828CF30192
:102150008781881A9908AA9C9001AB9C300D300D9C
:102160001124889CC001899C900D900D1124820F30
:10217000931F0E943E08082F6091970321E0620F91
:1021800008F46FEFF301EE0FFF1FEA5EF24085895E
:1021900096890E9434087C019401A501B201812F27
:1021A000EA81FB8109952B01182F3394ABCFA4E072
:1021B000B0E0EDEDF0E10C946B2D8B8380910E017E
:1021C0002B81821323C090919303937020910D0172
:1021D00030E081E09217130609F480E08093020159
:1021E0008091980390910101981739F08093010133
:1021F00040E060E080E00E94D10A3B813A3188F4FF
:10220000E32FF0E0E05CF14D0C94562D81E0E6CF39
:1022100080910201811529F040E060E080E00E9499
:10222000D10A80E02FC1809100010E94D40A082FBA
:1022300099836091940370919503809196030E9415
:10224000B007F62ED72EC82E10E08981801709F02E
:1022500020F481E09981913239C0F801E156FE4FB6
:102260008081909101018923811531F02C2D4F2D12
:102270006D2DC8010E94CE0A0F5F1F4FE6CF8091DF
:1022800000010E94D40A082FC92E209194032983AB
:10229000F090950310919603622F7F2D812F0E945D
:1022A000B007E62EB72EA82E809197036981680F9C
:1022B0007F2D812F0E94B0076983F72ED82E10E062
:1022C000C01609F030F481E031E2C31608F4DAC038
:1022D000A8CFF801E156FE4F8081309101013823EB
:1022E000311559F02D2D49816F2D80FD03C02A2D08
:1022F0004E2D6B2DC8010E94CE0A0F5F1F4FE0CFFD
:10230000809100010E94D40A9983D0909503C090D7
:1023100096032091970350E4F52E3F2D329F312DE7
:102320001124F32E082F10E08981801709F008F49A
:1023300090CFF801E156FE4F8081909101018923F1
:102340008115B9F0F801EE0FFF1FEC5BFE4F828D97
:1023500082958F70609194038F9D600D11247D2D67
:102360008C2D0E94B007462F672F282FC8010E948E
:10237000CE0A0F5F1F4FD8CF809100010E94D40A70
:102380009983D0909503C09096032091970330E4F1
:10239000F32E3F2D329F312D1124F32E082F10E004
:1023A0008981801709F008F454CFF801E156FE4FF7
:1023B00080819091010189238115D9F0F801EE0FF8
:1023C000FF1FEC5BFE4F818D8F9DC001112425E026
:1023D000959587952A95E1F760919403680F7D2D77
:1023E0008C2D0E94B007462F672F282FC8010E940E
:1023F000CE0A0F5F1F4FD4CF809100010E94D40AF4
:10240000082F9983F090940310919503E090960320
:10241000609197036695669566958091E00290912C
:10242000E1020E9434080E946E08805887FD819561
:10243000880F282F3E2D239F212D1124822F6F2DB1
:10244000712F0E94B007D62EC72EF82E10E089817A
:10245000801709F008F4FDCEF801E156FE4F8081A7
:10246000909101018923811531F02F2D4D2D6C2D77
:10247000C8010E94CE0A0F5F1F4FE9CF8CEB98E096
:102480000E94CB0E909100019F5F909300018111FB
:102490000DC082E08093100180910201811106C07D
:1024A0008B81811103C083E0809310012496EAE0C0
:1024B0000C94872D8AEE98E0E3CF88E199E00E94A2
:1024C000100FE0CF86E399E0FACF85E599E00E940E
:1024D000690FD8CF80E799E0FACF8BE899E0D0CFA9
:1024E0008DE899E0CDCF86E999E0CACF8FE999E0F0
:1024F000EECF80EB99E0E3CF81EC99E0E8CF8091DB
:1025000000010E94D40AC82E9C83609197036695AF
:1025100066958091E0029091E1020E943408182FA4
:1025200080E4810F0E946E0880588983812F0E9469
:102530006E0880588A83D12C3C81C31618F081E044
:102540003132C4CEF601E156FE4F808190910101F7
:1025500089238115A1F06091940370919503809176
:102560009603E12E0C2D2A8149810E94D5090E94F3
:10257000B007462F672F282FC6010E94CE0A2FEFE3
:10258000C21AD20AD9CF85E09AE00E94D10F7ACF41
:102590008CE09AE0FACF8091EA0221E0382F321BDA
:1025A00008F430E0832F63E17AE00E943F106ACFA5
:1025B0008091EA0221E0382F321B08F430E0832FAB
:1025C0006CE27AE0F2CF8091EA0221E0382F321BF0
:1025D00008F430E0832F64E67AE0E7CF8091EA02E6
:1025E00021E0382F321B08F430E0832F6AE97AE0CB
:1025F000DCCF8091EA0221E0382F321B08F430E072
:10260000832F62EB7AE0D1CF982F9093E90089175E
:1026100071F07091EC002091ED005091F00021FDDF
:1026200009C09F5F973089F78093E9000895762F5E
:10263000242F50E03091EB003E7F3093EB0030913F
:10264000ED003D7F3093ED003091EB003160309331
:10265000EB007093EC002093ED005093F00020917C
:10266000EE0027FDDECF0895A0E0B0E0EAE3F3E15D
:102670000C946D2DC8EDD0E088818F7E8883E7EDC6
:10268000F0E080818160808384E082BF81E080937C
:102690005E0288818E7F888302EE10E0F80110824E
:1026A0001092DA0081EEC82ED12CF60110828881BA
:1026B0008F77888388818068888388818F7D8883ED
:1026C00019BC10924F0310925D02109215031092E4
:1026D0005C0290EEE92EF12CF70180818B7F8083E4
:1026E00088818160888342E060E080E00E9404137A
:1026F000F60180818E7F8083F801808181608083F4
:10270000808188608083F70180818E7F80838881CB
:1027100080618883CDB7DEB7E8E00C94892DE09125
:10272000A5039091A40327E0E91302C080E0089577
:10273000AE2FB0E02E9FF0011124EA55FC4F3181FD
:10274000361306C03081381303C03581341304C0FA
:10275000FD013196E770E8CF81E008958091D702BE
:10276000811539F13BB13F7D2BB120624FB7F89411
:1027700084E792E0FC010196508168E02BB90000EB
:1027800000C057FF3BB9550F000000C000C000C09B
:102790003BB900C06A9591F752E0873D950751F724
:1027A0004FBF8FE594E00197F1F700C00000109251
:1027B000D702089581E08093E00080E28093D80002
:1027C0001092C9008FE19EE40197F1F700C000006C
:1027D00087E090EBDC018093E5039093E603A09300
:1027E000E703B093E80388E19CE00FB6F894A8955E
:1027F000809360000FBE90936000FFCF0F931F93F4
:10280000CF93DF938B01EA0190914F03943059F5F8
:102810008093E9008FEF9091E80095FD06C095ED5B
:102820009A95F1F700008A95B1F78091E80085FF4D
:102830001AC00E947B0E811111C08091E80085FDB5
:1028400006C08091E8008E778093E800F2CFF8010F
:1028500081918F018093F100219779F78091E800B1
:102860008E778093E800DF91CF911F910F910895AB
:10287000CF93DF93D82FC92F48E050E0682F792FEE
:1028800081E00E94FE1388E0ED2FFC2FA7E6B2E066
:1028900001900D928A95E1F7DF91CF910895BC01E7
:1028A00040E250E084E00E94FE130895BC0146E03F
:1028B00050E084E00E94FE130895BC0143E050E024
:1028C00084E00E94FE1308959091A20392FB2227B8
:1028D00020F9281779F080FB92F99093A203609178
:1028E000A1037091A20384E090E00E94082E82E090
:1028F0000E945B0508951F93CF93DF93962F122FAD
:10290000632F8630D8F49530C8F44530B8F4C42F1E
:10291000D0E0CC0FDD1F2AE0929FC00DD11D112405
:1029200092E3899FC00DD11D1124CE0188960E948B
:10293000EA2D612FCE0189960E94EA2DDF91CF9179
:102940001F910895AF92BF92CF92DF92FF920F93A3
:102950001F93CF93DF93A12CB12C00E0650110E011
:1029600013C0FE01259134914F2D612F802F0E94BD
:102970007B142296F39485E0F812F3CF85E0C80E1D
:10298000D11C1F5F153039F0E601CC0FDD1FC75E8B
:10299000DC4FF12CE6CF0F5F89E1A80EB11C0630A9
:1029A000E9F6DF91CF911F910F91FF90DF90CF90CB
:1029B000BF90AF900895CF93DF93C4E5D1E060E07E
:1029C000CE010E94EA2D2196C11584E0D807B9F7FF
:1029D000DF91CF910895CF93C82F64E2811101C098
:1029E0006FEF84E290E00E94EA2D69E0C11101C01E
:1029F0006FEF85E290E00E94EA2D66E2C11101C00E
:102A00006FEF86E290E00E94EA2DCF91089580E07A
:102A10000E94EB1460E087E290E00E94EA2D0E94A1
:102A2000A2140E94DB1481E00E94EB1408950F931E
:102A30001F93CF93DF93863030F5653020F5453016
:102A400010F5C42FD0E0CC0FDD1F2AE0629FC00D2F
:102A5000D11D112432E3839FC00DD11D1124CE015D
:102A600088960E94CC2D082F10E0102F0027CE0151
:102A700089960E94CC2D9801282BC901DF91CF9116
:102A80001F910F91089580E090E0F8CF462F672FB7
:102A9000753038F4453028F4863018F40E94171544
:102AA000089580E090E00895A0E0B0E0EAE5F5E167
:102AB0000C946E2D7C0100919F0380919E03082B46
:102AC000C5E0D0E010E0C8010C2E02C095958795B6
:102AD0000A94E2F780FD09C02197A8F7D12C8D2D2B
:102AE000CDB7DEB7E7E00C948A2DDC2EB7018C2F32
:102AF0000E9446150E949206019771F3F0CF0F9342
:102B00001F93CF93FC01858100811181811591F084
:102B1000611581F0C8010E945415C82F682FC801A3
:102B20000E94C604B8018C2F0E944615CF911F91B8
:102B30000F910895C8010E94FC04C82FF3CFCF93D2
:102B4000DF93D82FC92F0E9454156D2F7C2F0E9420
:102B500046150E949206DF91CF910895FC01848171
:102B60008115A1F0808191810E949F15282F929557
:102B70009F70963099F060F4925F9F70923030F4BD
:102B8000203FB1F038F481E0283E38F080E008952D
:102B90009A5FF3CF81E0243FC9F7089591E0213F88
:102BA00009F090E081E0283E08F080E0892B08954C
:102BB00081E0089584E290E00E94CC2D843289F473
:102BC00085E290E00E94CC2D893059F486E290E0B5
:102BD0000E94CC2D91E0863209F090E0892F81701F
:102BE000089580E0FCCF80910F01811559F180910B
:102BF000A10387FF27C00E9473058093370240E23C
:102C000050E062E573E086E392E00E940E2E892B8D
:102C1000C1F080E2E6E3F2E0A2E5B3E001900D92BC
:102C20008A95E1F7E0917203F0917303309749F0D0
:102C300086E0809336020480F581E02D86E392E001
:102C4000099508950E94730580932E0248E050E094
:102C500064E773E08EE292E00E940E2E892B89F3E6
:102C600088E0EEE2F2E0A4E7B3E001900D928A95ED
:102C7000E1F7E0917203F0917303309711F3028052
:102C8000F381E02D8EE292E0DBCFCF93C82F811548
:102C9000D9F08CEF8C0F813AA8F580910F01811546
:102CA00021F08091A10387FD11C0E0E3F2E086E30B
:102CB00092E02191C21701F18E179F07D1F78C2F57
:102CC0000E948C0C0E94F315CF910895EC2FE6958D
:102CD000E695E695F0E0EA5CFD4F828190E04C2FAE
:102CE000477021E030E002C0220F331F4A95E2F71F
:102CF00082239323892B19F38C2F0E94C00C0E94EE
:102D0000F315DDCF80E28C0F883068F4C77081E066
:102D100090E001C0880FCA95EAF7C0919B03C82BC9
:102D2000C0939B03CFCF8BE58C0F833038F42C2FCF
:102D30002452330BC9010E94400CC6CFE8E5EC0FCA
:102D4000EB3150F4F0E0EE0FFF1FEA50FE4F8081B0
:102D500091810E94660CB8CF83E38C0F833108F019
:102D6000B3CF61E08C2F0E94200DAECF811581F191
:102D70009CEF980F913A28F40E94C00C0E94F31522
:102D8000089590E2980F983050F4877091E001C058
:102D9000990F8A95EAF7892F0E949A05EFCF9BE554
:102DA000980F933028F480E090E00E94400C089542
:102DB00098E5980F9B3128F480E090E00E94660C23
:102DC000089593E3980F933118F460E00E94200D6A
:102DD00008950F931F93CF93C82F8B010E94451620
:102DE0000115110539F48C2F0E94B616CF911F9151
:102DF0000F9108958FE99FE00197F1F700C000005F
:102E000001501109EDCF60E570E0893311F060E009
:102E100070E00E94E9160895A0E0B0E0E2E1F7E179
:102E20000C946E2DE82FF0E0E850FE4FD490282F40
:102E300026952695269530E0F901E851FE4F04913C
:102E4000877010E0082E02C0159507950A94E2F7E6
:102E500001701127F901E852FE4FE490F12C082E81
:102E600002C0F594E7940A94E2F7E0FAEE24FF2416
:102E7000E0F8F901E853FE4FC491D0E002C0D595C7
:102E8000C7958A95E2F7C170DD270115110519F084
:102E900081EE0E944516E114F10419F086EE0E94BD
:102EA000451660E070E08D2D0E94E916E114F104F2
:102EB00019F086EE0E94B6160115110519F081EE83
:102EC0000E94B616CD2B19F08CE20E940317CDB7E5
:102ED000DEB7E7E00C948A2D0F931F93CF93DF9317
:102EE0008C01F8018491811509F44FC0813009F0FB
:102EF00048C0E8012196FE018491813049F4219671
:102F0000FE0184910E9403178E010F5F1F4FE9CFCE
:102F1000823039F4E8012296FE0184910E94451620
:102F2000F3CF833039F4E8012296FE0184910E94A8
:102F3000B616EACF843041F7E8012296FE0184916B
:102F400020E030E04AE0FE0131968053990B8A3050
:102F5000910560F021153105B9F28FE99FE00197E5
:102F6000F1F700C0000021503109F4CF429FB001B9
:102F7000439F700D11249C01260F371F8491EF0190
:102F8000E2CF0E940C17E801BFCFDF91CF911F91D4
:102F90000F910895811539F090919B03892B8093AF
:102FA0009B030E94F3150895811521F00E949A0554
:102FB0000E94F3150895FF920F931F93CF93DF9311
:102FC000C62FD42F122F8115A9F0609391030E9470
:102FD000EC0C90935A0280935902C77081E001C0B3
:102FE000880FCA95EAF70E94CA17CDB7DEB7E5E0A9
:102FF0000C948C2D80919103681330C080915902FC
:1030000090915A020E94F10D883C910538F500E23A
:103010000D0FCD17A9F0C770FF24F3948F2D01C0B9
:10302000880FCA95EAF70E94D417083048F48D2F0C
:10303000877001C0FF0C8A95EAF78F2D0E94CA178E
:10304000812F0E940317083080F6D77081E001C0FD
:10305000880FDA95EAF70E94D417C7CFC77081E0CE
:1030600001C0880FCA95EAF7F6CF10929B038091B2
:103070000F01811539F18091A10387FF23C0E8E397
:10308000F2E08EE1DF011D928A95E9F780E090E0A1
:103090000E94400C80E090E00E94660C1092A30316
:1030A0000E94F31586E0EBE8F3E0DF011D928A95BC
:1030B000E9F7109289031092880310928A030E9404
:1030C000F80C0895E0E3F2E086E0DCCF0E943518CA
:1030D0002FEF84E39CE0215080409040E1F700C056
:1030E000000088E19CE00FB6F894A89580936000FA
:1030F0000FBE90936000FFCFA8E0B0E0E2E8F8E1F7
:103100000C94662D6C01FC018481811509F4A7C023
:1031100061E0C6010E947F158C01F601958198013E
:10312000911509F4DEC637572038310508F005C778
:10313000003108F084C08FEF93E00E94CC2D811104
:103140007EC054E5E52EFF24F39401114AC0CE0160
:1031500001963C0188E0F30111928A95E9F74AE073
:10316000542E4701FFEF8F1A9F0AC7010E94CC2DF2
:1031700089831A82811509F462C0813009F073C015
:1031800087010E5F1F4FC4010E94CC2D8A838115D9
:1031900009F455C09FEF980F933090F523E0E20EAD
:1031A000F11CC8010E94CC2D8B83811509F447C006
:1031B0001C828301F8018081811599F2813009F028
:1031C00094C08181813009F050C04801F2E08F0E37
:1031D000911CF80182810E94031784010F5F1F4F29
:1031E000E9CFE114F4E0FF0651F1C7010E94CC2DB4
:1031F00097012F5F3F4F79018111F3CF0150A5CF88
:103200008430A1F432E0E32EF12CC8010F5F1F4F90
:103210000E94CC2DF301EE0DFF1D8083811579F006
:103220008C3731F4FE01EE0DFF1D12827801C1CF03
:103230003FEFE31AF30A87E0E816F10431F78091D3
:10324000A0038770811559F0F6018581811539F049
:103250008091A20382FF03C082E00E945B05289652
:10326000EFE00C94822D7401A4CF823049F4480120
:10327000F2E08F0E911CF80182810E944516ADCFBD
:10328000833049F44801F2E08F0E911CF8018281ED
:103290000E94B616A2CF843019F00F5F1F4F9ECF49
:1032A00082810E5F1F4FA12CB12C98012F5F3F4FE1
:1032B0008053990B8A30910560F0C501009709F49D
:1032C0008DCFEFE9FFE03197F1F700C000000197E3
:1032D000F5CF5A9CA0015B9C500D11245C01A40EFB
:1032E000B51EF80181818901E0CF0E940C1776CFCD
:1032F00080EA98E00E946C17A2CF8FE898E00E94C5
:103300006C179DCF8CE798E00E946C1798CF83E7ED
:1033100098E00E946C1793CF88E698E00E946C17A3
:103320008ECF80E698E00E946C1789CF88E598E000
:103330000E946C1784CF8BE498E00E946C177FCFBB
:103340008FE398E00E946C177ACF86E398E00E94A2
:103350006C1775CF88E298E00E946C1770CF89E1F6
:1033600098E00E946C176BCF8CE098E00E946C177D
:1033700066CF83E098E00E946C1761CF8BEF97E0F7
:103380000E946C175CCF80EF97E00E946C1757CFBC
:1033900087EE97E00E946C1752CF8FED97E00E9466
:1033A0006C174DCF87ED97E00E946C1748CF8EECDD
:1033B00097E00E946C1743CF83EC97E00E946C1754
:1033C0003ECF8AEB97E00E946C1739CF8DEA97E0E9
:1033D0000E946C1734CF82EA97E00E946C172FCFBF
:1033E00087E997E00E946C172ACF8AE897E00E944D
:1033F0006C1725CF8FE797E00E946C1720CF85E7E9
:1034000097E00E946C171BCF8BE697E00E946C1729
:1034100016CF81E697E00E946C1711CF88E597E000
:103420000E946C170CCF8EE497E00E946C1707CFB8
:1034300083E497E00E946C1702CF89E397E00E9433
:103440006C17FDCE8BE297E00E946C17F8CE8EE1F0
:1034500097E00E946C17F3CE86E197E00E946C170C
:10346000EECE8FE097E00E946C17E9CE87E097E000
:103470000E946C17E4CE8EEF96E00E946C17DFCEB0
:1034800084EF96E00E946C17DACE87EE96E00E94F9
:103490006C17D5CE8EED96E00E946C17D0CE84EDE1
:1034A00096E00E946C17CBCE8AEC96E00E946C17D7
:1034B000C6CE8EEB96E00E946C17C1CE84EB96E0F0
:1034C0000E946C17BCCE8BEA96E00E946C17B7CEB8
:1034D00084EA96E00E946C17B2CE87E996E00E94DB
:1034E0006C17ADCE8DE896E00E946C17A8CE84E8EC
:1034F00096E00E946C17A3CE8BE796E00E946C17B3
:103500009ECE8FE696E00E946C1799CE86E696E0F6
:103510000E946C1794CE8CE596E00E946C178FCEBB
:1035200084E596E00E946C178ACE88E496E00E94BB
:103530006C1785CE8FE396E00E946C1780CE83E3F4
:1035400096E00E946C177BCE8AE296E00E946C1790
:1035500076CE8DE196E00E946C1771CE84E196E004
:103560000E946C176CCE8AE096E00E946C1767CEC2
:103570008FEF95E00E946C1762CE88EF95E00E9475
:103580006C175DCE8FEE95E00E946C1758CE85EEDD
:1035900095E00E946C1753CE8AED95E00E946C175F
:1035A0004ECE8FEC95E00E946C1749CE83EC95E0EF
:1035B0000E946C1744CE89EB95E00E946C173FCEB9
:1035C0008DEA95E00E946C173ACE81EA95E00E9460
:1035D0006C1735CE8AE995E00E946C1730CE82E9EF
:1035E00095E00E946C172BCE88E895E00E946C173E
:1035F00026CE8FE795E00E946C1721CE86E795E0F6
:103600000E946C171CCE8EE695E00E946C1717CEB8
:1036100085E695E00E946C1712CE8DE595E00E943C
:103620006C170DCE82E595E00E946C1708CE85E4FC
:1036300095E00E946C1703CE8FEF8093980381E092
:103640000E94C80A69C4F801E851FC47E730F10557
:10365000A8F5E65AF14D0C94562D26E241EE61EEA6
:10366000892F0E94DB17EBCD27E245EE65EE892F0F
:103670000E94DB17E4CD26E241EE60EE892F0E9426
:10368000DB17DDCD27E245EE64EE892F0E94DB17C4
:10369000D6CD26E241EE62EE892F0E94DB17CFCD18
:1036A00027E245EE66EE892F0E94DB17C8CD28E29F
:1036B00041E065EE892F0E94DB17C1CD911509F419
:1036C00005C410929103980130572332310508F058
:1036D000CCC084E090E00E94D42D9093A20380930C
:1036E000A103F801E150F047E232F10520F4EF596F
:1036F000F14D0C94562D8091A10381608093A1031C
:103700006091A1037091A20384E090E00E94082ED2
:103710000E94351894CD8091A20388608093A20303
:10372000EFCF8091A1038260E9CF8091A1038460F3
:10373000E5CF8091A1038860E1CF8091A2038160F1
:10374000EDCF8091A2038260E9CF8091A1038061D7
:10375000D5CF8091A1038062D1CF8091A1038064F5
:10376000CDCF0E9435188091A1038068C7CF80918A
:10377000A1038C60C3CF8091A2038360CFCF8091DF
:10378000A1038E7FBBCF8091A203877FC7CF80919B
:10379000A1038D7FB3CF8091A1038B7FAFCF8091A9
:1037A000A103877FABCF8091A2038E7FB7CF80919B
:1037B000A2038D7FB3CF8091A1038F7E9FCF809195
:1037C000A1038F7D9BCF8091A1038F7B97CF0E9418
:1037D00035188091A1038F7791CF8091A103837FCA
:1037E0008DCF8091A2038C7F99CF8091A1039927DF
:1037F00082FF939590FB82F990FB83F97FCF8091B4
:10380000A203982F909590FB80F990FB81F986CFC9
:103810009091A103892F8F7B96FF80646FCF0E94C8
:1038200035189091A103892F97FB87F9805866CFAF
:1038300061E08EE090E00E94EA2D62CF60E0F9CF77
:103840009091A103892F8F7E94FF806157CF909133
:10385000A103892F8E7F90FF816050CF9091A203AA
:10386000892F877F93FF886059CF0631FCE71F07B8
:1038700009F01EC380919B038A7A91E0811101C0F7
:1038800090E090939203811531F085E30E948C0CB7
:103890000E94F315D4CC89E2F9CF85E30E94C00CD5
:1038A000F7CF80919B038272F801E152F847E4312F
:1038B000F10508F05EC0ED57F14D0C94562D44E132
:1038C0005BE068E07BE00E94D90BB9CC48E05BE0AC
:1038D00064E17BE00E94D90BB2CC4DE35BE062E394
:1038E0007BE00E94D90BABCC42E35BE06DE37BE075
:1038F0000E94D90BA4CC46E55BE068E47BE00E9423
:10390000D90B9DCC48E45BE066E57BE00E94D90BD7
:1039100096CC42E75BE064E67BE00E94D90B8FCC5B
:1039200044E65BE062E77BE00E94D90B88CC4CE880
:103930005BE060E87BE00E94D90B81CC40E85BE073
:103940006CE87BE00E94D90B7ACC61E081E00E94B8
:10395000EB0A75CC61E085E00E94EB0A70CC61E077
:103960008DE00E94EB0A6BCC61E080E10E94EB0AE3
:1039700066CC07372CE7120709F469C008373CE723
:10398000130709F46DC09115A9F00A358CE71807E3
:1039900009F49FC008F077C00130ECE71E0709F476
:1039A00096C00330FCE71F0709F48BC001151C47C4
:1039B00009F47AC0F6018581E080F180811509F46F
:1039C0008CC0C7010E945415182F682FC7010E9490
:1039D000C604B701812F0E9446150E9492068C01F1
:1039E000F601B580A680A2942FE0A2228091A003C8
:1039F0008770811501F1EB2CB114F1F0812F807FDC
:103A0000803461F080E2800F8830A8F0812F807EC2
:103A1000803221F4023078F0A11469F08091A20381
:103A200082FF09C082E00E945B058091A00387703D
:103A3000EE24E3948111E12CE12FE295EF70103C2C
:103A400008F0B6C0F0E0E956F14D0C94562D81E037
:103A50000E94B60443E062E081E00E943005EFCBB3
:103A600082E0911541F00E94AA0443E062E081E007
:103A70000E943005E4CB0E94B60443E062E081E09E
:103A80000E943005DCCB0B353CE7130721F10C35E8
:103A90001C4709F08FCF8091A203002482FF03947A
:103AA000802D0E94641486CF0E9435189FEFE4E3B6
:103AB000FCE09150E040F040E1F700C000000E94BF
:103AC000DA136FEF7FEF80E090E00E94082E0E94F3
:103AD000661881E0E6CF80E0E4CFC7010E94FC04D5
:103AE000182F77CFF12FFF70FF2E103118F0F294BE
:103AF00090EFF922B114B9F0F11469F080E2800F6F
:103B0000883010F0011109C080919B038F298093A8
:103B10009B030E94F315802F43C08091A3038F293C
:103B20008093A303F6CF802F0E94B616F11409F4F8
:103B30003FC080E2800F883010F0011104C08F2D4B
:103B40000E949A0506C0F0948091A3038F21809370
:103B5000A3030E94F3152CC0212F2F70F22E107F8B
:103B6000103219F0F29480EFF822011549F001307B
:103B700009F46BC0B11409F477C0A114C9F1CBCF1B
:103B80008091A20382FD30C0B11469F0F11439F0C4
:103B900080919B038F2980939B030E94F31580E003
:103BA0000E94451605C080E00E94B616F110C7CFEE
:103BB000E114A9F08091A00380FD11C0F6011582E7
:103BC0008695869586950E94AA04C6010E947C1857
:103BD0008091A0038695869586950E94B60460E044
:103BE000C6010E947F153BCBB11499F0A11004C00F
:103BF0008F2D0E94CA17DCCF31E0A312D9CF80915C
:103C00009C039F2D9823F91699F28F2980939C038A
:103C1000CFCFA110CDCF8F2D0E94D41790919C03B0
:103C20008F2D8923811529F08F2D809589238093ED
:103C30009C0380919D039F2D9823911509F4B8CF83
:103C4000F094F822F0929D03B3CFB11429F086E0EE
:103C5000A81608F0ADCFCCCF95E0A91608F0A8CFF4
:103C60008F2D0E94D417A4CFA114D1F3093349F4A6
:103C7000EFEFF7EE23E0E150F0402040E1F700C025
:103C80000000802F0E94B61693CF812F86958695CF
:103C90008370811561F0813009F08ACFC80193707B
:103CA000B11002C080E090E00E94660C81CFC80194
:103CB0009370B11002C080E090E00E94400C78CF79
:103CC0006B2D802F0E94200D73CF812F8370811167
:103CD00034C0B11027C0402F429546954770440F1D
:103CE000440F802F8F70042E01C0880F0A94EAF7CA
:103CF000202F207104FF07C02FE030E001C0220F09
:103D00004A95EAF72095169516951370123081F0B2
:103D1000133061F030919E03113039F0822B8323F0
:103D20000E94A4040E94330C43CF832B822BF8CF34
:103D3000822B90919E038927F3CFB11451F110FF8C
:103D4000F1CF402F429546954770440F440F802F86
:103D50008F70042E01C0880F0A94EAF7202F20717B
:103D600004FF07C02FE030E001C0220F4A95EAF7B8
:103D70002095169516951370123089F0133069F05E
:103D800030919F03113041F0822B83230E94A704BE
:103D9000C9CF8230B0F6C6CF832B822BF7CF822BD0
:103DA00090919F038927F2CF1F70B11439F0812FB2
:103DB0000E94AA04802F0E94CA17B4CF802F0E94AD
:103DC000D417812F0E94B604ADCF023F71F170F479
:103DD000003FC9F0013F91F0B11409F455C0A1149E
:103DE00009F44FC0802F0E9445169CCF033F21F15C
:103DF000043F91F79091A20392FD2AC0812F8F7109
:103E0000B11401F316C0B11469F035E0A31608F03F
:103E100089CF1F7181E090E0012E01C0880F0A94C4
:103E2000EAF7BECF86E0A816F2CF812F8F71B110CE
:103E3000C9CF0E94AA0476CF80E0B11409F4A6CFBE
:103E40001F7181E0012E01C0880F0A94EAF79ECF0E
:103E5000B11461F0812F8F7192FFEBCF982F990FE2
:103E6000990F990F93609093A003E3CF81E00E9494
:103E70005B0592E0A91608F455CF82E00E945B052D
:103E800051CF812F8F71D5CFA11479F0093349F427
:103E9000EFEFF7EE23E0E150F0402040E1F700C003
:103EA0000000802F0E94B6163DCF812F8F718ACFE0
:103EB00007372CE7120709F061CD81E00E94AA04C0
:103EC00043E062E081E00E943005B9C906313CE779
:103ED000130709F0E6CC809192038111DECC89E2D0
:103EE000DDCC3E572435310508F4A9C90032F8E786
:103EF0001F0709F0A8CB911579F0809198038F3FA7
:103F000009F09ACB1092980381E00E94C80A40E021
:103F100060E080E00E94D10A809193038370811158
:103F20008EC98FEF8093980381E00E94C80A0E9497
:103F3000DD0A81E00E94C80A82C9F801FE57E43513
:103F4000F105A0F6ED55F14D0C94562D8091E4034A
:103F5000803178F48091E303811559F0E091A50355
:103F60002091A4033091DF034091DE0357E02E132C
:103F700001C008956E2F70E05E9FF0011124DF01F3
:103F8000AA55BC4F14968C911497811561F1119626
:103F90008C911197831327C08C91841324C015969C
:103FA0008C91159781111FC012968D919C91A091B3
:103FB000E003B091E1038A1B9B0B883C910598F4C8
:103FC0008091E4038F7080618093E403E455FC4F9B
:103FD00080818F70806180838EED93E00E947C18D9
:103FE0000E9451050895FB013196E770C0CFADE006
:103FF000B0E0EDEFFFE10C94672D8C0186E0F80155
:10400000DE01189601900D928A95E1F7F801F5808E
:1040100084819EED892E93E0992E6090E2036110D9
:1040200018C0811599F0F11409F415C1C8010E9456
:10403000AE15811509F40FC187E0F801AEEDB3E0CC
:1040400001900D928A95E1F70E94A61FFF24F39438
:1040500056C07080A280B380D090E3032091E0032B
:104060003091E103A501421B530BD11409F4C3C0E5
:10407000483C510508F079C0811541F38091DF0378
:10408000C180E090E40350E1E51608F059C0C81281
:1040900015C08091DE03871111C0F1104BC08E2D29
:1040A0008F7080618093E4038EED93E00E947C1812
:1040B0008091E403F8018683F12C21C0F1103AC00D
:1040C00040E06C2D872D0E948F1340E06C2D872DD2
:1040D0000E948F13F82E8111EFCF888599850E9459
:1040E0009F15292F22952F70903470F49F702230E5
:1040F000A0F09115B1F0F8019681903190F48F2DD8
:104100002D96EEE00C94832D2A5F2F70223068F0FC
:10411000C8010E947C18FD2CF2CF911511F0811579
:1041200071F3805E883058F3F3CF803F40F3815FB6
:104130008330F9CF8091E40381608093E403BCCFA6
:10414000C8123BC08091DE03871137C0F11035C023
:10415000E682C8010E947C1887E0F801AEEDB3E06A
:1041600001900D928A95E1F771CFE090E403F0E1C0
:10417000EF1650F48EED93E00E947C1887E0F40176
:1041800011928A95E9F798CF811509F45FCF909144
:10419000DF03F8018181981310C08091DE0387113D
:1041A0000CC0F1100AC0E682C8010E947C1887E0AA
:1041B000F40111928A95E9F749CFC8010E94AE1522
:1041C000811509F448C0F11409F445C08091E40355
:1041D000803208F431CF8091DE039091DF039A831F
:1041E0008983BC82AB826D821E82EF82CE010196F2
:1041F0000E947C1821CF483C510508F0BFCF8115A3
:1042000009F424CFF11439F19091DF0381819813DF
:1042100018C08091DE03871114C08091E40380FDF3
:104220009BCF803108F498CF8683807F803F09F44C
:1042300090CF8681982F907F905F8F70892B868397
:1042400088CFC8010E94AE158111F6CE8091E4039B
:1042500081608093E403C8010E947C18F7CEABE133
:10426000B0E0E5E3F1E20C94712D4E8B5F8B688F2B
:10427000798F8A8F192F9B8F91111092A3031D8A1A
:1042800086E0FE017696DE011F9601900D928A95DA
:10429000E1F70A8D011539F00B8B1C8B61E0CE0123
:1042A0000F960E947F150B8B1C8B87E0FE013F96BB
:1042B000DE01189601900D928A95E1F7CE010896DD
:1042C0000E94F71F811128C02091A4033091A503FB
:1042D00087E0FE013896DE01119601900D928A95D5
:1042E000E1F78C858115C1F0822F90E001968770EF
:1042F000992738171906D9F097E0929FD001112419
:10430000AA55BC4FFE01319601900D929A95E1F7A6
:104310008093A4030E94510517E08091A50390911A
:10432000A403891312C06B96E4E00C948D2D0E94B7
:1043300035181092A4031092A50387E0EEEDF3E088
:10434000DF011D928A95E9F7E7CF189FC00111247C
:104350008A559C4F0E94F71F811529F38091A50370
:1043600090E00196877099278093A503D6CFA6E0A9
:10437000B0E0EDEBF1E20C94712D0E94EC0C8C019D
:1043800080915003909151038017910779F0198221
:104390001A820E94EC0CBC0149815A8180E090E0B5
:1043A0000E942F2110935103009350032696E4E0BE
:1043B0000C948D2DAAE2B0E0E0EEF1E20C94722DA7
:1043C0008FE592E0FC0101962091F100208322E02C
:1043D00087369207B9F780916002893009F456C098
:1043E000C8F4823009F4B3C0833009F482C081304C
:1043F00071F18091E80083FFE7C080915F029091A6
:1044000060029A3008F0E0C0E92FF0E0E950F14D89
:104410000C94562D8A3009F489C08B3051F7809165
:104420005F02813231F78091630290916402892B9F
:1044300001F78091E800877F8093E8000E945C0E7E
:104440008091610280930F010E943518D2CF809134
:104450005F02813A71F68091E800877F8093E800DF
:104460008091630290916402892B61F060E080E0AA
:1044700090E070E00E94030E8091E8008B778093BB
:10448000E800B7CF68E087E692E0F3CF80915F0263
:10449000813209F0AECF80916302909164028D7FEA
:1044A000892B09F0A6CF8091E800877F8093E800F0
:1044B0008091E80082FF18C09091F3008091F20093
:1044C000029731F48091F100813011F0863021F4AF
:1044D0008091F10080936F028091E8008B77809348
:1044E000E8000E945C0E85CF80914F038111E0CFE0
:1044F00080CF80915F02813A09F07BCF8091630287
:1045000090916402892B09F074CF8091E800877F35
:104510008093E8008091E80080FFFCCF80910F013C
:104520008093F1008091E8008E77D9CF80915F026F
:10453000813209F05ECF8091E800877F8093E800A8
:104540000E945C0E8091620280935B0252CF809148
:104550005F02813A09F04DCF8091E800877F809318
:10456000E8008091E80080FFFCCF80915B02D8CF0B
:10457000803889F0823841F5809163028F708730EE
:1045800018F58093E9008091EB0085FB882780F97E
:104590001092E90006C080911503880F90915C028B
:1045A000892B9091E800977F9093E8008093F10029
:1045B0001092F1008091E8008E7723C0811116C01F
:1045C00080916102813011F18091E80083FF0AC07F
:1045D0008091E800877F8093E8008091EB00806203
:1045E0008093EB00AA96E3E00C948E2D823061F765
:1045F00080916102811589F01092E9008091E800B4
:10460000877F8093E8000E945C0EDECF81E09330CC
:1046100009F080E080931503EFCF809163028F70E3
:104620002FEF280F263080F68093E9002091EB00D1
:1046300020FFE2CF933031F48091EB0080628093D1
:10464000EB00DACF9091EB0090619093EB0021E0CA
:1046500030E0A90102C0440F551F8A95E2F740934C
:10466000EA001092EA008091EB008860E8CF8111A7
:10467000ABCF109161021F778091E3008078812B8E
:104680008093E3008091E800877F8093E8000E9498
:104690005C0E8091E80080FFFCCF8091E300806891
:1046A0008093E30083E0111101C082E080934F0307
:1046B0008BCF8058823008F087CF80916102909133
:1046C00062028C3D53E0950799F583E08A838AE284
:1046D00089834FB7F894DE01139620E03EE051E263
:1046E000E32FF0E050935700849120FF03C08295A0
:1046F0008F703F5F8F708A30C8F0895C90E08D9337
:104700009D932F5F243161F74FBF8091E800877F31
:104710008093E8006AE270E0CE0101960E94030EE9
:104720008091E8008B778093E8004ECF805DE6CFE4
:10473000292F33272330310509F44EC078F5213075
:10474000310509F47DC08BE590E0E8E7F2E0223026
:10475000310509F039CF2091E800277F2093E80048
:1047600020916502309166028217930708F49C013C
:1047700040E02115310509F068C0411166C0809103
:10478000E80082FDCDCF80914F03811549F285303D
:1047900039F28091E80083FFF2CFC2CF80916302AB
:1047A000909164022132310509F43BC02232310577
:1047B00009F00ACF8330910508F006CFFC01EE0F17
:1047C000FF1FEA5DFE4F0190F081E02D8D5D9E4F51
:1047D000DC018C9190E011C09C013327813089F07D
:1047E00022303105B1F0232B09F0EECEE5E1F3E004
:1047F000E4918E2F90E0E5E1F3E0009709F4E4CE38
:10480000AACFE9EFF2E0E4918E2F90E0E9EFF2E039
:10481000F4CFE5EEF2E0E4918E2F90E0E5EEF2E0E9
:10482000ECCF8330910508F0CFCEFC01EE0FFF1FD7
:10483000E45DFE4F0190F081E02D89E090E08BCFA8
:1048400082E190E0E3EDF2E086CF80914F038115A5
:1048500009F466CF853009F463CF8091E80083FDC9
:104860005FCF8091E80082FD8ACF8091E80080FFD1
:1048700080CF9091F3008091F2002115310519F05D
:104880008830910550F041E0089709F040E08091B0
:10489000E8008E778093E8006CCF44914093F1005C
:1048A0003196215031090196E8CF803809F08CCE3D
:1048B0008091E800877F8093E80080915D0280937B
:1048C000F10078CE811180CE10916102123008F093
:1048D0007BCE8091E800877F8093E80010935D0293
:1048E0000E945C0E1115D1F084E080934F0342E0EA
:1048F00061EC81E00E94041342E261EC84E00E94DA
:10490000041342E261EC82E00E94041342E260EC94
:1049100083E00E94041380914F0356CE8091E30000
:1049200087FDE2CF81E0E1CFA5E0B0E0EAE9F4E283
:104930000C94682DFE01319685E0DF011D928A9569
:10494000E9F78AE3A82E81E0B82E8F014F01EE240B
:10495000E394F12C24E4C22E21E0D22EF5018191C2
:104960005F018F3F09F43EC0F894E82FE295EF70A5
:10497000F0E021A18F70A70102C0440F551F8A9556
:10498000E2F7CA01922F982B91A392A180958923D7
:1049900082A3789400C0EFE3F1E031E0712C219123
:1049A0002F3F79F0A22FA295AF70A05EB0E08C915E
:1049B00090E02F7002C0959587952A95E2F780FFC9
:1049C00037C080E0782A330FCE16DF0641F7F501B5
:1049D00082918F3F11F00E94970750EA5A95F1F7A4
:1049E000D8017C920F5F1F4FBFE3AB16B1E0BB064F
:1049F00009F0B4CF45E050E0B40184EE92E00E94AB
:104A00000E2E892BB9F085E0F401A4EEB2E00190FE
:104A10000D928A95E1F781E0809358020E94EC0C98
:104A200090935702809356022596EDE00C94842DC6
:104A3000832FC8CF809158028115B1F3809156021F
:104A4000909157020E94F10D059770F345E050E0F8
:104A500064EE72E08AE493E00E940E2E892B49F006
:104A600085E0E4EEF2E0AAE4B3E001900D928A95CD
:104A7000E1F710925802D8CF48E050E067E170E0CB
:104A800083E993E00E94DA2D1092E90208954F9293
:104A90005F926F927F928F929F92AF92BF92CF92CE
:104AA000DF92EF92FF92CF93DF93C090D802D09025
:104AB000D902E090DA02F090DB028FB7F8944090D0
:104AC000DC025090DD026090DE027090DF028FBF4A
:104AD000530142018C189D08AE08BF080E94E50DE5
:104AE0006093D8027093D9028093DA029093DB022C
:104AF000A0911603E6E1F3E04A2F50E02FEFC20E3B
:104B0000D21EE11CF11CC418D508E608F708A5134D
:104B10002FC04093160320911403C0E0211109C057
:104B200020919303C22FC370C11519F0C22FC695EF
:104B3000C69520911001223009F490C048F521114A
:104B400039C0109200016093E0027093E1028093FB
:104B5000E2029093E30289E2E6E1F3E0AAEEB2E03A
:104B600001900D928A95E1F781E08093100113C0C6
:104B7000218D328DC216D306E104F10420F4415098
:104B80005F5F3296C4CF280D391D328F218FF8CF49
:104B9000233009F46EC0DF91CF91FF90EF90DF904A
:104BA000CF90BF90AF909F908F907F906F905F90CD
:104BB0004F9008958C2F0E94D710C11561F38091FA
:104BC000000181500E94D40AC82FF92ED091110102
:104BD00080919F030E9491048330D9F170F5D091A8
:104BE000140170911501813051F0D091170170912D
:104BF0001801823021F4D0911A0170911B0180912B
:104C00009603843608F484E66D2F0E94B007E62EE2
:104C1000D72EC82ED0E0FC1609F008F4BCCFFE0158
:104C2000E156FE4F808183FF06C02C2D4E2D6D2D49
:104C3000CE010E94CE0A2196EECF70E08430F9F2C8
:104C4000709112018530D9F2D0911D0170911E0131
:104C5000D6CFD091200170912101D1CFC0930E0108
:104C600080919303837080930D010E94AE1383E0C3
:104C70007CCF8091E90281110E943C254091E002A5
:104C80005091E1026091E2027091E3022FB7F89433
:104C90008091DC029091DD02A091DE02B091DF02F2
:104CA0002FBF841B950BA60BB70B4097A105B10531
:104CB00008F471CF109210016ECFCDB7DEB7A79771
:104CC0000FB6F894DEBF0FBECDBF85B7806885BF35
:104CD00085B7806885BF84B7877F84BF0FB6F89497
:104CE000A8958091600088618093600010926000B8
:104CF0000FBE80E890E00FB6F89480936100909327
:104D000061000FBE85E997E090932D0280932C02FD
:104D10000E94AC0E0E9434138091E2008460809364
:104D2000E200789480914F03811599F08091E90019
:104D30001091EC008F70179511271795182B109272
:104D4000E9008091E80083FD0E94DA211F70109332
:104D5000E90082E084BD93E095BD9AEF97BD809312
:104D60006E000E94DA15811102C00E9407150AE345
:104D700011E0D8018D918D018F3F11F00E949707AE
:104D8000B1E00F331B07A9F70FE311E0F8018191A0
:104D90008F018F3F11F00E949707F1E004341F0745
:104DA000A9F785E0EAE4F3E0DF01282F1D922A95B8
:104DB000E9F7E4EEF2E0DF011D928A95E9F780E081
:104DC00090E00E94D42D853E9E4F21F40E94DA157A
:104DD000811163C065EE7EEF80E090E00E94082EB6
:104DE00060E082E090E00E94EA2D81E080939E03E3
:104DF00061E083E090E00E94EA2D60E074E184E0ED
:104E000090E00E94082E60E086E090E00E94EA2D8B
:104E100060E087E090E00E94EA2D40E050E0BA01B7
:104E200088E090E00E94FC2D60E083E290E00E9428
:104E3000EA2D60E08CE090E00E94EA2D60E08DE0D9
:104E400090E00E94EA2D19821A821B821C821D8228
:104E50001E821F82188648E050E067E170E0CE01B4
:104E600001960E94DA2D40E050E0BA018FE190E017
:104E70000E94FC2D80E00E94EB140E94071540E088
:104E800050E0BA018FE090E00E94FC2D40E050E03D
:104E9000BA0183E190E00E94FC2D82E090E00E9444
:104EA000CC2D80933F0384E090E00E94D42D90931A
:104EB000A2038093A1030E949424EFEFF6E721E080
:104EC000E150F0402040E1F700C000000E9494242F
:104ED00080914A0380FF08C06FEF7FEF80E090E091
:104EE0000E94082E0E94DA1383E090E00E94CC2DED
:104EF0000E94A4040E94980B1092EA0240E150E044
:104F00006FEF70E083E093E00E94242E109216036E
:104F100040E150E06FEF70E08FE293E00E94242EBA
:104F200081E08093E90248E050E067E170E083E9C6
:104F300093E00E94BC2D1092E9028091930384308B
:104F4000B8F485E48093930380911101909112014C
:104F5000A09113018093940390939503A0939603DB
:104F60008FE7809397038FEF809398030E943C25EF
:104F700083E091E0909373038093720380914F03D9
:104F800010E403E0853009F40BC10E949424E0E4AE
:104F9000F3E0FAA3E9A32AE433E03FA32EA3D90167
:104FA00091918D9125E433E02E173F0709F404C158
:104FB0009817B1F3B4E48B2EB1E09B2E00E0AEA1C4
:104FC000BFA1DD90BFA3AEA3E9A1FAA16190FAA3AE
:104FD000E9A36D1409F491C06D242401C12C772438
:104FE0007394872D8621811509F47CC0172D1D210E
:104FF000C9820A830E94EC0C9C838B83F1E0FD83C1
:1050000091E0111101C090E09E8349815A816B812A
:105010007C818D810E942F21111539F0D2018C9154
:1050200010E08F3F11F08DA311E0E12EF12C809163
:105030001603810F9927991F09976CF1E8E0AE2EAE
:10504000B12CAE18BF08B701695E7C4FA50187E19E
:1050500093E00E941B2EB701615E7C4FA5018FE19A
:1050600093E00E941B2EA501440F551FB701660F48
:10507000771F615D7C4F8FE293E00E941B2EB7018A
:10508000695D7C4FA50187E293E00E941B2E88E0BA
:10509000811B80931603111529F140911603BDA1C0
:1050A0008B2F90E0242F30E0F901EA5EFC4FDC0109
:1050B000AA0FBB1FAC5BBE4F59965C915183880F02
:1050C000991FDC01A25ABE4F8C9181878DA1818BE3
:1050D000F901EE0FFF1FEA5EFC4F128E118E4F5F3B
:1050E00040931603C394770C9FEF491A590AA5E021
:1050F000CA1277CFE9A1FAA1D2920F5FB5E08B0E69
:10510000911C053009F05BCF0E94E50D59C08091DC
:105110004F03843009F439C00E944725809114035D
:1051200081110DC00E94D71010920E01809193033F
:10513000837080930D010E94AE130093100131E043
:10514000309314031092130388E190E00FB6F894A3
:10515000A895809360000FBE1093600083B7817F95
:10516000846083BF83B7816083BF7894889583B759
:105170008E7F83BF0FB6F894A895809160008861F8
:1051800080936000109260000FBE0E949424EAE4B5
:10519000F3E081918111B8C293E0EF34F907C9F7C8
:1051A00080914F03853009F4B2CF0E9435180E94D8
:1051B000330C10921403E9CE9813FCCE0E94B72151
:1051C0000E94472586E0EBE8F3E0DE0111960190AE
:1051D0000D928A95E1F7C0908C0310918D03009198
:1051E0008E03E0908F03F090900310928D03109245
:1051F0008E0310928F0310929003812F802B8115C4
:1052000009F440C080914703909148030E94F10D3A
:105210001C0180918903811509F470C2E5E12E1605
:10522000310480F18F3F19F08F5F8093890311154E
:1052300059F00E94EE0B91E011160CF09FEF899F40
:10524000802D112480938D03011559F00E94EE0BDF
:1052500091E010160CF09FEF899F802D1124809310
:105260008E0380918D03811569F0D0908E03D11447
:1052700049F00E94E00B80938D038D2D0E94E00B7E
:1052800080938E038E2D8F29811509F442C0809161
:105290004503909146030E94F10D8BA39CA380913E
:1052A0008803811509F424C22BA13CA121353105C5
:1052B00080F18F3F19F08F5F80938803E11459F0DC
:1052C0000E940E0C91E01E140CF09FEF899F802D20
:1052D000112480938F03F11459F00E940E0C91E079
:1052E0001F140CF09FEF899F802D11248093900351
:1052F00080918F03811569F0E0909003E11449F0EB
:105300000E94E00B80938F038E2D0E94E00B809310
:10531000900380918C03C81219C080918D03811570
:1053200011F0181313C020918E03211511F00213F0
:105330000DC090919003911511F09F1107C030910D
:105340008F03311103C0822B892B81110E94F80C2D
:1053500086E0FE013196ABE8B3E001900D928A95AC
:10536000E1F70E94330C90914903891721F0809353
:1053700049030E94E50D80914F03843009F0FECD72
:1053800083E08093E9008091E80082FFF7CD80916F
:10539000E80090E085FF05C00E947B0E811599F022
:1053A00091E08091E8008B778093E800911509F4F3
:1053B000E5CD8981EFEFE80FE33168F5F0E0EF5FCD
:1053C000F04D0C94562D00E210E0CE0101967C01C8
:1053D0008091E80085FD0AC08091E8008B7780937A
:1053E000E8000E947B0E811599F3DACF8091F100DD
:1053F000D7018D937D010150104051F7D1CF1A8212
:105400008CE08B831AC08A81833049F138F4813073
:1054100061F08230D9F08FEF89830FC08430D9F7E3
:105420001B821C821D821E8208C00E94E50D0E9404
:105430005C2D6B837C838D839E8340E250E0BE01B4
:105440006F5F7F4F82E00E94FE1398CD87E290E06D
:105450000E94CC2D1B821C821D828E83EECF8B81FD
:1054600090E0FE013496853091053CF7DC01A65BA7
:10547000BC4F2C9121930196F6CF8A81823071F036
:10548000853049F68091930391E0892780939303B7
:105490001092100180E00E94C80ACFCF6B817C81FE
:1054A0008D819E810E945C2D87E290E00E94EA2D12
:1054B000C4CF4C816B818A810E9417159827892758
:1054C00098279E838D83B9CF2D813E813227232754
:1054D00032274C816B818A810E947B14AECF0E945F
:1054E000A214ABCF9A81933009F095CF883009F49C
:1054F0003DC0893009F467C08B81833099F1A0F4F5
:105500008130D9F0823009F098CF8C81811123C08D
:105510008091930383708111109210018091930305
:105520008C7F8093930389CF843009F086CF8C8160
:1055300020E0409196036D810AC04C8128EC429F87
:10554000412D11248091940320E06091950390E017
:105550000E941F0B72CF0E94DD0A60E08C810E94C6
:10556000EB0A6BCF8C818093970394CF8B81833030
:1055700039F180F48130C1F0823009F05ECF809142
:105580009303982F937086958695911101C080E0C2
:105590008C8353CF843009F050CF809194038C8357
:1055A000809195038D8349CF80919603BFEF8B9FA8
:1055B000C001112468EC70E00E940F2D6C833DCF78
:1055C00080919703E5CF0E943C2537CF80E18A8305
:1055D00034CF82E08A838CEA14CFCA80DB80DC245B
:1055E000CD24DC248C817601E80EF11C8E010B5F4A
:1055F0001F4FEC14FD0409F420CF80E0ECEACE1636
:10560000E2E0DE0628F4C6018C5A9E4F0E94CC2DA3
:10561000D8018D938D01BFEFCB1ADB0AEACF0A8147
:105620001B81102701271027FE0131966F018C8105
:105630007F01E80EF11CCE14DF0409F4FECE0C3A13
:10564000F2E01F0740F4D60114966C91C8018C5A01
:105650009E4F0E94EA2D0F5F1F4FBFEFCB1ADB0A50
:10566000EACF0E94DB14E9CE86E0B1CFCA80DB80AE
:10567000DC24CD24DC248C817601E80EF11C8E0123
:105680000B5F1F4FCE14DF0409F4D7CE80E0ECE2AD
:10569000CE16E1E0DE0620F4C60188960E94CC2DED
:1056A000D8018D938D01BFEFCB1ADB0AEBCF0A81B6
:1056B0001B81102701271027FE0131966F018C8175
:1056C0007F01E80EF11CEC14FD0409F4B6CE0C3297
:1056D000F1E01F0738F4D60114966C91C801889642
:1056E0000E94EA2D0F5F1F4FBFEFCB1ADB0AEBCFF3
:1056F000EBA1FCA13B9708F0DECD0BCEFBE02F1613
:10570000310408F091CDBECD80911503811509F4C7
:1057100047CDA0E1A9BDB2E1B9BD09B400FEFDCFFE
:105720008091D8008F7D8093D8008091E0008260C6
:105730008093E0008091E00081FDFCCF0E9435184D
:105740002FCD1F921FB61F9211248F939F93AF935B
:10575000BF9380911303811113C08091DC0290915B
:10576000DD02A091DE02B091DF024196A11DB11DC4
:105770008093DC029093DD02A093DE02B093DF02FF
:10578000BF91AF919F918F911F901FBE1F90189551
:1057900078941F921FB61F9211248F939F93AF93FB
:1057A000BF938091DC029091DD02A091DE02B09166
:1057B000DF020196A11DB11D8093DC029093DD02F2
:1057C000A093DE02B093DF02BF91AF919F918F91C2
:1057D0001F901FBE1F9018951F920F920FB60F9229
:1057E00011242F933F934F935F936F937F938F93E6
:1057F0009F93AF93BF93EF93FF938091E10082FF5C
:1058000009C08091E20082FF05C08091E1008B7F9A
:105810008093E1008091DA0080FF24C08091D8005D
:1058200080FF20C08091DA008E7F8093DA00809123
:10583000D90080FF9BC080E189BD82E189BD09B4A8
:1058400000FEFDCF81E080934F0380915E028111C5
:1058500009C00E94AC0E0E9434138091E200846063
:105860008093E2008091E10080FF17C08091E20008
:1058700080FF13C08091E2008E7F8093E2008091D0
:10588000E20080618093E2008091D8008062809382
:10589000D80019BC85E080934F038091E10084FF1C
:1058A00029C08091E20084FF25C080E189BD82E1AA
:1058B00089BD09B400FEFDCF8091D8008F7D809313
:1058C000D8008091E1008F7E8093E1008091E2001A
:1058D0008F7E8093E2008091E20081608093E200FD
:1058E00080915D02811509F447C084E080934F03E5
:1058F00080914F038091E10083FF27C08091E200F7
:1059000083FF23C08091E100877F8093E10082E0E4
:1059100080934F0310925D028091E1008E7F80930F
:10592000E1008091E2008E7F8093E2008091E200AE
:1059300080618093E20042E060E080E00E94041316
:105940008091F00088608093F000FF91EF91BF910B
:10595000AF919F918F917F916F915F914F913F9107
:105960002F910F900FBE0F901F90189519BC109299
:105970004F0310925E0276CF8091E30087FF02C052
:1059800083E0B4CF81E0B2CF1F920F920FB60F9297
:105990001124EF92FF920F931F932F933F934F93F6
:1059A0005F936F937F938F939F93AF93BF93CF93A7
:1059B000EF93FF9309EE10E0F8018081C091EC00B5
:1059C0008F70C795CC27C795C82B108280EFE82E23
:1059D000F12CF7018081877F808378940E94DA21FF
:1059E000F8011082F701808188608083CF70F80110
:1059F000C083FF91EF91CF91BF91AF919F918F9114
:105A00007F916F915F914F913F912F911F910F91D6
:105A1000FF90EF900F900FBE0F901F901895AA1B4C
:105A2000BB1B51E107C0AA1FBB1FA617B70710F089
:105A3000A61BB70B881F991F5A95A9F780959095BB
:105A4000BC01CD01089597FB072E16F4009407D0F2
:105A500077FD09D00E940F2D07FC05D03EF49095EC
:105A600081959F4F0895709561957F4F0895052EFC
:105A700097FB1EF400940E944E2D57FD07D00E9404
:105A80009A2D07FC03D04EF40C944E2D5095409562
:105A9000309521953F4F4F4F5F4F089590958095DA
:105AA000709561957F4F8F4F9F4F0895EE0FFF1FA9
:105AB0000590F491E02D09946927962769277827A6
:105AC0008727782708952F923F924F925F926F9287
:105AD0007F928F929F92AF92BF92CF92DF92EF927E
