:100000000C94BC020C94F4020C94F4020C94F402D0
:100010000C94F4020C94F4020C94F4020C94F40288
:100020000C94F4020C94F4020C94EB240C94AF2482
:100030000C94F9250C94F4020C94F4020C94F40240
:100040000C94F4020C94F4020C94F4020C94F40258
:100050000C94F4020C94D3250C94F4020C94F40246
:100060000C94F4020C94F4020C94F4020C94F40238
:100070000C94F4020C94F4020C94F4020C94F40228
:100080000C94F4020C94F4020C94F4020C94F40218
:100090000C94F4020C94F4020C94F4020C94F40208
:1000A0000C94F4020C94F4020C94F402050109027D
:1000B000A10185020901A1000509190129081500FE
:1000C0002501950875018102050109300931158165
:1000D000257F95027508810609381581257F9501D0
:1000E00075088106050C0A38021581257F95017572
:1000F000088106C0C005010980A101850319012AF4
:10010000B700150126B700950175108100C0050CD8
:100110000901A101850419012AA002150126A002E6
:10012000950175108100C005010906A1018506052C
:100130000719E029E71500250195087501810205D9
:1001400007190029EF1500250195F07501810205B9
:10015000081901290595057501910295017503910D
:1001600001C00660FF0961A1010962150026FF00B8
:100170009520750881020963150026FF00952075FA
:10018000089102C005010906A101050719E029E748
:1001900015002501950875018102950175088101F9
:1001A0000507190029FF150026FF0095067508812F
:1001B000000508190129051500250195057501910E
:1001C00002950175039101C00102E06163767676C4
:1001D000767676767676760103E0000102E061635A
:1001E00076767676767676760103E0000102E06137
:1001F0006376767676760103E00000010101010165
:1002000001010101020202020202020202030303CF
:10021000030303030304040404040404050505059F
:10022000050606060606070707070708080808095F
:100230000909090A0A0A0B0B0B0C0C0C0D0D0D0E0B
:100240000E0E0F0F0F1010111111121213131414A0
:10025000151516161717181819191A1A1B1B1C1D15
:100260001D1E1E1F2020212222232424252626276E
:100270002829292A2B2C2D2D2E2F303132323334A0
:1002800035363738393A3B3C3D3E3F4041424344A6
:1002900045464748494A4C4D4E4F50515354555688
:1002A00058595A5B5D5E5F616264656668696B6C34
:1002B0006D6F7072737577787A7B7D7E80828385AF
:1002C00087888A8C8E8F91939596989A9C9EA0A2EF
:1002D000A3A5A7A9ABADAFB1B3B5B7BABCBEC0C2F9
:1002E000C4C6C9CBCDCFD1D4D6D8DBDDDFE2E4E7BD
:1002F000E9EBEEF0F3F5F8FAFDFF0152137E037E11
:10030000247E1B7E177E167E117E327E087E2E7E18
:10031000217E1A7E227E287E057E2B7E347E377ECD
:100320000C7E0A7E2D7E0D7E007E28000052055236
:10033000025203520452417E197E1D7E4A7E507E37
:10034000497E407E3A7E3F7E4C7E067E3C7E4E7EDF
:10035000477E2F7E3E7E157E597E467E577E00521A
:1003600001520552035204521C7E427E147E487E86
:10037000097E107E187E237E3D7E077E0E7E397EAE
:100380000F7E2C7E387E047E5A7E317E1E7E277E36
:1003900000520152025205520452437E447E2A7E8C
:1003A0004B7E5B7E587E3B7E0B7E367E357E257E89
:1003B000557E307E337E267E207E1F7E127E297EF5
:1003C000457E00520152025203520552737E747EE2
:1003D000757E767E777E7B7E7C7E7D7E7E7E7F7E5A
:1003E000787E797E7A7E807E817E5E7E5F7E707E84
:1003F000637E6C7E005201520252035204522178F5
:100400002778237825782978227828782478267800
:100410002A78000000000000000000002B782C78F3
:100420002D782E78207809025B00030100A0FA09DC
:10043000040000010301010009211101000122440F
:100440000007058103080001090401000203000000
:10045000000921110100012222000705820320006A
:100460000107050303200001090402000103000045
:100470000009211101000122B600070584032000B4
:10048000011201000200000008F1F1250001000145
:100490000200011203420055005000700061006428
:1004A000003200350000001A035300700069006438
:1004B0000065007200490073006C0061006E00640A
:1004C0000000000403090400000000000000000018
:1004D000000000000000000000000000000000001C
:1004E00000000000000000000000007E0F00D4FFAC
:1004F000FFFFC70000007800000000000000002A95
:100500002B28000000000000000000000000000098
:10051000000029000000002C1E3420212224342653
:1005200027252E362D3738271E1F2021222324254C
:10053000263333362E37381F0405060708090A0B01
:100540000C0D0E0F101112131415161718191A1B73
:100550001C1D2F3130232D350405060708090A0B11
:100560000C0D0E0F101112131415161718191A1B53
:100570001C1D2F3130354C0011241FBECFEFDAE0A7
:10058000DEBFCDBF04B603FE18C080910E09909166
:100590000F09A0911009B09111098730904BA74025
:1005A000B04B59F410920E0910920F0910921009D5
:1005B00010921109E0E0F8E3099517E0A0E0B1E03E
:1005C000E2EFFFE502C005900D92A835B107D9F71B
:1005D00029E0A8E5B7E001C01D92AE30B207E1F70F
:1005E0000E9422260C94F72F0C940000482F209193
:1005F000D50890919C0857E0291302C080E0089527
:1006000030E0529FF001539FF00D1124E356F74F55
:100610008181681306C08081481303C085818111E0
:10062000EECF2F5F3F4F2770E7CFE8EDF0E08081FE
:100630008E7F80831092E2001092DA001092E10027
:10064000A0EEB0E08C9181608C9380818F77808365
:1006500019BCA7EDB0E08C918E7F8C9380818F7E4A
:1006600080831092870808952091E4003091E5007E
:1006700085E69091EC0090FF06C09091E80090FF15
:1006800006C080E008959091E80092FDFACF909125
:100690009208992391F0953091F09091EB0095FD9F
:1006A00010C04091E4005091E5002417350709F38C
:1006B00081509A01F1F684E0089582E0089583E084
:1006C000089581E008958091940887FF13C0809178
:1006D000E80082FF06C08091E8008B778093E800F5
:1006E00004C0809192088111F2CF08958091920800
:1006F0008823D9F38091E80080FFF8CF8091E8004B
:100700008E77ECCF982F9093E900242F762F50E02E
:10071000891731F07091EC002091ED005091F000BC
:1007200021FD07C09F5F973071F78093E90081E05A
:1007300008953091EB003E7F3093EB003091ED0057
:100740003D7F3093ED003091EB0031603093EB0052
:100750007093EC002093ED005093F0002091EE0098
:1007600027FDE0CF80E00895B0E0A0E0EAEBF3E001
:100770000C94C62CC8EDD0E088818F7E8883E7ED8D
:10078000F0E080818160808384E082BF81E080939B
:10079000870888818E7F888302EE10E0F80110823E
:1007A0001092DA0081EEC82ED12CF60110828881D9
:1007B0008F77888388818068888388818F7D88830C
:1007C00019BC1092920810929308109291081092FE
:1007D000900890EEE92EF12CF70180818B7F8083C9
:1007E00088818160888342E060E080E00E9482032B
:1007F000F60180818E7F8083F80180818160808313
:10080000808188608083F70180818E7F80838881EA
:1008100080618883CDB7DEB7E8E00C94E22CFC0160
:1008200080919A0890919B0886179707A0F0611510
:10083000710529F49091E8009E779093E80090E08C
:100840006115710551F4911108C08091E80082FF93
:1008500035C080E00895BC01F2CF809192088823D2
:10086000C9F18530C9F18091E80083FD31C08091E4
:10087000E80082FDEACF8091E80080FFE1CF20917F
:10088000F3008091F200322F282F6115710519F0C5
:100890002830310558F091E02830310509F090E01A
:1008A0002091E8002E772093E800CACF81918093B1
:1008B000F100615071092F5F3F4FE7CF809192089F
:1008C000882341F0853041F08091E80083FFBDCF5F
:1008D00081E0089582E0089583E008959C014FB778
:1008E000F8948091830890918408A0918508B09134
:1008F00086084FBF821B930B08952FB7F894809101
:10090000830890918408A0918508B09186082FBF34
:10091000089580910E01089590910F019130D1F4C6
:100920009091800897FF16C0E82FE695E695E6952A
:10093000EE31D8F4F0E0EE59F84F282F277081E01F
:1009400090E001C0880F2A95EAF78095928189236B
:1009500082830895EAE5F7E09281891301C012824B
:10096000319697E0E036F907B9F7089590910F01B5
:100970009130C1F49091800897FF14C0E82FE6955C
:10098000E695E695EE31F8F4F0E0EE59F84F877011
:1009900021E030E001C0220F8A95EAF78281822BA4
:1009A00082830895ACE5B7E0EFEF90E02D918217D8
:1009B00051F0EF3F19F4211101C0E92F9F5F9630EC
:1009C000A9F7EF3F09F408950E2E000CFF0BE65A2D
:1009D000F84FE6CFA3E0B0E0E0EFF4E00C94CC2CCD
:1009E00020917E0830917F0828173907A1F0909355
:1009F0007F0880937E08E0917C08F0917D08309715
:100A000051F024E029839B838A830084F185E02DC3
:100A1000CE01019609952396E2E00C94E82CA3E020
:100A2000B0E0E5E1F5E00C94CC2C20917A0830910F
:100A30007B0828173907A1F090937B0880937A08E8
:100A4000E0917C08F0917D08309751F023E02983F4
:100A50009B838A830084F185E02DCE010196099560
:100A60002396E2E00C94E82CE0917C08F0917D085C
:100A7000309729F00190F081E02D0995089580E0EC
:100A800008950E947D0420917608211104C02091D0
:100A90007708222321F090937308809372082091A5
:100AA0007808211104C020917908222321F0909325
:100AB000710880937008E0917C08F0917D08309770
:100AC00049F082E0809374080680F781E02D84E786
:100AD00098E00995089580916F0880FD16C081FD0A
:100AE00016C082FD16C080916E088823A1F088325E
:100AF00080F428E0829FC001112468E270E00E9427
:100B00007C2C862F672B39F0089582E0089584E0CD
:100B1000089588E0089581E0089580916F0880FD30
:100B200014C081FD14C082FD16C080916D08882319
:100B300081F08E3180F420E5829FC00111246EE1A6
:100B400070E00E947C2C862F089584E1089588E24D
:100B5000089588E0089580E50895282F35EB230354
:100B6000C001112497FF04C080589109892F08956E
:100B700080589F4FFBCFFC01EE0FFF1FE80FF91FBE
:100B8000E65FF74F6183408322830895EAE0F8E04F
:100B9000818360834283339698E0ED36F907C1F78D
:100BA0000895559A0895BC019FEF613E8EE1780744
:100BB00040F49B0195E0369527959A95E1F798E0EA
:100BC000920F41E0E42FE90FFF27FF1F9F013595AA
:100BD0002795822F229FF001239FF00DF00D112405
:100BE0006E177F0738F49FEF920F941758F78FEF27
:100BF000840F08952F3FE9F341E0420FF6CF809133
:100C0000DA08837011F010920C018091DA088C7F61
:100C10008093DA0808958091DA08837011F41092B5
:100C20000C018091DA088C7F81608093DA08089546
:100C3000880F880F880F98E0980F923208F091E2A1
:100C40000895EF92FF920F939701201B31092F3FD8
:100C5000310519F010F02FEF30E02095382F320FCA
:100C600008F43FEF832F0F91FF90EF900895EF92DC
:100C7000FF920F939701201B31092F3F310519F087
:100C800010F02FEF30E0322F3095482F430F08F44B
:100C90004FEF842F620F0F91FF90EF900895EF9226
:100CA000FF920F93972F093438F4B701601B710935
:100CB0006F3F710519F010F06FEF70E0485F5F4F04
:100CC0004131510540F0A901485F5F4F4131510565
:100CD00010F06FEF70E06095482F460F08F44FEF6B
:100CE000842F37FF02C02D5F3F4F359527953595EF
:100CF00027956091DB08620F792F0F91FF90EF909D
:100D00000895EF92FF920F931F93E00EF11C89015B
:100D100037FF03C011950195110924E0000F111F41
:100D20002A95E1F70F3F110519F014F00FEF10E0CD
:100D30009A0157FF03C031952195310994E0220FA4
:100D4000331F9A95E1F7201731070CF489010E0D36
:100D50001F1D0F3F110519F010F00FEF10E0009567
:100D6000282F200F08F42FEF822F1F910F91FF9053
:100D7000EF900895EF92FF920F93970195E0099FEE
:100D8000200D311D11242F3F310519F010F02FEFE8
:100D900030E02095382F320F08F43FEF832F0F916A
:100DA000FF90EF900895409520E4429F412D11243B
:100DB000640F08954095282F429F412D1124842FC0
:100DC0000895EF920F93972F23E0029FB001112413
:100DD000759567956E0D792F0F91EF900895E42F1B
:100DE000F0E0EE0FFF1FEB50F94F6081621B08959A
:100DF000E42FF0E0EE0FFF1FE552F94F618D621B0B
:100E00000895622F0895E42FF0E0EE0FFF1FE552E2
:100E1000F94F418D34EE439F412D1124E82FF0E02E
:100E200050E0445E5F4FDA01A21BB1099D01B7FF9C
:100E300003C031952195310993E0220F331F9A9514
:100E4000E1F7AF01421B530B9A0157FD20E0582FE9
:100E5000259F212D1124822F0895E42FF0E0EE0F1D
:100E6000FF1FE552F94F418D34EE439F412D112470
:100E7000E72FF0E050E0445E5F4FDA01A21BB109BA
:100E80009D01B7FF03C031952195310993E0220FF1
:100E9000331F9A95E1F7AF01421B530B9A0157FD9F
:100EA00020E0279F212D1124722F08950E94C6054E
:100EB00008950E94BB05089590910908892B80939D
:100EC00009080895EAEDF8E0248130E1231B08F4D5
:100ED00020E0248381E00E945C070895EAEDF8E0B9
:100EE000248130E1230F08F42FEF248381E00E9456
:100EF0005C0708959091DA08937061F08093DB08A5
:100F00006093DC08493C08F048EC822F4093DD08F0
:100F10000E945C070895EAEDF8E0438120E1421B5E
:100F200008F440E0818121E0628190E00E947A072C
:100F30000895EAEDF8E0438120E1420F08F44FEF15
:100F4000818121E0628190E00E947A070895EAEDB4
:100F5000F8E0628120E1621B08F460E0818121E019
:100F6000438190E00E947A070895EAEDF8E06281FB
:100F700020E1620F08F46FEF818121E0438190E06E
:100F80000E947A070895EAEDF8E0818121E043812B
:100F900062818850990B0E947A070895EAEDF8E083
:100FA000818190E021E04381628108960E947A0766
:100FB00008959091DA08937051F0811109C09460FE
:100FC0009093DA08862F10920C010E945C07089516
:100FD0008A3110F09466F4CF880F880F982BF0CFE9
:100FE0008091DA0886958695815009F489E161E05F
:100FF0000E94D90708958091DA08869586958F5FBB
:101000008A3108F081E061E00E94D9070895EAED95
:10101000F8E0908121E09227908310920C010E94C9
:101020005C0708950F931F93522F10E0F801EE0F05
:10103000FF1FEB50F94FA081A052BB0BAA0FBB1FA3
:101040009D015203F001539FF00D1124000F111F59
:10105000D801A552B94F59960C910052110B000FAF
:10106000111F40039001419F300D11242E0F3F1F8F
:1010700037FF02C021583F4F220F232F221F330B6F
:10108000620F1F910F910895FC019B01009721F4BD
:1010900077FD2BC080E00895AC0197FF04C0442782
:1010A0005527481B590BB901640F751F37FD10C038
:1010B000241B350BC901A5E0880F991FAA95E1F7FC
:1010C0000E947C2C80E2861BF7FF10C0819508955A
:1010D000CB0165E0880F991F6A95E1F7BA01621BA1
:1010E000730B0E947C2C80E6EECF80E80895EF928F
:1010F0000F93CF93DF93D72FC82FC9010E19BA01D1
:101100000E944408602F681B7D2F8C2FDF91CF91A8
:101110000F91EF9008950F93CF93DF93D72FC82FA0
:10112000C901BA010E944408682F600F7D2F8C2FDF
:10113000DF91CF910F910895EF920F931F93CF936B
:10114000DF93D62FC72F182FC9010E19010FBA012F
:101150000E944408081B202F219F212D1124822F3B
:101160006D2F7C2FDF91CF911F910F91EF900895FC
:10117000EF920F931F93CF93DF93D62F172FC82F84
:10118000C9010E19070FBA010E944408702F781B7D
:10119000719F712D11246D2F8C2FDF91CF911F9195
:1011A0000F91EF9008950F931F93CF93DF93D62F56
:1011B000C72F182FC901212F201B022FBA010E940F
:1011C0004408982F990F990F891B800F282F219F72
:1011D000212D1124822F6D2F7C2FDF91CF911F9114
:1011E0000F9108950F931F93CF93DF93D62F172F4F
:1011F000C82FC901272F201B022FBA010E944408C3
:10120000982F990F990F782F791B700F719F712D5F
:1012100011246D2F8C2FDF91CF911F910F91089585
:10122000E82F86FDE0952E2F2F7086FD2F5FE69527
:10123000E695E695E670F0E0EC53F94F9181929FC8
:10124000902D212D112492959F702295207F922B15
:101250002081920F87FD919580E8890F08951F9353
:10126000CF93DF93D62FC72F182F822F86950E94FA
:101270001009805887FD8195880F282F219F212DE7
:101280001124822F6D2F7C2FDF91CF911F91089514
:1012900030E020E0869F212D969F200D311D1124E6
:1012A000C9010895B0E0A0E0E8E5F9E00C94C42C91
:1012B000362F472FE82FF0E0E650FE4F71110AC09D
:1012C000E4918E2F2E2F6E2F722FCDB7DEB7EAE06E
:1012D0000C94E02CC72FD0E02491F22FE22EF12CB9
:1012E00056E0659FC00111240FEF10E0B8010E9485
:1012F000682C832F90E0880F991F35E5369FD00129
:10130000379FB00D11248A1B9B0B982F990F980FB4
:101310006801CC1ADD0ACE9CD001CF9CB00DDE9CBA
:10132000B00D11248B2F499FA0011124452F552763
:101330006801C41AD50ACE9CA001CF9C500DDE9C3A
:10134000500D1124E52F5801A91AB108AC9E600177
:10135000AD9ED00CBC9ED00C1124CD2CDD240C19DC
:101360001D090E9DE0010F9DD00D1E9DD00D112475
:1013700062307105B1F058F46115710579F0613092
:10138000710509F4A0CFE22F2B2F852F9CCF64305D
:10139000710571F048F066307105A9F7E22F2D2F25
:1013A00092CFEB2F8D2F8FCFEB2F822F252F8BCF2F
:1013B0002B2F8F2FED2F87CFACE0B0E0E2EEF9E0DE
:1013C0000C94BC2C8A8378876F83809111010E94D2
:1013D00018069B832091E2082C83482F50E05C87FD
:1013E0004B87CA01880F991FFC01E552F94F6F0125
:1013F000FA818F2F90E09C01220F331FA9014550E5
:10140000574F5E834D83FC013196FA87E9878B81C4
:101410009B85981748F081E0EB81E13208F080E08D
:101420002C96E2E10C94D82CEB85FC85EA5CF84F15
:10143000808190911201892309F12090DB0830907E
:10144000DC0829853A852E51374F39014D805E8061
:101450003A81398310E02C8139813217C8F020910C
:10146000DD08129F112D1124B101812F0E94520914
:10147000472F282F8B859C850E9459074B855C85BB
:101480004F5F5F4F5C874B8752E0C50ED11CBFCFCB
:10149000F30181913F01F601A18CA81ABB08828C4F
:1014A000F3018781881A9908AA9CC001AB9C900D12
:1014B000900D1124889C9001899C300D300D1124D1
:1014C000820F931F82309105DCF4082F6091DE08B3
:1014D00021E0620F08F46FEFF201819191912F01E9
:1014E0000E9448097C019401A501B101812FEF817F
:1014F000F88509951B01F981FF5FF983182FABCFA0
:101500000E94D305E2CFB0E0A0E0E9E8FAE00C9455
:10151000C72C8C01809111010E941806C82FD92E6A
:101520002091DE0831E0230F08F42FEF30E050E087
:1015300040E06FEF7FEF80E090E00E94902C790117
:10154000D0E04C2FCD1550F081E0F0E2FD1508F40D
:1015500080E0CDB7DEB7E7E00C94E32CFE01EA5C57
:10156000F84F808190911201892329F19091E2082E
:101570009150E92F092E000CFF0BEE51F74F97FF0A
:101580001CC097016091DE0841E0640F08F46FEF22
:10159000C9010E944809AC016091DB087091DC0828
:1015A0008091DD08F80109950E945209472F282FE4
:1015B000CE010E9459072196C4CF818948130BC0E0
:1015C000DF01AA0FBB1FA25EB84059962D913C9136
:1015D0002E153F05B8F291503197D1CF2F923F92FF
:1015E0004F926F927F928F929F92AF92BF92CF92C3
:1015F000DF92EF92FF920F931F93CF93DF933C0103
:10160000809111010E941806C82F192F6091DE08E1
:1016100066958091D6089091D7080E944809F82EC7
:10162000D0E0CE01880F991F9C012552394F6901E6
:10163000C117B0F081E0113208F080E0DF91CF9166
:101640001F910F91FF90EF90DF90CF90BF90AF90E0
:101650009F908F907F906F904F903F902F90089524
:10166000FE01EA5CF84F808190911201892399F183
:10167000F601818D282F2052330B5901828DE82FDE
:10168000E052FF0B4F01229FC001239F900D900D50
:101690001124EE9F9001EF9F300D300D1124820F29
:1016A000931F8230910510F00E94D3052090DB0833
:1016B0003090DC084090DD08EF2C082F9401A50144
:1016C000842DB101F30109950E945209472F282F5B
:1016D000CE010E9459072196F2E0CF0ED11CA8CF6F
:1016E000B0E0A0E0E6E7FBE00C94C52C6C01809133
:1016F00011010E941806C82F192F6091DE08669507
:101700008091D6089091D7080E944809B82ED0E061
:10171000CE01880F991F9C012552394F7901C117BD
:1017200048F081E0113208F080E0CDB7DEB7E9E0A3
:101730000C94E12CFE01EA5CF84F8081909112013B
:101740008923B9F0F701228D2052330B418D40528D
:10175000550B6091DB087091DC088091DD080B2D42
:10176000F60109950E945209472F282FCE010E94A9
:101770005907F2E0EF0EF11C2196D1CFEF92FF92C4
:101780000F931F93CF93DF937C01809111010E94EF
:101790001806C82F192F6091DE086695669521E01E
:1017A000620F08F46FEF8091D6089091D7080E94DD
:1017B0004809082FD0E0C11748F081E0113208F045
:1017C00080E0CDB7DEB7E6E00C94E42CFE01EA5CE5
:1017D000F84F808190911201892389F06091DB0894
:1017E0007091DC088091DD08202F4C2FF7010995BE
:1017F0000E945209472F282FCE010E945907219697
:10180000DACFB0E0A0E0E7E0FCE00C94C42C182FA5
:1018100080910B0181133EC09091DA089370209162
:101820000A0130E081E09217130609F480E081702C
:10183000809313018091DF0890911201981739F07D
:101840008093120140E060E080E00E9456071A3168
:1018500008F0CBC1E12FF0E0E05DF34F0C94AF2C2A
:101860004C0C570C960CCD0C060D430D480D4B0D32
:101870004E0D530D560D5B0D5E0D610D640D670D24
:101880006A0D6D0D700DB40DB90DBC0DC90DD40DE3
:10189000DF0DEA0D81E0CBCF809113018823F1F0B9
:1018A00040E060E080E00E94560780E017C0809131
:1018B00011010E941806C82F092F6091DB08709152
:1018C000DC088091DD080E945209F62EE72ED82E02
:1018D000D0E0C017D8F081E0013238F790911101C3
:1018E0009F5F9093110181110CC082E080930C01E5
:1018F00080911301811105C0111103C083E0809311
:101900000C01CDB7DEB7EAE00C94E02CFE01EA5CF6
:10191000F84F808190911201892331F02D2D4E2DA9
:101920006F2DCE010E9459072196D3CF80911101CE
:101930000E941806C82F092FE090DC08F090DD08FF
:10194000D091DB086D2F7E2D8F2D0E945209D62E4F
:10195000C72EB82E6091DE086D0F7E2D8F2D0E9450
:101960005209F62EE72EA82ED0E0C01708F0B3CF0C
:10197000FE01EA5CF84F908180911201892359F0B1
:101980002A2D4E2D6F2D90FD03C02B2D4C2D6D2D2E
:10199000CE010E9459072196E8CF809111010E9443
:1019A0001806F92EE090DC08D090DD082091DE08C2
:1019B00000E4029F012D1124C82FD0E0CF1530F094
:1019C00081E030E23F1508F089CF6FCFFE01EA5C7D
:1019D000F84F8081909112018923B1F0FE01EE0F42
:1019E000FF1FE552F94F828D82958F706091DB0861
:1019F000809F600D11247E2D8D2D0E945209472F4E
:101A0000282FCE010E9459072196D8CF809111012D
:101A10000E941806F92EE090DC08D090DD08209195
:101A2000DE0800E4029F012D1124C82FD0E0CF155D
:101A300030F081E090E29F1508F050CF36CFFE01E4
:101A4000EA5CF84F8081909112018923D1F0FE0168
:101A5000EE0FFF1FE552F94F618D069FB001112473
:101A600045E0759567954A95E1F78091DB08680F29
:101A70007E2D8D2D0E945209472F282FCE010E94C6
:101A800059072196D4CF8FE299E00E94BE0B26CF52
:101A90008DE297E0FACF83E097E0F7CF82EF98E00E
:101AA0000E94700B1BCF83ED98E0FACF88EB98E093
:101AB0000E94EE0A13CF8CE998E0FACF81E097E01C
:101AC000E4CF88EF96E0E1CF8FEE96E0DECF81EEB7
:101AD00096E0EECF8BE898E0E3CF87E798E0E8CF99
:101AE000809111010E941806C82FD92E6091DE083E
:101AF000669566958091D6089091D7080E9448090E
:101B0000F82E80E48F0D0E94100990E8C92EC80EAF
:101B10008F2D0E94100920E8B22EB80ED0E0CD150E
:101B200030F081E090E29D1508F0D8CEBECEFE01E7
:101B3000EA5CF84F808190911201892399F06091BD
:101B4000DB087091DC088091DD08EF2C0C2F2B2D29
:101B50004C2D0E9412080E945209472F282FCE01B7
:101B60000E9459072196DBCF8AED96E00E94830AF6
:101B7000B5CE83ED96E0FACF8091E20821E0382FD0
:101B8000321B08F430E0832F6AEB76E00E94DC0918
:101B9000A5CE8091E20821E0382F321B08F430E016
:101BA000832F61E876E0F2CF8091E20821E0382FC0
:101BB000321B08F430E0832F6FE476E0E7CF8091AA
:101BC000E20821E0382F321B08F430E0832F67E36E
:101BD00076E0DCCF8091E20821E0382F321B08F458
:101BE00030E0832F61E276E0D1CF809111018F5FE9
:101BF000809311017ACE80E00895F894E82FE29561
:101C0000EF70F0E031A1282F2F7081E090E001C04B
:101C1000880F2A95EAF7982F9095932391A392A184
:101C2000892B82A3789408959091800892FF10C028
:101C300041E0282F2471243009F040E031E0282FC2
:101C40002871283009F030E0431711F02CE082278A
:101C500093FF10C041E0282F2471243109F040E0A7
:101C600031E0282F2871283109F030E0431711F0B6
:101C70002CE082273091810830FF10C051E0282FDE
:101C80002171213009F050E041E0282F28712830DF
:101C900009F040E0541711F029E0822731FF10C00D
:101CA00041E0282F2171213109F040E031E0282F57
:101CB0002871283109F030E0431711F029E082271C
:101CC00094FD877E089582389105B9F1B0F481338F
:101CD000910509F47DC048F48932910509F46DC07D
:101CE0008A32910509F479C008958533910509F484
:101CF0005FC08933910509F10895833E9105D9F1BB
:101D000038F4803E910529F1823E910579F10895DC
:101D1000863E9105D9F1873E910509F43EC0843E87
:101D2000910541F52091810821FF24C08091800810
:101D300084FD19C087EE90E00895209180082370FB
:101D400009F056C02091810823FF14C089E290E079
:101D500008952091800820FD38C03091810830FF1F
:101D600009C024FF3FC090E080E0089520918008E2
:101D700022FDF7CF08952091800822FD36C03091D2
:101D8000810830FD35C024FDEECFF4CF20918008CE
:101D900023FFF0CF24FDE7CFCDCF2091800823FD96
:101DA0002AC03091810831FFEECF84EE90E0089593
:101DB0002091800825FDCACF08952091800825FD37
:101DC0001DC02091810823FFD5CF89E390E00895BD
:101DD0002091800826FD15C008952091800826FDD9
:101DE00013C0089583EE90E0089582EE90E0089588
:101DF00080EE90E0089586EE90E0089585E390E00F
:101E000008958AE290E0089581E390E0B3CF1F93B4
:101E1000CF93DF930E94630EEC01C11580E5D807D4
:101E2000E8F5C11580E4D80708F09BC0C03ED10595
:101E300018F5CD3CD10508F081C0C83AD10570F441
:101E4000C53AD10508F072C0C130D10511F118F0C2
:101E5000C430D105F0F4D0E0C0E01BC0C33CD105D4
:101E6000D0F7C85AD0E0CC0FDD1FCC57D94F09901E
:101E7000D881C02DD4640DC0C11580E2D80708F008
:101E8000CBC0C11581E0D80708F05AC0C83ED105C3
:101E900010F7CE01DF91CF911F910895C03682E5F2
:101EA000D80718F5C03482E5D80708F069C0C032F9
:101EB00082E5D80708F05DC0C11582E5D80708F4AF
:101EC00093C02C2F2695269580E2289F90011124FF
:101ED0008C2F8370C1E0D0E002C0CC0FDD1F8A954B
:101EE000E2F7C22BD32BDD68D4CFC03A82E5D80706
:101EF00060F4C03882E5D80708F457C0CF71D0E04D
:101F0000DC2FCC27C46FD06AC4CFC03C82E5D80791
:101F100008F45EC0C03E82E5D80708F09CCFDC2FF5
:101F2000CC27CC27DF71C06FD06AB3CFC55AD0E0C1
:101F3000CF57D94FC881D0E0D064ABCFD065A9CFFF
:101F40008D2F0E94140E182FCE0199270E94630E28
:101F5000C12FD0E0DC2FCC27CC27DF71C82BD92BA9
:101F600098CFCE0199270E94630ECC27DF70D06AEC
:101F7000F5CFCF71D0E0DC2FCC27C16FD06A89CFED
:101F80002C2F26952695277080E2289F90011124FA
:101F90008C2F8370C1E0D0E002C0CC0FDD1F8A958A
:101FA000E2F7DC68C22BD32B74CF2C2F2695269515
:101FB000277080E2289F900111248C2F8370C1E04C
:101FC000D0E002C0CC0FDD1F8A95E2F7DA68EACFD5
:101FD0008C2F8F710E94140EC82FD0E0DC2FCC27DD
:101FE000CC27DF71D06255CF8C2F8F710E94140ED9
:101FF00055E0D695C7955A95E1F7CF70D0E0DC2F24
:10200000CC27282F30E084FF05C044E0220F331F87
:102010004A95E1F7D069C6CF8D2F8F710E94140EBB
:10202000182FCE0199270E94630EC12FD0E0DC2F1C
:10203000CC27CC27DF71906291CF982F909580911B
:10204000C20789238093C20708958091C2079091A7
:102050009907892B90919807992391F0892B90915A
:102060000F01913071F49091800897FF0AC09EE1B2
:10207000E4E6F7E020E0915040F421111092980737
:10208000089596E0ECE5F7E0F5CF3191332399F32D
:102090002F5FF1CF8091D50890919C08981301C0D3
:1020A00008958F5F8770FACF292F953078F58530A6
:1020B00068F590E035E0239F800D911D1124682F75
:1020C000677023E0969587952A95E1F7FC01EE0F5E
:1020D000FF1FE80FF91FEC57F84F50E040E080E099
:1020E000219130E0062E02C0369527950A94E2F73A
:1020F00021703327042E01C0220F0A94EAF7822BA5
:102100004F5F5F4F4330510559F7089580E00895C0
:10211000292F953098F5853088F590E035E0239F9C
:10212000800D911D1124282F277041E001C0440F1C
:102130002A95EAF723E0969587952A95E1F7FC0121
:10214000EE0FFF1FE80FF91FEC57F84F30E020E0CB
:1021500070E05191DF011197CB01022E02C09695DC
:1021600087950A94E2F781708195852784238527D6
:102170008C932F5F3F4F2330310559F7089580939B
:10218000070808959091070821E030E0F90101C0A7
:10219000EE0F8A95EAF7D90102C0AA0FBB1F6A9514
:1021A000E2F7EA2B01C0220F4A95EAF7892F8E2326
:1021B000E81305C0292B822F0E94BF100895209597
:1021C0002923F9CF21E030E001C0220F8A95EAF7F8
:1021D00020958091070882230E94BF100895909156
:1021E00097078095892380939707282F277069F494
:1021F000891759F09091810892FF07C086958695BE
:1022000086950E94E21010929707089521E030E031
:1022100001C0220F8A95EAF780910708822B0E945D
:10222000BF1008958093CD070895662309F45DC01B
:102230008D3C41F40E948D058195809377080E9422
:10224000410508958E3C19F40E948D05F6CF8F3C10
:1022500031F40E948D05819580937608F0CF803D02
:1022600019F40E948D05F8CF893D29F40E946B0571
:1022700080937808E4CF8A3D21F40E946B05819514
:10228000F7CF8B3D31F40E946B05819580937908DF
:10229000D6CF8C3D19F40E946B05F8CF9FE2980FC2
:1022A000983070F4815D990B21E030E001C0220F7D
:1022B0008A95EAF780917508822B80937508BFCFC5
:1022C0008D3D31F480916F08816080936F08B7CFA6
:1022D0008E3D21F480916F088260F7CF8F3D09F029
:1022E000AECF80916F088460F0CF8D3CD9F490918F
:1022F000770897FF1DC010927708809176088111AA
:1023000006C080917708811102C010926D088091FB
:102310007808811194CF80917908811190CF109223
:102320006E088DCF8E3CD9F49091770819161CF366
:102330009FE2980F983008F03FC0815D990B21E033
:1023400030E0A90102C0440F551F8A95E2F7CA0187
:10235000809590917508892380937508CECF9091D0
:1023600076088F3C29F497FFE3CF10927608C5CF0B
:10237000803D19F41916CCF3DBCF90917808893D94
:1023800029F41916ACF610927808B7CF8A3D19F4E3
:1023900097FFCECFF8CF8B3D39F49091790897FF16
:1023A000C7CF10927908A9CF8C3D09F0C1CF909189
:1023B00079081916B4F3BCCF8D3D31F480916F08C4
:1023C0008E7F80936F0899CF8E3D21F480916F08A6
:1023D0008D7FF7CF8F3D09F090CF80916F088B7F75
:1023E000F0CF982F92959F7020E011F0892F24E074
:1023F000982F9695969511F02E5F892F982F969588
:1024000009F02F5F822F08950F931F93CF93DF93CF
:102410008B01EA0190919208943061F58093E90074
:102420008FEF9091E800815095FD06C095ED9A954B
:10243000F1F700008111F5CF8091E80085FF1AC007
:102440000E943403811111C08091E80085FD06C00F
:102450008091E8008E778093E800F2CFF8018191B7
:102460008F018093F100219779F78091E8008E77B2
:102470008093E800DF91CF911F910F91089543E081
:1024800050E0BC0184E00E940412089546E050E050
:10249000BC0184E00E940412089540E250E0BC01B7
:1024A00084E00E9404120895CF93DF93EC0148E08A
:1024B00050E0BC0181E00E94041288E0FE01A8E81F
:1024C000B8E001900D928A95E1F7DF91CF910895E0
:1024D00081E08093E00080E28093D8001092C900F0
:1024E0008FE19EE40197F1F700C0000087E090EBD8
:1024F000DC0180930E0990930F09A0931009B0930B
:10250000110988E19CE00FB6F894A89580936000CB
:102510000FBE90936000FFCF8BB18F7D9BB1906217
:102520002FB7F894EAE0F8E038E0ED36F30741F42D
:102530002FBF8FE594E00197F1F700C000000895E8
:10254000319148E09BB9000000C037FF8BB9330FD1
:10255000000000C000C000C08BB900C04A9591F7D0
:10256000E3CFCF93C82F6FEF811165E284E290E053
:102570000E94442C6FEFC11161E085E290E00E945F
:10258000442C6FEFC11169E186E290E00E94442C77
:10259000CF910895CF93DF93C4E5D1E060E0CE0101
:1025A0000E94442C2196C11584E0D807B9F7DF9129
:1025B000CF9108951F93CF93DF93962F8630E8F441
:1025C0006530D8F44530C8F4632F122FC42FD0E003
:1025D000CC0FDD1F2AE0929FC00DD11D112492E384
:1025E000899FC00DD11D1124CE0188960E94442CD4
:1025F000612FCE0189960E94442CDF91CF911F91CB
:102600000895B0E0A0E0E7E0F3E10C94C62CF12CD3
:10261000E12CC12C8701D12C18C0FE01E00FF11F65
:10262000EE0FFF1FE650FD4F259134914C2F6D2D7D
:102630008C2D0E94DA122196C530D10571F70B5FFF
:102640001F4FD39485E0D81619F0D0E0C0E0E5CF55
:10265000C39489E1E80EF11C86E0C812DBCFCDB748
:10266000DEB7E8E00C94E22C80E00E94B11260E05A
:1026700087E290E00E94442C0E9401130E94CA123B
:1026800081E00E94B112089584E290E00E94262C1D
:10269000853289F485E290E00E94262C813059F43D
:1026A00086E290E00E94262C91E0893109F090E0CA
:1026B000892F8170089580E0FCCF0F931F93CF93F3
:1026C000DF93863030F5653020F5453010F5C42FA6
:1026D000D0E0CC0FDD1F2AE0629FC00DD11D112478
:1026E00032E3839FC00DD11D1124CE0188960E9434
:1026F000262C082F10E0102F0027CE0189960E946B
:10270000262C9801282BC901DF91CF911F910F91A1
:10271000089590E080E0F8CF753048F4653038F4E3
:10272000863028F4462F672F0E945D13089590E0AD
:1027300080E00895CF92DF92FF920F931F93CF9383
:10274000DF936C01009107088091CD07082BC5E04D
:10275000D0E010E0FC2EC8010C2E02C095958795A4
:102760000A94E2F780FD0CC02197A0F7F12C8F2D81
:10277000DF91CF911F910F91FF90DF90CF9008953F
:10278000B6018C2F0E948C130E94070F019761F3F2
:10279000EECFCF93DF93EC010E949A13BE010E940B
:1027A0008C130E94070FDF91CF910895FC012481C3
:1027B0002223B9F0808191810E94C91392959F7064
:1027C000963089F050F49250923058F4803F19F0CE
:1027D00030F4883E30F481E008959A50F5CF843F7C
:1027E000D1F380E00895883EB0F3813FD1F7F3CF75
:1027F000A6E0B0E0EEEFF3E10C94CB2C49835A83D2
:1028000049815A819923A1F0222391F0CA010E94A3
:102810009A13182F682F89819A810E9488106981E4
:102820007A81812F0E948C132696E3E00C94E72C8A
:10283000CA010E945410182FF2CF48E050E067E11F
:1028400070E08AED98E00E94342C109209080895F7
:10285000B0E0A0E0EEE2F4E10C94C22C4091030859
:102860005091040860910508709106082FB7F894FC
:102870008091830890918408A0918508B091860882
:102880002FBF841B950BA60BB70B2FB7F894C090E6
:102890008308D0908408E0908508F09086082FBFC8
:1028A000C0920308D0920408E0920508F09206084E
:1028B0001091DA07EAEDF7E0212F30E04FEF5FEFFC
:1028C00060E070E0481B590B6A0B7B0B13131FC0B1
:1028D0002093DA0780910808811108C0C091DA08B6
:1028E0008C2F8370C695C695811101C0C0E0809180
:1028F0000C018130B1F1F0F0823009F4D6C08330A0
:1029000009F4DEC0CDB7DEB7ECE00C94DE2CC18D4F
:10291000D28D4E01B12CA12C481559056A057B05B5
:1029200020F421503F5F3296D1CFC80FD91FD28FEC
:10293000C18FF8CF10921101C092D608D092D7085B
:10294000E092D808F092D90889E2EAEDF7E0A2EE29
:10295000B8E001900D928A95E1F781E080930C0137
:10296000D1CF8C2F0E94010CCC2361F280911101F8
:1029700081500E941806E92EF82E10911401D09172
:102980001601809107080E94F111C82F8230B1F121
:1029900030F4882329F1813051F170E007C0843090
:1029A000D9F198F1709115018530B9F7612F8D2F0C
:1029B0000E945209D62F172F082FFE1408F0A2CF1D
:1029C000C23009F466C078F5CC2309F453C0C13095
:1029D00009F459C040E060E080E00E94560751C011
:1029E0001091170170911801D0911901DFCF10914A
:1029F0001A0170911B01D0911C01D8CF10911D01BB
:102A000070911E01D0911F01D1CF109120017091C2
:102A10002101D0912201CACF10912301709124018C
:102A2000D0912501C3CFC430F9F0C8F1C53091F67B
:102A3000202F412F6D2F84E190E00E945907202F15
:102A4000412F6D2F85E190E00E945907202F412FE3
:102A50006D2F86E190E00E945907202F412F6D2FA6
:102A600087E190E00E945907202F412F6D2F88E1C8
:102A700090E005C0202F412F6D2F84E190E00E944F
:102A80005907F3949ACF202F412F6D2F85E190E0C5
:102A9000F6CF202F412F6D2F86E190E0F0CF202F31
:102AA000412F6D2F87E190E0EACFC0930B01809119
:102AB000DA08837080930A010E948C1283E04ECF63
:102AC0008091090881110E941D144091D6085091EF
:102AD000D7086091D8087091D9082FB7F8948091E1
:102AE000830890918408A0918508B09186082FBF33
:102AF000841B950BA60BB70B4097A105B10508F4F5
:102B000001CF10920C01FECE9091810892FB2227FA
:102B100020F9281779F080FB92F990938108609151
:102B200080087091810884E090E00E94622C82E02D
:102B30000E94EF100895A5E0B0E0E1EAF5E10C9401
:102B4000C12C8E010F5F1F4F85E0F80111928A950D
:102B5000E9F78AEBE82E86E0F82E6801AA24A39410
:102B6000B12C24EC822E26E0922EF70181917F0178
:102B70008F3F09F440C0F894E82FE295EF70F0E041
:102B800021A18F70A50102C0440F551F8A95E2F75D
:102B9000CA01922F982B91A392A18095892382A399
:102BA000789400C0EFEBF6E0712C31E021912F3FDB
:102BB00009F44AC0A22FA295AF70B0E090968C9114
:102BC00090E02F7002C0959587952A95E2F780FDD9
:102BD0003BC0832F782A330F8E169F0639F7F701F3
:102BE000319780818F3F11F00E94FD0D50EA5A9578
:102BF000F1F7F6017082FFEFCF1ADF0A4FEBE41610
:102C000046E0F40609F0B1CF45E050E0B80188ECA9
:102C100097E00E94302D892BD9F085E0F801A8ECCF
:102C2000B7E001900D928A95E1F781E08093C707A4
:102C30000E947D049093C6078093C50710E0812F02
:102C40002596EDE00C94DD2C80E0C4CF10E01FC091
:102C50001091C707112391F38091C5079091C60782
:102C60000E946E04059750F345E050E068EC77E071
:102C700085ED97E00E94302D892B41F385E0E8EC4B
:102C8000F7E0A5EDB7E001900D928A95E1F710927B
:102C9000C707D5CF80910F01813059F58091800809
:102CA00087FF27C00E9425108093630740E250E011
:102CB0006AE977E082E697E00E94302D892BC1F027
:102CC00080E2E2E6F7E0AAE9B7E001900D928A958A
:102CD000E1F7E0917C08F0917D08309749F086E0BB
:102CE000809362070480F581E02D82E697E00995E4
:102CF00008950E94251080935A0748E050E06AEB3F
:102D000077E08AE597E00E94302D892B89F388E0EF
:102D1000EAE5F7E0AAEBB7E001900D928A95E1F7BA
:102D2000E0917C08F0917D08309711F30280F381E7
:102D3000E02D8AE597E0DBCF1092C20780910F016A
:102D4000813039F58091800887FF23C0E4E6F7E001
:102D50008EE1DF011D928A95E9F790E080E00E9404
:102D60000F0590E080E00E94EA04109299070E940B
:102D70004A1686E0E4E7F8E0DF011D928A95E9F75C
:102D800010926D0810926E0810926F080E94410513
:102D90000895ECE5F7E086E0DCCFAAE2B0E0E3EDF1
:102DA000F6E10C94CB2CE4E9F8E08091F1008193FA
:102DB00088E0EC39F807C9F780919508833009F469
:102DC0007FC008F5813009F456C0823009F4C4C0D0
:102DD0008091E80083FFFEC080919408909195084F
:102DE0009A3008F0F7C0E92FF0E0E750F94E0C9464
:102DF000AF2CBD17E317EA17E317EA173B185D1866
:102E0000EA175C1969198A3009F495C08B3009F406
:102E100074C08930E9F6809194088132C9F68091B6
:102E2000980890919908009711F0029789F680917F
:102E3000E800877F8093E8008091E80082FF3BC034
:102E40008091F3009091F2008927982789270297B3
:102E500031F48091F100813011F0863021F48091BD
:102E6000F10080930E018091E8008B778093E80059
:102E70000E946303ADCF80919408813A09F0A8CFF6
:102E80008091E800877F8093E80080919808909176
:102E90009908892B61F060E090E080E070E00E948A
:102EA0000F048091E8008B778093E80091CF68E071
:102EB00088E898E0F3CF809192088111BDCF88CF48
:102EC00080919408813A09F083CF8091980890917D
:102ED0009908892B09F07CCF8091E800877F809347
:102EE000E8008091E80080FFFCCF80910F01809383
:102EF000F1008091E8008E77B9CF809194088132FB
:102F000009F066CF8091980890919908892B09F073
:102F10005FCF8091E800877F8093E8000E94630381
:102F200081E090919608911101C080E080930F019B
:102F30000E949C164DCF80919408813209F048CFB1
:102F40008091E800877F8093E8000E94630380916E
:102F5000970880930D013CCF80919408813A09F045
:102F600037CF8091E800877F8093E8008091E80068
:102F700080FFFCCF80910D01BACF803889F0823874
:102F800049F5809198088F70873020F58093E9008B
:102F90008091EB0085FB882780F91092E90006C03C
:102FA0008091900890919108911182609091E80031
:102FB000977F9093E8008093F1001092F100809148
:102FC000E8008E7727C0282F2D7F21F48823A1F0D9
:102FD000823029F18091E80083FF0AC08091E800E7
:102FE000877F8093E8008091EB0080628093EB0004
:102FF000AA96E3E00C94E72C80919608813051F773
:10300000933009F080E0809391081092E90080915C
:10301000E800877F8093E8000E946303DBCF809104
:1030200096088111F2CF809198088F702FEF280FAA
:10303000263080F68093E9002091EB0020FFE5CF59
:10304000933031F48091EB0080628093EB00DDCF10
:103050009091EB0090619093EB0021E030E001C093
:10306000220F8A95EAF72093EA001092EA008091F5
:10307000EB008860EACF8111ADCF109196081F77E1
:103080008091E3008078812B8093E3008091E800B9
:10309000877F8093E8000E9463038091E80080FFAF
:1030A000FCCF8091E30080688093E30083E01111FE
:1030B00001C082E0809392088DCF8058823008F062
:1030C00089CF20919608309197082C3DA3E03A07CC
:1030D000A1F583E08A838AE289834FB7F894DE0101
:1030E000139620E03EE051E2E32FF0E050935700CA
:1030F000E49120FF03C0E295EF703F5FEF708E2FE9
:1031000090E0EA30C0F0C7968D939D932F5F2431F5
:1031100059F74FBF8091E800877F8093E8006AE20B
:1031200070E0CE0101960E940F048091E8008B7739
:103130008093E8004FCFC096E7CF80919808909198
:103140009908432F55274330510509F44FC078F5AE
:103150004130510509F445C08BE590E0E6E2F4E02A
:103160004230510509F036CF2091E800277F2093A7
:10317000E80020919A0830919B088217930708F481
:103180009C0140E02115310509F063C0411161C087
:103190008091E80082FDC9CF80919208882329F2AE
:1031A000853019F28091E80083FFF2CFBECF413223
:1031B000510509F43FC04232510509F00BCF83306D
:1031C000910508F007CFFC01EE0FFF1FE153F94F07
:1031D0000190F081E02D8453994FDC018C9190E0B7
:1031E0001DC082E190E0E1E8F4E0BECF332721305A
:1031F0003105C1F060F02230310509F0EBCEE3E992
:10320000F4E0E4918E2F90E0E3E9F4E007C0E3EC12
:10321000F4E0E4918E2F90E0E3ECF4E0009709F401
:10322000D9CEA2CFE7EAF4E0E4918E2F90E0E7EA6E
:10323000F4E0F4CF8330910508F0CCCE880F991FCD
:10324000FC01EB52F94F0190F081E02D89E090E014
:103250008BCF80919208882309F467CF853009F4D9
:1032600064CF8091E80083FD60CF8091E80082FD0B
:103270008FCF8091E80080FF85CF8091F3009091FF
:10328000F2008927982789272115310519F0883000
:10329000910550F041E0089709F040E08091E80086
:1032A0008E778093E8006ECF44914093F100319681
:1032B000215031090196E8CF803809F08BCE8091FA
:1032C000E800877F8093E800809193088093F10065
:1032D00076CE81117FCE10919608123008F07ACE0A
:1032E0008091E800877F8093E800109393080E9404
:1032F00063031123F9F084E08093920842E061ECCB
:1033000081E00E94820342E261EC84E00E94820339
:1033100042E261EC82E00E94820342E260EC83E0E0
:103320000E94820380919208843051F482E080935D
:10333000100150CE8091E30087FDDDCF81E0DCCF2E
:1033400081E0F5CF0E949C162FEF84E39CE0215092
:1033500080409040E1F700C0000088E19CE00FB69B
:10336000F894A895809360000FBE90936000FFCF03
:10337000882321F00E941D100E944A160895882378
:1033800039F09091C207892B8093C2070E944A1698
:103390000895882381F19CEF980F913A28F40E94B8
:1033A0008C040E944A16089590E2980F983050F4C9
:1033B000877091E001C0990F8A95EAF7892F0E94E2
:1033C0001D10EFCF9BE5980F933028F490E080E03C
:1033D0000E940F05089598E5980F9B3128F490E01E
:1033E00080E00E94EA04089593E3980F933118F463
:1033F00060E00E9415110895CF938823C1F1C82F72
:103400008CEF8C0F813AA8F580910F01813001F586
:103410008091800887FF1CC0EC2FE695E695E69525
:10342000F0E0EE59F84F828190E04C2F477021E098
:1034300030E002C0220F331F4A95E2F78223932324
:10344000892B81F08C2F0E948C040E944A160AC09E
:10345000ECE5F7E082E697E02191C21799F38E1729
:103460009F07D1F78C2F0E94B6040E944A16CF9175
:10347000089580E28C0F883068F4C77021E030E056
:1034800001C0220FCA95EAF78091C207822B809370
:10349000C207EBCFEBE5EC0FE33040F4F0E0EF5781
:1034A000F94F808190E00E940F05E1CFE8E5EC0F35
:1034B000EB3150F4F0E0EE0FFF1FEC57F94F808135
:1034C00091810E94EA04D3CF83E38C0F833178F695
:1034D00061E08C2F0E941511CACF1F93CF93DF9309
:1034E000182FEB010E94FC19209739F4812F0E94BC
:1034F000C919DF91CF911F9108958FE99FE001973E
:10350000F1F700C000002197EFCF70E060E0893351
:1035100011F460E570E00E946D1A0895B0E0A0E03B
:10352000E4E9FAE10C94C72CE82FF0E0E950FB4FF6
:10353000D490282F26952695269530E0F901E9515B
:10354000FB4F0491877010E0082E02C01595079577
:103550000A94E2F701701127F901E952FB4FE49058
:10356000F12C082E02C0F594E7940A94E2F791E05A
:10357000E922FF24F901E953FB4FC491D0E002C0D6
:10358000D595C7958A95E2F7C170DD27011511051C
:1035900019F081EE0E94FC19E114F10419F086EE95
:1035A0000E94FC1970E060E08D2D0E946D1AE114FC
:1035B000F10419F086EE0E94C9190115110519F0E0
:1035C00081EE0E94C919CD2B19F08CE20E94851A58
:1035D000CDB7DEB7E7E00C94E32CEF92FF921F9398
:1035E000CF93DF93EC011AE08881882309F44CC063
:1035F000813009F046C08981813051F47E0182E03A
:10360000E80EF11C8A810E94851AE7012196ECCF11
:10361000823041F47E01E2E0EE0EF11C8A810E94CC
:10362000FC19F3CF833041F47E01F2E0EF0EF11C80
:103630008A810E94C919E9CF843011F02196E6CF22
:103640002A81229690E080E0AE014F5F5F4F2053C9
:10365000330B2A30310550F00097C1F2EFE9FFE05B
:103660003197F1F700C000000197F6CF189FB00125
:10367000199F700D1124C901860F971F2981EA0136
:10368000E3CF0E948E1AC2CFDF91CF911F91FF909E
:10369000EF900895FF920F931F93CF93DF938C01C8
:1036A0008AE0F82EF8018491882309F44CC0813017
:1036B00009F045C0E8012196FE018491813049F46A
:1036C0002196FE0184910E94851A8E010F5F1F4F83
:1036D000E9CF823039F4E8012296FE0184910E94FC
:1036E000FC19F3CF833039F4E8012296FE0184916E
:1036F0000E94C919EACF843041F7E8012296FE0101
:10370000249190E080E0FE0131962053330B2A3063
:10371000310550F00097C9F2EFE9FFE03197F1F77A
:1037200000C000000197F6CFF89EA001F99E500D51
:103730001124C901840F951F2491EF01E4CF0E9449
:103740008E1AE801C2CFCDB7DEB7E5E00C94E52CC8
:103750000F931F93CF93DF93C62FD42F122FFC010B
:1037600085818823A9F060930D090E947D049093C0
:103770000C0980930B09C77081E001C0880FCA95BE
:10378000EAF70E94BF19DF91CF911F910F91089521
:1037900080910D09681332C080910B0990910C093A
:1037A0000E946E04883C910548F500E20D0FCD178C
:1037B000B9F080E28C0F883040F4C77081E001C01E
:1037C000880FCA95EAF70E94B8190830F0F481E032
:1037D0009D2F977001C0880F9A95EAF70E94BF1934
:1037E000812F0E94851A083070F6D77081E001C0E1
:1037F000880FDA95EAF70E94B819C5CFC77081E043
:1038000001C0880FCA95EAF7F6CF812F0E94851A6A
:10381000BACFA0E2B0E0EFE0FCE10C94C02CFC01D8
:103820008481882309F49EC08F0121E04081518169
:103830006281738195810E94F8137C01F801858172
:10384000882309F4BDC5C70197578038910508F052
:103850008DC0FFE0FE1508F476C08FEF93E00E9464
:10386000262C811170C064E5C62EDD24D394E110AE
:1038700034C0FE0131964F0188E011928A95E9F734
:103880007601FFEFEF1AFF0AC6010E94262C8983FA
:103890001A82882309F457C08130D1F4560122E0FE
:1038A000A20EB11CC7010E94262C8A83882309F42A
:1038B0004AC09FEF980F9330F0F4760183E0E80E52
:1038C000F11CC5010E94262C8B838823E1F11C8208
:1038D000C4010E94ED1A6701D3CFC11424E0D206BF
:1038E00091F1C6010E94262C811101C0EA948FEF4C
:1038F000C81AD80ABCCF7501843051F73E0193E055
:10390000690E711C52E0C52ED12C7501EFEFEE1A35
:10391000FE0AC5010E94262CF30181933F018823F2
:1039200091F08C3741F4E2E0F0E0EC0FFD1FEC0D7C
:10393000FD1D1082CDCFFFEFCF1ADF0A570127E020
:10394000C216D10411F780919707877059F0F801DA
:103950008581882339F08091810882FF03C082E04D
:103960000E94EF10A096EEE00C94DC2C82E0E816AA
:103970008EE7F80609F489C0B8F5E114EEE7FE0613
:1039800009F47EC08BED91E0F1E0EF16FEE7FF0653
:1039900009F478C0F0E2EF16F8E7FF0609F016C563
:1039A000F8018581882379F08091DF088F3F09F045
:1039B000AAC01092DF0881E00E945C0740E060E04E
:1039C00080E00E9456078091DA08837009F0BBCF2F
:1039D0008FEF8093DF0881E00E945C070E940B0656
:1039E00081E00E945C07AFCF22E8E2162EE7F206E4
:1039F00088F60E94340581FBBB24B0F8E5E8F4E0CA
:103A000090E080E020813181E216F30609F074C075
:103A1000880F991F880F991FFC01EB57FB4F62819C
:103A20007381CE0101966C01C70183509E478A3590
:103A3000910570F57F936F9389E291E09F938F9347
:103A40008DE291E09F938F931F9280E28F93DF929C
:103A5000CF920E94462D0FB6F894DEBF0FBECDBFA9
:103A6000BB2031F05601F501E1905F01E1102DC05E
:103A7000C6010E94ED1A80E491E00E94ED1A63CF26
:103A80008CEE91E00E944A1B5ECF88EC91E0FACF69
:103A9000C70183579E47059728F47F936F9382E36E
:103AA00091E0CCCF98E7E91A9EE7F90AEAE0EE1632
:103AB000F10428F47F936F9389E391E0BFCF40E254
:103AC00050E0C6010E94022CCBCFF12CC7010E940E
:103AD000192D892B39F0C7010E94282DF501319746
:103AE0008083C1CFC7010E94152D892B09F4BBCF5C
:103AF000C7010E94202DF2CF019634968F37910591
:103B000009F080CF47CF8FEF8093DF0881E00E94DC
:103B10005C0759CF26E241EE61EEC8010E94A81B66
:103B200012CF27E245EE65EEF8CF26E241EE60EED9
:103B3000F4CF27E245EE64EEF0CF26E241EE62EEEE
:103B4000ECCF27E245EE66EEE8CF28E241E0EBCF8E
:103B5000F8019581992309F465C410920D09970124
:103B600030572332310508F04AC484E090E00E94C7
:103B70002E2C9093810880938008F701E150F04744
:103B8000E232F10508F026C0E853F24E0C94AF2C57
:103B9000241E991E2C1EF61DFA1D301EFE1D341EFD
:103BA000401E0A1E921E0E1E441E121E481E701E2D
:103BB000161E4C1E771E1C1E521E5A1E021E381E3A
:103BC000061E3C1E201E561E661E801E901EF01DE8
:103BD000281EA01E8091800881608093800895C077
:103BE000809181088860809381088FC080918008CF
:103BF0008260F3CF809180088460EFCF809180084D
:103C00008860EBCF809181088160EDCF8091810841
:103C10008260E9CF809180088061DFCF8091800849
:103C20008062DBCF809180088064D7CF0E949C1691
:103C3000809180088068D1CF809180088860DCCF37
:103C4000809181088260E0CF809180088E7FC5CF0F
:103C500080918108877FC7CF809180088D7FBDCFFD
:103C6000809180088B7FB9CF80918008877FB5CF06
:103C7000809181088E7FB7CF809181088D7FB3CFEF
:103C8000809180088F7EA9CF809180088F7DA5CFFD
:103C9000809180088F7BA1CF0E949C168091800824
:103CA0008F779BCF80918008877FDCCF80918108C0
:103CB0008D7FE0CF8091800882FB992790F921E0E9
:103CC000922790FB82F990FB83F987CF809181083E
:103CD000982F909591708E7F892B90FB81F983CFDF
:103CE00090918008892F8F7B96FF806476CF0E9409
:103CF0009C1690918008892F97FB87F980586DCF8B
:103D000061E08EE090E00E94442C60918008709108
:103D1000810884E090E00E94622C0E949C1613CEE1
:103D200060E0EFCF90918008892F8F7E94FF8061B3
:103D300054CF90918008892F8E7F90FF81604DCF66
:103D400090918108892F877F93FF88604CCF89E20B
:103D50000E94B6040E944A16F6CD89E20E948C04A5
:103D6000F9CF8272F701E052F847EB30F10508F025
:103D700079C3E354F14E0C94AF2CC81ECC1EE81E40
:103D8000D11EED1ED61EF21EDB1EF71EE01EFC1E0F
:103D900081E00E940708D7CD8823E1F00E94F00758
:103DA000D2CD8823E1F00E94C307CDCD8823E1F076
:103DB0000E94A707C8CD8823E1F00E948B07C3CDDE
:103DC0008823E1F00E946207BECD0E94FF0508CE65
:103DD000882321F30E94FB07B6CD882321F30E949C
:103DE000CE07B1CD882321F30E94B507ACCD88233F
:103DF00021F30E949907A7CD882321F30E946E0723
:103E0000A2CDF7E7EF16FCE7FF0649F128E7E21637
:103E10002CE7F20641F19701205E32452032310550
:103E200020F5911137C0EE2DEF7181E090E07C011B
:103E300002C0EE0CFF1CEA95E2F76E2D83E090E0E5
:103E40000E94442C8E2D0E9412117DCD81E00E9493
:103E5000061143E062E081E00E94C21074CD81E06F
:103E60000E94E210F6CF82E0FBCF992399F083E025
:103E7000E8168CE7F80609F489C008F068C0E11478
:103E8000ECE7FE0609F475C0F1E0EF16FCE7FF066B
:103E900009F482C0F8018581E080F180882309F46B
:103EA00089C0C7010E949A13D82E682FC7010E94AB
:103EB0008810B7018D2D0E948C130E94070F7C0182
:103EC000982EF801B580A680A2943FE0A3228091AD
:103ED0009707877009F1CB2CBB20F9F08F2D807FDD
:103EE000803469F080E28E0D8830B0F08F2D807EB6
:103EF000803229F4F1E0FE1578F4AA2069F080916F
:103F0000810882FF09C082E00E94EF10809197072C
:103F10008770CC24C3948111C12CDF2CD2942FE064
:103F2000D2222BE02D1508F4B5C0ED2DF0E0E556BA
:103F3000F04E0C94AF2CDF1FDF1F1A201A20BB207D
:103F4000DA204A204A20DF204B215E215E212BE52A
:103F5000E2162CE7F20661F18CE5E8168CE7F8062C
:103F6000E9F09AE5E9169CE7F90609F093CF81E0BC
:103F70001CC00E949C16EFEFF4E32CE0E150F040EF
:103F80002040E1F700C000000E9468126FEF7FEF51
:103F900090E080E00E94622C0E94A219809181082A
:103FA00082FB882780F991E089270E94841572CFCF
:103FB00080E0FBCFC7010E945410D82E7ACF8F2DFE
:103FC0008F70D82E8F2D807F19F0D29490EFD92248
:103FD0008E2DBB20B9F0DD2069F090E29E0D983067
:103FE00010F0E11009C08091C207D82AD092C20710
:103FF0000E944A168E2D46C080919907D82AD092E9
:104000009907F6CF0E94C919DD2009F443C080E268
:104010008E0D883010F0911004C08D2D0E941D105F
:1040200006C0D09480919907D822D09299070E9417
:104030004A1630C09F2D9F70D92E8F2D807F8032E1
:1040400019F0D29480EFD8228E2D992059F0E1E01A
:104050009E1609F470C0BB2009F47CC0AA2009F4A4
:104060003FC0C8CF8091810882FD36C0BB2069F077
:10407000DD2039F08091C207D82AD092C2070E9471
:104080004A1680E00E94FC1905C080E00E94C91910
:10409000D110C3CFCC20A9F08091970780FD11C02B
:1040A000F80115828695869586950E940611C801AD
:1040B0000E94091C809197078695869586950E9497
:1040C000E21020E0F8014081518162817381848196
:1040D00095810E94F81346CCBB2099F0A11004C032
:1040E0008D2D0E94BF19D6CFF1E0AF12D3CF8091B2
:1040F00098079D2D9823D91669F2D82AD09298074F
:10410000C9CFA110C7CF8D2D0E94B81990919807E3
:104110008D2D892329F08D2D8095892380939807F3
:10412000809183079D2D982309F4B4CFD094D82291
:10413000D0928307AFCFBB2029F025E02A1508F4E1
:10414000A9CFCECF84E08A1508F4A4CF8D2D0E948C
:10415000B819A0CFAA20D1F3893349F49FEFE7EE35
:10416000F3E09150E040F040E1F700C000008E2DF8
:104170000E94C9198FCF8F2D86958695837041F047
:10418000813079F088EF8D0D843008F083CF42C004
:10419000C7019370B11002C080E090E00E940F054B
:1041A00079CFC7019370B11002C080E090E00E9407
:1041B000EA0470CF6B2D8E2D0E9415116BCF8F2DC1
:1041C000837099F5B11026C04E2D429546954770E3
:1041D000440F440F8E2D8F70042E01C0880F0A9457
:1041E000EAF720E0E4FE07C02FE030E001C0220F34
:1041F0004A95EAF720953F2D369536953370323043
:1042000079F060F44091CD07313039F0822B84236E
:104210000E9412110E9434053DCF842B822BF8CFCF
:10422000282B8091CD078227F3CF8695BB2011F0F4
:104230008F2D8170882371F34E2D429546954770DE
:10424000440F440F8E2D8F70042E01C0880F0A94E6
:10425000EAF720E0E4FE07C02FE030E001C0220FC3
:104260004A95EAF720953F2D3695369533703230D2
:1042700069F050F440910708313029F0822B8423F3
:104280000E94BF10C7CF842B822BFACF282B80919E
:1042900007088227F5CF2F2D2F70F22EBB2039F083
:1042A000822F0E9406118E2D0E94BF19B3CF8E2D32
:1042B0000E94B8198F2D0E94E210ACCF8E2D92EF84
:1042C0009916E1F1991580F0E0EF9E16F1F0F1EF0B
:1042D0009F16A1F0BB2009F45FC0AA2009F459C0C1
:1042E0008E2D0E94FC194ECF23EF921671F194EFA0
:1042F0009912F0CF9091810892FD32C08F2D8F716D
:10430000BB2001F10E9406113DCFBB2091F0E4E0FB
:10431000EA1508F437CF2F2D2F7181E090E001C00E
:10432000880F2A95EAF79091070889270E94BF1005
:1043300029CFF5E0FA1508F425CFEDCF8F2D8F7139
:10434000BB2001F30E94E2101DCF80E0BB2071F37F
:104350009F2D9F7181E001C0880F9A95EAF7E6CF03
:10436000BB2061F08F2D8F7192FFCCCF98E0899F99
:1043700090011124236020939707C4CF81E00E940D
:10438000EF10E1E0EA1508F0FDCE82E00E94EF10A8
:10439000F9CE8F2D8F71B6CFAA2079F0893349F4E9
:1043A000FFEF27EE83E0F15020408040E1F700C0AE
:1043B00000008E2D0E94C919E5CE8F2D8F71C2CFBE
:1043C000F0E2EF16F8E7FF0609F4FDCAF701E8513D
:1043D000FC47E730F10508F0BBCBEF50FE4D0C94E5
:1043E000AF2C951D991D8A1D911D9D1DA11DA51DFB
:1043F00080918207882309F4B0CC85E3AFCC80910B
:10440000C20726E1E2162CE7F20609F0AACC8A7A66
:1044100091E009F490E090938207882309F497CC07
:1044200085E396CC86E1E8168CE7F80609F38091DF
:10443000C2078272F701E054F847ED30F10508F049
:10444000E0CCEB5DFD4D0C94AF2CEE1CE51EC81EC0
:10445000CC1EE81ED11EED1ED61EF21EDB1EF71E60
:10446000E01EFC1EE7E7EE16ECE7FE0609F4EECCD4
:10447000F8E7EF16FCE7FF0609F0CDCC82E0E7CCC9
:10448000CF93DF9380919607807F09F04DC0809194
:104490009507882309F448C0E091D50850919C08FD
:1044A000C0919107D0919007609192077091930706
:1044B00047E05E17C9F18E2F90E0E49FF0011124D0
:1044C000E356F74F2481222391F1489FF001499F41
:1044D000F00D1124DF01A356B74F11962C911197BF
:1044E0002C1325C02C912D1322C015962C911597B5
:1044F00021111DC012962D913C91261B370B283C93
:104500003105A8F4809196078F708061809396079B
:10451000ED55F74F80818F708061808380E997E04F
:104520000E94091C0E944A10DF91CF910895FC015E
:104530003196E770BECFA4E1B0E0E1EAF2E20C947C
:10454000C22C8C0186E0F801DE011F9601900D92CD
:104550008A95E1F7F8018481E58090E9A92E97E03A
:10456000B92E90919407911128C0882319F1EE205B
:10457000F1F0C8010E94D613F82E8823C1F087E01D
:10458000F801D50101900D928A95E1F78091940789
:10459000813031F480919007909191070E94C91366
:1045A0000E9440228F2D6496ECE00C94DE2CC80112
:1045B0000E94091CFF24F394F5CFD080C180828033
:1045C0009380F09095072091920730919307A40172
:1045D000421B530BFF2009F4D8C0483C510508F09A
:1045E00091C08823F9F29091910780919607282F26
:1045F000207F09F055C0C91214C090919007D912BC
:1046000010C0E11047C08F7080618093960780E9E9
:1046100097E00E94091C80919607F8018683F12C8F
:10462000C1CFE11037C06C2D8D2D0E94F6026C2D8C
:104630008D2D0E94F602E82E8111F1CFDF86C88A07
:104640008F8598890E94C913292F22952F702430B5
:1046500058F49F70223080F0992391F0F8019681F0
:10466000907F71F4FE2C9ECF2A50223068F0C80152
:104670000E94091CEF2CF6CF992311F0882391F3A7
:10468000805E8830A0F7EECF803F60F3815F83309B
:1046900070F7E8CF80919607816080939607BFCF2F
:1046A000C91207C090919007D91203C0EE2009F4F7
:1046B0008DC0C8010E94D613882309F478CFEE205C
:1046C00009F475CF80919607803288F02091900789
:1046D00030919107398728879B868A869091940725
:1046E0009C871D868E87CE0108960E94091C87E054
:1046F000F801A0E9B7E001900D928A95E1F70E94D8
:10470000402258CF90919607292F207F51F480E9BD
:1047100097E00E94091C87E0F50111928A95E9F75C
:104720007ECF882309F43ECF809191078C1110C071
:1047300080919007D8120CC0E1100AC09683C8017E
:104740000E94091C87E0F50111928A95E9F72ACFAA
:10475000C8010E94D613882309F429CFEE2009F45A
:1047600026CF80919607803210F2209190073091E9
:1047700091073A8329839C828B82909194079D8331
:104780001E828F83CE010196B0CF483C5105D0F6F2
:10479000882309F40FCFFE2CEE2009F408CF809176
:1047A00091078C1120C080919007D8121CC0809175
:1047B000960780FD0FC0982F907F61F08683903F11
:1047C00031F0982F907F905F8F70892B8683C8017E
:1047D0000E94091C87E0F801A0E9B7E001900D9262
:1047E0008A95E1F7DFCEC8010E94D61381117FCFF1
:1047F00080919607816080939607C8010E94091CEA
:10480000D1CEABE1B0E0E7E0F4E20C94CA2C4E8BE1
:104810005F8B688F798F8A8F9B8F192F91111092E0
:1048200099071D8A86E0FE017696DE011F960190AB
:104830000D928A95E1F70A8D002341F021E04F8522
:10484000588969897A89C8010E94F8130B8B1C8BDF
:1048500087E0FE013F96DE01189601900D928A9541
:10486000E1F7CE0108960E949B2281112AC087E0C1
:10487000FE013896DE01119601900D928A95E1F7BE
:104880008C858823F1F020919C0830E0C9010196C5
:10489000877099274091D5084817190659F197E074
:1048A000929FD001939FB00D1124A356B74FFE01E4
:1048B000319601900D929A95E1F780939C080E94A1
:1048C0004A1017E08091D50890919C088917F9F05B
:1048D000819FC00111248356974F0E949B228823F9
:1048E000B1F08091D50890E0019687709927809368
:1048F000D508E8CF0E949C1610929C081092D5080B
:1049000087E0E0E9F7E0DF011D928A95E9F76B9611
:10491000E4E00C94E62CA6E0B0E0E1E9F4E20C94CB
:10492000CA2C0E947D048C018091C3079091C4071A
:104930008017910781F019821A820E947D04682FE6
:1049400049815A81792F80E090E00E9401241093E0
:10495000C4070093C3072696E4E00C94E62C1F924C
:104960000F920FB60F9211242F933F934F935F93A3
:104970006F937F938F939F93AF93BF93CF93EF9357
:10498000FF93C091E900CF708091EC001092E90094
:104990008091F000877F8093F00078940E94CD167C
:1049A0001092E9008091F00088608093F000C0933D
:1049B000E900FF91EF91CF91BF91AF919F918F91BE
:1049C0007F916F915F914F913F912F910F900FBE0B
:1049D0000F901F9018951F920F920FB60F921124EF
:1049E0002F933F934F935F936F937F938F939F93F7
:1049F000AF93BF93EF93FF938091E10082FF09C0D3
:104A00008091E20082FF05C08091E1008B7F80935E
:104A1000E1008091DA0080FF24C08091D80080FFFF
:104A200020C08091DA008E7F8093DA008091D900D7
:104A300080FFA9C080E189BD82E189BD09B400FE83
:104A4000FDCF81E08093920880918708811109C091
:104A50000E9415030E94B4038091E2008460809359
:104A6000E2008091E10080FF1AC08091E20080FFA7
:104A700016C08091E2008E7F8093E2008091E20078
:104A800080618093E2008091D80080628093D8009A
:104A900019BC85E08093920883E080931001809197
:104AA000E10084FF2FC08091E20084FF2BC080E1F1
:104AB00089BD82E189BD09B400FEFDCF8091D80097
:104AC0008F7D8093D8008091E1008F7E8093E100FC
:104AD0008091E2008F7E8093E2008091E20081600D
:104AE0008093E20080919308882309F452C084E007
:104AF0008093920880919208843009F452C081E03A
:104B0000809310018091E10083FF2CC08091E2002E
:104B100083FF28C08091E100877F8093E10082E0DD
:104B200080939208109293088091E1008E7F809389
:104B3000E1008091E2008E7F8093E2008091E200AC
:104B400080618093E20042E060E080E00E948203A6
:104B50008091F00088608093F00081E080931001E4
:104B600080930F01FF91EF91BF91AF919F918F9132
:104B70007F916F915F914F913F912F910F900FBE59
:104B80000F901F90189519BC1092920810928708E8
:104B900068CF8091E30087FD02C081E0A9CF83E068
:104BA000A7CF82E0ADCF78941F920F920FB60F92ED
:104BB00011248F939F93AF93BF938091830890911B
:104BC0008408A0918508B09186080196A11DB11DA9
:104BD0008093830890938408A0938508B0938608F7
:104BE000BF91AF919F918F910F900FBE0F901F902B
:104BF00018951F920F920FB60F9211248F939F93C7
:104C0000AF93BF9380918208811113C08091830874
:104C100090918408A0918508B09186084196A11DC5
:104C2000B11D8093830890938408A0938508B09366
:104C30008608BF91AF919F918F910F900FBE0F90FB
:104C40001F901895AAE2B0E0E8E2F6E20C94BC2CC2
:104C500085B7806885BF85B7806885BF84B7877F43
:104C600084BF0FB6F894A895809160008861809306
:104C70006000109260000FBE80E890E00FB6F894DC
:104C800080936100909361000FBE81E080931001DA
:104C90008BEF9DE090935907809358070E9415036E
:104CA0000E94B4038091E20084608093E2007894D3
:104CB00080919208882399F01091E9001F708091EB
:104CC000EC0080FFDAC080E8182B1092E900809198
:104CD000E80083FD0E94CD161F701093E90082E06A
:104CE00084BD93E095BD9AEF97BD80936E000E94BE
:104CF0004413811102C00E9434130AEB16E02FEB1B
:104D0000E22E26E0F22ED8018D918D018F3F11F019
:104D10000E94FD0DE016F106B1F70FEB16E0F80169
:104D200081918F018F3F11F00E94FD0DF6E0043C50
:104D30001F07A9F785E0E5EDF7E0DF01282F1D92B9
:104D40002A95E9F7E8ECF7E0DF011D928A95E9F78B
:104D500090E080E00E942E2C853E9E4F21F40E9420
:104D60004413811163C065EE7EEF90E080E00E9405
:104D7000622C60E082E090E00E94442C81E080930D
:104D8000CD0761E083E090E00E94442C60E074E194
:104D900084E090E00E94622C60E086E090E00E9457
:104DA000442C60E087E090E00E94442C40E050E01A
:104DB000BA0188E090E00E94562C60E083E290E027
:104DC0000E94442C60E08CE090E00E94442C60E063
:104DD0008DE090E00E94442C19821A821B821C8272
:104DE0001D821E821F82188648E050E067E170E055
:104DF000CE0101960E94342C40E050E0BA018FE1D0
:104E000090E00E94562C80E00E94B1120E94341360
:104E100040E050E0BA018FE090E00E94562C40E064
:104E200050E0BA0183E190E00E94562C82E090E0CD
:104E30000E94262C8093CE0784E090E00E942E2CC6
:104E400090938108809380080E949B15EFEFF6E70E
:104E500021E0E150F0402040E1F700C000000E9456
:104E60009B158091D50780FF0AC06FEF7FEF90E020
:104E700080E00E94622C0E94681280E025CF83E0CF
:104E800090E00E94262C0E9412110E94D1051092DF
:104E9000E2088FEF9FEF9093FC088093FB089093BC
:104EA000FE088093FD08909300098093FF0890937B
:104EB0000209809301099093040980930309909358
:104EC0000609809305099093080980930709909338
:104ED0000A09809309091092DA079093F4078093E6
:104EE000F3079093F6078093F5079093F807809364
:104EF000F7079093FA078093F9079093FC07809344
:104F0000FB079093FE078093FD0790930008809322
:104F1000FF07909302088093010881E080930908BD
:104F200048E050E067E170E08AED98E00E94162CBE
:104F3000109209088091DA088C7FB9F485E4809397
:104F4000DA088091260190912701A0912801809391
:104F5000DB089093DC08A093DD088FE78093DE08E0
:104F60008FEF8093DF080E941D1480E091E0909302
:104F70007D0880937C08DD24D394772473948091FA
:104F80009208853089F410E403E080E1F82E92E184
:104F9000E92E80919208853009F49DC00E949C16EC
:104FA0000E943405109208080E949B15EFECF7E070
:104FB000F8A7EFA385ED97E09AA789A7DC01919167
:104FC0008D9127E0E43DF20709F4CFC09817B9F3BB
:104FD0001BED812E16E0912E512CA9A5BAA54D905E
:104FE000BAA7A9A7EFA1F8A52190F8A7EFA32414C9
:104FF00009F4BAC1F12CE12C332433942424822DFA
:10500000832109F4A4C1142D1321E9A25AA20E94FC
:105010007D049CA38BA37DA291E0111101C090E0BF
:105020009EA349A15AA16BA17CA18DA10E9401243C
:10503000112309F470C1F401EE0DFF1D80818F3F33
:1050400009F469C1C82E66246394062D10E080918E
:10505000DA07800F912F911D09976CF1F8E0AF2EC0
:10506000B12CA01AB10AB8016552784FA5018BED99
:1050700097E00E943D2DB8016D51784FA50183EE58
:1050800097E00E943D2DA501440F551FB801660F02
:10509000771F6D50784F83EF97E00E943D2DB80148
:1050A0006551784FA5018BEE97E00E943D2D88E079
:1050B00086198093DA078091DA0790E0AC2DB0E092
:1050C0009D01220F331F2C50394FAA0FBB1FBD016A
:1050D0006B50794F36C180919208843009F438C002
:1050E0000E9428148091080881110DC00E94010CB3
:1050F00010920B018091DA08837080930A010E945C
:105100008C1200930C01D09208081092820888E15A
:1051100090E00FB6F894A895809360000FBE1093AE
:10512000600083B7817F846083BF83B7816083BF62
:105130007894889583B78E7F83BF0FB6F894A8952F
:1051400080916000886180936000109260000FBEC3
:105150000E949B15E5EDF7E08191811126C3AAED30
:10516000B7E0AE17BF07C1F714CF981331CF0E9435
:105170008B240E94281486E0E4E7F8E08E010F5F9C
:105180001F4FD80101900D928A95E1F78090750824
:10519000A0907608B0907708E0907808F0907908B1
:1051A0001092760810927708109278081092790879
:1051B000A11003C0BB2009F445C0809172089091F2
:1051C00073080E946E049C0190916D08992309F464
:1051D0000FC325313105B0F19F3F19F09F5F9093C8
:1051E0006D08AA2059F00E948D0591E01A140CF068
:1051F0009FEF899F802D112480937608BB2059F062
:105200000E948D059FEF1B140CF491E0899F802D67
:1052100011248093770880917608882399F09090E4
:105220007708992079F00E94AD05882309F4AFC072
:1052300080937608892D0E94AD05882309F4AAC0C1
:1052400080937708E11003C0FF2009F445C08091E6
:105250007008909171080E946E049C0190916E08F4
:10526000992309F4CAC221353105B0F19F3F19F0E5
:105270009F5F90936E08EE2059F00E946B0591E0BD
:105280001E140CF09FEF899F802D112480937808C5
:10529000FF2059F00E946B059FEF1F140CF491E062
:1052A000899F802D11248093790880917808882324
:1052B00099F090907908992079F00E94AD058823A3
:1052C00009F46BC080937808892D0E94AD0588236E
:1052D00009F466C08093790880917508881163C0CD
:1052E00080917608882311F08A115DC0809177083B
:1052F000882311F08B1157C080917908882311F011
:10530000F81251C090917808992319F081E09E110C
:105310004BC080E049C0612C98CE90E0FC01E65281
:10532000F84FD9015C915183DB015C915187C18AAF
:10533000880F991FFC01E652F84F128E118E91E0F2
:10534000842F41E0480F961540F38093DA07330C21
:10535000BFEFEB1AFB0AE5E0EE16F10409F04FCEC1
:10536000EFA1F8A5319740825394F5E08F0E911C80
:1053700025E0521232CE8FB7F894409183085091B5
:10538000840860918508709186088FBFF2CED09214
:10539000760850CFD092770855CFD092780894CF26
:1053A000D092790899CF81E080FD13C08091760872
:1053B000811168C080917708811164C0809178085C
:1053C000811160C081E090917908911101C080E065
:1053D00080FD0E94410586E0F801A4E7B8E0019055
:1053E0000D928A95E1F70E9434059091D4078917B0
:1053F00069F08093D4078FB7F89440918308509157
:10540000840860918508709186088FBF809192080A
:10541000843009F0B4CD83E08093E9008091E80006
:1054200082FFADCD8091E80090E085FF05C00E942D
:105430003403882349F191E08091E8008B778093D1
:10544000E800992309F49BCD8981EFEFE80FE33160
:1054500008F041C0F0E0E15DF54D0C94AF2C602AFE
:10546000642AA62ABB2AC12ACC2ACF2ACF2ACF2A2D
:105470006B2A6B2A3B2B3E2B422B682B8A2B8D2BC6
:105480008F2BB42B81E0A4CF80E2A82EB12C780121
:105490008091E80085FD0AC08091E8008B778093B9
:1054A000E8000E943403882399F3C5CF8091F1006E
:1054B000D7018D937D01B1E0AB1AB10849F7BBCF9D
:1054C0001A828CE08B833BC08A81823009F488C1C8
:1054D00028F4813061F08FEF898331C08330B9F0D7
:1054E0008430C9F71B821C821D821E8228C02FB700
:1054F000F8948091830890918408A0918508B091D8
:1055000086082FBFBB83AC839D838E8318C06B81BD
:10551000DE01149690E080E0262F30E0A901480FCC
:10552000591F4530510558F4E62FE80FF0E0EB52D3
:10553000F84F40814D9301968C31910579F740E207
:1055400050E0B80182E00E94041219CD8A818230B5
:1055500039F0853009F0BFCF80E00E940708EFCF17
:105560006B817C818D819E810E94B52C87E290E0C9
:105570000E94442CE4CF4C816B818A810E945D1390
:10558000C3CF2D813E813227232732274C816B8167
:105590008A810E94DA12D3CF0E940113D0CF9A8160
:1055A000933009F098CF8830B1F1893009F460C0A8
:1055B0008B818230E1F080F4813009F64C8128EC57
:1055C000429F412D11248091DB0820E06091DC088E
:1055D00090E00E947A07B3CF8330B1F0843009F0B5
:1055E000AECF8C8120E04091DD086D81F1CF8C81C0
:1055F000811103C00E94FF05A2CF0E940B0660E04C
:105600008C810E94D9079BCF8C818093DE0880E03B
:105610000E945C0794CF8B818230E1F078F4813076
:1056200009F08DCF8091DD08EFEF8E9FC00111242E
:1056300068EC70E00E94682C6C8381CF8330A9F005
:10564000843009F07CCF8091DB088C838091DC086A
:105650008D8375CF8091DA08982F93708695869503
:10566000911101C080E08C836ACF8091DE08FBCF6E
:105670000E941D1464CF80E18A8361CF82E08A8317
:105680008CEA20CFEA80FB80FE24EF24FE248C806D
:10569000912C5801C7018C5A9E4F9501201B310B4C
:1056A0002815390508F04BCFFCEAEF16F2E0FF06AB
:1056B00060F40E94262CD50114968C93FFEFEF1A0C
:1056C000FF0A2FEFA21AB20AE5CFF5011482F6CF36
:1056D000AA80BB80BA24AB24BA248C80912C75019B
:1056E000C7018C5A9E4F97012A193B092815390585
:1056F00008F025CF4CEAE41642E0F40638F4200F17
:10570000311FD90114966C910E94442CBFEFEB1A03
:10571000FB0AE6CF0E94CA1212CF86E0ADCFEA8024
:10572000FB80FE24EF24FE248C80912C5801C701BD
:1057300088969501201B310B2815390508F0FFCEFE
:10574000ECE2EE16E1E0FE0660F40E94262CD501A4
:1057500014968C93FFEFEF1AFF0A2FEFA21AB20AEA
:10576000E6CFF5011482F6CFAA80BB80BA24AB2421
:10577000BA248C80912C7501C701889697012A194B
:105780003B092815390508F0DACE4CE2E41641E071
:10579000F40638F4200F311FD90114966C910E9441
:1057A000442CBFEFEB1AFB0AE7CF809191088823C6
:1057B00009F4EFCBF9BCE9BC09B400FEFDCF809140
:1057C000D8008F7D8093D8008091E0008260809324
:1057D000E0008091E00081FDFCCF0E949C16D9CBB7
:1057E00087E290E00E94262C1B821C821D828DCEB7
:1057F0002B30310508F0F2CC25CD2B30310508F0E7
:1058000037CD6ACDDC01FB014150504058F049F0E2
:1058100001900D920020C1F7E61BF70B3197CF01E5
:1058200008951C9201900020E9F7F6CFDC01CB012E
:10583000FC01F999FECF06C0F2BDE1BDF89A3196A0
:1058400000B40D9241505040B8F70895F999FECF39
:1058500092BD81BDF89A992780B50895A8E1B0E07E
:1058600042E050E00C94182CDC01A40FB51F41500D
:10587000504048F0CB01840F951F2E910E94452C7B
:1058800041505040D0F70895262FF999FECF92BD90
:1058900081BDF89A019700B4021639F01FBA20BDF5
:1058A0000FB6F894FA9AF99A0FBE08950396272F27
:1058B0000E94452C0E94442C252F0E94452C242F09
:1058C0000C94452C0196272F0E94452C0C94442CB7
:1058D000AA1BBB1B51E107C0AA1FBB1FA617B70716
:1058E00010F0A61BB70B881F991F5A95A9F7809532
:1058F0009095BC01CD01089597FB072E16F40094F6
:1059000007D077FD09D00E94682C07FC05D03EF433
:10591000909581959F4F0895709561957F4F08955B
:10592000052E97FB1EF400940E94A72C57FD07D06C
:105930000E94F32C07FC03D04EF40C94A72C509536
:105940004095309521953F4F4F4F5F4F089590956B
:105950008095709561957F4F8F4F9F4F0895EE0F03
:10596000FF1F0590F491E02D099469279627692778
:1059700078278727782708952F923F924F925F923A
:105980006F927F928F929F92AF92BF92CF92DF924F
:10599000EF92FF920F931F93CF93DF93CDB7DEB7B4
:1059A000CA1BDB0B0FB6F894DEBF0FBECDBF099448
:1059B0002A88398848885F846E847D848C849B849F
:1059C000AA84B984C884DF80EE80FD800C811B81AD
:1059D000AA81B981CE0FD11D0FB6F894DEBF0FBEDC
:1059E000CDBFED010895A1E21A2EAA1BBB1BFD013C
:1059F0000DC0AA1FBB1FEE1FFF1FA217B307E407AE
:105A0000F50720F0A21BB30BE40BF50B661F771F05
:105A1000881F991F1A9469F76095709580959095E5
:105A20009B01AC01BD01CF01089585FD0C94502F61
:105A3000806291110C94502F81568A51D8F70895A5
:105A40009111089581548A5108F4805E855A089511
:105A50009111089581568A5108F48052855808950D
:105A6000FB01DC0104C08D910190801921F44150AB
:105A70005040C8F7881B990B0895FB01DC0102C058
:105A800001900D9241505040D8F70895AEE0B0E03B
:105A9000ECE4FDE20C94CA2C0D891E898F89988D47
:105AA00026E02C831A83098397FF02C080E090E8E8
:105AB00001979E838D83AE01455E5F4F698D7A8D20
:105AC000CE0101960E94762D4D815E8157FD0AC060
:105AD0002F813885421753070CF49A01020F131FC8
